{
	"AppFood/AppFoodWEB3/gastroAppLojas.sol": {
		"lojasApp": {
			"abi": [
				{
					"anonymous": false,
					"inputs": [
						{
							"indexed": false,
							"internalType": "string",
							"name": "nomeProduto",
							"type": "string"
						},
						{
							"indexed": false,
							"internalType": "uint256",
							"name": "quantidade",
							"type": "uint256"
						}
					],
					"name": "AlimentoAdicionado",
					"type": "event"
				},
				{
					"anonymous": false,
					"inputs": [
						{
							"indexed": false,
							"internalType": "string",
							"name": "nomeProduto",
							"type": "string"
						},
						{
							"indexed": false,
							"internalType": "uint256",
							"name": "quantidade",
							"type": "uint256"
						}
					],
					"name": "BebidaAdicionada",
					"type": "event"
				},
				{
					"anonymous": false,
					"inputs": [
						{
							"indexed": false,
							"internalType": "string",
							"name": "_nomeProduto",
							"type": "string"
						},
						{
							"indexed": false,
							"internalType": "uint256",
							"name": "_quantidade",
							"type": "uint256"
						}
					],
					"name": "alimentoVendido",
					"type": "event"
				},
				{
					"anonymous": false,
					"inputs": [],
					"name": "carregamentoFotoCompleto",
					"type": "event"
				},
				{
					"anonymous": false,
					"inputs": [],
					"name": "carregamentoReelscompleto",
					"type": "event"
				},
				{
					"anonymous": false,
					"inputs": [],
					"name": "criouEnd",
					"type": "event"
				},
				{
					"anonymous": false,
					"inputs": [],
					"name": "editouPerfil",
					"type": "event"
				},
				{
					"inputs": [
						{
							"internalType": "string",
							"name": "_nomeProduto",
							"type": "string"
						},
						{
							"internalType": "string",
							"name": "_tipoProduto",
							"type": "string"
						},
						{
							"internalType": "string",
							"name": "_descricao",
							"type": "string"
						},
						{
							"internalType": "uint256",
							"name": "_validade",
							"type": "uint256"
						},
						{
							"internalType": "uint256",
							"name": "_valor",
							"type": "uint256"
						},
						{
							"internalType": "uint256",
							"name": "_quantidade",
							"type": "uint256"
						}
					],
					"name": "addAlimento",
					"outputs": [],
					"stateMutability": "nonpayable",
					"type": "function"
				},
				{
					"inputs": [
						{
							"internalType": "string",
							"name": "_nomeProduto",
							"type": "string"
						},
						{
							"internalType": "string",
							"name": "_tipoProduto",
							"type": "string"
						},
						{
							"internalType": "string",
							"name": "_descricao",
							"type": "string"
						},
						{
							"internalType": "uint256",
							"name": "_validade",
							"type": "uint256"
						},
						{
							"internalType": "uint256",
							"name": "_valor",
							"type": "uint256"
						},
						{
							"internalType": "uint256",
							"name": "_quantidade",
							"type": "uint256"
						}
					],
					"name": "addbebidas",
					"outputs": [],
					"stateMutability": "nonpayable",
					"type": "function"
				},
				{
					"inputs": [],
					"name": "comprarPerfil",
					"outputs": [
						{
							"internalType": "bool",
							"name": "",
							"type": "bool"
						}
					],
					"stateMutability": "payable",
					"type": "function"
				},
				{
					"inputs": [
						{
							"internalType": "string",
							"name": "_nome",
							"type": "string"
						},
						{
							"internalType": "string",
							"name": "_bio",
							"type": "string"
						},
						{
							"internalType": "string",
							"name": "_tipo",
							"type": "string"
						},
						{
							"internalType": "string",
							"name": "_foto",
							"type": "string"
						},
						{
							"internalType": "string",
							"name": "_linkExterno",
							"type": "string"
						},
						{
							"internalType": "uint256",
							"name": "_idade",
							"type": "uint256"
						}
					],
					"name": "criarPerfilLoja",
					"outputs": [],
					"stateMutability": "nonpayable",
					"type": "function"
				},
				{
					"inputs": [
						{
							"internalType": "string",
							"name": "_nomeProduto",
							"type": "string"
						}
					],
					"name": "estoqueAlimentos",
					"outputs": [
						{
							"internalType": "string",
							"name": "",
							"type": "string"
						},
						{
							"internalType": "string",
							"name": "",
							"type": "string"
						},
						{
							"internalType": "string",
							"name": "",
							"type": "string"
						},
						{
							"internalType": "uint256",
							"name": "",
							"type": "uint256"
						},
						{
							"internalType": "uint256",
							"name": "",
							"type": "uint256"
						},
						{
							"internalType": "uint256",
							"name": "",
							"type": "uint256"
						}
					],
					"stateMutability": "view",
					"type": "function"
				},
				{
					"inputs": [
						{
							"internalType": "string",
							"name": "_nomeProduto",
							"type": "string"
						}
					],
					"name": "estoqueBebidas",
					"outputs": [
						{
							"internalType": "string",
							"name": "",
							"type": "string"
						},
						{
							"internalType": "string",
							"name": "",
							"type": "string"
						},
						{
							"internalType": "string",
							"name": "",
							"type": "string"
						},
						{
							"internalType": "uint256",
							"name": "",
							"type": "uint256"
						},
						{
							"internalType": "uint256",
							"name": "",
							"type": "uint256"
						},
						{
							"internalType": "uint256",
							"name": "",
							"type": "uint256"
						}
					],
					"stateMutability": "view",
					"type": "function"
				},
				{
					"inputs": [],
					"name": "perfilComprado",
					"outputs": [
						{
							"internalType": "bool",
							"name": "",
							"type": "bool"
						}
					],
					"stateMutability": "view",
					"type": "function"
				},
				{
					"inputs": [
						{
							"internalType": "string",
							"name": "_nomeProduto",
							"type": "string"
						},
						{
							"internalType": "uint256",
							"name": "_quantidade",
							"type": "uint256"
						}
					],
					"name": "venderAlimento",
					"outputs": [],
					"stateMutability": "nonpayable",
					"type": "function"
				},
				{
					"inputs": [
						{
							"internalType": "string",
							"name": "_nomeProduto",
							"type": "string"
						},
						{
							"internalType": "uint256",
							"name": "_quantidade",
							"type": "uint256"
						}
					],
					"name": "venderBebida",
					"outputs": [],
					"stateMutability": "nonpayable",
					"type": "function"
				}
			],
			"devdoc": {
				"kind": "dev",
				"methods": {},
				"version": 1
			},
			"evm": {
				"assembly": "    /* \"AppFood/AppFoodWEB3/gastroAppLojas.sol\":98:5322  contract lojasApp is FuncoesApp {... */\n  mstore(0x40, 0x80)\n    /* \"AppFood/AppFoodWEB3/gastroAppFuncoes.sol\":355:361  10 wei */\n  0x0a\n    /* \"AppFood/AppFoodWEB3/gastroAppFuncoes.sol\":327:361  uint internal valorPerfil = 10 wei */\n  0x04\n  sstore\n    /* \"AppFood/AppFoodWEB3/gastroAppFuncoes.sol\":397:402  false */\n  0x00\n    /* \"AppFood/AppFoodWEB3/gastroAppFuncoes.sol\":368:402  bool public perfilComprado = false */\n  0x05\n  exp(0x0100, 0x00)\n  dup2\n  sload\n  dup2\n  0xff\n  mul\n  not\n  and\n  swap1\n  dup4\n  iszero\n  iszero\n  mul\n  or\n  swap1\n  sstore\n  pop\n    /* \"AppFood/AppFoodWEB3/gastroAppLojas.sol\":98:5322  contract lojasApp is FuncoesApp {... */\n  callvalue\n  dup1\n  iszero\n  tag_1\n  jumpi\n  0x00\n  dup1\n  revert\ntag_1:\n  pop\n  dataSize(sub_0)\n  dup1\n  dataOffset(sub_0)\n  0x00\n  codecopy\n  0x00\n  return\nstop\n\nsub_0: assembly {\n        /* \"AppFood/AppFoodWEB3/gastroAppLojas.sol\":98:5322  contract lojasApp is FuncoesApp {... */\n      mstore(0x40, 0x80)\n      jumpi(tag_1, lt(calldatasize, 0x04))\n      shr(0xe0, calldataload(0x00))\n      dup1\n      0x53184f56\n      gt\n      tag_11\n      jumpi\n      dup1\n      0x53184f56\n      eq\n      tag_6\n      jumpi\n      dup1\n      0x90628e69\n      eq\n      tag_7\n      jumpi\n      dup1\n      0xc1bde161\n      eq\n      tag_8\n      jumpi\n      dup1\n      0xd2b18e3e\n      eq\n      tag_9\n      jumpi\n      dup1\n      0xee2f1907\n      eq\n      tag_10\n      jumpi\n      jump(tag_1)\n    tag_11:\n      dup1\n      0x1f535563\n      eq\n      tag_2\n      jumpi\n      dup1\n      0x295ebe2c\n      eq\n      tag_3\n      jumpi\n      dup1\n      0x396555ad\n      eq\n      tag_4\n      jumpi\n      dup1\n      0x5245d1d0\n      eq\n      tag_5\n      jumpi\n    tag_1:\n      0x00\n      dup1\n      revert\n        /* \"AppFood/AppFoodWEB3/gastroAppLojas.sol\":1460:1962  function estoqueBebidas(string memory _nomeProduto) public view returns(string memory, string memory, string memory, uint, uint, uint) {... */\n    tag_2:\n      callvalue\n      dup1\n      iszero\n      tag_12\n      jumpi\n      0x00\n      dup1\n      revert\n    tag_12:\n      pop\n      tag_13\n      0x04\n      dup1\n      calldatasize\n      sub\n      dup2\n      add\n      swap1\n      tag_14\n      swap2\n      swap1\n      tag_15\n      jump\t// in\n    tag_14:\n      tag_16\n      jump\t// in\n    tag_13:\n      mload(0x40)\n      tag_17\n      swap7\n      swap6\n      swap5\n      swap4\n      swap3\n      swap2\n      swap1\n      tag_18\n      jump\t// in\n    tag_17:\n      mload(0x40)\n      dup1\n      swap2\n      sub\n      swap1\n      return\n        /* \"AppFood/AppFoodWEB3/gastroAppLojas.sol\":2649:2969  function criarPerfilLoja(string memory _nome, string memory _bio, string memory _tipo, string memory _foto, string memory _linkExterno, uint _idade) public donoPerfilmod() {... */\n    tag_3:\n      callvalue\n      dup1\n      iszero\n      tag_19\n      jumpi\n      0x00\n      dup1\n      revert\n    tag_19:\n      pop\n      tag_20\n      0x04\n      dup1\n      calldatasize\n      sub\n      dup2\n      add\n      swap1\n      tag_21\n      swap2\n      swap1\n      tag_22\n      jump\t// in\n    tag_21:\n      tag_23\n      jump\t// in\n    tag_20:\n      stop\n        /* \"AppFood/AppFoodWEB3/gastroAppFuncoes.sol\":368:402  bool public perfilComprado = false */\n    tag_4:\n      callvalue\n      dup1\n      iszero\n      tag_24\n      jumpi\n      0x00\n      dup1\n      revert\n    tag_24:\n      pop\n      tag_25\n      tag_26\n      jump\t// in\n    tag_25:\n      mload(0x40)\n      tag_27\n      swap2\n      swap1\n      tag_28\n      jump\t// in\n    tag_27:\n      mload(0x40)\n      dup1\n      swap2\n      sub\n      swap1\n      return\n        /* \"AppFood/AppFoodWEB3/gastroAppLojas.sol\":3655:4123  function venderBebida(string memory _nomeProduto, uint _quantidade) public donoPerfilmod() {... */\n    tag_5:\n      callvalue\n      dup1\n      iszero\n      tag_29\n      jumpi\n      0x00\n      dup1\n      revert\n    tag_29:\n      pop\n      tag_30\n      0x04\n      dup1\n      calldatasize\n      sub\n      dup2\n      add\n      swap1\n      tag_31\n      swap2\n      swap1\n      tag_32\n      jump\t// in\n    tag_31:\n      tag_33\n      jump\t// in\n    tag_30:\n      stop\n        /* \"AppFood/AppFoodWEB3/gastroAppLojas.sol\":4824:5319  function venderAlimento(string memory _nomeProduto, uint _quantidade) public donoPerfilmod() {... */\n    tag_6:\n      callvalue\n      dup1\n      iszero\n      tag_34\n      jumpi\n      0x00\n      dup1\n      revert\n    tag_34:\n      pop\n      tag_35\n      0x04\n      dup1\n      calldatasize\n      sub\n      dup2\n      add\n      swap1\n      tag_36\n      swap2\n      swap1\n      tag_32\n      jump\t// in\n    tag_36:\n      tag_37\n      jump\t// in\n    tag_35:\n      stop\n        /* \"AppFood/AppFoodWEB3/gastroAppLojas.sol\":274:475  function comprarPerfil() public payable returns(bool) {... */\n    tag_7:\n      tag_38\n      tag_39\n      jump\t// in\n    tag_38:\n      mload(0x40)\n      tag_40\n      swap2\n      swap1\n      tag_28\n      jump\t// in\n    tag_40:\n      mload(0x40)\n      dup1\n      swap2\n      sub\n      swap1\n      return\n        /* \"AppFood/AppFoodWEB3/gastroAppLojas.sol\":1970:2491  function estoqueAlimentos(string memory _nomeProduto) public view returns (string memory, string memory, string memory, uint, uint, uint) {... */\n    tag_8:\n      callvalue\n      dup1\n      iszero\n      tag_41\n      jumpi\n      0x00\n      dup1\n      revert\n    tag_41:\n      pop\n      tag_42\n      0x04\n      dup1\n      calldatasize\n      sub\n      dup2\n      add\n      swap1\n      tag_43\n      swap2\n      swap1\n      tag_15\n      jump\t// in\n    tag_43:\n      tag_44\n      jump\t// in\n    tag_42:\n      mload(0x40)\n      tag_45\n      swap7\n      swap6\n      swap5\n      swap4\n      swap3\n      swap2\n      swap1\n      tag_18\n      jump\t// in\n    tag_45:\n      mload(0x40)\n      dup1\n      swap2\n      sub\n      swap1\n      return\n        /* \"AppFood/AppFoodWEB3/gastroAppLojas.sol\":4281:4816  function addAlimento(string memory _nomeProduto, string memory _tipoProduto, string memory _descricao, uint _validade, uint _valor, uint _quantidade) public donoPerfilmod() {... */\n    tag_9:\n      callvalue\n      dup1\n      iszero\n      tag_46\n      jumpi\n      0x00\n      dup1\n      revert\n    tag_46:\n      pop\n      tag_47\n      0x04\n      dup1\n      calldatasize\n      sub\n      dup2\n      add\n      swap1\n      tag_48\n      swap2\n      swap1\n      tag_49\n      jump\t// in\n    tag_48:\n      tag_50\n      jump\t// in\n    tag_47:\n      stop\n        /* \"AppFood/AppFoodWEB3/gastroAppLojas.sol\":3127:3647  function addbebidas(string memory _nomeProduto, string memory _tipoProduto, string memory _descricao, uint _validade, uint _valor, uint _quantidade) public donoPerfilmod() {... */\n    tag_10:\n      callvalue\n      dup1\n      iszero\n      tag_51\n      jumpi\n      0x00\n      dup1\n      revert\n    tag_51:\n      pop\n      tag_52\n      0x04\n      dup1\n      calldatasize\n      sub\n      dup2\n      add\n      swap1\n      tag_53\n      swap2\n      swap1\n      tag_49\n      jump\t// in\n    tag_53:\n      tag_54\n      jump\t// in\n    tag_52:\n      stop\n        /* \"AppFood/AppFoodWEB3/gastroAppLojas.sol\":1460:1962  function estoqueBebidas(string memory _nomeProduto) public view returns(string memory, string memory, string memory, uint, uint, uint) {... */\n    tag_16:\n        /* \"AppFood/AppFoodWEB3/gastroAppLojas.sol\":1532:1545  string memory */\n      0x60\n        /* \"AppFood/AppFoodWEB3/gastroAppLojas.sol\":1547:1560  string memory */\n      dup1\n        /* \"AppFood/AppFoodWEB3/gastroAppLojas.sol\":1562:1575  string memory */\n      0x60\n        /* \"AppFood/AppFoodWEB3/gastroAppLojas.sol\":1577:1581  uint */\n      0x00\n        /* \"AppFood/AppFoodWEB3/gastroAppLojas.sol\":1583:1587  uint */\n      dup1\n        /* \"AppFood/AppFoodWEB3/gastroAppLojas.sol\":1589:1593  uint */\n      0x00\n        /* \"AppFood/AppFoodWEB3/gastroAppLojas.sol\":1606:1628  Bebidas memory produto */\n      dup1\n        /* \"AppFood/AppFoodWEB3/gastroAppLojas.sol\":1631:1641  mapBebidas */\n      0x0b\n        /* \"AppFood/AppFoodWEB3/gastroAppLojas.sol\":1642:1654  _nomeProduto */\n      dup9\n        /* \"AppFood/AppFoodWEB3/gastroAppLojas.sol\":1631:1655  mapBebidas[_nomeProduto] */\n      mload(0x40)\n      tag_56\n      swap2\n      swap1\n      tag_57\n      jump\t// in\n    tag_56:\n      swap1\n      dup2\n      mstore\n      0x20\n      add\n      mload(0x40)\n      dup1\n      swap2\n      sub\n      swap1\n      keccak256\n        /* \"AppFood/AppFoodWEB3/gastroAppLojas.sol\":1606:1655  Bebidas memory produto = mapBebidas[_nomeProduto] */\n      mload(0x40)\n      dup1\n      0x20\n      add\n      0x40\n      mstore\n      swap1\n      dup2\n      0x00\n      dup3\n      add\n      mload(0x40)\n      dup1\n      0xc0\n      add\n      0x40\n      mstore\n      swap1\n      dup2\n      0x00\n      dup3\n      add\n      dup1\n      sload\n      tag_58\n      swap1\n      tag_59\n      jump\t// in\n    tag_58:\n      dup1\n      0x1f\n      add\n      0x20\n      dup1\n      swap2\n      div\n      mul\n      0x20\n      add\n      mload(0x40)\n      swap1\n      dup2\n      add\n      0x40\n      mstore\n      dup1\n      swap3\n      swap2\n      swap1\n      dup2\n      dup2\n      mstore\n      0x20\n      add\n      dup3\n      dup1\n      sload\n      tag_60\n      swap1\n      tag_59\n      jump\t// in\n    tag_60:\n      dup1\n      iszero\n      tag_61\n      jumpi\n      dup1\n      0x1f\n      lt\n      tag_62\n      jumpi\n      0x0100\n      dup1\n      dup4\n      sload\n      div\n      mul\n      dup4\n      mstore\n      swap2\n      0x20\n      add\n      swap2\n      jump(tag_61)\n    tag_62:\n      dup3\n      add\n      swap2\n      swap1\n      0x00\n      mstore\n      keccak256(0x00, 0x20)\n      swap1\n    tag_63:\n      dup2\n      sload\n      dup2\n      mstore\n      swap1\n      0x01\n      add\n      swap1\n      0x20\n      add\n      dup1\n      dup4\n      gt\n      tag_63\n      jumpi\n      dup3\n      swap1\n      sub\n      0x1f\n      and\n      dup3\n      add\n      swap2\n    tag_61:\n      pop\n      pop\n      pop\n      pop\n      pop\n      dup2\n      mstore\n      0x20\n      add\n      0x01\n      dup3\n      add\n      dup1\n      sload\n      tag_64\n      swap1\n      tag_59\n      jump\t// in\n    tag_64:\n      dup1\n      0x1f\n      add\n      0x20\n      dup1\n      swap2\n      div\n      mul\n      0x20\n      add\n      mload(0x40)\n      swap1\n      dup2\n      add\n      0x40\n      mstore\n      dup1\n      swap3\n      swap2\n      swap1\n      dup2\n      dup2\n      mstore\n      0x20\n      add\n      dup3\n      dup1\n      sload\n      tag_65\n      swap1\n      tag_59\n      jump\t// in\n    tag_65:\n      dup1\n      iszero\n      tag_66\n      jumpi\n      dup1\n      0x1f\n      lt\n      tag_67\n      jumpi\n      0x0100\n      dup1\n      dup4\n      sload\n      div\n      mul\n      dup4\n      mstore\n      swap2\n      0x20\n      add\n      swap2\n      jump(tag_66)\n    tag_67:\n      dup3\n      add\n      swap2\n      swap1\n      0x00\n      mstore\n      keccak256(0x00, 0x20)\n      swap1\n    tag_68:\n      dup2\n      sload\n      dup2\n      mstore\n      swap1\n      0x01\n      add\n      swap1\n      0x20\n      add\n      dup1\n      dup4\n      gt\n      tag_68\n      jumpi\n      dup3\n      swap1\n      sub\n      0x1f\n      and\n      dup3\n      add\n      swap2\n    tag_66:\n      pop\n      pop\n      pop\n      pop\n      pop\n      dup2\n      mstore\n      0x20\n      add\n      0x02\n      dup3\n      add\n      dup1\n      sload\n      tag_69\n      swap1\n      tag_59\n      jump\t// in\n    tag_69:\n      dup1\n      0x1f\n      add\n      0x20\n      dup1\n      swap2\n      div\n      mul\n      0x20\n      add\n      mload(0x40)\n      swap1\n      dup2\n      add\n      0x40\n      mstore\n      dup1\n      swap3\n      swap2\n      swap1\n      dup2\n      dup2\n      mstore\n      0x20\n      add\n      dup3\n      dup1\n      sload\n      tag_70\n      swap1\n      tag_59\n      jump\t// in\n    tag_70:\n      dup1\n      iszero\n      tag_71\n      jumpi\n      dup1\n      0x1f\n      lt\n      tag_72\n      jumpi\n      0x0100\n      dup1\n      dup4\n      sload\n      div\n      mul\n      dup4\n      mstore\n      swap2\n      0x20\n      add\n      swap2\n      jump(tag_71)\n    tag_72:\n      dup3\n      add\n      swap2\n      swap1\n      0x00\n      mstore\n      keccak256(0x00, 0x20)\n      swap1\n    tag_73:\n      dup2\n      sload\n      dup2\n      mstore\n      swap1\n      0x01\n      add\n      swap1\n      0x20\n      add\n      dup1\n      dup4\n      gt\n      tag_73\n      jumpi\n      dup3\n      swap1\n      sub\n      0x1f\n      and\n      dup3\n      add\n      swap2\n    tag_71:\n      pop\n      pop\n      pop\n      pop\n      pop\n      dup2\n      mstore\n      0x20\n      add\n      0x03\n      dup3\n      add\n      sload\n      dup2\n      mstore\n      0x20\n      add\n      0x04\n      dup3\n      add\n      sload\n      dup2\n      mstore\n      0x20\n      add\n      0x05\n      dup3\n      add\n      sload\n      dup2\n      mstore\n      pop\n      pop\n      dup2\n      mstore\n      pop\n      pop\n      swap1\n      pop\n        /* \"AppFood/AppFoodWEB3/gastroAppLojas.sol\":1688:1695  produto */\n      dup1\n        /* \"AppFood/AppFoodWEB3/gastroAppLojas.sol\":1688:1708  produto.dadosBebidas */\n      0x00\n      add\n      mload\n        /* \"AppFood/AppFoodWEB3/gastroAppLojas.sol\":1688:1720  produto.dadosBebidas.nomeProduto */\n      0x00\n      add\n      mload\n        /* \"AppFood/AppFoodWEB3/gastroAppLojas.sol\":1735:1742  produto */\n      dup2\n        /* \"AppFood/AppFoodWEB3/gastroAppLojas.sol\":1735:1755  produto.dadosBebidas */\n      0x00\n      add\n      mload\n        /* \"AppFood/AppFoodWEB3/gastroAppLojas.sol\":1735:1767  produto.dadosBebidas.tipoProduto */\n      0x20\n      add\n      mload\n        /* \"AppFood/AppFoodWEB3/gastroAppLojas.sol\":1782:1789  produto */\n      dup3\n        /* \"AppFood/AppFoodWEB3/gastroAppLojas.sol\":1782:1802  produto.dadosBebidas */\n      0x00\n      add\n      mload\n        /* \"AppFood/AppFoodWEB3/gastroAppLojas.sol\":1782:1812  produto.dadosBebidas.descricao */\n      0x40\n      add\n      mload\n        /* \"AppFood/AppFoodWEB3/gastroAppLojas.sol\":1827:1834  produto */\n      dup4\n        /* \"AppFood/AppFoodWEB3/gastroAppLojas.sol\":1827:1847  produto.dadosBebidas */\n      0x00\n      add\n      mload\n        /* \"AppFood/AppFoodWEB3/gastroAppLojas.sol\":1827:1856  produto.dadosBebidas.validade */\n      0x60\n      add\n      mload\n        /* \"AppFood/AppFoodWEB3/gastroAppLojas.sol\":1871:1878  produto */\n      dup5\n        /* \"AppFood/AppFoodWEB3/gastroAppLojas.sol\":1871:1891  produto.dadosBebidas */\n      0x00\n      add\n      mload\n        /* \"AppFood/AppFoodWEB3/gastroAppLojas.sol\":1871:1897  produto.dadosBebidas.valor */\n      0x80\n      add\n      mload\n        /* \"AppFood/AppFoodWEB3/gastroAppLojas.sol\":1912:1919  produto */\n      dup6\n        /* \"AppFood/AppFoodWEB3/gastroAppLojas.sol\":1912:1932  produto.dadosBebidas */\n      0x00\n      add\n      mload\n        /* \"AppFood/AppFoodWEB3/gastroAppLojas.sol\":1912:1943  produto.dadosBebidas.quantidade */\n      0xa0\n      add\n      mload\n        /* \"AppFood/AppFoodWEB3/gastroAppLojas.sol\":1666:1954  return (... */\n      swap7\n      pop\n      swap7\n      pop\n      swap7\n      pop\n      swap7\n      pop\n      swap7\n      pop\n      swap7\n      pop\n      pop\n        /* \"AppFood/AppFoodWEB3/gastroAppLojas.sol\":1460:1962  function estoqueBebidas(string memory _nomeProduto) public view returns(string memory, string memory, string memory, uint, uint, uint) {... */\n      swap2\n      swap4\n      swap6\n      pop\n      swap2\n      swap4\n      swap6\n      jump\t// out\n        /* \"AppFood/AppFoodWEB3/gastroAppLojas.sol\":2649:2969  function criarPerfilLoja(string memory _nome, string memory _bio, string memory _tipo, string memory _foto, string memory _linkExterno, uint _idade) public donoPerfilmod() {... */\n    tag_23:\n        /* \"AppFood/AppFoodWEB3/gastroAppFuncoes.sol\":968:978  donoPerfil */\n      0x00\n      dup1\n      sload\n      swap1\n      0x0100\n      exp\n      swap1\n      div\n      0xffffffffffffffffffffffffffffffffffffffff\n      and\n        /* \"AppFood/AppFoodWEB3/gastroAppFuncoes.sol\":954:978  msg.sender == donoPerfil */\n      0xffffffffffffffffffffffffffffffffffffffff\n      and\n        /* \"AppFood/AppFoodWEB3/gastroAppFuncoes.sol\":954:964  msg.sender */\n      caller\n        /* \"AppFood/AppFoodWEB3/gastroAppFuncoes.sol\":954:978  msg.sender == donoPerfil */\n      0xffffffffffffffffffffffffffffffffffffffff\n      and\n      eq\n        /* \"AppFood/AppFoodWEB3/gastroAppFuncoes.sol\":946:1021  require(msg.sender == donoPerfil, \"somente o dono pode chamar essa funcao\") */\n      tag_75\n      jumpi\n      mload(0x40)\n      0x08c379a000000000000000000000000000000000000000000000000000000000\n      dup2\n      mstore\n      0x04\n      add\n      tag_76\n      swap1\n      tag_77\n      jump\t// in\n    tag_76:\n      mload(0x40)\n      dup1\n      swap2\n      sub\n      swap1\n      revert\n    tag_75:\n        /* \"AppFood/AppFoodWEB3/gastroAppLojas.sol\":2858:2862  true */\n      0x01\n        /* \"AppFood/AppFoodWEB3/gastroAppLojas.sol\":2840:2862  perfilComprado == true */\n      iszero\n      iszero\n        /* \"AppFood/AppFoodWEB3/gastroAppLojas.sol\":2840:2854  perfilComprado */\n      0x05\n      0x00\n      swap1\n      sload\n      swap1\n      0x0100\n      exp\n      swap1\n      div\n      0xff\n      and\n        /* \"AppFood/AppFoodWEB3/gastroAppLojas.sol\":2840:2862  perfilComprado == true */\n      iszero\n      iszero\n      eq\n        /* \"AppFood/AppFoodWEB3/gastroAppLojas.sol\":2832:2889  require(perfilComprado == true, \"nenhum perfil comprado\") */\n      tag_79\n      jumpi\n      mload(0x40)\n      0x08c379a000000000000000000000000000000000000000000000000000000000\n      dup2\n      mstore\n      0x04\n      add\n      tag_80\n      swap1\n      tag_81\n      jump\t// in\n    tag_80:\n      mload(0x40)\n      dup1\n      swap2\n      sub\n      swap1\n      revert\n    tag_79:\n        /* \"AppFood/AppFoodWEB3/gastroAppLojas.sol\":2900:2961  EditarPerfil(_nome, _bio, _tipo, _foto, _linkExterno, _idade) */\n      tag_82\n        /* \"AppFood/AppFoodWEB3/gastroAppLojas.sol\":2913:2918  _nome */\n      dup7\n        /* \"AppFood/AppFoodWEB3/gastroAppLojas.sol\":2920:2924  _bio */\n      dup7\n        /* \"AppFood/AppFoodWEB3/gastroAppLojas.sol\":2926:2931  _tipo */\n      dup7\n        /* \"AppFood/AppFoodWEB3/gastroAppLojas.sol\":2933:2938  _foto */\n      dup7\n        /* \"AppFood/AppFoodWEB3/gastroAppLojas.sol\":2940:2952  _linkExterno */\n      dup7\n        /* \"AppFood/AppFoodWEB3/gastroAppLojas.sol\":2954:2960  _idade */\n      dup7\n        /* \"AppFood/AppFoodWEB3/gastroAppLojas.sol\":2900:2912  EditarPerfil */\n      tag_83\n        /* \"AppFood/AppFoodWEB3/gastroAppLojas.sol\":2900:2961  EditarPerfil(_nome, _bio, _tipo, _foto, _linkExterno, _idade) */\n      jump\t// in\n    tag_82:\n        /* \"AppFood/AppFoodWEB3/gastroAppLojas.sol\":2649:2969  function criarPerfilLoja(string memory _nome, string memory _bio, string memory _tipo, string memory _foto, string memory _linkExterno, uint _idade) public donoPerfilmod() {... */\n      pop\n      pop\n      pop\n      pop\n      pop\n      pop\n      jump\t// out\n        /* \"AppFood/AppFoodWEB3/gastroAppFuncoes.sol\":368:402  bool public perfilComprado = false */\n    tag_26:\n      0x05\n      0x00\n      swap1\n      sload\n      swap1\n      0x0100\n      exp\n      swap1\n      div\n      0xff\n      and\n      dup2\n      jump\t// out\n        /* \"AppFood/AppFoodWEB3/gastroAppLojas.sol\":3655:4123  function venderBebida(string memory _nomeProduto, uint _quantidade) public donoPerfilmod() {... */\n    tag_33:\n        /* \"AppFood/AppFoodWEB3/gastroAppFuncoes.sol\":968:978  donoPerfil */\n      0x00\n      dup1\n      sload\n      swap1\n      0x0100\n      exp\n      swap1\n      div\n      0xffffffffffffffffffffffffffffffffffffffff\n      and\n        /* \"AppFood/AppFoodWEB3/gastroAppFuncoes.sol\":954:978  msg.sender == donoPerfil */\n      0xffffffffffffffffffffffffffffffffffffffff\n      and\n        /* \"AppFood/AppFoodWEB3/gastroAppFuncoes.sol\":954:964  msg.sender */\n      caller\n        /* \"AppFood/AppFoodWEB3/gastroAppFuncoes.sol\":954:978  msg.sender == donoPerfil */\n      0xffffffffffffffffffffffffffffffffffffffff\n      and\n      eq\n        /* \"AppFood/AppFoodWEB3/gastroAppFuncoes.sol\":946:1021  require(msg.sender == donoPerfil, \"somente o dono pode chamar essa funcao\") */\n      tag_85\n      jumpi\n      mload(0x40)\n      0x08c379a000000000000000000000000000000000000000000000000000000000\n      dup2\n      mstore\n      0x04\n      add\n      tag_86\n      swap1\n      tag_77\n      jump\t// in\n    tag_86:\n      mload(0x40)\n      dup1\n      swap2\n      sub\n      swap1\n      revert\n    tag_85:\n        /* \"AppFood/AppFoodWEB3/gastroAppLojas.sol\":3817:3828  _quantidade */\n      dup1\n        /* \"AppFood/AppFoodWEB3/gastroAppLojas.sol\":3765:3775  mapBebidas */\n      0x0b\n        /* \"AppFood/AppFoodWEB3/gastroAppLojas.sol\":3776:3788  _nomeProduto */\n      dup4\n        /* \"AppFood/AppFoodWEB3/gastroAppLojas.sol\":3765:3789  mapBebidas[_nomeProduto] */\n      mload(0x40)\n      tag_88\n      swap2\n      swap1\n      tag_57\n      jump\t// in\n    tag_88:\n      swap1\n      dup2\n      mstore\n      0x20\n      add\n      mload(0x40)\n      dup1\n      swap2\n      sub\n      swap1\n      keccak256\n        /* \"AppFood/AppFoodWEB3/gastroAppLojas.sol\":3765:3802  mapBebidas[_nomeProduto].dadosBebidas */\n      0x00\n      add\n        /* \"AppFood/AppFoodWEB3/gastroAppLojas.sol\":3765:3813  mapBebidas[_nomeProduto].dadosBebidas.quantidade */\n      0x05\n      add\n      sload\n        /* \"AppFood/AppFoodWEB3/gastroAppLojas.sol\":3765:3828  mapBebidas[_nomeProduto].dadosBebidas.quantidade >= _quantidade */\n      lt\n      iszero\n        /* \"AppFood/AppFoodWEB3/gastroAppLojas.sol\":3757:3867  require(mapBebidas[_nomeProduto].dadosBebidas.quantidade >= _quantidade, \"Quantidade insuficiente em estoque\") */\n      tag_89\n      jumpi\n      mload(0x40)\n      0x08c379a000000000000000000000000000000000000000000000000000000000\n      dup2\n      mstore\n      0x04\n      add\n      tag_90\n      swap1\n      tag_91\n      jump\t// in\n    tag_90:\n      mload(0x40)\n      dup1\n      swap2\n      sub\n      swap1\n      revert\n    tag_89:\n        /* \"AppFood/AppFoodWEB3/gastroAppLojas.sol\":3930:3941  _quantidade */\n      dup1\n        /* \"AppFood/AppFoodWEB3/gastroAppLojas.sol\":3878:3888  mapBebidas */\n      0x0b\n        /* \"AppFood/AppFoodWEB3/gastroAppLojas.sol\":3889:3901  _nomeProduto */\n      dup4\n        /* \"AppFood/AppFoodWEB3/gastroAppLojas.sol\":3878:3902  mapBebidas[_nomeProduto] */\n      mload(0x40)\n      tag_92\n      swap2\n      swap1\n      tag_57\n      jump\t// in\n    tag_92:\n      swap1\n      dup2\n      mstore\n      0x20\n      add\n      mload(0x40)\n      dup1\n      swap2\n      sub\n      swap1\n      keccak256\n        /* \"AppFood/AppFoodWEB3/gastroAppLojas.sol\":3878:3915  mapBebidas[_nomeProduto].dadosBebidas */\n      0x00\n      add\n        /* \"AppFood/AppFoodWEB3/gastroAppLojas.sol\":3878:3926  mapBebidas[_nomeProduto].dadosBebidas.quantidade */\n      0x05\n      add\n      0x00\n        /* \"AppFood/AppFoodWEB3/gastroAppLojas.sol\":3878:3941  mapBebidas[_nomeProduto].dadosBebidas.quantidade -= _quantidade */\n      dup3\n      dup3\n      sload\n      tag_93\n      swap2\n      swap1\n      tag_94\n      jump\t// in\n    tag_93:\n      swap3\n      pop\n      pop\n      dup2\n      swap1\n      sstore\n      pop\n        /* \"AppFood/AppFoodWEB3/gastroAppLojas.sol\":3977:3988  _quantidade */\n      dup1\n        /* \"AppFood/AppFoodWEB3/gastroAppLojas.sol\":3952:3959  estoque */\n      0x0d\n        /* \"AppFood/AppFoodWEB3/gastroAppLojas.sol\":3960:3972  _nomeProduto */\n      dup4\n        /* \"AppFood/AppFoodWEB3/gastroAppLojas.sol\":3952:3973  estoque[_nomeProduto] */\n      mload(0x40)\n      tag_95\n      swap2\n      swap1\n      tag_57\n      jump\t// in\n    tag_95:\n      swap1\n      dup2\n      mstore\n      0x20\n      add\n      mload(0x40)\n      dup1\n      swap2\n      sub\n      swap1\n      keccak256\n      0x00\n        /* \"AppFood/AppFoodWEB3/gastroAppLojas.sol\":3952:3988  estoque[_nomeProduto] -= _quantidade */\n      dup3\n      dup3\n      sload\n      tag_96\n      swap2\n      swap1\n      tag_94\n      jump\t// in\n    tag_96:\n      swap3\n      pop\n      pop\n      dup2\n      swap1\n      sstore\n      pop\n        /* \"AppFood/AppFoodWEB3/gastroAppLojas.sol\":4055:4056  0 */\n      0x00\n        /* \"AppFood/AppFoodWEB3/gastroAppLojas.sol\":4003:4013  mapBebidas */\n      0x0b\n        /* \"AppFood/AppFoodWEB3/gastroAppLojas.sol\":4014:4026  _nomeProduto */\n      dup4\n        /* \"AppFood/AppFoodWEB3/gastroAppLojas.sol\":4003:4027  mapBebidas[_nomeProduto] */\n      mload(0x40)\n      tag_97\n      swap2\n      swap1\n      tag_57\n      jump\t// in\n    tag_97:\n      swap1\n      dup2\n      mstore\n      0x20\n      add\n      mload(0x40)\n      dup1\n      swap2\n      sub\n      swap1\n      keccak256\n        /* \"AppFood/AppFoodWEB3/gastroAppLojas.sol\":4003:4040  mapBebidas[_nomeProduto].dadosBebidas */\n      0x00\n      add\n        /* \"AppFood/AppFoodWEB3/gastroAppLojas.sol\":4003:4051  mapBebidas[_nomeProduto].dadosBebidas.quantidade */\n      0x05\n      add\n      sload\n        /* \"AppFood/AppFoodWEB3/gastroAppLojas.sol\":4003:4056  mapBebidas[_nomeProduto].dadosBebidas.quantidade == 0 */\n      sub\n        /* \"AppFood/AppFoodWEB3/gastroAppLojas.sol\":3999:4116  if (mapBebidas[_nomeProduto].dadosBebidas.quantidade == 0) {... */\n      tag_98\n      jumpi\n        /* \"AppFood/AppFoodWEB3/gastroAppLojas.sol\":4080:4090  mapBebidas */\n      0x0b\n        /* \"AppFood/AppFoodWEB3/gastroAppLojas.sol\":4091:4103  _nomeProduto */\n      dup3\n        /* \"AppFood/AppFoodWEB3/gastroAppLojas.sol\":4080:4104  mapBebidas[_nomeProduto] */\n      mload(0x40)\n      tag_99\n      swap2\n      swap1\n      tag_57\n      jump\t// in\n    tag_99:\n      swap1\n      dup2\n      mstore\n      0x20\n      add\n      mload(0x40)\n      dup1\n      swap2\n      sub\n      swap1\n      keccak256\n      0x00\n        /* \"AppFood/AppFoodWEB3/gastroAppLojas.sol\":4073:4104  delete mapBebidas[_nomeProduto] */\n      dup1\n      dup3\n      add\n      0x00\n      dup1\n      dup3\n      add\n      0x00\n      tag_100\n      swap2\n      swap1\n      tag_101\n      jump\t// in\n    tag_100:\n      0x01\n      dup3\n      add\n      0x00\n      tag_102\n      swap2\n      swap1\n      tag_101\n      jump\t// in\n    tag_102:\n      0x02\n      dup3\n      add\n      0x00\n      tag_103\n      swap2\n      swap1\n      tag_101\n      jump\t// in\n    tag_103:\n      0x03\n      dup3\n      add\n      0x00\n      swap1\n      sstore\n      0x04\n      dup3\n      add\n      0x00\n      swap1\n      sstore\n      0x05\n      dup3\n      add\n      0x00\n      swap1\n      sstore\n      pop\n      pop\n      pop\n      pop\n        /* \"AppFood/AppFoodWEB3/gastroAppLojas.sol\":3999:4116  if (mapBebidas[_nomeProduto].dadosBebidas.quantidade == 0) {... */\n    tag_98:\n        /* \"AppFood/AppFoodWEB3/gastroAppLojas.sol\":3655:4123  function venderBebida(string memory _nomeProduto, uint _quantidade) public donoPerfilmod() {... */\n      pop\n      pop\n      jump\t// out\n        /* \"AppFood/AppFoodWEB3/gastroAppLojas.sol\":4824:5319  function venderAlimento(string memory _nomeProduto, uint _quantidade) public donoPerfilmod() {... */\n    tag_37:\n        /* \"AppFood/AppFoodWEB3/gastroAppFuncoes.sol\":968:978  donoPerfil */\n      0x00\n      dup1\n      sload\n      swap1\n      0x0100\n      exp\n      swap1\n      div\n      0xffffffffffffffffffffffffffffffffffffffff\n      and\n        /* \"AppFood/AppFoodWEB3/gastroAppFuncoes.sol\":954:978  msg.sender == donoPerfil */\n      0xffffffffffffffffffffffffffffffffffffffff\n      and\n        /* \"AppFood/AppFoodWEB3/gastroAppFuncoes.sol\":954:964  msg.sender */\n      caller\n        /* \"AppFood/AppFoodWEB3/gastroAppFuncoes.sol\":954:978  msg.sender == donoPerfil */\n      0xffffffffffffffffffffffffffffffffffffffff\n      and\n      eq\n        /* \"AppFood/AppFoodWEB3/gastroAppFuncoes.sol\":946:1021  require(msg.sender == donoPerfil, \"somente o dono pode chamar essa funcao\") */\n      tag_105\n      jumpi\n      mload(0x40)\n      0x08c379a000000000000000000000000000000000000000000000000000000000\n      dup2\n      mstore\n      0x04\n      add\n      tag_106\n      swap1\n      tag_77\n      jump\t// in\n    tag_106:\n      mload(0x40)\n      dup1\n      swap2\n      sub\n      swap1\n      revert\n    tag_105:\n        /* \"AppFood/AppFoodWEB3/gastroAppLojas.sol\":4992:5003  _quantidade */\n      dup1\n        /* \"AppFood/AppFoodWEB3/gastroAppLojas.sol\":4936:4948  mapAlimentos */\n      0x0c\n        /* \"AppFood/AppFoodWEB3/gastroAppLojas.sol\":4949:4961  _nomeProduto */\n      dup4\n        /* \"AppFood/AppFoodWEB3/gastroAppLojas.sol\":4936:4962  mapAlimentos[_nomeProduto] */\n      mload(0x40)\n      tag_108\n      swap2\n      swap1\n      tag_57\n      jump\t// in\n    tag_108:\n      swap1\n      dup2\n      mstore\n      0x20\n      add\n      mload(0x40)\n      dup1\n      swap2\n      sub\n      swap1\n      keccak256\n        /* \"AppFood/AppFoodWEB3/gastroAppLojas.sol\":4936:4977  mapAlimentos[_nomeProduto].dadosAlimentos */\n      0x00\n      add\n        /* \"AppFood/AppFoodWEB3/gastroAppLojas.sol\":4936:4988  mapAlimentos[_nomeProduto].dadosAlimentos.quantidade */\n      0x05\n      add\n      sload\n        /* \"AppFood/AppFoodWEB3/gastroAppLojas.sol\":4936:5003  mapAlimentos[_nomeProduto].dadosAlimentos.quantidade >= _quantidade */\n      lt\n      iszero\n        /* \"AppFood/AppFoodWEB3/gastroAppLojas.sol\":4928:5042  require(mapAlimentos[_nomeProduto].dadosAlimentos.quantidade >= _quantidade, \"Quantidade insuficiente em estoque\") */\n      tag_109\n      jumpi\n      mload(0x40)\n      0x08c379a000000000000000000000000000000000000000000000000000000000\n      dup2\n      mstore\n      0x04\n      add\n      tag_110\n      swap1\n      tag_91\n      jump\t// in\n    tag_110:\n      mload(0x40)\n      dup1\n      swap2\n      sub\n      swap1\n      revert\n    tag_109:\n        /* \"AppFood/AppFoodWEB3/gastroAppLojas.sol\":5109:5120  _quantidade */\n      dup1\n        /* \"AppFood/AppFoodWEB3/gastroAppLojas.sol\":5053:5065  mapAlimentos */\n      0x0c\n        /* \"AppFood/AppFoodWEB3/gastroAppLojas.sol\":5066:5078  _nomeProduto */\n      dup4\n        /* \"AppFood/AppFoodWEB3/gastroAppLojas.sol\":5053:5079  mapAlimentos[_nomeProduto] */\n      mload(0x40)\n      tag_111\n      swap2\n      swap1\n      tag_57\n      jump\t// in\n    tag_111:\n      swap1\n      dup2\n      mstore\n      0x20\n      add\n      mload(0x40)\n      dup1\n      swap2\n      sub\n      swap1\n      keccak256\n        /* \"AppFood/AppFoodWEB3/gastroAppLojas.sol\":5053:5094  mapAlimentos[_nomeProduto].dadosAlimentos */\n      0x00\n      add\n        /* \"AppFood/AppFoodWEB3/gastroAppLojas.sol\":5053:5105  mapAlimentos[_nomeProduto].dadosAlimentos.quantidade */\n      0x05\n      add\n      0x00\n        /* \"AppFood/AppFoodWEB3/gastroAppLojas.sol\":5053:5120  mapAlimentos[_nomeProduto].dadosAlimentos.quantidade -= _quantidade */\n      dup3\n      dup3\n      sload\n      tag_112\n      swap2\n      swap1\n      tag_94\n      jump\t// in\n    tag_112:\n      swap3\n      pop\n      pop\n      dup2\n      swap1\n      sstore\n      pop\n        /* \"AppFood/AppFoodWEB3/gastroAppLojas.sol\":5191:5192  0 */\n      0x00\n        /* \"AppFood/AppFoodWEB3/gastroAppLojas.sol\":5135:5147  mapAlimentos */\n      0x0c\n        /* \"AppFood/AppFoodWEB3/gastroAppLojas.sol\":5148:5160  _nomeProduto */\n      dup4\n        /* \"AppFood/AppFoodWEB3/gastroAppLojas.sol\":5135:5161  mapAlimentos[_nomeProduto] */\n      mload(0x40)\n      tag_113\n      swap2\n      swap1\n      tag_57\n      jump\t// in\n    tag_113:\n      swap1\n      dup2\n      mstore\n      0x20\n      add\n      mload(0x40)\n      dup1\n      swap2\n      sub\n      swap1\n      keccak256\n        /* \"AppFood/AppFoodWEB3/gastroAppLojas.sol\":5135:5176  mapAlimentos[_nomeProduto].dadosAlimentos */\n      0x00\n      add\n        /* \"AppFood/AppFoodWEB3/gastroAppLojas.sol\":5135:5187  mapAlimentos[_nomeProduto].dadosAlimentos.quantidade */\n      0x05\n      add\n      sload\n        /* \"AppFood/AppFoodWEB3/gastroAppLojas.sol\":5135:5192  mapAlimentos[_nomeProduto].dadosAlimentos.quantidade == 0 */\n      sub\n        /* \"AppFood/AppFoodWEB3/gastroAppLojas.sol\":5131:5254  if (mapAlimentos[_nomeProduto].dadosAlimentos.quantidade == 0) {... */\n      tag_114\n      jumpi\n        /* \"AppFood/AppFoodWEB3/gastroAppLojas.sol\":5216:5228  mapAlimentos */\n      0x0c\n        /* \"AppFood/AppFoodWEB3/gastroAppLojas.sol\":5229:5241  _nomeProduto */\n      dup3\n        /* \"AppFood/AppFoodWEB3/gastroAppLojas.sol\":5216:5242  mapAlimentos[_nomeProduto] */\n      mload(0x40)\n      tag_115\n      swap2\n      swap1\n      tag_57\n      jump\t// in\n    tag_115:\n      swap1\n      dup2\n      mstore\n      0x20\n      add\n      mload(0x40)\n      dup1\n      swap2\n      sub\n      swap1\n      keccak256\n      0x00\n        /* \"AppFood/AppFoodWEB3/gastroAppLojas.sol\":5209:5242  delete mapAlimentos[_nomeProduto] */\n      dup1\n      dup3\n      add\n      0x00\n      dup1\n      dup3\n      add\n      0x00\n      tag_116\n      swap2\n      swap1\n      tag_101\n      jump\t// in\n    tag_116:\n      0x01\n      dup3\n      add\n      0x00\n      tag_117\n      swap2\n      swap1\n      tag_101\n      jump\t// in\n    tag_117:\n      0x02\n      dup3\n      add\n      0x00\n      tag_118\n      swap2\n      swap1\n      tag_101\n      jump\t// in\n    tag_118:\n      0x03\n      dup3\n      add\n      0x00\n      swap1\n      sstore\n      0x04\n      dup3\n      add\n      0x00\n      swap1\n      sstore\n      0x05\n      dup3\n      add\n      0x00\n      swap1\n      sstore\n      pop\n      pop\n      pop\n      pop\n        /* \"AppFood/AppFoodWEB3/gastroAppLojas.sol\":5131:5254  if (mapAlimentos[_nomeProduto].dadosAlimentos.quantidade == 0) {... */\n    tag_114:\n        /* \"AppFood/AppFoodWEB3/gastroAppLojas.sol\":5269:5311  alimentoVendido(_nomeProduto, _quantidade) */\n      0x9603a62e507248f16dc1809ba54ddfda4b21cd6dac214a05dbfb4769f21d2ed2\n        /* \"AppFood/AppFoodWEB3/gastroAppLojas.sol\":5285:5297  _nomeProduto */\n      dup3\n        /* \"AppFood/AppFoodWEB3/gastroAppLojas.sol\":5299:5310  _quantidade */\n      dup3\n        /* \"AppFood/AppFoodWEB3/gastroAppLojas.sol\":5269:5311  alimentoVendido(_nomeProduto, _quantidade) */\n      mload(0x40)\n      tag_119\n      swap3\n      swap2\n      swap1\n      tag_120\n      jump\t// in\n    tag_119:\n      mload(0x40)\n      dup1\n      swap2\n      sub\n      swap1\n      log1\n        /* \"AppFood/AppFoodWEB3/gastroAppLojas.sol\":4824:5319  function venderAlimento(string memory _nomeProduto, uint _quantidade) public donoPerfilmod() {... */\n      pop\n      pop\n      jump\t// out\n        /* \"AppFood/AppFoodWEB3/gastroAppLojas.sol\":274:475  function comprarPerfil() public payable returns(bool) {... */\n    tag_39:\n        /* \"AppFood/AppFoodWEB3/gastroAppLojas.sol\":322:326  bool */\n      0x00\n        /* \"AppFood/AppFoodWEB3/gastroAppLojas.sol\":360:371  valorPerfil */\n      sload(0x04)\n        /* \"AppFood/AppFoodWEB3/gastroAppLojas.sol\":347:356  msg.value */\n      callvalue\n        /* \"AppFood/AppFoodWEB3/gastroAppLojas.sol\":347:371  msg.value == valorPerfil */\n      eq\n        /* \"AppFood/AppFoodWEB3/gastroAppLojas.sol\":339:394  require(msg.value == valorPerfil, \"saldo Insuficiente\") */\n      tag_122\n      jumpi\n      mload(0x40)\n      0x08c379a000000000000000000000000000000000000000000000000000000000\n      dup2\n      mstore\n      0x04\n      add\n      tag_123\n      swap1\n      tag_124\n      jump\t// in\n    tag_123:\n      mload(0x40)\n      dup1\n      swap2\n      sub\n      swap1\n      revert\n    tag_122:\n        /* \"AppFood/AppFoodWEB3/gastroAppLojas.sol\":418:428  msg.sender */\n      caller\n        /* \"AppFood/AppFoodWEB3/gastroAppLojas.sol\":405:415  donoPerfil */\n      0x00\n      dup1\n        /* \"AppFood/AppFoodWEB3/gastroAppLojas.sol\":405:428  donoPerfil = msg.sender */\n      0x0100\n      exp\n      dup2\n      sload\n      dup2\n      0xffffffffffffffffffffffffffffffffffffffff\n      mul\n      not\n      and\n      swap1\n      dup4\n      0xffffffffffffffffffffffffffffffffffffffff\n      and\n      mul\n      or\n      swap1\n      sstore\n      pop\n        /* \"AppFood/AppFoodWEB3/gastroAppLojas.sol\":463:467  true */\n      0x01\n        /* \"AppFood/AppFoodWEB3/gastroAppLojas.sol\":446:460  perfilComprado */\n      0x05\n      0x00\n        /* \"AppFood/AppFoodWEB3/gastroAppLojas.sol\":446:467  perfilComprado = true */\n      0x0100\n      exp\n      dup2\n      sload\n      dup2\n      0xff\n      mul\n      not\n      and\n      swap1\n      dup4\n      iszero\n      iszero\n      mul\n      or\n      swap1\n      sstore\n        /* \"AppFood/AppFoodWEB3/gastroAppLojas.sol\":439:467  return perfilComprado = true */\n      swap1\n      pop\n        /* \"AppFood/AppFoodWEB3/gastroAppLojas.sol\":274:475  function comprarPerfil() public payable returns(bool) {... */\n      swap1\n      jump\t// out\n        /* \"AppFood/AppFoodWEB3/gastroAppLojas.sol\":1970:2491  function estoqueAlimentos(string memory _nomeProduto) public view returns (string memory, string memory, string memory, uint, uint, uint) {... */\n    tag_44:\n        /* \"AppFood/AppFoodWEB3/gastroAppLojas.sol\":2045:2058  string memory */\n      0x60\n        /* \"AppFood/AppFoodWEB3/gastroAppLojas.sol\":2060:2073  string memory */\n      dup1\n        /* \"AppFood/AppFoodWEB3/gastroAppLojas.sol\":2075:2088  string memory */\n      0x60\n        /* \"AppFood/AppFoodWEB3/gastroAppLojas.sol\":2090:2094  uint */\n      0x00\n        /* \"AppFood/AppFoodWEB3/gastroAppLojas.sol\":2096:2100  uint */\n      dup1\n        /* \"AppFood/AppFoodWEB3/gastroAppLojas.sol\":2102:2106  uint */\n      0x00\n        /* \"AppFood/AppFoodWEB3/gastroAppLojas.sol\":2119:2143  Alimentos memory produto */\n      dup1\n        /* \"AppFood/AppFoodWEB3/gastroAppLojas.sol\":2146:2158  mapAlimentos */\n      0x0c\n        /* \"AppFood/AppFoodWEB3/gastroAppLojas.sol\":2159:2171  _nomeProduto */\n      dup9\n        /* \"AppFood/AppFoodWEB3/gastroAppLojas.sol\":2146:2172  mapAlimentos[_nomeProduto] */\n      mload(0x40)\n      tag_126\n      swap2\n      swap1\n      tag_57\n      jump\t// in\n    tag_126:\n      swap1\n      dup2\n      mstore\n      0x20\n      add\n      mload(0x40)\n      dup1\n      swap2\n      sub\n      swap1\n      keccak256\n        /* \"AppFood/AppFoodWEB3/gastroAppLojas.sol\":2119:2172  Alimentos memory produto = mapAlimentos[_nomeProduto] */\n      mload(0x40)\n      dup1\n      0x20\n      add\n      0x40\n      mstore\n      swap1\n      dup2\n      0x00\n      dup3\n      add\n      mload(0x40)\n      dup1\n      0xc0\n      add\n      0x40\n      mstore\n      swap1\n      dup2\n      0x00\n      dup3\n      add\n      dup1\n      sload\n      tag_127\n      swap1\n      tag_59\n      jump\t// in\n    tag_127:\n      dup1\n      0x1f\n      add\n      0x20\n      dup1\n      swap2\n      div\n      mul\n      0x20\n      add\n      mload(0x40)\n      swap1\n      dup2\n      add\n      0x40\n      mstore\n      dup1\n      swap3\n      swap2\n      swap1\n      dup2\n      dup2\n      mstore\n      0x20\n      add\n      dup3\n      dup1\n      sload\n      tag_128\n      swap1\n      tag_59\n      jump\t// in\n    tag_128:\n      dup1\n      iszero\n      tag_129\n      jumpi\n      dup1\n      0x1f\n      lt\n      tag_130\n      jumpi\n      0x0100\n      dup1\n      dup4\n      sload\n      div\n      mul\n      dup4\n      mstore\n      swap2\n      0x20\n      add\n      swap2\n      jump(tag_129)\n    tag_130:\n      dup3\n      add\n      swap2\n      swap1\n      0x00\n      mstore\n      keccak256(0x00, 0x20)\n      swap1\n    tag_131:\n      dup2\n      sload\n      dup2\n      mstore\n      swap1\n      0x01\n      add\n      swap1\n      0x20\n      add\n      dup1\n      dup4\n      gt\n      tag_131\n      jumpi\n      dup3\n      swap1\n      sub\n      0x1f\n      and\n      dup3\n      add\n      swap2\n    tag_129:\n      pop\n      pop\n      pop\n      pop\n      pop\n      dup2\n      mstore\n      0x20\n      add\n      0x01\n      dup3\n      add\n      dup1\n      sload\n      tag_132\n      swap1\n      tag_59\n      jump\t// in\n    tag_132:\n      dup1\n      0x1f\n      add\n      0x20\n      dup1\n      swap2\n      div\n      mul\n      0x20\n      add\n      mload(0x40)\n      swap1\n      dup2\n      add\n      0x40\n      mstore\n      dup1\n      swap3\n      swap2\n      swap1\n      dup2\n      dup2\n      mstore\n      0x20\n      add\n      dup3\n      dup1\n      sload\n      tag_133\n      swap1\n      tag_59\n      jump\t// in\n    tag_133:\n      dup1\n      iszero\n      tag_134\n      jumpi\n      dup1\n      0x1f\n      lt\n      tag_135\n      jumpi\n      0x0100\n      dup1\n      dup4\n      sload\n      div\n      mul\n      dup4\n      mstore\n      swap2\n      0x20\n      add\n      swap2\n      jump(tag_134)\n    tag_135:\n      dup3\n      add\n      swap2\n      swap1\n      0x00\n      mstore\n      keccak256(0x00, 0x20)\n      swap1\n    tag_136:\n      dup2\n      sload\n      dup2\n      mstore\n      swap1\n      0x01\n      add\n      swap1\n      0x20\n      add\n      dup1\n      dup4\n      gt\n      tag_136\n      jumpi\n      dup3\n      swap1\n      sub\n      0x1f\n      and\n      dup3\n      add\n      swap2\n    tag_134:\n      pop\n      pop\n      pop\n      pop\n      pop\n      dup2\n      mstore\n      0x20\n      add\n      0x02\n      dup3\n      add\n      dup1\n      sload\n      tag_137\n      swap1\n      tag_59\n      jump\t// in\n    tag_137:\n      dup1\n      0x1f\n      add\n      0x20\n      dup1\n      swap2\n      div\n      mul\n      0x20\n      add\n      mload(0x40)\n      swap1\n      dup2\n      add\n      0x40\n      mstore\n      dup1\n      swap3\n      swap2\n      swap1\n      dup2\n      dup2\n      mstore\n      0x20\n      add\n      dup3\n      dup1\n      sload\n      tag_138\n      swap1\n      tag_59\n      jump\t// in\n    tag_138:\n      dup1\n      iszero\n      tag_139\n      jumpi\n      dup1\n      0x1f\n      lt\n      tag_140\n      jumpi\n      0x0100\n      dup1\n      dup4\n      sload\n      div\n      mul\n      dup4\n      mstore\n      swap2\n      0x20\n      add\n      swap2\n      jump(tag_139)\n    tag_140:\n      dup3\n      add\n      swap2\n      swap1\n      0x00\n      mstore\n      keccak256(0x00, 0x20)\n      swap1\n    tag_141:\n      dup2\n      sload\n      dup2\n      mstore\n      swap1\n      0x01\n      add\n      swap1\n      0x20\n      add\n      dup1\n      dup4\n      gt\n      tag_141\n      jumpi\n      dup3\n      swap1\n      sub\n      0x1f\n      and\n      dup3\n      add\n      swap2\n    tag_139:\n      pop\n      pop\n      pop\n      pop\n      pop\n      dup2\n      mstore\n      0x20\n      add\n      0x03\n      dup3\n      add\n      sload\n      dup2\n      mstore\n      0x20\n      add\n      0x04\n      dup3\n      add\n      sload\n      dup2\n      mstore\n      0x20\n      add\n      0x05\n      dup3\n      add\n      sload\n      dup2\n      mstore\n      pop\n      pop\n      dup2\n      mstore\n      pop\n      pop\n      swap1\n      pop\n        /* \"AppFood/AppFoodWEB3/gastroAppLojas.sol\":2205:2212  produto */\n      dup1\n        /* \"AppFood/AppFoodWEB3/gastroAppLojas.sol\":2205:2227  produto.dadosAlimentos */\n      0x00\n      add\n      mload\n        /* \"AppFood/AppFoodWEB3/gastroAppLojas.sol\":2205:2239  produto.dadosAlimentos.nomeProduto */\n      0x00\n      add\n      mload\n        /* \"AppFood/AppFoodWEB3/gastroAppLojas.sol\":2254:2261  produto */\n      dup2\n        /* \"AppFood/AppFoodWEB3/gastroAppLojas.sol\":2254:2276  produto.dadosAlimentos */\n      0x00\n      add\n      mload\n        /* \"AppFood/AppFoodWEB3/gastroAppLojas.sol\":2254:2288  produto.dadosAlimentos.tipoProduto */\n      0x20\n      add\n      mload\n        /* \"AppFood/AppFoodWEB3/gastroAppLojas.sol\":2303:2310  produto */\n      dup3\n        /* \"AppFood/AppFoodWEB3/gastroAppLojas.sol\":2303:2325  produto.dadosAlimentos */\n      0x00\n      add\n      mload\n        /* \"AppFood/AppFoodWEB3/gastroAppLojas.sol\":2303:2335  produto.dadosAlimentos.descricao */\n      0x40\n      add\n      mload\n        /* \"AppFood/AppFoodWEB3/gastroAppLojas.sol\":2350:2357  produto */\n      dup4\n        /* \"AppFood/AppFoodWEB3/gastroAppLojas.sol\":2350:2372  produto.dadosAlimentos */\n      0x00\n      add\n      mload\n        /* \"AppFood/AppFoodWEB3/gastroAppLojas.sol\":2350:2381  produto.dadosAlimentos.validade */\n      0x60\n      add\n      mload\n        /* \"AppFood/AppFoodWEB3/gastroAppLojas.sol\":2396:2403  produto */\n      dup5\n        /* \"AppFood/AppFoodWEB3/gastroAppLojas.sol\":2396:2418  produto.dadosAlimentos */\n      0x00\n      add\n      mload\n        /* \"AppFood/AppFoodWEB3/gastroAppLojas.sol\":2396:2424  produto.dadosAlimentos.valor */\n      0x80\n      add\n      mload\n        /* \"AppFood/AppFoodWEB3/gastroAppLojas.sol\":2439:2446  produto */\n      dup6\n        /* \"AppFood/AppFoodWEB3/gastroAppLojas.sol\":2439:2461  produto.dadosAlimentos */\n      0x00\n      add\n      mload\n        /* \"AppFood/AppFoodWEB3/gastroAppLojas.sol\":2439:2472  produto.dadosAlimentos.quantidade */\n      0xa0\n      add\n      mload\n        /* \"AppFood/AppFoodWEB3/gastroAppLojas.sol\":2183:2483  return (... */\n      swap7\n      pop\n      swap7\n      pop\n      swap7\n      pop\n      swap7\n      pop\n      swap7\n      pop\n      swap7\n      pop\n      pop\n        /* \"AppFood/AppFoodWEB3/gastroAppLojas.sol\":1970:2491  function estoqueAlimentos(string memory _nomeProduto) public view returns (string memory, string memory, string memory, uint, uint, uint) {... */\n      swap2\n      swap4\n      swap6\n      pop\n      swap2\n      swap4\n      swap6\n      jump\t// out\n        /* \"AppFood/AppFoodWEB3/gastroAppLojas.sol\":4281:4816  function addAlimento(string memory _nomeProduto, string memory _tipoProduto, string memory _descricao, uint _validade, uint _valor, uint _quantidade) public donoPerfilmod() {... */\n    tag_50:\n        /* \"AppFood/AppFoodWEB3/gastroAppFuncoes.sol\":968:978  donoPerfil */\n      0x00\n      dup1\n      sload\n      swap1\n      0x0100\n      exp\n      swap1\n      div\n      0xffffffffffffffffffffffffffffffffffffffff\n      and\n        /* \"AppFood/AppFoodWEB3/gastroAppFuncoes.sol\":954:978  msg.sender == donoPerfil */\n      0xffffffffffffffffffffffffffffffffffffffff\n      and\n        /* \"AppFood/AppFoodWEB3/gastroAppFuncoes.sol\":954:964  msg.sender */\n      caller\n        /* \"AppFood/AppFoodWEB3/gastroAppFuncoes.sol\":954:978  msg.sender == donoPerfil */\n      0xffffffffffffffffffffffffffffffffffffffff\n      and\n      eq\n        /* \"AppFood/AppFoodWEB3/gastroAppFuncoes.sol\":946:1021  require(msg.sender == donoPerfil, \"somente o dono pode chamar essa funcao\") */\n      tag_143\n      jumpi\n      mload(0x40)\n      0x08c379a000000000000000000000000000000000000000000000000000000000\n      dup2\n      mstore\n      0x04\n      add\n      tag_144\n      swap1\n      tag_77\n      jump\t// in\n    tag_144:\n      mload(0x40)\n      dup1\n      swap2\n      sub\n      swap1\n      revert\n    tag_143:\n        /* \"AppFood/AppFoodWEB3/gastroAppLojas.sol\":4465:4493  dadosSimilares memory _dados */\n      0x00\n        /* \"AppFood/AppFoodWEB3/gastroAppLojas.sol\":4496:4582  dadosSimilares(_nomeProduto, _tipoProduto, _descricao, _validade, _valor, _quantidade) */\n      mload(0x40)\n      dup1\n      0xc0\n      add\n      0x40\n      mstore\n      dup1\n        /* \"AppFood/AppFoodWEB3/gastroAppLojas.sol\":4511:4523  _nomeProduto */\n      dup9\n        /* \"AppFood/AppFoodWEB3/gastroAppLojas.sol\":4496:4582  dadosSimilares(_nomeProduto, _tipoProduto, _descricao, _validade, _valor, _quantidade) */\n      dup2\n      mstore\n      0x20\n      add\n        /* \"AppFood/AppFoodWEB3/gastroAppLojas.sol\":4525:4537  _tipoProduto */\n      dup8\n        /* \"AppFood/AppFoodWEB3/gastroAppLojas.sol\":4496:4582  dadosSimilares(_nomeProduto, _tipoProduto, _descricao, _validade, _valor, _quantidade) */\n      dup2\n      mstore\n      0x20\n      add\n        /* \"AppFood/AppFoodWEB3/gastroAppLojas.sol\":4539:4549  _descricao */\n      dup7\n        /* \"AppFood/AppFoodWEB3/gastroAppLojas.sol\":4496:4582  dadosSimilares(_nomeProduto, _tipoProduto, _descricao, _validade, _valor, _quantidade) */\n      dup2\n      mstore\n      0x20\n      add\n        /* \"AppFood/AppFoodWEB3/gastroAppLojas.sol\":4551:4560  _validade */\n      dup6\n        /* \"AppFood/AppFoodWEB3/gastroAppLojas.sol\":4496:4582  dadosSimilares(_nomeProduto, _tipoProduto, _descricao, _validade, _valor, _quantidade) */\n      dup2\n      mstore\n      0x20\n      add\n        /* \"AppFood/AppFoodWEB3/gastroAppLojas.sol\":4562:4568  _valor */\n      dup5\n        /* \"AppFood/AppFoodWEB3/gastroAppLojas.sol\":4496:4582  dadosSimilares(_nomeProduto, _tipoProduto, _descricao, _validade, _valor, _quantidade) */\n      dup2\n      mstore\n      0x20\n      add\n        /* \"AppFood/AppFoodWEB3/gastroAppLojas.sol\":4570:4581  _quantidade */\n      dup4\n        /* \"AppFood/AppFoodWEB3/gastroAppLojas.sol\":4496:4582  dadosSimilares(_nomeProduto, _tipoProduto, _descricao, _validade, _valor, _quantidade) */\n      dup2\n      mstore\n      pop\n        /* \"AppFood/AppFoodWEB3/gastroAppLojas.sol\":4465:4582  dadosSimilares memory _dados = dadosSimilares(_nomeProduto, _tipoProduto, _descricao, _validade, _valor, _quantidade) */\n      swap1\n      pop\n        /* \"AppFood/AppFoodWEB3/gastroAppLojas.sol\":4593:4625  Alimentos memory NewMapAlimentos */\n      0x00\n        /* \"AppFood/AppFoodWEB3/gastroAppLojas.sol\":4628:4645  Alimentos(_dados) */\n      mload(0x40)\n      dup1\n      0x20\n      add\n      0x40\n      mstore\n      dup1\n        /* \"AppFood/AppFoodWEB3/gastroAppLojas.sol\":4638:4644  _dados */\n      dup4\n        /* \"AppFood/AppFoodWEB3/gastroAppLojas.sol\":4628:4645  Alimentos(_dados) */\n      dup2\n      mstore\n      pop\n        /* \"AppFood/AppFoodWEB3/gastroAppLojas.sol\":4593:4645  Alimentos memory NewMapAlimentos = Alimentos(_dados) */\n      swap1\n      pop\n        /* \"AppFood/AppFoodWEB3/gastroAppLojas.sol\":4685:4700  NewMapAlimentos */\n      dup1\n        /* \"AppFood/AppFoodWEB3/gastroAppLojas.sol\":4656:4668  mapAlimentos */\n      0x0c\n        /* \"AppFood/AppFoodWEB3/gastroAppLojas.sol\":4669:4681  _nomeProduto */\n      dup10\n        /* \"AppFood/AppFoodWEB3/gastroAppLojas.sol\":4656:4682  mapAlimentos[_nomeProduto] */\n      mload(0x40)\n      tag_146\n      swap2\n      swap1\n      tag_57\n      jump\t// in\n    tag_146:\n      swap1\n      dup2\n      mstore\n      0x20\n      add\n      mload(0x40)\n      dup1\n      swap2\n      sub\n      swap1\n      keccak256\n        /* \"AppFood/AppFoodWEB3/gastroAppLojas.sol\":4656:4700  mapAlimentos[_nomeProduto] = NewMapAlimentos */\n      0x00\n      dup3\n      add\n      mload\n      dup2\n      0x00\n      add\n      0x00\n      dup3\n      add\n      mload\n      dup2\n      0x00\n      add\n      swap1\n      dup2\n      tag_147\n      swap2\n      swap1\n      tag_148\n      jump\t// in\n    tag_147:\n      pop\n      0x20\n      dup3\n      add\n      mload\n      dup2\n      0x01\n      add\n      swap1\n      dup2\n      tag_149\n      swap2\n      swap1\n      tag_148\n      jump\t// in\n    tag_149:\n      pop\n      0x40\n      dup3\n      add\n      mload\n      dup2\n      0x02\n      add\n      swap1\n      dup2\n      tag_150\n      swap2\n      swap1\n      tag_148\n      jump\t// in\n    tag_150:\n      pop\n      0x60\n      dup3\n      add\n      mload\n      dup2\n      0x03\n      add\n      sstore\n      0x80\n      dup3\n      add\n      mload\n      dup2\n      0x04\n      add\n      sstore\n      0xa0\n      dup3\n      add\n      mload\n      dup2\n      0x05\n      add\n      sstore\n      pop\n      pop\n      swap1\n      pop\n      pop\n        /* \"AppFood/AppFoodWEB3/gastroAppLojas.sol\":4736:4747  _quantidade */\n      dup3\n        /* \"AppFood/AppFoodWEB3/gastroAppLojas.sol\":4711:4718  estoque */\n      0x0d\n        /* \"AppFood/AppFoodWEB3/gastroAppLojas.sol\":4719:4731  _nomeProduto */\n      dup10\n        /* \"AppFood/AppFoodWEB3/gastroAppLojas.sol\":4711:4732  estoque[_nomeProduto] */\n      mload(0x40)\n      tag_151\n      swap2\n      swap1\n      tag_57\n      jump\t// in\n    tag_151:\n      swap1\n      dup2\n      mstore\n      0x20\n      add\n      mload(0x40)\n      dup1\n      swap2\n      sub\n      swap1\n      keccak256\n      0x00\n        /* \"AppFood/AppFoodWEB3/gastroAppLojas.sol\":4711:4747  estoque[_nomeProduto] += _quantidade */\n      dup3\n      dup3\n      sload\n      tag_152\n      swap2\n      swap1\n      tag_153\n      jump\t// in\n    tag_152:\n      swap3\n      pop\n      pop\n      dup2\n      swap1\n      sstore\n      pop\n        /* \"AppFood/AppFoodWEB3/gastroAppLojas.sol\":4763:4808  AlimentoAdicionado(_nomeProduto, _quantidade) */\n      0x89dad4c7cf097bd405685bf48b3760bcc26280cbb8832689a1ed04da9190a41a\n        /* \"AppFood/AppFoodWEB3/gastroAppLojas.sol\":4782:4794  _nomeProduto */\n      dup9\n        /* \"AppFood/AppFoodWEB3/gastroAppLojas.sol\":4796:4807  _quantidade */\n      dup5\n        /* \"AppFood/AppFoodWEB3/gastroAppLojas.sol\":4763:4808  AlimentoAdicionado(_nomeProduto, _quantidade) */\n      mload(0x40)\n      tag_154\n      swap3\n      swap2\n      swap1\n      tag_120\n      jump\t// in\n    tag_154:\n      mload(0x40)\n      dup1\n      swap2\n      sub\n      swap1\n      log1\n        /* \"AppFood/AppFoodWEB3/gastroAppLojas.sol\":4454:4816  {... */\n      pop\n      pop\n        /* \"AppFood/AppFoodWEB3/gastroAppLojas.sol\":4281:4816  function addAlimento(string memory _nomeProduto, string memory _tipoProduto, string memory _descricao, uint _validade, uint _valor, uint _quantidade) public donoPerfilmod() {... */\n      pop\n      pop\n      pop\n      pop\n      pop\n      pop\n      jump\t// out\n        /* \"AppFood/AppFoodWEB3/gastroAppLojas.sol\":3127:3647  function addbebidas(string memory _nomeProduto, string memory _tipoProduto, string memory _descricao, uint _validade, uint _valor, uint _quantidade) public donoPerfilmod() {... */\n    tag_54:\n        /* \"AppFood/AppFoodWEB3/gastroAppFuncoes.sol\":968:978  donoPerfil */\n      0x00\n      dup1\n      sload\n      swap1\n      0x0100\n      exp\n      swap1\n      div\n      0xffffffffffffffffffffffffffffffffffffffff\n      and\n        /* \"AppFood/AppFoodWEB3/gastroAppFuncoes.sol\":954:978  msg.sender == donoPerfil */\n      0xffffffffffffffffffffffffffffffffffffffff\n      and\n        /* \"AppFood/AppFoodWEB3/gastroAppFuncoes.sol\":954:964  msg.sender */\n      caller\n        /* \"AppFood/AppFoodWEB3/gastroAppFuncoes.sol\":954:978  msg.sender == donoPerfil */\n      0xffffffffffffffffffffffffffffffffffffffff\n      and\n      eq\n        /* \"AppFood/AppFoodWEB3/gastroAppFuncoes.sol\":946:1021  require(msg.sender == donoPerfil, \"somente o dono pode chamar essa funcao\") */\n      tag_156\n      jumpi\n      mload(0x40)\n      0x08c379a000000000000000000000000000000000000000000000000000000000\n      dup2\n      mstore\n      0x04\n      add\n      tag_157\n      swap1\n      tag_77\n      jump\t// in\n    tag_157:\n      mload(0x40)\n      dup1\n      swap2\n      sub\n      swap1\n      revert\n    tag_156:\n        /* \"AppFood/AppFoodWEB3/gastroAppLojas.sol\":3310:3337  dadosSimilares memory dados */\n      0x00\n        /* \"AppFood/AppFoodWEB3/gastroAppLojas.sol\":3340:3426  dadosSimilares(_nomeProduto, _tipoProduto, _descricao, _validade, _valor, _quantidade) */\n      mload(0x40)\n      dup1\n      0xc0\n      add\n      0x40\n      mstore\n      dup1\n        /* \"AppFood/AppFoodWEB3/gastroAppLojas.sol\":3355:3367  _nomeProduto */\n      dup9\n        /* \"AppFood/AppFoodWEB3/gastroAppLojas.sol\":3340:3426  dadosSimilares(_nomeProduto, _tipoProduto, _descricao, _validade, _valor, _quantidade) */\n      dup2\n      mstore\n      0x20\n      add\n        /* \"AppFood/AppFoodWEB3/gastroAppLojas.sol\":3369:3381  _tipoProduto */\n      dup8\n        /* \"AppFood/AppFoodWEB3/gastroAppLojas.sol\":3340:3426  dadosSimilares(_nomeProduto, _tipoProduto, _descricao, _validade, _valor, _quantidade) */\n      dup2\n      mstore\n      0x20\n      add\n        /* \"AppFood/AppFoodWEB3/gastroAppLojas.sol\":3383:3393  _descricao */\n      dup7\n        /* \"AppFood/AppFoodWEB3/gastroAppLojas.sol\":3340:3426  dadosSimilares(_nomeProduto, _tipoProduto, _descricao, _validade, _valor, _quantidade) */\n      dup2\n      mstore\n      0x20\n      add\n        /* \"AppFood/AppFoodWEB3/gastroAppLojas.sol\":3395:3404  _validade */\n      dup6\n        /* \"AppFood/AppFoodWEB3/gastroAppLojas.sol\":3340:3426  dadosSimilares(_nomeProduto, _tipoProduto, _descricao, _validade, _valor, _quantidade) */\n      dup2\n      mstore\n      0x20\n      add\n        /* \"AppFood/AppFoodWEB3/gastroAppLojas.sol\":3406:3412  _valor */\n      dup5\n        /* \"AppFood/AppFoodWEB3/gastroAppLojas.sol\":3340:3426  dadosSimilares(_nomeProduto, _tipoProduto, _descricao, _validade, _valor, _quantidade) */\n      dup2\n      mstore\n      0x20\n      add\n        /* \"AppFood/AppFoodWEB3/gastroAppLojas.sol\":3414:3425  _quantidade */\n      dup4\n        /* \"AppFood/AppFoodWEB3/gastroAppLojas.sol\":3340:3426  dadosSimilares(_nomeProduto, _tipoProduto, _descricao, _validade, _valor, _quantidade) */\n      dup2\n      mstore\n      pop\n        /* \"AppFood/AppFoodWEB3/gastroAppLojas.sol\":3310:3426  dadosSimilares memory dados = dadosSimilares(_nomeProduto, _tipoProduto, _descricao, _validade, _valor, _quantidade) */\n      swap1\n      pop\n        /* \"AppFood/AppFoodWEB3/gastroAppLojas.sol\":3437:3465  Bebidas memory newMapaBebida */\n      0x00\n        /* \"AppFood/AppFoodWEB3/gastroAppLojas.sol\":3468:3482  Bebidas(dados) */\n      mload(0x40)\n      dup1\n      0x20\n      add\n      0x40\n      mstore\n      dup1\n        /* \"AppFood/AppFoodWEB3/gastroAppLojas.sol\":3476:3481  dados */\n      dup4\n        /* \"AppFood/AppFoodWEB3/gastroAppLojas.sol\":3468:3482  Bebidas(dados) */\n      dup2\n      mstore\n      pop\n        /* \"AppFood/AppFoodWEB3/gastroAppLojas.sol\":3437:3482  Bebidas memory newMapaBebida = Bebidas(dados) */\n      swap1\n      pop\n        /* \"AppFood/AppFoodWEB3/gastroAppLojas.sol\":3520:3533  newMapaBebida */\n      dup1\n        /* \"AppFood/AppFoodWEB3/gastroAppLojas.sol\":3493:3503  mapBebidas */\n      0x0b\n        /* \"AppFood/AppFoodWEB3/gastroAppLojas.sol\":3504:3516  _nomeProduto */\n      dup10\n        /* \"AppFood/AppFoodWEB3/gastroAppLojas.sol\":3493:3517  mapBebidas[_nomeProduto] */\n      mload(0x40)\n      tag_159\n      swap2\n      swap1\n      tag_57\n      jump\t// in\n    tag_159:\n      swap1\n      dup2\n      mstore\n      0x20\n      add\n      mload(0x40)\n      dup1\n      swap2\n      sub\n      swap1\n      keccak256\n        /* \"AppFood/AppFoodWEB3/gastroAppLojas.sol\":3493:3533  mapBebidas[_nomeProduto] = newMapaBebida */\n      0x00\n      dup3\n      add\n      mload\n      dup2\n      0x00\n      add\n      0x00\n      dup3\n      add\n      mload\n      dup2\n      0x00\n      add\n      swap1\n      dup2\n      tag_160\n      swap2\n      swap1\n      tag_148\n      jump\t// in\n    tag_160:\n      pop\n      0x20\n      dup3\n      add\n      mload\n      dup2\n      0x01\n      add\n      swap1\n      dup2\n      tag_161\n      swap2\n      swap1\n      tag_148\n      jump\t// in\n    tag_161:\n      pop\n      0x40\n      dup3\n      add\n      mload\n      dup2\n      0x02\n      add\n      swap1\n      dup2\n      tag_162\n      swap2\n      swap1\n      tag_148\n      jump\t// in\n    tag_162:\n      pop\n      0x60\n      dup3\n      add\n      mload\n      dup2\n      0x03\n      add\n      sstore\n      0x80\n      dup3\n      add\n      mload\n      dup2\n      0x04\n      add\n      sstore\n      0xa0\n      dup3\n      add\n      mload\n      dup2\n      0x05\n      add\n      sstore\n      pop\n      pop\n      swap1\n      pop\n      pop\n        /* \"AppFood/AppFoodWEB3/gastroAppLojas.sol\":3569:3580  _quantidade */\n      dup3\n        /* \"AppFood/AppFoodWEB3/gastroAppLojas.sol\":3544:3551  estoque */\n      0x0d\n        /* \"AppFood/AppFoodWEB3/gastroAppLojas.sol\":3552:3564  _nomeProduto */\n      dup10\n        /* \"AppFood/AppFoodWEB3/gastroAppLojas.sol\":3544:3565  estoque[_nomeProduto] */\n      mload(0x40)\n      tag_163\n      swap2\n      swap1\n      tag_57\n      jump\t// in\n    tag_163:\n      swap1\n      dup2\n      mstore\n      0x20\n      add\n      mload(0x40)\n      dup1\n      swap2\n      sub\n      swap1\n      keccak256\n      0x00\n        /* \"AppFood/AppFoodWEB3/gastroAppLojas.sol\":3544:3580  estoque[_nomeProduto] += _quantidade */\n      dup3\n      dup3\n      sload\n      tag_164\n      swap2\n      swap1\n      tag_153\n      jump\t// in\n    tag_164:\n      swap3\n      pop\n      pop\n      dup2\n      swap1\n      sstore\n      pop\n        /* \"AppFood/AppFoodWEB3/gastroAppLojas.sol\":3596:3639  BebidaAdicionada(_nomeProduto, _quantidade) */\n      0x014aadd2b4e12b29a34a01de343378d6580eca01108dbedb75db5d1ea9351622\n        /* \"AppFood/AppFoodWEB3/gastroAppLojas.sol\":3613:3625  _nomeProduto */\n      dup9\n        /* \"AppFood/AppFoodWEB3/gastroAppLojas.sol\":3627:3638  _quantidade */\n      dup5\n        /* \"AppFood/AppFoodWEB3/gastroAppLojas.sol\":3596:3639  BebidaAdicionada(_nomeProduto, _quantidade) */\n      mload(0x40)\n      tag_165\n      swap3\n      swap2\n      swap1\n      tag_120\n      jump\t// in\n    tag_165:\n      mload(0x40)\n      dup1\n      swap2\n      sub\n      swap1\n      log1\n        /* \"AppFood/AppFoodWEB3/gastroAppLojas.sol\":3299:3647  {... */\n      pop\n      pop\n        /* \"AppFood/AppFoodWEB3/gastroAppLojas.sol\":3127:3647  function addbebidas(string memory _nomeProduto, string memory _tipoProduto, string memory _descricao, uint _validade, uint _valor, uint _quantidade) public donoPerfilmod() {... */\n      pop\n      pop\n      pop\n      pop\n      pop\n      pop\n      jump\t// out\n        /* \"AppFood/AppFoodWEB3/gastroAppFuncoes.sol\":3311:3615  function EditarPerfil(string memory _nome, string memory _endereco, string memory _genero, string memory _foto, string memory _linkExterno, uint _nascimento) internal {... */\n    tag_83:\n        /* \"AppFood/AppFoodWEB3/gastroAppFuncoes.sol\":3510:3577  Perfil(_nome, _endereco, _genero, _foto, _linkExterno, _nascimento) */\n      mload(0x40)\n      dup1\n      0xc0\n      add\n      0x40\n      mstore\n      dup1\n        /* \"AppFood/AppFoodWEB3/gastroAppFuncoes.sol\":3517:3522  _nome */\n      dup8\n        /* \"AppFood/AppFoodWEB3/gastroAppFuncoes.sol\":3510:3577  Perfil(_nome, _endereco, _genero, _foto, _linkExterno, _nascimento) */\n      dup2\n      mstore\n      0x20\n      add\n        /* \"AppFood/AppFoodWEB3/gastroAppFuncoes.sol\":3524:3533  _endereco */\n      dup7\n        /* \"AppFood/AppFoodWEB3/gastroAppFuncoes.sol\":3510:3577  Perfil(_nome, _endereco, _genero, _foto, _linkExterno, _nascimento) */\n      dup2\n      mstore\n      0x20\n      add\n        /* \"AppFood/AppFoodWEB3/gastroAppFuncoes.sol\":3535:3542  _genero */\n      dup6\n        /* \"AppFood/AppFoodWEB3/gastroAppFuncoes.sol\":3510:3577  Perfil(_nome, _endereco, _genero, _foto, _linkExterno, _nascimento) */\n      dup2\n      mstore\n      0x20\n      add\n        /* \"AppFood/AppFoodWEB3/gastroAppFuncoes.sol\":3544:3549  _foto */\n      dup5\n        /* \"AppFood/AppFoodWEB3/gastroAppFuncoes.sol\":3510:3577  Perfil(_nome, _endereco, _genero, _foto, _linkExterno, _nascimento) */\n      dup2\n      mstore\n      0x20\n      add\n        /* \"AppFood/AppFoodWEB3/gastroAppFuncoes.sol\":3551:3563  _linkExterno */\n      dup4\n        /* \"AppFood/AppFoodWEB3/gastroAppFuncoes.sol\":3510:3577  Perfil(_nome, _endereco, _genero, _foto, _linkExterno, _nascimento) */\n      dup2\n      mstore\n      0x20\n      add\n        /* \"AppFood/AppFoodWEB3/gastroAppFuncoes.sol\":3565:3576  _nascimento */\n      dup3\n        /* \"AppFood/AppFoodWEB3/gastroAppFuncoes.sol\":3510:3577  Perfil(_nome, _endereco, _genero, _foto, _linkExterno, _nascimento) */\n      dup2\n      mstore\n      pop\n        /* \"AppFood/AppFoodWEB3/gastroAppFuncoes.sol\":3489:3495  perfis */\n      0x08\n        /* \"AppFood/AppFoodWEB3/gastroAppFuncoes.sol\":3489:3507  perfis[msg.sender] */\n      0x00\n        /* \"AppFood/AppFoodWEB3/gastroAppFuncoes.sol\":3496:3506  msg.sender */\n      caller\n        /* \"AppFood/AppFoodWEB3/gastroAppFuncoes.sol\":3489:3507  perfis[msg.sender] */\n      0xffffffffffffffffffffffffffffffffffffffff\n      and\n      0xffffffffffffffffffffffffffffffffffffffff\n      and\n      dup2\n      mstore\n      0x20\n      add\n      swap1\n      dup2\n      mstore\n      0x20\n      add\n      0x00\n      keccak256\n        /* \"AppFood/AppFoodWEB3/gastroAppFuncoes.sol\":3489:3577  perfis[msg.sender] = Perfil(_nome, _endereco, _genero, _foto, _linkExterno, _nascimento) */\n      0x00\n      dup3\n      add\n      mload\n      dup2\n      0x00\n      add\n      swap1\n      dup2\n      tag_167\n      swap2\n      swap1\n      tag_148\n      jump\t// in\n    tag_167:\n      pop\n      0x20\n      dup3\n      add\n      mload\n      dup2\n      0x01\n      add\n      swap1\n      dup2\n      tag_168\n      swap2\n      swap1\n      tag_148\n      jump\t// in\n    tag_168:\n      pop\n      0x40\n      dup3\n      add\n      mload\n      dup2\n      0x02\n      add\n      swap1\n      dup2\n      tag_169\n      swap2\n      swap1\n      tag_148\n      jump\t// in\n    tag_169:\n      pop\n      0x60\n      dup3\n      add\n      mload\n      dup2\n      0x03\n      add\n      swap1\n      dup2\n      tag_170\n      swap2\n      swap1\n      tag_148\n      jump\t// in\n    tag_170:\n      pop\n      0x80\n      dup3\n      add\n      mload\n      dup2\n      0x04\n      add\n      swap1\n      dup2\n      tag_171\n      swap2\n      swap1\n      tag_148\n      jump\t// in\n    tag_171:\n      pop\n      0xa0\n      dup3\n      add\n      mload\n      dup2\n      0x05\n      add\n      sstore\n      swap1\n      pop\n      pop\n        /* \"AppFood/AppFoodWEB3/gastroAppFuncoes.sol\":3593:3607  editouPerfil() */\n      0x602903b4ab82b8294b982df6e30144aea8e41d3eb12b3214c2800b515ac12f91\n      mload(0x40)\n      mload(0x40)\n      dup1\n      swap2\n      sub\n      swap1\n      log1\n        /* \"AppFood/AppFoodWEB3/gastroAppFuncoes.sol\":3311:3615  function EditarPerfil(string memory _nome, string memory _endereco, string memory _genero, string memory _foto, string memory _linkExterno, uint _nascimento) internal {... */\n      pop\n      pop\n      pop\n      pop\n      pop\n      pop\n      jump\t// out\n    tag_101:\n      pop\n      dup1\n      sload\n      tag_172\n      swap1\n      tag_59\n      jump\t// in\n    tag_172:\n      0x00\n      dup3\n      sstore\n      dup1\n      0x1f\n      lt\n      tag_174\n      jumpi\n      pop\n      jump(tag_173)\n    tag_174:\n      0x1f\n      add\n      0x20\n      swap1\n      div\n      swap1\n      0x00\n      mstore\n      keccak256(0x00, 0x20)\n      swap1\n      dup2\n      add\n      swap1\n      tag_175\n      swap2\n      swap1\n      tag_176\n      jump\t// in\n    tag_175:\n    tag_173:\n      pop\n      jump\t// out\n    tag_176:\n    tag_177:\n      dup1\n      dup3\n      gt\n      iszero\n      tag_178\n      jumpi\n      0x00\n      dup2\n      0x00\n      swap1\n      sstore\n      pop\n      0x01\n      add\n      jump(tag_177)\n    tag_178:\n      pop\n      swap1\n      jump\t// out\n        /* \"#utility.yul\":7:82   */\n    tag_179:\n        /* \"#utility.yul\":40:46   */\n      0x00\n        /* \"#utility.yul\":73:75   */\n      0x40\n        /* \"#utility.yul\":67:76   */\n      mload\n        /* \"#utility.yul\":57:76   */\n      swap1\n      pop\n        /* \"#utility.yul\":7:82   */\n      swap1\n      jump\t// out\n        /* \"#utility.yul\":88:205   */\n    tag_180:\n        /* \"#utility.yul\":197:198   */\n      0x00\n        /* \"#utility.yul\":194:195   */\n      dup1\n        /* \"#utility.yul\":187:199   */\n      revert\n        /* \"#utility.yul\":211:328   */\n    tag_181:\n        /* \"#utility.yul\":320:321   */\n      0x00\n        /* \"#utility.yul\":317:318   */\n      dup1\n        /* \"#utility.yul\":310:322   */\n      revert\n        /* \"#utility.yul\":334:451   */\n    tag_182:\n        /* \"#utility.yul\":443:444   */\n      0x00\n        /* \"#utility.yul\":440:441   */\n      dup1\n        /* \"#utility.yul\":433:445   */\n      revert\n        /* \"#utility.yul\":457:574   */\n    tag_183:\n        /* \"#utility.yul\":566:567   */\n      0x00\n        /* \"#utility.yul\":563:564   */\n      dup1\n        /* \"#utility.yul\":556:568   */\n      revert\n        /* \"#utility.yul\":580:682   */\n    tag_184:\n        /* \"#utility.yul\":621:627   */\n      0x00\n        /* \"#utility.yul\":672:674   */\n      0x1f\n        /* \"#utility.yul\":668:675   */\n      not\n        /* \"#utility.yul\":663:665   */\n      0x1f\n        /* \"#utility.yul\":656:661   */\n      dup4\n        /* \"#utility.yul\":652:666   */\n      add\n        /* \"#utility.yul\":648:676   */\n      and\n        /* \"#utility.yul\":638:676   */\n      swap1\n      pop\n        /* \"#utility.yul\":580:682   */\n      swap2\n      swap1\n      pop\n      jump\t// out\n        /* \"#utility.yul\":688:868   */\n    tag_185:\n        /* \"#utility.yul\":736:813   */\n      0x4e487b7100000000000000000000000000000000000000000000000000000000\n        /* \"#utility.yul\":733:734   */\n      0x00\n        /* \"#utility.yul\":726:814   */\n      mstore\n        /* \"#utility.yul\":833:837   */\n      0x41\n        /* \"#utility.yul\":830:831   */\n      0x04\n        /* \"#utility.yul\":823:838   */\n      mstore\n        /* \"#utility.yul\":857:861   */\n      0x24\n        /* \"#utility.yul\":854:855   */\n      0x00\n        /* \"#utility.yul\":847:862   */\n      revert\n        /* \"#utility.yul\":874:1155   */\n    tag_186:\n        /* \"#utility.yul\":957:984   */\n      tag_238\n        /* \"#utility.yul\":979:983   */\n      dup3\n        /* \"#utility.yul\":957:984   */\n      tag_184\n      jump\t// in\n    tag_238:\n        /* \"#utility.yul\":949:955   */\n      dup2\n        /* \"#utility.yul\":945:985   */\n      add\n        /* \"#utility.yul\":1087:1093   */\n      dup2\n        /* \"#utility.yul\":1075:1085   */\n      dup2\n        /* \"#utility.yul\":1072:1094   */\n      lt\n        /* \"#utility.yul\":1051:1069   */\n      0xffffffffffffffff\n        /* \"#utility.yul\":1039:1049   */\n      dup3\n        /* \"#utility.yul\":1036:1070   */\n      gt\n        /* \"#utility.yul\":1033:1095   */\n      or\n        /* \"#utility.yul\":1030:1118   */\n      iszero\n      tag_239\n      jumpi\n        /* \"#utility.yul\":1098:1116   */\n      tag_240\n      tag_185\n      jump\t// in\n    tag_240:\n        /* \"#utility.yul\":1030:1118   */\n    tag_239:\n        /* \"#utility.yul\":1138:1148   */\n      dup1\n        /* \"#utility.yul\":1134:1136   */\n      0x40\n        /* \"#utility.yul\":1127:1149   */\n      mstore\n        /* \"#utility.yul\":917:1155   */\n      pop\n        /* \"#utility.yul\":874:1155   */\n      pop\n      pop\n      jump\t// out\n        /* \"#utility.yul\":1161:1290   */\n    tag_187:\n        /* \"#utility.yul\":1195:1201   */\n      0x00\n        /* \"#utility.yul\":1222:1242   */\n      tag_242\n      tag_179\n      jump\t// in\n    tag_242:\n        /* \"#utility.yul\":1212:1242   */\n      swap1\n      pop\n        /* \"#utility.yul\":1251:1284   */\n      tag_243\n        /* \"#utility.yul\":1279:1283   */\n      dup3\n        /* \"#utility.yul\":1271:1277   */\n      dup3\n        /* \"#utility.yul\":1251:1284   */\n      tag_186\n      jump\t// in\n    tag_243:\n        /* \"#utility.yul\":1161:1290   */\n      swap2\n      swap1\n      pop\n      jump\t// out\n        /* \"#utility.yul\":1296:1604   */\n    tag_188:\n        /* \"#utility.yul\":1358:1362   */\n      0x00\n        /* \"#utility.yul\":1448:1466   */\n      0xffffffffffffffff\n        /* \"#utility.yul\":1440:1446   */\n      dup3\n        /* \"#utility.yul\":1437:1467   */\n      gt\n        /* \"#utility.yul\":1434:1490   */\n      iszero\n      tag_245\n      jumpi\n        /* \"#utility.yul\":1470:1488   */\n      tag_246\n      tag_185\n      jump\t// in\n    tag_246:\n        /* \"#utility.yul\":1434:1490   */\n    tag_245:\n        /* \"#utility.yul\":1508:1537   */\n      tag_247\n        /* \"#utility.yul\":1530:1536   */\n      dup3\n        /* \"#utility.yul\":1508:1537   */\n      tag_184\n      jump\t// in\n    tag_247:\n        /* \"#utility.yul\":1500:1537   */\n      swap1\n      pop\n        /* \"#utility.yul\":1592:1596   */\n      0x20\n        /* \"#utility.yul\":1586:1590   */\n      dup2\n        /* \"#utility.yul\":1582:1597   */\n      add\n        /* \"#utility.yul\":1574:1597   */\n      swap1\n      pop\n        /* \"#utility.yul\":1296:1604   */\n      swap2\n      swap1\n      pop\n      jump\t// out\n        /* \"#utility.yul\":1610:1756   */\n    tag_189:\n        /* \"#utility.yul\":1707:1713   */\n      dup3\n        /* \"#utility.yul\":1702:1705   */\n      dup2\n        /* \"#utility.yul\":1697:1700   */\n      dup4\n        /* \"#utility.yul\":1684:1714   */\n      calldatacopy\n        /* \"#utility.yul\":1748:1749   */\n      0x00\n        /* \"#utility.yul\":1739:1745   */\n      dup4\n        /* \"#utility.yul\":1734:1737   */\n      dup4\n        /* \"#utility.yul\":1730:1746   */\n      add\n        /* \"#utility.yul\":1723:1750   */\n      mstore\n        /* \"#utility.yul\":1610:1756   */\n      pop\n      pop\n      pop\n      jump\t// out\n        /* \"#utility.yul\":1762:2187   */\n    tag_190:\n        /* \"#utility.yul\":1840:1845   */\n      0x00\n        /* \"#utility.yul\":1865:1931   */\n      tag_250\n        /* \"#utility.yul\":1881:1930   */\n      tag_251\n        /* \"#utility.yul\":1923:1929   */\n      dup5\n        /* \"#utility.yul\":1881:1930   */\n      tag_188\n      jump\t// in\n    tag_251:\n        /* \"#utility.yul\":1865:1931   */\n      tag_187\n      jump\t// in\n    tag_250:\n        /* \"#utility.yul\":1856:1931   */\n      swap1\n      pop\n        /* \"#utility.yul\":1954:1960   */\n      dup3\n        /* \"#utility.yul\":1947:1952   */\n      dup2\n        /* \"#utility.yul\":1940:1961   */\n      mstore\n        /* \"#utility.yul\":1992:1996   */\n      0x20\n        /* \"#utility.yul\":1985:1990   */\n      dup2\n        /* \"#utility.yul\":1981:1997   */\n      add\n        /* \"#utility.yul\":2030:2033   */\n      dup5\n        /* \"#utility.yul\":2021:2027   */\n      dup5\n        /* \"#utility.yul\":2016:2019   */\n      dup5\n        /* \"#utility.yul\":2012:2028   */\n      add\n        /* \"#utility.yul\":2009:2034   */\n      gt\n        /* \"#utility.yul\":2006:2118   */\n      iszero\n      tag_252\n      jumpi\n        /* \"#utility.yul\":2037:2116   */\n      tag_253\n      tag_183\n      jump\t// in\n    tag_253:\n        /* \"#utility.yul\":2006:2118   */\n    tag_252:\n        /* \"#utility.yul\":2127:2181   */\n      tag_254\n        /* \"#utility.yul\":2174:2180   */\n      dup5\n        /* \"#utility.yul\":2169:2172   */\n      dup3\n        /* \"#utility.yul\":2164:2167   */\n      dup6\n        /* \"#utility.yul\":2127:2181   */\n      tag_189\n      jump\t// in\n    tag_254:\n        /* \"#utility.yul\":1846:2187   */\n      pop\n        /* \"#utility.yul\":1762:2187   */\n      swap4\n      swap3\n      pop\n      pop\n      pop\n      jump\t// out\n        /* \"#utility.yul\":2207:2547   */\n    tag_191:\n        /* \"#utility.yul\":2263:2268   */\n      0x00\n        /* \"#utility.yul\":2312:2315   */\n      dup3\n        /* \"#utility.yul\":2305:2309   */\n      0x1f\n        /* \"#utility.yul\":2297:2303   */\n      dup4\n        /* \"#utility.yul\":2293:2310   */\n      add\n        /* \"#utility.yul\":2289:2316   */\n      slt\n        /* \"#utility.yul\":2279:2401   */\n      tag_256\n      jumpi\n        /* \"#utility.yul\":2320:2399   */\n      tag_257\n      tag_182\n      jump\t// in\n    tag_257:\n        /* \"#utility.yul\":2279:2401   */\n    tag_256:\n        /* \"#utility.yul\":2437:2443   */\n      dup2\n        /* \"#utility.yul\":2424:2444   */\n      calldataload\n        /* \"#utility.yul\":2462:2541   */\n      tag_258\n        /* \"#utility.yul\":2537:2540   */\n      dup5\n        /* \"#utility.yul\":2529:2535   */\n      dup3\n        /* \"#utility.yul\":2522:2526   */\n      0x20\n        /* \"#utility.yul\":2514:2520   */\n      dup7\n        /* \"#utility.yul\":2510:2527   */\n      add\n        /* \"#utility.yul\":2462:2541   */\n      tag_190\n      jump\t// in\n    tag_258:\n        /* \"#utility.yul\":2453:2541   */\n      swap2\n      pop\n        /* \"#utility.yul\":2269:2547   */\n      pop\n        /* \"#utility.yul\":2207:2547   */\n      swap3\n      swap2\n      pop\n      pop\n      jump\t// out\n        /* \"#utility.yul\":2553:3062   */\n    tag_15:\n        /* \"#utility.yul\":2622:2628   */\n      0x00\n        /* \"#utility.yul\":2671:2673   */\n      0x20\n        /* \"#utility.yul\":2659:2668   */\n      dup3\n        /* \"#utility.yul\":2650:2657   */\n      dup5\n        /* \"#utility.yul\":2646:2669   */\n      sub\n        /* \"#utility.yul\":2642:2674   */\n      slt\n        /* \"#utility.yul\":2639:2758   */\n      iszero\n      tag_260\n      jumpi\n        /* \"#utility.yul\":2677:2756   */\n      tag_261\n      tag_180\n      jump\t// in\n    tag_261:\n        /* \"#utility.yul\":2639:2758   */\n    tag_260:\n        /* \"#utility.yul\":2825:2826   */\n      0x00\n        /* \"#utility.yul\":2814:2823   */\n      dup3\n        /* \"#utility.yul\":2810:2827   */\n      add\n        /* \"#utility.yul\":2797:2828   */\n      calldataload\n        /* \"#utility.yul\":2855:2873   */\n      0xffffffffffffffff\n        /* \"#utility.yul\":2847:2853   */\n      dup2\n        /* \"#utility.yul\":2844:2874   */\n      gt\n        /* \"#utility.yul\":2841:2958   */\n      iszero\n      tag_262\n      jumpi\n        /* \"#utility.yul\":2877:2956   */\n      tag_263\n      tag_181\n      jump\t// in\n    tag_263:\n        /* \"#utility.yul\":2841:2958   */\n    tag_262:\n        /* \"#utility.yul\":2982:3045   */\n      tag_264\n        /* \"#utility.yul\":3037:3044   */\n      dup5\n        /* \"#utility.yul\":3028:3034   */\n      dup3\n        /* \"#utility.yul\":3017:3026   */\n      dup6\n        /* \"#utility.yul\":3013:3035   */\n      add\n        /* \"#utility.yul\":2982:3045   */\n      tag_191\n      jump\t// in\n    tag_264:\n        /* \"#utility.yul\":2972:3045   */\n      swap2\n      pop\n        /* \"#utility.yul\":2768:3055   */\n      pop\n        /* \"#utility.yul\":2553:3062   */\n      swap3\n      swap2\n      pop\n      pop\n      jump\t// out\n        /* \"#utility.yul\":3068:3167   */\n    tag_192:\n        /* \"#utility.yul\":3120:3126   */\n      0x00\n        /* \"#utility.yul\":3154:3159   */\n      dup2\n        /* \"#utility.yul\":3148:3160   */\n      mload\n        /* \"#utility.yul\":3138:3160   */\n      swap1\n      pop\n        /* \"#utility.yul\":3068:3167   */\n      swap2\n      swap1\n      pop\n      jump\t// out\n        /* \"#utility.yul\":3173:3342   */\n    tag_193:\n        /* \"#utility.yul\":3257:3268   */\n      0x00\n        /* \"#utility.yul\":3291:3297   */\n      dup3\n        /* \"#utility.yul\":3286:3289   */\n      dup3\n        /* \"#utility.yul\":3279:3298   */\n      mstore\n        /* \"#utility.yul\":3331:3335   */\n      0x20\n        /* \"#utility.yul\":3326:3329   */\n      dup3\n        /* \"#utility.yul\":3322:3336   */\n      add\n        /* \"#utility.yul\":3307:3336   */\n      swap1\n      pop\n        /* \"#utility.yul\":3173:3342   */\n      swap3\n      swap2\n      pop\n      pop\n      jump\t// out\n        /* \"#utility.yul\":3348:3594   */\n    tag_194:\n        /* \"#utility.yul\":3429:3430   */\n      0x00\n        /* \"#utility.yul\":3439:3552   */\n    tag_268:\n        /* \"#utility.yul\":3453:3459   */\n      dup4\n        /* \"#utility.yul\":3450:3451   */\n      dup2\n        /* \"#utility.yul\":3447:3460   */\n      lt\n        /* \"#utility.yul\":3439:3552   */\n      iszero\n      tag_270\n      jumpi\n        /* \"#utility.yul\":3538:3539   */\n      dup1\n        /* \"#utility.yul\":3533:3536   */\n      dup3\n        /* \"#utility.yul\":3529:3540   */\n      add\n        /* \"#utility.yul\":3523:3541   */\n      mload\n        /* \"#utility.yul\":3519:3520   */\n      dup2\n        /* \"#utility.yul\":3514:3517   */\n      dup5\n        /* \"#utility.yul\":3510:3521   */\n      add\n        /* \"#utility.yul\":3503:3542   */\n      mstore\n        /* \"#utility.yul\":3475:3477   */\n      0x20\n        /* \"#utility.yul\":3472:3473   */\n      dup2\n        /* \"#utility.yul\":3468:3478   */\n      add\n        /* \"#utility.yul\":3463:3478   */\n      swap1\n      pop\n        /* \"#utility.yul\":3439:3552   */\n      jump(tag_268)\n    tag_270:\n        /* \"#utility.yul\":3586:3587   */\n      0x00\n        /* \"#utility.yul\":3577:3583   */\n      dup5\n        /* \"#utility.yul\":3572:3575   */\n      dup5\n        /* \"#utility.yul\":3568:3584   */\n      add\n        /* \"#utility.yul\":3561:3588   */\n      mstore\n        /* \"#utility.yul\":3410:3594   */\n      pop\n        /* \"#utility.yul\":3348:3594   */\n      pop\n      pop\n      pop\n      jump\t// out\n        /* \"#utility.yul\":3600:3977   */\n    tag_195:\n        /* \"#utility.yul\":3688:3691   */\n      0x00\n        /* \"#utility.yul\":3716:3755   */\n      tag_272\n        /* \"#utility.yul\":3749:3754   */\n      dup3\n        /* \"#utility.yul\":3716:3755   */\n      tag_192\n      jump\t// in\n    tag_272:\n        /* \"#utility.yul\":3771:3842   */\n      tag_273\n        /* \"#utility.yul\":3835:3841   */\n      dup2\n        /* \"#utility.yul\":3830:3833   */\n      dup6\n        /* \"#utility.yul\":3771:3842   */\n      tag_193\n      jump\t// in\n    tag_273:\n        /* \"#utility.yul\":3764:3842   */\n      swap4\n      pop\n        /* \"#utility.yul\":3851:3916   */\n      tag_274\n        /* \"#utility.yul\":3909:3915   */\n      dup2\n        /* \"#utility.yul\":3904:3907   */\n      dup6\n        /* \"#utility.yul\":3897:3901   */\n      0x20\n        /* \"#utility.yul\":3890:3895   */\n      dup7\n        /* \"#utility.yul\":3886:3902   */\n      add\n        /* \"#utility.yul\":3851:3916   */\n      tag_194\n      jump\t// in\n    tag_274:\n        /* \"#utility.yul\":3941:3970   */\n      tag_275\n        /* \"#utility.yul\":3963:3969   */\n      dup2\n        /* \"#utility.yul\":3941:3970   */\n      tag_184\n      jump\t// in\n    tag_275:\n        /* \"#utility.yul\":3936:3939   */\n      dup5\n        /* \"#utility.yul\":3932:3971   */\n      add\n        /* \"#utility.yul\":3925:3971   */\n      swap2\n      pop\n        /* \"#utility.yul\":3692:3977   */\n      pop\n        /* \"#utility.yul\":3600:3977   */\n      swap3\n      swap2\n      pop\n      pop\n      jump\t// out\n        /* \"#utility.yul\":3983:4060   */\n    tag_196:\n        /* \"#utility.yul\":4020:4027   */\n      0x00\n        /* \"#utility.yul\":4049:4054   */\n      dup2\n        /* \"#utility.yul\":4038:4054   */\n      swap1\n      pop\n        /* \"#utility.yul\":3983:4060   */\n      swap2\n      swap1\n      pop\n      jump\t// out\n        /* \"#utility.yul\":4066:4184   */\n    tag_197:\n        /* \"#utility.yul\":4153:4177   */\n      tag_278\n        /* \"#utility.yul\":4171:4176   */\n      dup2\n        /* \"#utility.yul\":4153:4177   */\n      tag_196\n      jump\t// in\n    tag_278:\n        /* \"#utility.yul\":4148:4151   */\n      dup3\n        /* \"#utility.yul\":4141:4178   */\n      mstore\n        /* \"#utility.yul\":4066:4184   */\n      pop\n      pop\n      jump\t// out\n        /* \"#utility.yul\":4190:5238   */\n    tag_18:\n        /* \"#utility.yul\":4483:4487   */\n      0x00\n        /* \"#utility.yul\":4521:4524   */\n      0xc0\n        /* \"#utility.yul\":4510:4519   */\n      dup3\n        /* \"#utility.yul\":4506:4525   */\n      add\n        /* \"#utility.yul\":4498:4525   */\n      swap1\n      pop\n        /* \"#utility.yul\":4571:4580   */\n      dup2\n        /* \"#utility.yul\":4565:4569   */\n      dup2\n        /* \"#utility.yul\":4561:4581   */\n      sub\n        /* \"#utility.yul\":4557:4558   */\n      0x00\n        /* \"#utility.yul\":4546:4555   */\n      dup4\n        /* \"#utility.yul\":4542:4559   */\n      add\n        /* \"#utility.yul\":4535:4582   */\n      mstore\n        /* \"#utility.yul\":4599:4677   */\n      tag_280\n        /* \"#utility.yul\":4672:4676   */\n      dup2\n        /* \"#utility.yul\":4663:4669   */\n      dup10\n        /* \"#utility.yul\":4599:4677   */\n      tag_195\n      jump\t// in\n    tag_280:\n        /* \"#utility.yul\":4591:4677   */\n      swap1\n      pop\n        /* \"#utility.yul\":4724:4733   */\n      dup2\n        /* \"#utility.yul\":4718:4722   */\n      dup2\n        /* \"#utility.yul\":4714:4734   */\n      sub\n        /* \"#utility.yul\":4709:4711   */\n      0x20\n        /* \"#utility.yul\":4698:4707   */\n      dup4\n        /* \"#utility.yul\":4694:4712   */\n      add\n        /* \"#utility.yul\":4687:4735   */\n      mstore\n        /* \"#utility.yul\":4752:4830   */\n      tag_281\n        /* \"#utility.yul\":4825:4829   */\n      dup2\n        /* \"#utility.yul\":4816:4822   */\n      dup9\n        /* \"#utility.yul\":4752:4830   */\n      tag_195\n      jump\t// in\n    tag_281:\n        /* \"#utility.yul\":4744:4830   */\n      swap1\n      pop\n        /* \"#utility.yul\":4877:4886   */\n      dup2\n        /* \"#utility.yul\":4871:4875   */\n      dup2\n        /* \"#utility.yul\":4867:4887   */\n      sub\n        /* \"#utility.yul\":4862:4864   */\n      0x40\n        /* \"#utility.yul\":4851:4860   */\n      dup4\n        /* \"#utility.yul\":4847:4865   */\n      add\n        /* \"#utility.yul\":4840:4888   */\n      mstore\n        /* \"#utility.yul\":4905:4983   */\n      tag_282\n        /* \"#utility.yul\":4978:4982   */\n      dup2\n        /* \"#utility.yul\":4969:4975   */\n      dup8\n        /* \"#utility.yul\":4905:4983   */\n      tag_195\n      jump\t// in\n    tag_282:\n        /* \"#utility.yul\":4897:4983   */\n      swap1\n      pop\n        /* \"#utility.yul\":4993:5065   */\n      tag_283\n        /* \"#utility.yul\":5061:5063   */\n      0x60\n        /* \"#utility.yul\":5050:5059   */\n      dup4\n        /* \"#utility.yul\":5046:5064   */\n      add\n        /* \"#utility.yul\":5037:5043   */\n      dup7\n        /* \"#utility.yul\":4993:5065   */\n      tag_197\n      jump\t// in\n    tag_283:\n        /* \"#utility.yul\":5075:5148   */\n      tag_284\n        /* \"#utility.yul\":5143:5146   */\n      0x80\n        /* \"#utility.yul\":5132:5141   */\n      dup4\n        /* \"#utility.yul\":5128:5147   */\n      add\n        /* \"#utility.yul\":5119:5125   */\n      dup6\n        /* \"#utility.yul\":5075:5148   */\n      tag_197\n      jump\t// in\n    tag_284:\n        /* \"#utility.yul\":5158:5231   */\n      tag_285\n        /* \"#utility.yul\":5226:5229   */\n      0xa0\n        /* \"#utility.yul\":5215:5224   */\n      dup4\n        /* \"#utility.yul\":5211:5230   */\n      add\n        /* \"#utility.yul\":5202:5208   */\n      dup5\n        /* \"#utility.yul\":5158:5231   */\n      tag_197\n      jump\t// in\n    tag_285:\n        /* \"#utility.yul\":4190:5238   */\n      swap8\n      swap7\n      pop\n      pop\n      pop\n      pop\n      pop\n      pop\n      pop\n      jump\t// out\n        /* \"#utility.yul\":5244:5366   */\n    tag_198:\n        /* \"#utility.yul\":5317:5341   */\n      tag_287\n        /* \"#utility.yul\":5335:5340   */\n      dup2\n        /* \"#utility.yul\":5317:5341   */\n      tag_196\n      jump\t// in\n    tag_287:\n        /* \"#utility.yul\":5310:5315   */\n      dup2\n        /* \"#utility.yul\":5307:5342   */\n      eq\n        /* \"#utility.yul\":5297:5360   */\n      tag_288\n      jumpi\n        /* \"#utility.yul\":5356:5357   */\n      0x00\n        /* \"#utility.yul\":5353:5354   */\n      dup1\n        /* \"#utility.yul\":5346:5358   */\n      revert\n        /* \"#utility.yul\":5297:5360   */\n    tag_288:\n        /* \"#utility.yul\":5244:5366   */\n      pop\n      jump\t// out\n        /* \"#utility.yul\":5372:5511   */\n    tag_199:\n        /* \"#utility.yul\":5418:5423   */\n      0x00\n        /* \"#utility.yul\":5456:5462   */\n      dup2\n        /* \"#utility.yul\":5443:5463   */\n      calldataload\n        /* \"#utility.yul\":5434:5463   */\n      swap1\n      pop\n        /* \"#utility.yul\":5472:5505   */\n      tag_290\n        /* \"#utility.yul\":5499:5504   */\n      dup2\n        /* \"#utility.yul\":5472:5505   */\n      tag_198\n      jump\t// in\n    tag_290:\n        /* \"#utility.yul\":5372:5511   */\n      swap3\n      swap2\n      pop\n      pop\n      jump\t// out\n        /* \"#utility.yul\":5517:7474   */\n    tag_22:\n        /* \"#utility.yul\":5671:5677   */\n      0x00\n        /* \"#utility.yul\":5679:5685   */\n      dup1\n        /* \"#utility.yul\":5687:5693   */\n      0x00\n        /* \"#utility.yul\":5695:5701   */\n      dup1\n        /* \"#utility.yul\":5703:5709   */\n      0x00\n        /* \"#utility.yul\":5711:5717   */\n      dup1\n        /* \"#utility.yul\":5760:5763   */\n      0xc0\n        /* \"#utility.yul\":5748:5757   */\n      dup8\n        /* \"#utility.yul\":5739:5746   */\n      dup10\n        /* \"#utility.yul\":5735:5758   */\n      sub\n        /* \"#utility.yul\":5731:5764   */\n      slt\n        /* \"#utility.yul\":5728:5848   */\n      iszero\n      tag_292\n      jumpi\n        /* \"#utility.yul\":5767:5846   */\n      tag_293\n      tag_180\n      jump\t// in\n    tag_293:\n        /* \"#utility.yul\":5728:5848   */\n    tag_292:\n        /* \"#utility.yul\":5915:5916   */\n      0x00\n        /* \"#utility.yul\":5904:5913   */\n      dup8\n        /* \"#utility.yul\":5900:5917   */\n      add\n        /* \"#utility.yul\":5887:5918   */\n      calldataload\n        /* \"#utility.yul\":5945:5963   */\n      0xffffffffffffffff\n        /* \"#utility.yul\":5937:5943   */\n      dup2\n        /* \"#utility.yul\":5934:5964   */\n      gt\n        /* \"#utility.yul\":5931:6048   */\n      iszero\n      tag_294\n      jumpi\n        /* \"#utility.yul\":5967:6046   */\n      tag_295\n      tag_181\n      jump\t// in\n    tag_295:\n        /* \"#utility.yul\":5931:6048   */\n    tag_294:\n        /* \"#utility.yul\":6072:6135   */\n      tag_296\n        /* \"#utility.yul\":6127:6134   */\n      dup10\n        /* \"#utility.yul\":6118:6124   */\n      dup3\n        /* \"#utility.yul\":6107:6116   */\n      dup11\n        /* \"#utility.yul\":6103:6125   */\n      add\n        /* \"#utility.yul\":6072:6135   */\n      tag_191\n      jump\t// in\n    tag_296:\n        /* \"#utility.yul\":6062:6135   */\n      swap7\n      pop\n        /* \"#utility.yul\":5858:6145   */\n      pop\n        /* \"#utility.yul\":6212:6214   */\n      0x20\n        /* \"#utility.yul\":6201:6210   */\n      dup8\n        /* \"#utility.yul\":6197:6215   */\n      add\n        /* \"#utility.yul\":6184:6216   */\n      calldataload\n        /* \"#utility.yul\":6243:6261   */\n      0xffffffffffffffff\n        /* \"#utility.yul\":6235:6241   */\n      dup2\n        /* \"#utility.yul\":6232:6262   */\n      gt\n        /* \"#utility.yul\":6229:6346   */\n      iszero\n      tag_297\n      jumpi\n        /* \"#utility.yul\":6265:6344   */\n      tag_298\n      tag_181\n      jump\t// in\n    tag_298:\n        /* \"#utility.yul\":6229:6346   */\n    tag_297:\n        /* \"#utility.yul\":6370:6433   */\n      tag_299\n        /* \"#utility.yul\":6425:6432   */\n      dup10\n        /* \"#utility.yul\":6416:6422   */\n      dup3\n        /* \"#utility.yul\":6405:6414   */\n      dup11\n        /* \"#utility.yul\":6401:6423   */\n      add\n        /* \"#utility.yul\":6370:6433   */\n      tag_191\n      jump\t// in\n    tag_299:\n        /* \"#utility.yul\":6360:6433   */\n      swap6\n      pop\n        /* \"#utility.yul\":6155:6443   */\n      pop\n        /* \"#utility.yul\":6510:6512   */\n      0x40\n        /* \"#utility.yul\":6499:6508   */\n      dup8\n        /* \"#utility.yul\":6495:6513   */\n      add\n        /* \"#utility.yul\":6482:6514   */\n      calldataload\n        /* \"#utility.yul\":6541:6559   */\n      0xffffffffffffffff\n        /* \"#utility.yul\":6533:6539   */\n      dup2\n        /* \"#utility.yul\":6530:6560   */\n      gt\n        /* \"#utility.yul\":6527:6644   */\n      iszero\n      tag_300\n      jumpi\n        /* \"#utility.yul\":6563:6642   */\n      tag_301\n      tag_181\n      jump\t// in\n    tag_301:\n        /* \"#utility.yul\":6527:6644   */\n    tag_300:\n        /* \"#utility.yul\":6668:6731   */\n      tag_302\n        /* \"#utility.yul\":6723:6730   */\n      dup10\n        /* \"#utility.yul\":6714:6720   */\n      dup3\n        /* \"#utility.yul\":6703:6712   */\n      dup11\n        /* \"#utility.yul\":6699:6721   */\n      add\n        /* \"#utility.yul\":6668:6731   */\n      tag_191\n      jump\t// in\n    tag_302:\n        /* \"#utility.yul\":6658:6731   */\n      swap5\n      pop\n        /* \"#utility.yul\":6453:6741   */\n      pop\n        /* \"#utility.yul\":6808:6810   */\n      0x60\n        /* \"#utility.yul\":6797:6806   */\n      dup8\n        /* \"#utility.yul\":6793:6811   */\n      add\n        /* \"#utility.yul\":6780:6812   */\n      calldataload\n        /* \"#utility.yul\":6839:6857   */\n      0xffffffffffffffff\n        /* \"#utility.yul\":6831:6837   */\n      dup2\n        /* \"#utility.yul\":6828:6858   */\n      gt\n        /* \"#utility.yul\":6825:6942   */\n      iszero\n      tag_303\n      jumpi\n        /* \"#utility.yul\":6861:6940   */\n      tag_304\n      tag_181\n      jump\t// in\n    tag_304:\n        /* \"#utility.yul\":6825:6942   */\n    tag_303:\n        /* \"#utility.yul\":6966:7029   */\n      tag_305\n        /* \"#utility.yul\":7021:7028   */\n      dup10\n        /* \"#utility.yul\":7012:7018   */\n      dup3\n        /* \"#utility.yul\":7001:7010   */\n      dup11\n        /* \"#utility.yul\":6997:7019   */\n      add\n        /* \"#utility.yul\":6966:7029   */\n      tag_191\n      jump\t// in\n    tag_305:\n        /* \"#utility.yul\":6956:7029   */\n      swap4\n      pop\n        /* \"#utility.yul\":6751:7039   */\n      pop\n        /* \"#utility.yul\":7106:7109   */\n      0x80\n        /* \"#utility.yul\":7095:7104   */\n      dup8\n        /* \"#utility.yul\":7091:7110   */\n      add\n        /* \"#utility.yul\":7078:7111   */\n      calldataload\n        /* \"#utility.yul\":7138:7156   */\n      0xffffffffffffffff\n        /* \"#utility.yul\":7130:7136   */\n      dup2\n        /* \"#utility.yul\":7127:7157   */\n      gt\n        /* \"#utility.yul\":7124:7241   */\n      iszero\n      tag_306\n      jumpi\n        /* \"#utility.yul\":7160:7239   */\n      tag_307\n      tag_181\n      jump\t// in\n    tag_307:\n        /* \"#utility.yul\":7124:7241   */\n    tag_306:\n        /* \"#utility.yul\":7265:7328   */\n      tag_308\n        /* \"#utility.yul\":7320:7327   */\n      dup10\n        /* \"#utility.yul\":7311:7317   */\n      dup3\n        /* \"#utility.yul\":7300:7309   */\n      dup11\n        /* \"#utility.yul\":7296:7318   */\n      add\n        /* \"#utility.yul\":7265:7328   */\n      tag_191\n      jump\t// in\n    tag_308:\n        /* \"#utility.yul\":7255:7328   */\n      swap3\n      pop\n        /* \"#utility.yul\":7049:7338   */\n      pop\n        /* \"#utility.yul\":7377:7380   */\n      0xa0\n        /* \"#utility.yul\":7404:7457   */\n      tag_309\n        /* \"#utility.yul\":7449:7456   */\n      dup10\n        /* \"#utility.yul\":7440:7446   */\n      dup3\n        /* \"#utility.yul\":7429:7438   */\n      dup11\n        /* \"#utility.yul\":7425:7447   */\n      add\n        /* \"#utility.yul\":7404:7457   */\n      tag_199\n      jump\t// in\n    tag_309:\n        /* \"#utility.yul\":7394:7457   */\n      swap2\n      pop\n        /* \"#utility.yul\":7348:7467   */\n      pop\n        /* \"#utility.yul\":5517:7474   */\n      swap3\n      swap6\n      pop\n      swap3\n      swap6\n      pop\n      swap3\n      swap6\n      jump\t// out\n        /* \"#utility.yul\":7480:7570   */\n    tag_200:\n        /* \"#utility.yul\":7514:7521   */\n      0x00\n        /* \"#utility.yul\":7557:7562   */\n      dup2\n        /* \"#utility.yul\":7550:7563   */\n      iszero\n        /* \"#utility.yul\":7543:7564   */\n      iszero\n        /* \"#utility.yul\":7532:7564   */\n      swap1\n      pop\n        /* \"#utility.yul\":7480:7570   */\n      swap2\n      swap1\n      pop\n      jump\t// out\n        /* \"#utility.yul\":7576:7685   */\n    tag_201:\n        /* \"#utility.yul\":7657:7678   */\n      tag_312\n        /* \"#utility.yul\":7672:7677   */\n      dup2\n        /* \"#utility.yul\":7657:7678   */\n      tag_200\n      jump\t// in\n    tag_312:\n        /* \"#utility.yul\":7652:7655   */\n      dup3\n        /* \"#utility.yul\":7645:7679   */\n      mstore\n        /* \"#utility.yul\":7576:7685   */\n      pop\n      pop\n      jump\t// out\n        /* \"#utility.yul\":7691:7901   */\n    tag_28:\n        /* \"#utility.yul\":7778:7782   */\n      0x00\n        /* \"#utility.yul\":7816:7818   */\n      0x20\n        /* \"#utility.yul\":7805:7814   */\n      dup3\n        /* \"#utility.yul\":7801:7819   */\n      add\n        /* \"#utility.yul\":7793:7819   */\n      swap1\n      pop\n        /* \"#utility.yul\":7829:7894   */\n      tag_314\n        /* \"#utility.yul\":7891:7892   */\n      0x00\n        /* \"#utility.yul\":7880:7889   */\n      dup4\n        /* \"#utility.yul\":7876:7893   */\n      add\n        /* \"#utility.yul\":7867:7873   */\n      dup5\n        /* \"#utility.yul\":7829:7894   */\n      tag_201\n      jump\t// in\n    tag_314:\n        /* \"#utility.yul\":7691:7901   */\n      swap3\n      swap2\n      pop\n      pop\n      jump\t// out\n        /* \"#utility.yul\":7907:8561   */\n    tag_32:\n        /* \"#utility.yul\":7985:7991   */\n      0x00\n        /* \"#utility.yul\":7993:7999   */\n      dup1\n        /* \"#utility.yul\":8042:8044   */\n      0x40\n        /* \"#utility.yul\":8030:8039   */\n      dup4\n        /* \"#utility.yul\":8021:8028   */\n      dup6\n        /* \"#utility.yul\":8017:8040   */\n      sub\n        /* \"#utility.yul\":8013:8045   */\n      slt\n        /* \"#utility.yul\":8010:8129   */\n      iszero\n      tag_316\n      jumpi\n        /* \"#utility.yul\":8048:8127   */\n      tag_317\n      tag_180\n      jump\t// in\n    tag_317:\n        /* \"#utility.yul\":8010:8129   */\n    tag_316:\n        /* \"#utility.yul\":8196:8197   */\n      0x00\n        /* \"#utility.yul\":8185:8194   */\n      dup4\n        /* \"#utility.yul\":8181:8198   */\n      add\n        /* \"#utility.yul\":8168:8199   */\n      calldataload\n        /* \"#utility.yul\":8226:8244   */\n      0xffffffffffffffff\n        /* \"#utility.yul\":8218:8224   */\n      dup2\n        /* \"#utility.yul\":8215:8245   */\n      gt\n        /* \"#utility.yul\":8212:8329   */\n      iszero\n      tag_318\n      jumpi\n        /* \"#utility.yul\":8248:8327   */\n      tag_319\n      tag_181\n      jump\t// in\n    tag_319:\n        /* \"#utility.yul\":8212:8329   */\n    tag_318:\n        /* \"#utility.yul\":8353:8416   */\n      tag_320\n        /* \"#utility.yul\":8408:8415   */\n      dup6\n        /* \"#utility.yul\":8399:8405   */\n      dup3\n        /* \"#utility.yul\":8388:8397   */\n      dup7\n        /* \"#utility.yul\":8384:8406   */\n      add\n        /* \"#utility.yul\":8353:8416   */\n      tag_191\n      jump\t// in\n    tag_320:\n        /* \"#utility.yul\":8343:8416   */\n      swap3\n      pop\n        /* \"#utility.yul\":8139:8426   */\n      pop\n        /* \"#utility.yul\":8465:8467   */\n      0x20\n        /* \"#utility.yul\":8491:8544   */\n      tag_321\n        /* \"#utility.yul\":8536:8543   */\n      dup6\n        /* \"#utility.yul\":8527:8533   */\n      dup3\n        /* \"#utility.yul\":8516:8525   */\n      dup7\n        /* \"#utility.yul\":8512:8534   */\n      add\n        /* \"#utility.yul\":8491:8544   */\n      tag_199\n      jump\t// in\n    tag_321:\n        /* \"#utility.yul\":8481:8544   */\n      swap2\n      pop\n        /* \"#utility.yul\":8436:8554   */\n      pop\n        /* \"#utility.yul\":7907:8561   */\n      swap3\n      pop\n      swap3\n      swap1\n      pop\n      jump\t// out\n        /* \"#utility.yul\":8567:10164   */\n    tag_49:\n        /* \"#utility.yul\":8701:8707   */\n      0x00\n        /* \"#utility.yul\":8709:8715   */\n      dup1\n        /* \"#utility.yul\":8717:8723   */\n      0x00\n        /* \"#utility.yul\":8725:8731   */\n      dup1\n        /* \"#utility.yul\":8733:8739   */\n      0x00\n        /* \"#utility.yul\":8741:8747   */\n      dup1\n        /* \"#utility.yul\":8790:8793   */\n      0xc0\n        /* \"#utility.yul\":8778:8787   */\n      dup8\n        /* \"#utility.yul\":8769:8776   */\n      dup10\n        /* \"#utility.yul\":8765:8788   */\n      sub\n        /* \"#utility.yul\":8761:8794   */\n      slt\n        /* \"#utility.yul\":8758:8878   */\n      iszero\n      tag_323\n      jumpi\n        /* \"#utility.yul\":8797:8876   */\n      tag_324\n      tag_180\n      jump\t// in\n    tag_324:\n        /* \"#utility.yul\":8758:8878   */\n    tag_323:\n        /* \"#utility.yul\":8945:8946   */\n      0x00\n        /* \"#utility.yul\":8934:8943   */\n      dup8\n        /* \"#utility.yul\":8930:8947   */\n      add\n        /* \"#utility.yul\":8917:8948   */\n      calldataload\n        /* \"#utility.yul\":8975:8993   */\n      0xffffffffffffffff\n        /* \"#utility.yul\":8967:8973   */\n      dup2\n        /* \"#utility.yul\":8964:8994   */\n      gt\n        /* \"#utility.yul\":8961:9078   */\n      iszero\n      tag_325\n      jumpi\n        /* \"#utility.yul\":8997:9076   */\n      tag_326\n      tag_181\n      jump\t// in\n    tag_326:\n        /* \"#utility.yul\":8961:9078   */\n    tag_325:\n        /* \"#utility.yul\":9102:9165   */\n      tag_327\n        /* \"#utility.yul\":9157:9164   */\n      dup10\n        /* \"#utility.yul\":9148:9154   */\n      dup3\n        /* \"#utility.yul\":9137:9146   */\n      dup11\n        /* \"#utility.yul\":9133:9155   */\n      add\n        /* \"#utility.yul\":9102:9165   */\n      tag_191\n      jump\t// in\n    tag_327:\n        /* \"#utility.yul\":9092:9165   */\n      swap7\n      pop\n        /* \"#utility.yul\":8888:9175   */\n      pop\n        /* \"#utility.yul\":9242:9244   */\n      0x20\n        /* \"#utility.yul\":9231:9240   */\n      dup8\n        /* \"#utility.yul\":9227:9245   */\n      add\n        /* \"#utility.yul\":9214:9246   */\n      calldataload\n        /* \"#utility.yul\":9273:9291   */\n      0xffffffffffffffff\n        /* \"#utility.yul\":9265:9271   */\n      dup2\n        /* \"#utility.yul\":9262:9292   */\n      gt\n        /* \"#utility.yul\":9259:9376   */\n      iszero\n      tag_328\n      jumpi\n        /* \"#utility.yul\":9295:9374   */\n      tag_329\n      tag_181\n      jump\t// in\n    tag_329:\n        /* \"#utility.yul\":9259:9376   */\n    tag_328:\n        /* \"#utility.yul\":9400:9463   */\n      tag_330\n        /* \"#utility.yul\":9455:9462   */\n      dup10\n        /* \"#utility.yul\":9446:9452   */\n      dup3\n        /* \"#utility.yul\":9435:9444   */\n      dup11\n        /* \"#utility.yul\":9431:9453   */\n      add\n        /* \"#utility.yul\":9400:9463   */\n      tag_191\n      jump\t// in\n    tag_330:\n        /* \"#utility.yul\":9390:9463   */\n      swap6\n      pop\n        /* \"#utility.yul\":9185:9473   */\n      pop\n        /* \"#utility.yul\":9540:9542   */\n      0x40\n        /* \"#utility.yul\":9529:9538   */\n      dup8\n        /* \"#utility.yul\":9525:9543   */\n      add\n        /* \"#utility.yul\":9512:9544   */\n      calldataload\n        /* \"#utility.yul\":9571:9589   */\n      0xffffffffffffffff\n        /* \"#utility.yul\":9563:9569   */\n      dup2\n        /* \"#utility.yul\":9560:9590   */\n      gt\n        /* \"#utility.yul\":9557:9674   */\n      iszero\n      tag_331\n      jumpi\n        /* \"#utility.yul\":9593:9672   */\n      tag_332\n      tag_181\n      jump\t// in\n    tag_332:\n        /* \"#utility.yul\":9557:9674   */\n    tag_331:\n        /* \"#utility.yul\":9698:9761   */\n      tag_333\n        /* \"#utility.yul\":9753:9760   */\n      dup10\n        /* \"#utility.yul\":9744:9750   */\n      dup3\n        /* \"#utility.yul\":9733:9742   */\n      dup11\n        /* \"#utility.yul\":9729:9751   */\n      add\n        /* \"#utility.yul\":9698:9761   */\n      tag_191\n      jump\t// in\n    tag_333:\n        /* \"#utility.yul\":9688:9761   */\n      swap5\n      pop\n        /* \"#utility.yul\":9483:9771   */\n      pop\n        /* \"#utility.yul\":9810:9812   */\n      0x60\n        /* \"#utility.yul\":9836:9889   */\n      tag_334\n        /* \"#utility.yul\":9881:9888   */\n      dup10\n        /* \"#utility.yul\":9872:9878   */\n      dup3\n        /* \"#utility.yul\":9861:9870   */\n      dup11\n        /* \"#utility.yul\":9857:9879   */\n      add\n        /* \"#utility.yul\":9836:9889   */\n      tag_199\n      jump\t// in\n    tag_334:\n        /* \"#utility.yul\":9826:9889   */\n      swap4\n      pop\n        /* \"#utility.yul\":9781:9899   */\n      pop\n        /* \"#utility.yul\":9938:9941   */\n      0x80\n        /* \"#utility.yul\":9965:10018   */\n      tag_335\n        /* \"#utility.yul\":10010:10017   */\n      dup10\n        /* \"#utility.yul\":10001:10007   */\n      dup3\n        /* \"#utility.yul\":9990:9999   */\n      dup11\n        /* \"#utility.yul\":9986:10008   */\n      add\n        /* \"#utility.yul\":9965:10018   */\n      tag_199\n      jump\t// in\n    tag_335:\n        /* \"#utility.yul\":9955:10018   */\n      swap3\n      pop\n        /* \"#utility.yul\":9909:10028   */\n      pop\n        /* \"#utility.yul\":10067:10070   */\n      0xa0\n        /* \"#utility.yul\":10094:10147   */\n      tag_336\n        /* \"#utility.yul\":10139:10146   */\n      dup10\n        /* \"#utility.yul\":10130:10136   */\n      dup3\n        /* \"#utility.yul\":10119:10128   */\n      dup11\n        /* \"#utility.yul\":10115:10137   */\n      add\n        /* \"#utility.yul\":10094:10147   */\n      tag_199\n      jump\t// in\n    tag_336:\n        /* \"#utility.yul\":10084:10147   */\n      swap2\n      pop\n        /* \"#utility.yul\":10038:10157   */\n      pop\n        /* \"#utility.yul\":8567:10164   */\n      swap3\n      swap6\n      pop\n      swap3\n      swap6\n      pop\n      swap3\n      swap6\n      jump\t// out\n        /* \"#utility.yul\":10170:10318   */\n    tag_202:\n        /* \"#utility.yul\":10272:10283   */\n      0x00\n        /* \"#utility.yul\":10309:10312   */\n      dup2\n        /* \"#utility.yul\":10294:10312   */\n      swap1\n      pop\n        /* \"#utility.yul\":10170:10318   */\n      swap3\n      swap2\n      pop\n      pop\n      jump\t// out\n        /* \"#utility.yul\":10324:10714   */\n    tag_203:\n        /* \"#utility.yul\":10430:10433   */\n      0x00\n        /* \"#utility.yul\":10458:10497   */\n      tag_339\n        /* \"#utility.yul\":10491:10496   */\n      dup3\n        /* \"#utility.yul\":10458:10497   */\n      tag_192\n      jump\t// in\n    tag_339:\n        /* \"#utility.yul\":10513:10602   */\n      tag_340\n        /* \"#utility.yul\":10595:10601   */\n      dup2\n        /* \"#utility.yul\":10590:10593   */\n      dup6\n        /* \"#utility.yul\":10513:10602   */\n      tag_202\n      jump\t// in\n    tag_340:\n        /* \"#utility.yul\":10506:10602   */\n      swap4\n      pop\n        /* \"#utility.yul\":10611:10676   */\n      tag_341\n        /* \"#utility.yul\":10669:10675   */\n      dup2\n        /* \"#utility.yul\":10664:10667   */\n      dup6\n        /* \"#utility.yul\":10657:10661   */\n      0x20\n        /* \"#utility.yul\":10650:10655   */\n      dup7\n        /* \"#utility.yul\":10646:10662   */\n      add\n        /* \"#utility.yul\":10611:10676   */\n      tag_194\n      jump\t// in\n    tag_341:\n        /* \"#utility.yul\":10701:10707   */\n      dup1\n        /* \"#utility.yul\":10696:10699   */\n      dup5\n        /* \"#utility.yul\":10692:10708   */\n      add\n        /* \"#utility.yul\":10685:10708   */\n      swap2\n      pop\n        /* \"#utility.yul\":10434:10714   */\n      pop\n        /* \"#utility.yul\":10324:10714   */\n      swap3\n      swap2\n      pop\n      pop\n      jump\t// out\n        /* \"#utility.yul\":10720:10995   */\n    tag_57:\n        /* \"#utility.yul\":10852:10855   */\n      0x00\n        /* \"#utility.yul\":10874:10969   */\n      tag_343\n        /* \"#utility.yul\":10965:10968   */\n      dup3\n        /* \"#utility.yul\":10956:10962   */\n      dup5\n        /* \"#utility.yul\":10874:10969   */\n      tag_203\n      jump\t// in\n    tag_343:\n        /* \"#utility.yul\":10867:10969   */\n      swap2\n      pop\n        /* \"#utility.yul\":10986:10989   */\n      dup2\n        /* \"#utility.yul\":10979:10989   */\n      swap1\n      pop\n        /* \"#utility.yul\":10720:10995   */\n      swap3\n      swap2\n      pop\n      pop\n      jump\t// out\n        /* \"#utility.yul\":11001:11181   */\n    tag_204:\n        /* \"#utility.yul\":11049:11126   */\n      0x4e487b7100000000000000000000000000000000000000000000000000000000\n        /* \"#utility.yul\":11046:11047   */\n      0x00\n        /* \"#utility.yul\":11039:11127   */\n      mstore\n        /* \"#utility.yul\":11146:11150   */\n      0x22\n        /* \"#utility.yul\":11143:11144   */\n      0x04\n        /* \"#utility.yul\":11136:11151   */\n      mstore\n        /* \"#utility.yul\":11170:11174   */\n      0x24\n        /* \"#utility.yul\":11167:11168   */\n      0x00\n        /* \"#utility.yul\":11160:11175   */\n      revert\n        /* \"#utility.yul\":11187:11507   */\n    tag_59:\n        /* \"#utility.yul\":11231:11237   */\n      0x00\n        /* \"#utility.yul\":11268:11269   */\n      0x02\n        /* \"#utility.yul\":11262:11266   */\n      dup3\n        /* \"#utility.yul\":11258:11270   */\n      div\n        /* \"#utility.yul\":11248:11270   */\n      swap1\n      pop\n        /* \"#utility.yul\":11315:11316   */\n      0x01\n        /* \"#utility.yul\":11309:11313   */\n      dup3\n        /* \"#utility.yul\":11305:11317   */\n      and\n        /* \"#utility.yul\":11336:11354   */\n      dup1\n        /* \"#utility.yul\":11326:11407   */\n      tag_346\n      jumpi\n        /* \"#utility.yul\":11392:11396   */\n      0x7f\n        /* \"#utility.yul\":11384:11390   */\n      dup3\n        /* \"#utility.yul\":11380:11397   */\n      and\n        /* \"#utility.yul\":11370:11397   */\n      swap2\n      pop\n        /* \"#utility.yul\":11326:11407   */\n    tag_346:\n        /* \"#utility.yul\":11454:11456   */\n      0x20\n        /* \"#utility.yul\":11446:11452   */\n      dup3\n        /* \"#utility.yul\":11443:11457   */\n      lt\n        /* \"#utility.yul\":11423:11441   */\n      dup2\n        /* \"#utility.yul\":11420:11458   */\n      sub\n        /* \"#utility.yul\":11417:11501   */\n      tag_347\n      jumpi\n        /* \"#utility.yul\":11473:11491   */\n      tag_348\n      tag_204\n      jump\t// in\n    tag_348:\n        /* \"#utility.yul\":11417:11501   */\n    tag_347:\n        /* \"#utility.yul\":11238:11507   */\n      pop\n        /* \"#utility.yul\":11187:11507   */\n      swap2\n      swap1\n      pop\n      jump\t// out\n        /* \"#utility.yul\":11513:11738   */\n    tag_205:\n        /* \"#utility.yul\":11653:11687   */\n      0x736f6d656e7465206f20646f6e6f20706f6465206368616d6172206573736120\n        /* \"#utility.yul\":11649:11650   */\n      0x00\n        /* \"#utility.yul\":11641:11647   */\n      dup3\n        /* \"#utility.yul\":11637:11651   */\n      add\n        /* \"#utility.yul\":11630:11688   */\n      mstore\n        /* \"#utility.yul\":11722:11730   */\n      0x66756e63616f0000000000000000000000000000000000000000000000000000\n        /* \"#utility.yul\":11717:11719   */\n      0x20\n        /* \"#utility.yul\":11709:11715   */\n      dup3\n        /* \"#utility.yul\":11705:11720   */\n      add\n        /* \"#utility.yul\":11698:11731   */\n      mstore\n        /* \"#utility.yul\":11513:11738   */\n      pop\n      jump\t// out\n        /* \"#utility.yul\":11744:12110   */\n    tag_206:\n        /* \"#utility.yul\":11886:11889   */\n      0x00\n        /* \"#utility.yul\":11907:11974   */\n      tag_351\n        /* \"#utility.yul\":11971:11973   */\n      0x26\n        /* \"#utility.yul\":11966:11969   */\n      dup4\n        /* \"#utility.yul\":11907:11974   */\n      tag_193\n      jump\t// in\n    tag_351:\n        /* \"#utility.yul\":11900:11974   */\n      swap2\n      pop\n        /* \"#utility.yul\":11983:12076   */\n      tag_352\n        /* \"#utility.yul\":12072:12075   */\n      dup3\n        /* \"#utility.yul\":11983:12076   */\n      tag_205\n      jump\t// in\n    tag_352:\n        /* \"#utility.yul\":12101:12103   */\n      0x40\n        /* \"#utility.yul\":12096:12099   */\n      dup3\n        /* \"#utility.yul\":12092:12104   */\n      add\n        /* \"#utility.yul\":12085:12104   */\n      swap1\n      pop\n        /* \"#utility.yul\":11744:12110   */\n      swap2\n      swap1\n      pop\n      jump\t// out\n        /* \"#utility.yul\":12116:12535   */\n    tag_77:\n        /* \"#utility.yul\":12282:12286   */\n      0x00\n        /* \"#utility.yul\":12320:12322   */\n      0x20\n        /* \"#utility.yul\":12309:12318   */\n      dup3\n        /* \"#utility.yul\":12305:12323   */\n      add\n        /* \"#utility.yul\":12297:12323   */\n      swap1\n      pop\n        /* \"#utility.yul\":12369:12378   */\n      dup2\n        /* \"#utility.yul\":12363:12367   */\n      dup2\n        /* \"#utility.yul\":12359:12379   */\n      sub\n        /* \"#utility.yul\":12355:12356   */\n      0x00\n        /* \"#utility.yul\":12344:12353   */\n      dup4\n        /* \"#utility.yul\":12340:12357   */\n      add\n        /* \"#utility.yul\":12333:12380   */\n      mstore\n        /* \"#utility.yul\":12397:12528   */\n      tag_354\n        /* \"#utility.yul\":12523:12527   */\n      dup2\n        /* \"#utility.yul\":12397:12528   */\n      tag_206\n      jump\t// in\n    tag_354:\n        /* \"#utility.yul\":12389:12528   */\n      swap1\n      pop\n        /* \"#utility.yul\":12116:12535   */\n      swap2\n      swap1\n      pop\n      jump\t// out\n        /* \"#utility.yul\":12541:12713   */\n    tag_207:\n        /* \"#utility.yul\":12681:12705   */\n      0x6e656e68756d2070657266696c20636f6d707261646f00000000000000000000\n        /* \"#utility.yul\":12677:12678   */\n      0x00\n        /* \"#utility.yul\":12669:12675   */\n      dup3\n        /* \"#utility.yul\":12665:12679   */\n      add\n        /* \"#utility.yul\":12658:12706   */\n      mstore\n        /* \"#utility.yul\":12541:12713   */\n      pop\n      jump\t// out\n        /* \"#utility.yul\":12719:13085   */\n    tag_208:\n        /* \"#utility.yul\":12861:12864   */\n      0x00\n        /* \"#utility.yul\":12882:12949   */\n      tag_357\n        /* \"#utility.yul\":12946:12948   */\n      0x16\n        /* \"#utility.yul\":12941:12944   */\n      dup4\n        /* \"#utility.yul\":12882:12949   */\n      tag_193\n      jump\t// in\n    tag_357:\n        /* \"#utility.yul\":12875:12949   */\n      swap2\n      pop\n        /* \"#utility.yul\":12958:13051   */\n      tag_358\n        /* \"#utility.yul\":13047:13050   */\n      dup3\n        /* \"#utility.yul\":12958:13051   */\n      tag_207\n      jump\t// in\n    tag_358:\n        /* \"#utility.yul\":13076:13078   */\n      0x20\n        /* \"#utility.yul\":13071:13074   */\n      dup3\n        /* \"#utility.yul\":13067:13079   */\n      add\n        /* \"#utility.yul\":13060:13079   */\n      swap1\n      pop\n        /* \"#utility.yul\":12719:13085   */\n      swap2\n      swap1\n      pop\n      jump\t// out\n        /* \"#utility.yul\":13091:13510   */\n    tag_81:\n        /* \"#utility.yul\":13257:13261   */\n      0x00\n        /* \"#utility.yul\":13295:13297   */\n      0x20\n        /* \"#utility.yul\":13284:13293   */\n      dup3\n        /* \"#utility.yul\":13280:13298   */\n      add\n        /* \"#utility.yul\":13272:13298   */\n      swap1\n      pop\n        /* \"#utility.yul\":13344:13353   */\n      dup2\n        /* \"#utility.yul\":13338:13342   */\n      dup2\n        /* \"#utility.yul\":13334:13354   */\n      sub\n        /* \"#utility.yul\":13330:13331   */\n      0x00\n        /* \"#utility.yul\":13319:13328   */\n      dup4\n        /* \"#utility.yul\":13315:13332   */\n      add\n        /* \"#utility.yul\":13308:13355   */\n      mstore\n        /* \"#utility.yul\":13372:13503   */\n      tag_360\n        /* \"#utility.yul\":13498:13502   */\n      dup2\n        /* \"#utility.yul\":13372:13503   */\n      tag_208\n      jump\t// in\n    tag_360:\n        /* \"#utility.yul\":13364:13503   */\n      swap1\n      pop\n        /* \"#utility.yul\":13091:13510   */\n      swap2\n      swap1\n      pop\n      jump\t// out\n        /* \"#utility.yul\":13516:13737   */\n    tag_209:\n        /* \"#utility.yul\":13656:13690   */\n      0x5175616e74696461646520696e737566696369656e746520656d206573746f71\n        /* \"#utility.yul\":13652:13653   */\n      0x00\n        /* \"#utility.yul\":13644:13650   */\n      dup3\n        /* \"#utility.yul\":13640:13654   */\n      add\n        /* \"#utility.yul\":13633:13691   */\n      mstore\n        /* \"#utility.yul\":13725:13729   */\n      0x7565000000000000000000000000000000000000000000000000000000000000\n        /* \"#utility.yul\":13720:13722   */\n      0x20\n        /* \"#utility.yul\":13712:13718   */\n      dup3\n        /* \"#utility.yul\":13708:13723   */\n      add\n        /* \"#utility.yul\":13701:13730   */\n      mstore\n        /* \"#utility.yul\":13516:13737   */\n      pop\n      jump\t// out\n        /* \"#utility.yul\":13743:14109   */\n    tag_210:\n        /* \"#utility.yul\":13885:13888   */\n      0x00\n        /* \"#utility.yul\":13906:13973   */\n      tag_363\n        /* \"#utility.yul\":13970:13972   */\n      0x22\n        /* \"#utility.yul\":13965:13968   */\n      dup4\n        /* \"#utility.yul\":13906:13973   */\n      tag_193\n      jump\t// in\n    tag_363:\n        /* \"#utility.yul\":13899:13973   */\n      swap2\n      pop\n        /* \"#utility.yul\":13982:14075   */\n      tag_364\n        /* \"#utility.yul\":14071:14074   */\n      dup3\n        /* \"#utility.yul\":13982:14075   */\n      tag_209\n      jump\t// in\n    tag_364:\n        /* \"#utility.yul\":14100:14102   */\n      0x40\n        /* \"#utility.yul\":14095:14098   */\n      dup3\n        /* \"#utility.yul\":14091:14103   */\n      add\n        /* \"#utility.yul\":14084:14103   */\n      swap1\n      pop\n        /* \"#utility.yul\":13743:14109   */\n      swap2\n      swap1\n      pop\n      jump\t// out\n        /* \"#utility.yul\":14115:14534   */\n    tag_91:\n        /* \"#utility.yul\":14281:14285   */\n      0x00\n        /* \"#utility.yul\":14319:14321   */\n      0x20\n        /* \"#utility.yul\":14308:14317   */\n      dup3\n        /* \"#utility.yul\":14304:14322   */\n      add\n        /* \"#utility.yul\":14296:14322   */\n      swap1\n      pop\n        /* \"#utility.yul\":14368:14377   */\n      dup2\n        /* \"#utility.yul\":14362:14366   */\n      dup2\n        /* \"#utility.yul\":14358:14378   */\n      sub\n        /* \"#utility.yul\":14354:14355   */\n      0x00\n        /* \"#utility.yul\":14343:14352   */\n      dup4\n        /* \"#utility.yul\":14339:14356   */\n      add\n        /* \"#utility.yul\":14332:14379   */\n      mstore\n        /* \"#utility.yul\":14396:14527   */\n      tag_366\n        /* \"#utility.yul\":14522:14526   */\n      dup2\n        /* \"#utility.yul\":14396:14527   */\n      tag_210\n      jump\t// in\n    tag_366:\n        /* \"#utility.yul\":14388:14527   */\n      swap1\n      pop\n        /* \"#utility.yul\":14115:14534   */\n      swap2\n      swap1\n      pop\n      jump\t// out\n        /* \"#utility.yul\":14540:14720   */\n    tag_211:\n        /* \"#utility.yul\":14588:14665   */\n      0x4e487b7100000000000000000000000000000000000000000000000000000000\n        /* \"#utility.yul\":14585:14586   */\n      0x00\n        /* \"#utility.yul\":14578:14666   */\n      mstore\n        /* \"#utility.yul\":14685:14689   */\n      0x11\n        /* \"#utility.yul\":14682:14683   */\n      0x04\n        /* \"#utility.yul\":14675:14690   */\n      mstore\n        /* \"#utility.yul\":14709:14713   */\n      0x24\n        /* \"#utility.yul\":14706:14707   */\n      0x00\n        /* \"#utility.yul\":14699:14714   */\n      revert\n        /* \"#utility.yul\":14726:14920   */\n    tag_94:\n        /* \"#utility.yul\":14766:14770   */\n      0x00\n        /* \"#utility.yul\":14786:14806   */\n      tag_369\n        /* \"#utility.yul\":14804:14805   */\n      dup3\n        /* \"#utility.yul\":14786:14806   */\n      tag_196\n      jump\t// in\n    tag_369:\n        /* \"#utility.yul\":14781:14806   */\n      swap2\n      pop\n        /* \"#utility.yul\":14820:14840   */\n      tag_370\n        /* \"#utility.yul\":14838:14839   */\n      dup4\n        /* \"#utility.yul\":14820:14840   */\n      tag_196\n      jump\t// in\n    tag_370:\n        /* \"#utility.yul\":14815:14840   */\n      swap3\n      pop\n        /* \"#utility.yul\":14864:14865   */\n      dup3\n        /* \"#utility.yul\":14861:14862   */\n      dup3\n        /* \"#utility.yul\":14857:14866   */\n      sub\n        /* \"#utility.yul\":14849:14866   */\n      swap1\n      pop\n        /* \"#utility.yul\":14888:14889   */\n      dup2\n        /* \"#utility.yul\":14882:14886   */\n      dup2\n        /* \"#utility.yul\":14879:14890   */\n      gt\n        /* \"#utility.yul\":14876:14913   */\n      iszero\n      tag_371\n      jumpi\n        /* \"#utility.yul\":14893:14911   */\n      tag_372\n      tag_211\n      jump\t// in\n    tag_372:\n        /* \"#utility.yul\":14876:14913   */\n    tag_371:\n        /* \"#utility.yul\":14726:14920   */\n      swap3\n      swap2\n      pop\n      pop\n      jump\t// out\n        /* \"#utility.yul\":14926:15349   */\n    tag_120:\n        /* \"#utility.yul\":15067:15071   */\n      0x00\n        /* \"#utility.yul\":15105:15107   */\n      0x40\n        /* \"#utility.yul\":15094:15103   */\n      dup3\n        /* \"#utility.yul\":15090:15108   */\n      add\n        /* \"#utility.yul\":15082:15108   */\n      swap1\n      pop\n        /* \"#utility.yul\":15154:15163   */\n      dup2\n        /* \"#utility.yul\":15148:15152   */\n      dup2\n        /* \"#utility.yul\":15144:15164   */\n      sub\n        /* \"#utility.yul\":15140:15141   */\n      0x00\n        /* \"#utility.yul\":15129:15138   */\n      dup4\n        /* \"#utility.yul\":15125:15142   */\n      add\n        /* \"#utility.yul\":15118:15165   */\n      mstore\n        /* \"#utility.yul\":15182:15260   */\n      tag_374\n        /* \"#utility.yul\":15255:15259   */\n      dup2\n        /* \"#utility.yul\":15246:15252   */\n      dup6\n        /* \"#utility.yul\":15182:15260   */\n      tag_195\n      jump\t// in\n    tag_374:\n        /* \"#utility.yul\":15174:15260   */\n      swap1\n      pop\n        /* \"#utility.yul\":15270:15342   */\n      tag_375\n        /* \"#utility.yul\":15338:15340   */\n      0x20\n        /* \"#utility.yul\":15327:15336   */\n      dup4\n        /* \"#utility.yul\":15323:15341   */\n      add\n        /* \"#utility.yul\":15314:15320   */\n      dup5\n        /* \"#utility.yul\":15270:15342   */\n      tag_197\n      jump\t// in\n    tag_375:\n        /* \"#utility.yul\":14926:15349   */\n      swap4\n      swap3\n      pop\n      pop\n      pop\n      jump\t// out\n        /* \"#utility.yul\":15355:15523   */\n    tag_212:\n        /* \"#utility.yul\":15495:15515   */\n      0x73616c646f20496e737566696369656e74650000000000000000000000000000\n        /* \"#utility.yul\":15491:15492   */\n      0x00\n        /* \"#utility.yul\":15483:15489   */\n      dup3\n        /* \"#utility.yul\":15479:15493   */\n      add\n        /* \"#utility.yul\":15472:15516   */\n      mstore\n        /* \"#utility.yul\":15355:15523   */\n      pop\n      jump\t// out\n        /* \"#utility.yul\":15529:15895   */\n    tag_213:\n        /* \"#utility.yul\":15671:15674   */\n      0x00\n        /* \"#utility.yul\":15692:15759   */\n      tag_378\n        /* \"#utility.yul\":15756:15758   */\n      0x12\n        /* \"#utility.yul\":15751:15754   */\n      dup4\n        /* \"#utility.yul\":15692:15759   */\n      tag_193\n      jump\t// in\n    tag_378:\n        /* \"#utility.yul\":15685:15759   */\n      swap2\n      pop\n        /* \"#utility.yul\":15768:15861   */\n      tag_379\n        /* \"#utility.yul\":15857:15860   */\n      dup3\n        /* \"#utility.yul\":15768:15861   */\n      tag_212\n      jump\t// in\n    tag_379:\n        /* \"#utility.yul\":15886:15888   */\n      0x20\n        /* \"#utility.yul\":15881:15884   */\n      dup3\n        /* \"#utility.yul\":15877:15889   */\n      add\n        /* \"#utility.yul\":15870:15889   */\n      swap1\n      pop\n        /* \"#utility.yul\":15529:15895   */\n      swap2\n      swap1\n      pop\n      jump\t// out\n        /* \"#utility.yul\":15901:16320   */\n    tag_124:\n        /* \"#utility.yul\":16067:16071   */\n      0x00\n        /* \"#utility.yul\":16105:16107   */\n      0x20\n        /* \"#utility.yul\":16094:16103   */\n      dup3\n        /* \"#utility.yul\":16090:16108   */\n      add\n        /* \"#utility.yul\":16082:16108   */\n      swap1\n      pop\n        /* \"#utility.yul\":16154:16163   */\n      dup2\n        /* \"#utility.yul\":16148:16152   */\n      dup2\n        /* \"#utility.yul\":16144:16164   */\n      sub\n        /* \"#utility.yul\":16140:16141   */\n      0x00\n        /* \"#utility.yul\":16129:16138   */\n      dup4\n        /* \"#utility.yul\":16125:16142   */\n      add\n        /* \"#utility.yul\":16118:16165   */\n      mstore\n        /* \"#utility.yul\":16182:16313   */\n      tag_381\n        /* \"#utility.yul\":16308:16312   */\n      dup2\n        /* \"#utility.yul\":16182:16313   */\n      tag_213\n      jump\t// in\n    tag_381:\n        /* \"#utility.yul\":16174:16313   */\n      swap1\n      pop\n        /* \"#utility.yul\":15901:16320   */\n      swap2\n      swap1\n      pop\n      jump\t// out\n        /* \"#utility.yul\":16326:16467   */\n    tag_214:\n        /* \"#utility.yul\":16375:16379   */\n      0x00\n        /* \"#utility.yul\":16398:16401   */\n      dup2\n        /* \"#utility.yul\":16390:16401   */\n      swap1\n      pop\n        /* \"#utility.yul\":16421:16424   */\n      dup2\n        /* \"#utility.yul\":16418:16419   */\n      0x00\n        /* \"#utility.yul\":16411:16425   */\n      mstore\n        /* \"#utility.yul\":16455:16459   */\n      0x20\n        /* \"#utility.yul\":16452:16453   */\n      0x00\n        /* \"#utility.yul\":16442:16460   */\n      keccak256\n        /* \"#utility.yul\":16434:16460   */\n      swap1\n      pop\n        /* \"#utility.yul\":16326:16467   */\n      swap2\n      swap1\n      pop\n      jump\t// out\n        /* \"#utility.yul\":16473:16566   */\n    tag_215:\n        /* \"#utility.yul\":16510:16516   */\n      0x00\n        /* \"#utility.yul\":16557:16559   */\n      0x20\n        /* \"#utility.yul\":16552:16554   */\n      0x1f\n        /* \"#utility.yul\":16545:16550   */\n      dup4\n        /* \"#utility.yul\":16541:16555   */\n      add\n        /* \"#utility.yul\":16537:16560   */\n      div\n        /* \"#utility.yul\":16527:16560   */\n      swap1\n      pop\n        /* \"#utility.yul\":16473:16566   */\n      swap2\n      swap1\n      pop\n      jump\t// out\n        /* \"#utility.yul\":16572:16679   */\n    tag_216:\n        /* \"#utility.yul\":16616:16624   */\n      0x00\n        /* \"#utility.yul\":16666:16671   */\n      dup3\n        /* \"#utility.yul\":16660:16664   */\n      dup3\n        /* \"#utility.yul\":16656:16672   */\n      shl\n        /* \"#utility.yul\":16635:16672   */\n      swap1\n      pop\n        /* \"#utility.yul\":16572:16679   */\n      swap3\n      swap2\n      pop\n      pop\n      jump\t// out\n        /* \"#utility.yul\":16685:17078   */\n    tag_217:\n        /* \"#utility.yul\":16754:16760   */\n      0x00\n        /* \"#utility.yul\":16804:16805   */\n      0x08\n        /* \"#utility.yul\":16792:16802   */\n      dup4\n        /* \"#utility.yul\":16788:16806   */\n      mul\n        /* \"#utility.yul\":16827:16924   */\n      tag_386\n        /* \"#utility.yul\":16857:16923   */\n      0xffffffffffffffffffffffffffffffffffffffffffffffffffffffffffffffff\n        /* \"#utility.yul\":16846:16855   */\n      dup3\n        /* \"#utility.yul\":16827:16924   */\n      tag_216\n      jump\t// in\n    tag_386:\n        /* \"#utility.yul\":16945:16984   */\n      tag_387\n        /* \"#utility.yul\":16975:16983   */\n      dup7\n        /* \"#utility.yul\":16964:16973   */\n      dup4\n        /* \"#utility.yul\":16945:16984   */\n      tag_216\n      jump\t// in\n    tag_387:\n        /* \"#utility.yul\":16933:16984   */\n      swap6\n      pop\n        /* \"#utility.yul\":17017:17021   */\n      dup1\n        /* \"#utility.yul\":17013:17022   */\n      not\n        /* \"#utility.yul\":17006:17011   */\n      dup5\n        /* \"#utility.yul\":17002:17023   */\n      and\n        /* \"#utility.yul\":16993:17023   */\n      swap4\n      pop\n        /* \"#utility.yul\":17066:17070   */\n      dup1\n        /* \"#utility.yul\":17056:17064   */\n      dup7\n        /* \"#utility.yul\":17052:17071   */\n      and\n        /* \"#utility.yul\":17045:17050   */\n      dup5\n        /* \"#utility.yul\":17042:17072   */\n      or\n        /* \"#utility.yul\":17032:17072   */\n      swap3\n      pop\n        /* \"#utility.yul\":16761:17078   */\n      pop\n      pop\n        /* \"#utility.yul\":16685:17078   */\n      swap4\n      swap3\n      pop\n      pop\n      pop\n      jump\t// out\n        /* \"#utility.yul\":17084:17144   */\n    tag_218:\n        /* \"#utility.yul\":17112:17115   */\n      0x00\n        /* \"#utility.yul\":17133:17138   */\n      dup2\n        /* \"#utility.yul\":17126:17138   */\n      swap1\n      pop\n        /* \"#utility.yul\":17084:17144   */\n      swap2\n      swap1\n      pop\n      jump\t// out\n        /* \"#utility.yul\":17150:17292   */\n    tag_219:\n        /* \"#utility.yul\":17200:17209   */\n      0x00\n        /* \"#utility.yul\":17233:17286   */\n      tag_390\n        /* \"#utility.yul\":17251:17285   */\n      tag_391\n        /* \"#utility.yul\":17260:17284   */\n      tag_392\n        /* \"#utility.yul\":17278:17283   */\n      dup5\n        /* \"#utility.yul\":17260:17284   */\n      tag_196\n      jump\t// in\n    tag_392:\n        /* \"#utility.yul\":17251:17285   */\n      tag_218\n      jump\t// in\n    tag_391:\n        /* \"#utility.yul\":17233:17286   */\n      tag_196\n      jump\t// in\n    tag_390:\n        /* \"#utility.yul\":17220:17286   */\n      swap1\n      pop\n        /* \"#utility.yul\":17150:17292   */\n      swap2\n      swap1\n      pop\n      jump\t// out\n        /* \"#utility.yul\":17298:17373   */\n    tag_220:\n        /* \"#utility.yul\":17341:17344   */\n      0x00\n        /* \"#utility.yul\":17362:17367   */\n      dup2\n        /* \"#utility.yul\":17355:17367   */\n      swap1\n      pop\n        /* \"#utility.yul\":17298:17373   */\n      swap2\n      swap1\n      pop\n      jump\t// out\n        /* \"#utility.yul\":17379:17648   */\n    tag_221:\n        /* \"#utility.yul\":17489:17528   */\n      tag_395\n        /* \"#utility.yul\":17520:17527   */\n      dup4\n        /* \"#utility.yul\":17489:17528   */\n      tag_219\n      jump\t// in\n    tag_395:\n        /* \"#utility.yul\":17550:17641   */\n      tag_396\n        /* \"#utility.yul\":17599:17640   */\n      tag_397\n        /* \"#utility.yul\":17623:17639   */\n      dup3\n        /* \"#utility.yul\":17599:17640   */\n      tag_220\n      jump\t// in\n    tag_397:\n        /* \"#utility.yul\":17591:17597   */\n      dup5\n        /* \"#utility.yul\":17584:17588   */\n      dup5\n        /* \"#utility.yul\":17578:17589   */\n      sload\n        /* \"#utility.yul\":17550:17641   */\n      tag_217\n      jump\t// in\n    tag_396:\n        /* \"#utility.yul\":17544:17548   */\n      dup3\n        /* \"#utility.yul\":17537:17642   */\n      sstore\n        /* \"#utility.yul\":17455:17648   */\n      pop\n        /* \"#utility.yul\":17379:17648   */\n      pop\n      pop\n      pop\n      jump\t// out\n        /* \"#utility.yul\":17654:17727   */\n    tag_222:\n        /* \"#utility.yul\":17699:17702   */\n      0x00\n        /* \"#utility.yul\":17654:17727   */\n      swap1\n      jump\t// out\n        /* \"#utility.yul\":17733:17922   */\n    tag_223:\n        /* \"#utility.yul\":17810:17842   */\n      tag_400\n      tag_222\n      jump\t// in\n    tag_400:\n        /* \"#utility.yul\":17851:17916   */\n      tag_401\n        /* \"#utility.yul\":17909:17915   */\n      dup2\n        /* \"#utility.yul\":17901:17907   */\n      dup5\n        /* \"#utility.yul\":17895:17899   */\n      dup5\n        /* \"#utility.yul\":17851:17916   */\n      tag_221\n      jump\t// in\n    tag_401:\n        /* \"#utility.yul\":17786:17922   */\n      pop\n        /* \"#utility.yul\":17733:17922   */\n      pop\n      pop\n      jump\t// out\n        /* \"#utility.yul\":17928:18114   */\n    tag_224:\n        /* \"#utility.yul\":17988:18108   */\n    tag_403:\n        /* \"#utility.yul\":18005:18008   */\n      dup2\n        /* \"#utility.yul\":17998:18003   */\n      dup2\n        /* \"#utility.yul\":17995:18009   */\n      lt\n        /* \"#utility.yul\":17988:18108   */\n      iszero\n      tag_405\n      jumpi\n        /* \"#utility.yul\":18059:18098   */\n      tag_406\n        /* \"#utility.yul\":18096:18097   */\n      0x00\n        /* \"#utility.yul\":18089:18094   */\n      dup3\n        /* \"#utility.yul\":18059:18098   */\n      tag_223\n      jump\t// in\n    tag_406:\n        /* \"#utility.yul\":18032:18033   */\n      0x01\n        /* \"#utility.yul\":18025:18030   */\n      dup2\n        /* \"#utility.yul\":18021:18034   */\n      add\n        /* \"#utility.yul\":18012:18034   */\n      swap1\n      pop\n        /* \"#utility.yul\":17988:18108   */\n      jump(tag_403)\n    tag_405:\n        /* \"#utility.yul\":17928:18114   */\n      pop\n      pop\n      jump\t// out\n        /* \"#utility.yul\":18120:18663   */\n    tag_225:\n        /* \"#utility.yul\":18221:18223   */\n      0x1f\n        /* \"#utility.yul\":18216:18219   */\n      dup3\n        /* \"#utility.yul\":18213:18224   */\n      gt\n        /* \"#utility.yul\":18210:18656   */\n      iszero\n      tag_408\n      jumpi\n        /* \"#utility.yul\":18255:18293   */\n      tag_409\n        /* \"#utility.yul\":18287:18292   */\n      dup2\n        /* \"#utility.yul\":18255:18293   */\n      tag_214\n      jump\t// in\n    tag_409:\n        /* \"#utility.yul\":18339:18368   */\n      tag_410\n        /* \"#utility.yul\":18357:18367   */\n      dup5\n        /* \"#utility.yul\":18339:18368   */\n      tag_215\n      jump\t// in\n    tag_410:\n        /* \"#utility.yul\":18329:18337   */\n      dup2\n        /* \"#utility.yul\":18325:18369   */\n      add\n        /* \"#utility.yul\":18522:18524   */\n      0x20\n        /* \"#utility.yul\":18510:18520   */\n      dup6\n        /* \"#utility.yul\":18507:18525   */\n      lt\n        /* \"#utility.yul\":18504:18553   */\n      iszero\n      tag_411\n      jumpi\n        /* \"#utility.yul\":18543:18551   */\n      dup2\n        /* \"#utility.yul\":18528:18551   */\n      swap1\n      pop\n        /* \"#utility.yul\":18504:18553   */\n    tag_411:\n        /* \"#utility.yul\":18566:18646   */\n      tag_412\n        /* \"#utility.yul\":18622:18644   */\n      tag_413\n        /* \"#utility.yul\":18640:18643   */\n      dup6\n        /* \"#utility.yul\":18622:18644   */\n      tag_215\n      jump\t// in\n    tag_413:\n        /* \"#utility.yul\":18612:18620   */\n      dup4\n        /* \"#utility.yul\":18608:18645   */\n      add\n        /* \"#utility.yul\":18595:18606   */\n      dup3\n        /* \"#utility.yul\":18566:18646   */\n      tag_224\n      jump\t// in\n    tag_412:\n        /* \"#utility.yul\":18225:18656   */\n      pop\n      pop\n        /* \"#utility.yul\":18210:18656   */\n    tag_408:\n        /* \"#utility.yul\":18120:18663   */\n      pop\n      pop\n      pop\n      jump\t// out\n        /* \"#utility.yul\":18669:18786   */\n    tag_226:\n        /* \"#utility.yul\":18723:18731   */\n      0x00\n        /* \"#utility.yul\":18773:18778   */\n      dup3\n        /* \"#utility.yul\":18767:18771   */\n      dup3\n        /* \"#utility.yul\":18763:18779   */\n      shr\n        /* \"#utility.yul\":18742:18779   */\n      swap1\n      pop\n        /* \"#utility.yul\":18669:18786   */\n      swap3\n      swap2\n      pop\n      pop\n      jump\t// out\n        /* \"#utility.yul\":18792:18961   */\n    tag_227:\n        /* \"#utility.yul\":18836:18842   */\n      0x00\n        /* \"#utility.yul\":18869:18920   */\n      tag_416\n        /* \"#utility.yul\":18917:18918   */\n      0x00\n        /* \"#utility.yul\":18913:18919   */\n      not\n        /* \"#utility.yul\":18905:18910   */\n      dup5\n        /* \"#utility.yul\":18902:18903   */\n      0x08\n        /* \"#utility.yul\":18898:18911   */\n      mul\n        /* \"#utility.yul\":18869:18920   */\n      tag_226\n      jump\t// in\n    tag_416:\n        /* \"#utility.yul\":18865:18921   */\n      not\n        /* \"#utility.yul\":18950:18954   */\n      dup1\n        /* \"#utility.yul\":18944:18948   */\n      dup4\n        /* \"#utility.yul\":18940:18955   */\n      and\n        /* \"#utility.yul\":18930:18955   */\n      swap2\n      pop\n        /* \"#utility.yul\":18843:18961   */\n      pop\n        /* \"#utility.yul\":18792:18961   */\n      swap3\n      swap2\n      pop\n      pop\n      jump\t// out\n        /* \"#utility.yul\":18966:19261   */\n    tag_228:\n        /* \"#utility.yul\":19042:19046   */\n      0x00\n        /* \"#utility.yul\":19188:19217   */\n      tag_418\n        /* \"#utility.yul\":19213:19216   */\n      dup4\n        /* \"#utility.yul\":19207:19211   */\n      dup4\n        /* \"#utility.yul\":19188:19217   */\n      tag_227\n      jump\t// in\n    tag_418:\n        /* \"#utility.yul\":19180:19217   */\n      swap2\n      pop\n        /* \"#utility.yul\":19250:19253   */\n      dup3\n        /* \"#utility.yul\":19247:19248   */\n      0x02\n        /* \"#utility.yul\":19243:19254   */\n      mul\n        /* \"#utility.yul\":19237:19241   */\n      dup3\n        /* \"#utility.yul\":19234:19255   */\n      or\n        /* \"#utility.yul\":19226:19255   */\n      swap1\n      pop\n        /* \"#utility.yul\":18966:19261   */\n      swap3\n      swap2\n      pop\n      pop\n      jump\t// out\n        /* \"#utility.yul\":19266:20661   */\n    tag_148:\n        /* \"#utility.yul\":19383:19420   */\n      tag_420\n        /* \"#utility.yul\":19416:19419   */\n      dup3\n        /* \"#utility.yul\":19383:19420   */\n      tag_192\n      jump\t// in\n    tag_420:\n        /* \"#utility.yul\":19485:19503   */\n      0xffffffffffffffff\n        /* \"#utility.yul\":19477:19483   */\n      dup2\n        /* \"#utility.yul\":19474:19504   */\n      gt\n        /* \"#utility.yul\":19471:19527   */\n      iszero\n      tag_421\n      jumpi\n        /* \"#utility.yul\":19507:19525   */\n      tag_422\n      tag_185\n      jump\t// in\n    tag_422:\n        /* \"#utility.yul\":19471:19527   */\n    tag_421:\n        /* \"#utility.yul\":19551:19589   */\n      tag_423\n        /* \"#utility.yul\":19583:19587   */\n      dup3\n        /* \"#utility.yul\":19577:19588   */\n      sload\n        /* \"#utility.yul\":19551:19589   */\n      tag_59\n      jump\t// in\n    tag_423:\n        /* \"#utility.yul\":19636:19703   */\n      tag_424\n        /* \"#utility.yul\":19696:19702   */\n      dup3\n        /* \"#utility.yul\":19688:19694   */\n      dup3\n        /* \"#utility.yul\":19682:19686   */\n      dup6\n        /* \"#utility.yul\":19636:19703   */\n      tag_225\n      jump\t// in\n    tag_424:\n        /* \"#utility.yul\":19730:19731   */\n      0x00\n        /* \"#utility.yul\":19754:19758   */\n      0x20\n        /* \"#utility.yul\":19741:19758   */\n      swap1\n      pop\n        /* \"#utility.yul\":19786:19788   */\n      0x1f\n        /* \"#utility.yul\":19778:19784   */\n      dup4\n        /* \"#utility.yul\":19775:19789   */\n      gt\n        /* \"#utility.yul\":19803:19804   */\n      0x01\n        /* \"#utility.yul\":19798:20416   */\n      dup2\n      eq\n      tag_426\n      jumpi\n        /* \"#utility.yul\":20460:20461   */\n      0x00\n        /* \"#utility.yul\":20477:20483   */\n      dup5\n        /* \"#utility.yul\":20474:20551   */\n      iszero\n      tag_427\n      jumpi\n        /* \"#utility.yul\":20526:20535   */\n      dup3\n        /* \"#utility.yul\":20521:20524   */\n      dup8\n        /* \"#utility.yul\":20517:20536   */\n      add\n        /* \"#utility.yul\":20511:20537   */\n      mload\n        /* \"#utility.yul\":20502:20537   */\n      swap1\n      pop\n        /* \"#utility.yul\":20474:20551   */\n    tag_427:\n        /* \"#utility.yul\":20577:20644   */\n      tag_428\n        /* \"#utility.yul\":20637:20643   */\n      dup6\n        /* \"#utility.yul\":20630:20635   */\n      dup3\n        /* \"#utility.yul\":20577:20644   */\n      tag_228\n      jump\t// in\n    tag_428:\n        /* \"#utility.yul\":20571:20575   */\n      dup7\n        /* \"#utility.yul\":20564:20645   */\n      sstore\n        /* \"#utility.yul\":20433:20655   */\n      pop\n        /* \"#utility.yul\":19768:20655   */\n      jump(tag_425)\n        /* \"#utility.yul\":19798:20416   */\n    tag_426:\n        /* \"#utility.yul\":19850:19854   */\n      0x1f\n        /* \"#utility.yul\":19846:19855   */\n      not\n        /* \"#utility.yul\":19838:19844   */\n      dup5\n        /* \"#utility.yul\":19834:19856   */\n      and\n        /* \"#utility.yul\":19884:19921   */\n      tag_429\n        /* \"#utility.yul\":19916:19920   */\n      dup7\n        /* \"#utility.yul\":19884:19921   */\n      tag_214\n      jump\t// in\n    tag_429:\n        /* \"#utility.yul\":19943:19944   */\n      0x00\n        /* \"#utility.yul\":19957:20165   */\n    tag_430:\n        /* \"#utility.yul\":19971:19978   */\n      dup3\n        /* \"#utility.yul\":19968:19969   */\n      dup2\n        /* \"#utility.yul\":19965:19979   */\n      lt\n        /* \"#utility.yul\":19957:20165   */\n      iszero\n      tag_432\n      jumpi\n        /* \"#utility.yul\":20050:20059   */\n      dup5\n        /* \"#utility.yul\":20045:20048   */\n      dup10\n        /* \"#utility.yul\":20041:20060   */\n      add\n        /* \"#utility.yul\":20035:20061   */\n      mload\n        /* \"#utility.yul\":20027:20033   */\n      dup3\n        /* \"#utility.yul\":20020:20062   */\n      sstore\n        /* \"#utility.yul\":20101:20102   */\n      0x01\n        /* \"#utility.yul\":20093:20099   */\n      dup3\n        /* \"#utility.yul\":20089:20103   */\n      add\n        /* \"#utility.yul\":20079:20103   */\n      swap2\n      pop\n        /* \"#utility.yul\":20148:20150   */\n      0x20\n        /* \"#utility.yul\":20137:20146   */\n      dup6\n        /* \"#utility.yul\":20133:20151   */\n      add\n        /* \"#utility.yul\":20120:20151   */\n      swap5\n      pop\n        /* \"#utility.yul\":19994:19998   */\n      0x20\n        /* \"#utility.yul\":19991:19992   */\n      dup2\n        /* \"#utility.yul\":19987:19999   */\n      add\n        /* \"#utility.yul\":19982:19999   */\n      swap1\n      pop\n        /* \"#utility.yul\":19957:20165   */\n      jump(tag_430)\n    tag_432:\n        /* \"#utility.yul\":20193:20199   */\n      dup7\n        /* \"#utility.yul\":20184:20191   */\n      dup4\n        /* \"#utility.yul\":20181:20200   */\n      lt\n        /* \"#utility.yul\":20178:20357   */\n      iszero\n      tag_433\n      jumpi\n        /* \"#utility.yul\":20251:20260   */\n      dup5\n        /* \"#utility.yul\":20246:20249   */\n      dup10\n        /* \"#utility.yul\":20242:20261   */\n      add\n        /* \"#utility.yul\":20236:20262   */\n      mload\n        /* \"#utility.yul\":20294:20342   */\n      tag_434\n        /* \"#utility.yul\":20336:20340   */\n      0x1f\n        /* \"#utility.yul\":20328:20334   */\n      dup10\n        /* \"#utility.yul\":20324:20341   */\n      and\n        /* \"#utility.yul\":20313:20322   */\n      dup3\n        /* \"#utility.yul\":20294:20342   */\n      tag_227\n      jump\t// in\n    tag_434:\n        /* \"#utility.yul\":20286:20292   */\n      dup4\n        /* \"#utility.yul\":20279:20343   */\n      sstore\n        /* \"#utility.yul\":20201:20357   */\n      pop\n        /* \"#utility.yul\":20178:20357   */\n    tag_433:\n        /* \"#utility.yul\":20403:20404   */\n      0x01\n        /* \"#utility.yul\":20399:20400   */\n      0x02\n        /* \"#utility.yul\":20391:20397   */\n      dup9\n        /* \"#utility.yul\":20387:20401   */\n      mul\n        /* \"#utility.yul\":20383:20405   */\n      add\n        /* \"#utility.yul\":20377:20381   */\n      dup9\n        /* \"#utility.yul\":20370:20406   */\n      sstore\n        /* \"#utility.yul\":19805:20416   */\n      pop\n      pop\n      pop\n        /* \"#utility.yul\":19768:20655   */\n    tag_425:\n      pop\n        /* \"#utility.yul\":19358:20661   */\n      pop\n      pop\n      pop\n        /* \"#utility.yul\":19266:20661   */\n      pop\n      pop\n      jump\t// out\n        /* \"#utility.yul\":20667:20858   */\n    tag_153:\n        /* \"#utility.yul\":20707:20710   */\n      0x00\n        /* \"#utility.yul\":20726:20746   */\n      tag_436\n        /* \"#utility.yul\":20744:20745   */\n      dup3\n        /* \"#utility.yul\":20726:20746   */\n      tag_196\n      jump\t// in\n    tag_436:\n        /* \"#utility.yul\":20721:20746   */\n      swap2\n      pop\n        /* \"#utility.yul\":20760:20780   */\n      tag_437\n        /* \"#utility.yul\":20778:20779   */\n      dup4\n        /* \"#utility.yul\":20760:20780   */\n      tag_196\n      jump\t// in\n    tag_437:\n        /* \"#utility.yul\":20755:20780   */\n      swap3\n      pop\n        /* \"#utility.yul\":20803:20804   */\n      dup3\n        /* \"#utility.yul\":20800:20801   */\n      dup3\n        /* \"#utility.yul\":20796:20805   */\n      add\n        /* \"#utility.yul\":20789:20805   */\n      swap1\n      pop\n        /* \"#utility.yul\":20824:20827   */\n      dup1\n        /* \"#utility.yul\":20821:20822   */\n      dup3\n        /* \"#utility.yul\":20818:20828   */\n      gt\n        /* \"#utility.yul\":20815:20851   */\n      iszero\n      tag_438\n      jumpi\n        /* \"#utility.yul\":20831:20849   */\n      tag_439\n      tag_211\n      jump\t// in\n    tag_439:\n        /* \"#utility.yul\":20815:20851   */\n    tag_438:\n        /* \"#utility.yul\":20667:20858   */\n      swap3\n      swap2\n      pop\n      pop\n      jump\t// out\n\n    auxdata: 0xa2646970667358221220519400c24d280cc83a6af8bc0e40bc3cf46f9843c9c5439fce4d56b3704a3b3a64736f6c63430008160033\n}\n",
				"bytecode": {
					"linkReferences": {},
					"object": "6080604052600a6004555f60055f6101000a81548160ff02191690831515021790555034801561002d575f80fd5b50611cb88061003b5f395ff3fe608060405260043610610085575f3560e01c806353184f561161005857806353184f561461014457806390628e691461016c578063c1bde1611461018a578063d2b18e3e146101cb578063ee2f1907146101f357610085565b80631f53556314610089578063295ebe2c146100ca578063396555ad146100f25780635245d1d01461011c575b5f80fd5b348015610094575f80fd5b506100af60048036038101906100aa91906112c6565b61021b565b6040516100c19695949392919061139f565b60405180910390f35b3480156100d5575f80fd5b506100f060048036038101906100eb919061143d565b610474565b005b3480156100fd575f80fd5b5061010661056c565b604051610113919061156c565b60405180910390f35b348015610127575f80fd5b50610142600480360381019061013d9190611585565b61057e565b005b34801561014f575f80fd5b5061016a60048036038101906101659190611585565b610775565b005b610174610971565b604051610181919061156c565b60405180910390f35b348015610195575f80fd5b506101b060048036038101906101ab91906112c6565b610a13565b6040516101c29695949392919061139f565b60405180910390f35b3480156101d6575f80fd5b506101f160048036038101906101ec91906115df565b610c6c565b005b3480156101fe575f80fd5b50610219600480360381019061021491906115df565b610e3b565b005b60608060605f805f80600b8860405161023491906116f6565b90815260200160405180910390206040518060200160405290815f82016040518060c00160405290815f8201805461026b90611739565b80601f016020809104026020016040519081016040528092919081815260200182805461029790611739565b80156102e25780601f106102b9576101008083540402835291602001916102e2565b820191905f5260205f20905b8154815290600101906020018083116102c557829003601f168201915b505050505081526020016001820180546102fb90611739565b80601f016020809104026020016040519081016040528092919081815260200182805461032790611739565b80156103725780601f1061034957610100808354040283529160200191610372565b820191905f5260205f20905b81548152906001019060200180831161035557829003601f168201915b5050505050815260200160028201805461038b90611739565b80601f01602080910402602001604051908101604052809291908181526020018280546103b790611739565b80156104025780601f106103d957610100808354040283529160200191610402565b820191905f5260205f20905b8154815290600101906020018083116103e557829003601f168201915b505050505081526020016003820154815260200160048201548152602001600582015481525050815250509050805f01515f0151815f015160200151825f015160400151835f015160600151845f015160800151855f015160a001519650965096509650965096505091939550919395565b5f8054906101000a900473ffffffffffffffffffffffffffffffffffffffff1673ffffffffffffffffffffffffffffffffffffffff163373ffffffffffffffffffffffffffffffffffffffff1614610501576040517f08c379a00000000000000000000000000000000000000000000000000000000081526004016104f8906117d9565b60405180910390fd5b6001151560055f9054906101000a900460ff16151514610556576040517f08c379a000000000000000000000000000000000000000000000000000000000815260040161054d90611841565b60405180910390fd5b61056486868686868661100a565b505050505050565b60055f9054906101000a900460ff1681565b5f8054906101000a900473ffffffffffffffffffffffffffffffffffffffff1673ffffffffffffffffffffffffffffffffffffffff163373ffffffffffffffffffffffffffffffffffffffff161461060b576040517f08c379a0000000000000000000000000000000000000000000000000000000008152600401610602906117d9565b60405180910390fd5b80600b8360405161061c91906116f6565b90815260200160405180910390205f01600501541015610671576040517f08c379a0000000000000000000000000000000000000000000000000000000008152600401610668906118cf565b60405180910390fd5b80600b8360405161068291906116f6565b90815260200160405180910390205f016005015f8282546106a3919061191a565b9250508190555080600d836040516106bb91906116f6565b90815260200160405180910390205f8282546106d7919061191a565b925050819055505f600b836040516106ef91906116f6565b90815260200160405180910390205f01600501540361077157600b8260405161071891906116f6565b90815260200160405180910390205f8082015f8082015f6107399190611121565b600182015f6107489190611121565b600282015f6107579190611121565b600382015f9055600482015f9055600582015f9055505050505b5050565b5f8054906101000a900473ffffffffffffffffffffffffffffffffffffffff1673ffffffffffffffffffffffffffffffffffffffff163373ffffffffffffffffffffffffffffffffffffffff1614610802576040517f08c379a00000000000000000000000000000000000000000000000000000000081526004016107f9906117d9565b60405180910390fd5b80600c8360405161081391906116f6565b90815260200160405180910390205f01600501541015610868576040517f08c379a000000000000000000000000000000000000000000000000000000000815260040161085f906118cf565b60405180910390fd5b80600c8360405161087991906116f6565b90815260200160405180910390205f016005015f82825461089a919061191a565b925050819055505f600c836040516108b291906116f6565b90815260200160405180910390205f01600501540361093457600c826040516108db91906116f6565b90815260200160405180910390205f8082015f8082015f6108fc9190611121565b600182015f61090b9190611121565b600282015f61091a9190611121565b600382015f9055600482015f9055600582015f9055505050505b7f9603a62e507248f16dc1809ba54ddfda4b21cd6dac214a05dbfb4769f21d2ed2828260405161096592919061194d565b60405180910390a15050565b5f60045434146109b6576040517f08c379a00000000000000000000000000000000000000000000000000000000081526004016109ad906119c5565b60405180910390fd5b335f806101000a81548173ffffffffffffffffffffffffffffffffffffffff021916908373ffffffffffffffffffffffffffffffffffffffff160217905550600160055f6101000a81548160ff0219169083151502179055905090565b60608060605f805f80600c88604051610a2c91906116f6565b90815260200160405180910390206040518060200160405290815f82016040518060c00160405290815f82018054610a6390611739565b80601f0160208091040260200160405190810160405280929190818152602001828054610a8f90611739565b8015610ada5780601f10610ab157610100808354040283529160200191610ada565b820191905f5260205f20905b815481529060010190602001808311610abd57829003601f168201915b50505050508152602001600182018054610af390611739565b80601f0160208091040260200160405190810160405280929190818152602001828054610b1f90611739565b8015610b6a5780601f10610b4157610100808354040283529160200191610b6a565b820191905f5260205f20905b815481529060010190602001808311610b4d57829003601f168201915b50505050508152602001600282018054610b8390611739565b80601f0160208091040260200160405190810160405280929190818152602001828054610baf90611739565b8015610bfa5780601f10610bd157610100808354040283529160200191610bfa565b820191905f5260205f20905b815481529060010190602001808311610bdd57829003601f168201915b505050505081526020016003820154815260200160048201548152602001600582015481525050815250509050805f01515f0151815f015160200151825f015160400151835f015160600151845f015160800151855f015160a001519650965096509650965096505091939550919395565b5f8054906101000a900473ffffffffffffffffffffffffffffffffffffffff1673ffffffffffffffffffffffffffffffffffffffff163373ffffffffffffffffffffffffffffffffffffffff1614610cf9576040517f08c379a0000000000000000000000000000000000000000000000000000000008152600401610cf0906117d9565b60405180910390fd5b5f6040518060c001604052808881526020018781526020018681526020018581526020018481526020018381525090505f604051806020016040528083815250905080600c89604051610d4c91906116f6565b90815260200160405180910390205f820151815f015f820151815f019081610d749190611b80565b506020820151816001019081610d8a9190611b80565b506040820151816002019081610da09190611b80565b50606082015181600301556080820151816004015560a08201518160050155505090505082600d89604051610dd591906116f6565b90815260200160405180910390205f828254610df19190611c4f565b925050819055507f89dad4c7cf097bd405685bf48b3760bcc26280cbb8832689a1ed04da9190a41a8884604051610e2992919061194d565b60405180910390a15050505050505050565b5f8054906101000a900473ffffffffffffffffffffffffffffffffffffffff1673ffffffffffffffffffffffffffffffffffffffff163373ffffffffffffffffffffffffffffffffffffffff1614610ec8576040517f08c379a0000000000000000000000000000000000000000000000000000000008152600401610ebf906117d9565b60405180910390fd5b5f6040518060c001604052808881526020018781526020018681526020018581526020018481526020018381525090505f604051806020016040528083815250905080600b89604051610f1b91906116f6565b90815260200160405180910390205f820151815f015f820151815f019081610f439190611b80565b506020820151816001019081610f599190611b80565b506040820151816002019081610f6f9190611b80565b50606082015181600301556080820151816004015560a08201518160050155505090505082600d89604051610fa491906116f6565b90815260200160405180910390205f828254610fc09190611c4f565b925050819055507f014aadd2b4e12b29a34a01de343378d6580eca01108dbedb75db5d1ea93516228884604051610ff892919061194d565b60405180910390a15050505050505050565b6040518060c001604052808781526020018681526020018581526020018481526020018381526020018281525060085f3373ffffffffffffffffffffffffffffffffffffffff1673ffffffffffffffffffffffffffffffffffffffff1681526020019081526020015f205f820151815f0190816110879190611b80565b50602082015181600101908161109d9190611b80565b5060408201518160020190816110b39190611b80565b5060608201518160030190816110c99190611b80565b5060808201518160040190816110df9190611b80565b5060a082015181600501559050507f602903b4ab82b8294b982df6e30144aea8e41d3eb12b3214c2800b515ac12f9160405160405180910390a1505050505050565b50805461112d90611739565b5f825580601f1061113e575061115b565b601f0160209004905f5260205f209081019061115a919061115e565b5b50565b5b80821115611175575f815f90555060010161115f565b5090565b5f604051905090565b5f80fd5b5f80fd5b5f80fd5b5f80fd5b5f601f19601f8301169050919050565b7f4e487b71000000000000000000000000000000000000000000000000000000005f52604160045260245ffd5b6111d882611192565b810181811067ffffffffffffffff821117156111f7576111f66111a2565b5b80604052505050565b5f611209611179565b905061121582826111cf565b919050565b5f67ffffffffffffffff821115611234576112336111a2565b5b61123d82611192565b9050602081019050919050565b828183375f83830152505050565b5f61126a6112658461121a565b611200565b9050828152602081018484840111156112865761128561118e565b5b61129184828561124a565b509392505050565b5f82601f8301126112ad576112ac61118a565b5b81356112bd848260208601611258565b91505092915050565b5f602082840312156112db576112da611182565b5b5f82013567ffffffffffffffff8111156112f8576112f7611186565b5b61130484828501611299565b91505092915050565b5f81519050919050565b5f82825260208201905092915050565b5f5b83811015611344578082015181840152602081019050611329565b5f8484015250505050565b5f6113598261130d565b6113638185611317565b9350611373818560208601611327565b61137c81611192565b840191505092915050565b5f819050919050565b61139981611387565b82525050565b5f60c0820190508181035f8301526113b7818961134f565b905081810360208301526113cb818861134f565b905081810360408301526113df818761134f565b90506113ee6060830186611390565b6113fb6080830185611390565b61140860a0830184611390565b979650505050505050565b61141c81611387565b8114611426575f80fd5b50565b5f8135905061143781611413565b92915050565b5f805f805f8060c0878903121561145757611456611182565b5b5f87013567ffffffffffffffff81111561147457611473611186565b5b61148089828a01611299565b965050602087013567ffffffffffffffff8111156114a1576114a0611186565b5b6114ad89828a01611299565b955050604087013567ffffffffffffffff8111156114ce576114cd611186565b5b6114da89828a01611299565b945050606087013567ffffffffffffffff8111156114fb576114fa611186565b5b61150789828a01611299565b935050608087013567ffffffffffffffff81111561152857611527611186565b5b61153489828a01611299565b92505060a061154589828a01611429565b9150509295509295509295565b5f8115159050919050565b61156681611552565b82525050565b5f60208201905061157f5f83018461155d565b92915050565b5f806040838503121561159b5761159a611182565b5b5f83013567ffffffffffffffff8111156115b8576115b7611186565b5b6115c485828601611299565b92505060206115d585828601611429565b9150509250929050565b5f805f805f8060c087890312156115f9576115f8611182565b5b5f87013567ffffffffffffffff81111561161657611615611186565b5b61162289828a01611299565b965050602087013567ffffffffffffffff81111561164357611642611186565b5b61164f89828a01611299565b955050604087013567ffffffffffffffff8111156116705761166f611186565b5b61167c89828a01611299565b945050606061168d89828a01611429565b935050608061169e89828a01611429565b92505060a06116af89828a01611429565b9150509295509295509295565b5f81905092915050565b5f6116d08261130d565b6116da81856116bc565b93506116ea818560208601611327565b80840191505092915050565b5f61170182846116c6565b915081905092915050565b7f4e487b71000000000000000000000000000000000000000000000000000000005f52602260045260245ffd5b5f600282049050600182168061175057607f821691505b6020821081036117635761176261170c565b5b50919050565b7f736f6d656e7465206f20646f6e6f20706f6465206368616d61722065737361205f8201527f66756e63616f0000000000000000000000000000000000000000000000000000602082015250565b5f6117c3602683611317565b91506117ce82611769565b604082019050919050565b5f6020820190508181035f8301526117f0816117b7565b9050919050565b7f6e656e68756d2070657266696c20636f6d707261646f000000000000000000005f82015250565b5f61182b601683611317565b9150611836826117f7565b602082019050919050565b5f6020820190508181035f8301526118588161181f565b9050919050565b7f5175616e74696461646520696e737566696369656e746520656d206573746f715f8201527f7565000000000000000000000000000000000000000000000000000000000000602082015250565b5f6118b9602283611317565b91506118c48261185f565b604082019050919050565b5f6020820190508181035f8301526118e6816118ad565b9050919050565b7f4e487b71000000000000000000000000000000000000000000000000000000005f52601160045260245ffd5b5f61192482611387565b915061192f83611387565b9250828203905081811115611947576119466118ed565b5b92915050565b5f6040820190508181035f830152611965818561134f565b90506119746020830184611390565b9392505050565b7f73616c646f20496e737566696369656e746500000000000000000000000000005f82015250565b5f6119af601283611317565b91506119ba8261197b565b602082019050919050565b5f6020820190508181035f8301526119dc816119a3565b9050919050565b5f819050815f5260205f209050919050565b5f6020601f8301049050919050565b5f82821b905092915050565b5f60088302611a3f7fffffffffffffffffffffffffffffffffffffffffffffffffffffffffffffffff82611a04565b611a498683611a04565b95508019841693508086168417925050509392505050565b5f819050919050565b5f611a84611a7f611a7a84611387565b611a61565b611387565b9050919050565b5f819050919050565b611a9d83611a6a565b611ab1611aa982611a8b565b848454611a10565b825550505050565b5f90565b611ac5611ab9565b611ad0818484611a94565b505050565b5b81811015611af357611ae85f82611abd565b600181019050611ad6565b5050565b601f821115611b3857611b09816119e3565b611b12846119f5565b81016020851015611b21578190505b611b35611b2d856119f5565b830182611ad5565b50505b505050565b5f82821c905092915050565b5f611b585f1984600802611b3d565b1980831691505092915050565b5f611b708383611b49565b9150826002028217905092915050565b611b898261130d565b67ffffffffffffffff811115611ba257611ba16111a2565b5b611bac8254611739565b611bb7828285611af7565b5f60209050601f831160018114611be8575f8415611bd6578287015190505b611be08582611b65565b865550611c47565b601f198416611bf6866119e3565b5f5b82811015611c1d57848901518255600182019150602085019450602081019050611bf8565b86831015611c3a5784890151611c36601f891682611b49565b8355505b6001600288020188555050505b505050505050565b5f611c5982611387565b9150611c6483611387565b9250828201905080821115611c7c57611c7b6118ed565b5b9291505056fea2646970667358221220519400c24d280cc83a6af8bc0e40bc3cf46f9843c9c5439fce4d56b3704a3b3a64736f6c63430008160033",
					"opcodes": "PUSH1 0x80 PUSH1 0x40 MSTORE PUSH1 0xA PUSH1 0x4 SSTORE PUSH0 PUSH1 0x5 PUSH0 PUSH2 0x100 EXP DUP2 SLOAD DUP2 PUSH1 0xFF MUL NOT AND SWAP1 DUP4 ISZERO ISZERO MUL OR SWAP1 SSTORE POP CALLVALUE DUP1 ISZERO PUSH2 0x2D JUMPI PUSH0 DUP1 REVERT JUMPDEST POP PUSH2 0x1CB8 DUP1 PUSH2 0x3B PUSH0 CODECOPY PUSH0 RETURN INVALID PUSH1 0x80 PUSH1 0x40 MSTORE PUSH1 0x4 CALLDATASIZE LT PUSH2 0x85 JUMPI PUSH0 CALLDATALOAD PUSH1 0xE0 SHR DUP1 PUSH4 0x53184F56 GT PUSH2 0x58 JUMPI DUP1 PUSH4 0x53184F56 EQ PUSH2 0x144 JUMPI DUP1 PUSH4 0x90628E69 EQ PUSH2 0x16C JUMPI DUP1 PUSH4 0xC1BDE161 EQ PUSH2 0x18A JUMPI DUP1 PUSH4 0xD2B18E3E EQ PUSH2 0x1CB JUMPI DUP1 PUSH4 0xEE2F1907 EQ PUSH2 0x1F3 JUMPI PUSH2 0x85 JUMP JUMPDEST DUP1 PUSH4 0x1F535563 EQ PUSH2 0x89 JUMPI DUP1 PUSH4 0x295EBE2C EQ PUSH2 0xCA JUMPI DUP1 PUSH4 0x396555AD EQ PUSH2 0xF2 JUMPI DUP1 PUSH4 0x5245D1D0 EQ PUSH2 0x11C JUMPI JUMPDEST PUSH0 DUP1 REVERT JUMPDEST CALLVALUE DUP1 ISZERO PUSH2 0x94 JUMPI PUSH0 DUP1 REVERT JUMPDEST POP PUSH2 0xAF PUSH1 0x4 DUP1 CALLDATASIZE SUB DUP2 ADD SWAP1 PUSH2 0xAA SWAP2 SWAP1 PUSH2 0x12C6 JUMP JUMPDEST PUSH2 0x21B JUMP JUMPDEST PUSH1 0x40 MLOAD PUSH2 0xC1 SWAP7 SWAP6 SWAP5 SWAP4 SWAP3 SWAP2 SWAP1 PUSH2 0x139F JUMP JUMPDEST PUSH1 0x40 MLOAD DUP1 SWAP2 SUB SWAP1 RETURN JUMPDEST CALLVALUE DUP1 ISZERO PUSH2 0xD5 JUMPI PUSH0 DUP1 REVERT JUMPDEST POP PUSH2 0xF0 PUSH1 0x4 DUP1 CALLDATASIZE SUB DUP2 ADD SWAP1 PUSH2 0xEB SWAP2 SWAP1 PUSH2 0x143D JUMP JUMPDEST PUSH2 0x474 JUMP JUMPDEST STOP JUMPDEST CALLVALUE DUP1 ISZERO PUSH2 0xFD JUMPI PUSH0 DUP1 REVERT JUMPDEST POP PUSH2 0x106 PUSH2 0x56C JUMP JUMPDEST PUSH1 0x40 MLOAD PUSH2 0x113 SWAP2 SWAP1 PUSH2 0x156C JUMP JUMPDEST PUSH1 0x40 MLOAD DUP1 SWAP2 SUB SWAP1 RETURN JUMPDEST CALLVALUE DUP1 ISZERO PUSH2 0x127 JUMPI PUSH0 DUP1 REVERT JUMPDEST POP PUSH2 0x142 PUSH1 0x4 DUP1 CALLDATASIZE SUB DUP2 ADD SWAP1 PUSH2 0x13D SWAP2 SWAP1 PUSH2 0x1585 JUMP JUMPDEST PUSH2 0x57E JUMP JUMPDEST STOP JUMPDEST CALLVALUE DUP1 ISZERO PUSH2 0x14F JUMPI PUSH0 DUP1 REVERT JUMPDEST POP PUSH2 0x16A PUSH1 0x4 DUP1 CALLDATASIZE SUB DUP2 ADD SWAP1 PUSH2 0x165 SWAP2 SWAP1 PUSH2 0x1585 JUMP JUMPDEST PUSH2 0x775 JUMP JUMPDEST STOP JUMPDEST PUSH2 0x174 PUSH2 0x971 JUMP JUMPDEST PUSH1 0x40 MLOAD PUSH2 0x181 SWAP2 SWAP1 PUSH2 0x156C JUMP JUMPDEST PUSH1 0x40 MLOAD DUP1 SWAP2 SUB SWAP1 RETURN JUMPDEST CALLVALUE DUP1 ISZERO PUSH2 0x195 JUMPI PUSH0 DUP1 REVERT JUMPDEST POP PUSH2 0x1B0 PUSH1 0x4 DUP1 CALLDATASIZE SUB DUP2 ADD SWAP1 PUSH2 0x1AB SWAP2 SWAP1 PUSH2 0x12C6 JUMP JUMPDEST PUSH2 0xA13 JUMP JUMPDEST PUSH1 0x40 MLOAD PUSH2 0x1C2 SWAP7 SWAP6 SWAP5 SWAP4 SWAP3 SWAP2 SWAP1 PUSH2 0x139F JUMP JUMPDEST PUSH1 0x40 MLOAD DUP1 SWAP2 SUB SWAP1 RETURN JUMPDEST CALLVALUE DUP1 ISZERO PUSH2 0x1D6 JUMPI PUSH0 DUP1 REVERT JUMPDEST POP PUSH2 0x1F1 PUSH1 0x4 DUP1 CALLDATASIZE SUB DUP2 ADD SWAP1 PUSH2 0x1EC SWAP2 SWAP1 PUSH2 0x15DF JUMP JUMPDEST PUSH2 0xC6C JUMP JUMPDEST STOP JUMPDEST CALLVALUE DUP1 ISZERO PUSH2 0x1FE JUMPI PUSH0 DUP1 REVERT JUMPDEST POP PUSH2 0x219 PUSH1 0x4 DUP1 CALLDATASIZE SUB DUP2 ADD SWAP1 PUSH2 0x214 SWAP2 SWAP1 PUSH2 0x15DF JUMP JUMPDEST PUSH2 0xE3B JUMP JUMPDEST STOP JUMPDEST PUSH1 0x60 DUP1 PUSH1 0x60 PUSH0 DUP1 PUSH0 DUP1 PUSH1 0xB DUP9 PUSH1 0x40 MLOAD PUSH2 0x234 SWAP2 SWAP1 PUSH2 0x16F6 JUMP JUMPDEST SWAP1 DUP2 MSTORE PUSH1 0x20 ADD PUSH1 0x40 MLOAD DUP1 SWAP2 SUB SWAP1 KECCAK256 PUSH1 0x40 MLOAD DUP1 PUSH1 0x20 ADD PUSH1 0x40 MSTORE SWAP1 DUP2 PUSH0 DUP3 ADD PUSH1 0x40 MLOAD DUP1 PUSH1 0xC0 ADD PUSH1 0x40 MSTORE SWAP1 DUP2 PUSH0 DUP3 ADD DUP1 SLOAD PUSH2 0x26B SWAP1 PUSH2 0x1739 JUMP JUMPDEST DUP1 PUSH1 0x1F ADD PUSH1 0x20 DUP1 SWAP2 DIV MUL PUSH1 0x20 ADD PUSH1 0x40 MLOAD SWAP1 DUP2 ADD PUSH1 0x40 MSTORE DUP1 SWAP3 SWAP2 SWAP1 DUP2 DUP2 MSTORE PUSH1 0x20 ADD DUP3 DUP1 SLOAD PUSH2 0x297 SWAP1 PUSH2 0x1739 JUMP JUMPDEST DUP1 ISZERO PUSH2 0x2E2 JUMPI DUP1 PUSH1 0x1F LT PUSH2 0x2B9 JUMPI PUSH2 0x100 DUP1 DUP4 SLOAD DIV MUL DUP4 MSTORE SWAP2 PUSH1 0x20 ADD SWAP2 PUSH2 0x2E2 JUMP JUMPDEST DUP3 ADD SWAP2 SWAP1 PUSH0 MSTORE PUSH1 0x20 PUSH0 KECCAK256 SWAP1 JUMPDEST DUP2 SLOAD DUP2 MSTORE SWAP1 PUSH1 0x1 ADD SWAP1 PUSH1 0x20 ADD DUP1 DUP4 GT PUSH2 0x2C5 JUMPI DUP3 SWAP1 SUB PUSH1 0x1F AND DUP3 ADD SWAP2 JUMPDEST POP POP POP POP POP DUP2 MSTORE PUSH1 0x20 ADD PUSH1 0x1 DUP3 ADD DUP1 SLOAD PUSH2 0x2FB SWAP1 PUSH2 0x1739 JUMP JUMPDEST DUP1 PUSH1 0x1F ADD PUSH1 0x20 DUP1 SWAP2 DIV MUL PUSH1 0x20 ADD PUSH1 0x40 MLOAD SWAP1 DUP2 ADD PUSH1 0x40 MSTORE DUP1 SWAP3 SWAP2 SWAP1 DUP2 DUP2 MSTORE PUSH1 0x20 ADD DUP3 DUP1 SLOAD PUSH2 0x327 SWAP1 PUSH2 0x1739 JUMP JUMPDEST DUP1 ISZERO PUSH2 0x372 JUMPI DUP1 PUSH1 0x1F LT PUSH2 0x349 JUMPI PUSH2 0x100 DUP1 DUP4 SLOAD DIV MUL DUP4 MSTORE SWAP2 PUSH1 0x20 ADD SWAP2 PUSH2 0x372 JUMP JUMPDEST DUP3 ADD SWAP2 SWAP1 PUSH0 MSTORE PUSH1 0x20 PUSH0 KECCAK256 SWAP1 JUMPDEST DUP2 SLOAD DUP2 MSTORE SWAP1 PUSH1 0x1 ADD SWAP1 PUSH1 0x20 ADD DUP1 DUP4 GT PUSH2 0x355 JUMPI DUP3 SWAP1 SUB PUSH1 0x1F AND DUP3 ADD SWAP2 JUMPDEST POP POP POP POP POP DUP2 MSTORE PUSH1 0x20 ADD PUSH1 0x2 DUP3 ADD DUP1 SLOAD PUSH2 0x38B SWAP1 PUSH2 0x1739 JUMP JUMPDEST DUP1 PUSH1 0x1F ADD PUSH1 0x20 DUP1 SWAP2 DIV MUL PUSH1 0x20 ADD PUSH1 0x40 MLOAD SWAP1 DUP2 ADD PUSH1 0x40 MSTORE DUP1 SWAP3 SWAP2 SWAP1 DUP2 DUP2 MSTORE PUSH1 0x20 ADD DUP3 DUP1 SLOAD PUSH2 0x3B7 SWAP1 PUSH2 0x1739 JUMP JUMPDEST DUP1 ISZERO PUSH2 0x402 JUMPI DUP1 PUSH1 0x1F LT PUSH2 0x3D9 JUMPI PUSH2 0x100 DUP1 DUP4 SLOAD DIV MUL DUP4 MSTORE SWAP2 PUSH1 0x20 ADD SWAP2 PUSH2 0x402 JUMP JUMPDEST DUP3 ADD SWAP2 SWAP1 PUSH0 MSTORE PUSH1 0x20 PUSH0 KECCAK256 SWAP1 JUMPDEST DUP2 SLOAD DUP2 MSTORE SWAP1 PUSH1 0x1 ADD SWAP1 PUSH1 0x20 ADD DUP1 DUP4 GT PUSH2 0x3E5 JUMPI DUP3 SWAP1 SUB PUSH1 0x1F AND DUP3 ADD SWAP2 JUMPDEST POP POP POP POP POP DUP2 MSTORE PUSH1 0x20 ADD PUSH1 0x3 DUP3 ADD SLOAD DUP2 MSTORE PUSH1 0x20 ADD PUSH1 0x4 DUP3 ADD SLOAD DUP2 MSTORE PUSH1 0x20 ADD PUSH1 0x5 DUP3 ADD SLOAD DUP2 MSTORE POP POP DUP2 MSTORE POP POP SWAP1 POP DUP1 PUSH0 ADD MLOAD PUSH0 ADD MLOAD DUP2 PUSH0 ADD MLOAD PUSH1 0x20 ADD MLOAD DUP3 PUSH0 ADD MLOAD PUSH1 0x40 ADD MLOAD DUP4 PUSH0 ADD MLOAD PUSH1 0x60 ADD MLOAD DUP5 PUSH0 ADD MLOAD PUSH1 0x80 ADD MLOAD DUP6 PUSH0 ADD MLOAD PUSH1 0xA0 ADD MLOAD SWAP7 POP SWAP7 POP SWAP7 POP SWAP7 POP SWAP7 POP SWAP7 POP POP SWAP2 SWAP4 SWAP6 POP SWAP2 SWAP4 SWAP6 JUMP JUMPDEST PUSH0 DUP1 SLOAD SWAP1 PUSH2 0x100 EXP SWAP1 DIV PUSH20 0xFFFFFFFFFFFFFFFFFFFFFFFFFFFFFFFFFFFFFFFF AND PUSH20 0xFFFFFFFFFFFFFFFFFFFFFFFFFFFFFFFFFFFFFFFF AND CALLER PUSH20 0xFFFFFFFFFFFFFFFFFFFFFFFFFFFFFFFFFFFFFFFF AND EQ PUSH2 0x501 JUMPI PUSH1 0x40 MLOAD PUSH32 0x8C379A000000000000000000000000000000000000000000000000000000000 DUP2 MSTORE PUSH1 0x4 ADD PUSH2 0x4F8 SWAP1 PUSH2 0x17D9 JUMP JUMPDEST PUSH1 0x40 MLOAD DUP1 SWAP2 SUB SWAP1 REVERT JUMPDEST PUSH1 0x1 ISZERO ISZERO PUSH1 0x5 PUSH0 SWAP1 SLOAD SWAP1 PUSH2 0x100 EXP SWAP1 DIV PUSH1 0xFF AND ISZERO ISZERO EQ PUSH2 0x556 JUMPI PUSH1 0x40 MLOAD PUSH32 0x8C379A000000000000000000000000000000000000000000000000000000000 DUP2 MSTORE PUSH1 0x4 ADD PUSH2 0x54D SWAP1 PUSH2 0x1841 JUMP JUMPDEST PUSH1 0x40 MLOAD DUP1 SWAP2 SUB SWAP1 REVERT JUMPDEST PUSH2 0x564 DUP7 DUP7 DUP7 DUP7 DUP7 DUP7 PUSH2 0x100A JUMP JUMPDEST POP POP POP POP POP POP JUMP JUMPDEST PUSH1 0x5 PUSH0 SWAP1 SLOAD SWAP1 PUSH2 0x100 EXP SWAP1 DIV PUSH1 0xFF AND DUP2 JUMP JUMPDEST PUSH0 DUP1 SLOAD SWAP1 PUSH2 0x100 EXP SWAP1 DIV PUSH20 0xFFFFFFFFFFFFFFFFFFFFFFFFFFFFFFFFFFFFFFFF AND PUSH20 0xFFFFFFFFFFFFFFFFFFFFFFFFFFFFFFFFFFFFFFFF AND CALLER PUSH20 0xFFFFFFFFFFFFFFFFFFFFFFFFFFFFFFFFFFFFFFFF AND EQ PUSH2 0x60B JUMPI PUSH1 0x40 MLOAD PUSH32 0x8C379A000000000000000000000000000000000000000000000000000000000 DUP2 MSTORE PUSH1 0x4 ADD PUSH2 0x602 SWAP1 PUSH2 0x17D9 JUMP JUMPDEST PUSH1 0x40 MLOAD DUP1 SWAP2 SUB SWAP1 REVERT JUMPDEST DUP1 PUSH1 0xB DUP4 PUSH1 0x40 MLOAD PUSH2 0x61C SWAP2 SWAP1 PUSH2 0x16F6 JUMP JUMPDEST SWAP1 DUP2 MSTORE PUSH1 0x20 ADD PUSH1 0x40 MLOAD DUP1 SWAP2 SUB SWAP1 KECCAK256 PUSH0 ADD PUSH1 0x5 ADD SLOAD LT ISZERO PUSH2 0x671 JUMPI PUSH1 0x40 MLOAD PUSH32 0x8C379A000000000000000000000000000000000000000000000000000000000 DUP2 MSTORE PUSH1 0x4 ADD PUSH2 0x668 SWAP1 PUSH2 0x18CF JUMP JUMPDEST PUSH1 0x40 MLOAD DUP1 SWAP2 SUB SWAP1 REVERT JUMPDEST DUP1 PUSH1 0xB DUP4 PUSH1 0x40 MLOAD PUSH2 0x682 SWAP2 SWAP1 PUSH2 0x16F6 JUMP JUMPDEST SWAP1 DUP2 MSTORE PUSH1 0x20 ADD PUSH1 0x40 MLOAD DUP1 SWAP2 SUB SWAP1 KECCAK256 PUSH0 ADD PUSH1 0x5 ADD PUSH0 DUP3 DUP3 SLOAD PUSH2 0x6A3 SWAP2 SWAP1 PUSH2 0x191A JUMP JUMPDEST SWAP3 POP POP DUP2 SWAP1 SSTORE POP DUP1 PUSH1 0xD DUP4 PUSH1 0x40 MLOAD PUSH2 0x6BB SWAP2 SWAP1 PUSH2 0x16F6 JUMP JUMPDEST SWAP1 DUP2 MSTORE PUSH1 0x20 ADD PUSH1 0x40 MLOAD DUP1 SWAP2 SUB SWAP1 KECCAK256 PUSH0 DUP3 DUP3 SLOAD PUSH2 0x6D7 SWAP2 SWAP1 PUSH2 0x191A JUMP JUMPDEST SWAP3 POP POP DUP2 SWAP1 SSTORE POP PUSH0 PUSH1 0xB DUP4 PUSH1 0x40 MLOAD PUSH2 0x6EF SWAP2 SWAP1 PUSH2 0x16F6 JUMP JUMPDEST SWAP1 DUP2 MSTORE PUSH1 0x20 ADD PUSH1 0x40 MLOAD DUP1 SWAP2 SUB SWAP1 KECCAK256 PUSH0 ADD PUSH1 0x5 ADD SLOAD SUB PUSH2 0x771 JUMPI PUSH1 0xB DUP3 PUSH1 0x40 MLOAD PUSH2 0x718 SWAP2 SWAP1 PUSH2 0x16F6 JUMP JUMPDEST SWAP1 DUP2 MSTORE PUSH1 0x20 ADD PUSH1 0x40 MLOAD DUP1 SWAP2 SUB SWAP1 KECCAK256 PUSH0 DUP1 DUP3 ADD PUSH0 DUP1 DUP3 ADD PUSH0 PUSH2 0x739 SWAP2 SWAP1 PUSH2 0x1121 JUMP JUMPDEST PUSH1 0x1 DUP3 ADD PUSH0 PUSH2 0x748 SWAP2 SWAP1 PUSH2 0x1121 JUMP JUMPDEST PUSH1 0x2 DUP3 ADD PUSH0 PUSH2 0x757 SWAP2 SWAP1 PUSH2 0x1121 JUMP JUMPDEST PUSH1 0x3 DUP3 ADD PUSH0 SWAP1 SSTORE PUSH1 0x4 DUP3 ADD PUSH0 SWAP1 SSTORE PUSH1 0x5 DUP3 ADD PUSH0 SWAP1 SSTORE POP POP POP POP JUMPDEST POP POP JUMP JUMPDEST PUSH0 DUP1 SLOAD SWAP1 PUSH2 0x100 EXP SWAP1 DIV PUSH20 0xFFFFFFFFFFFFFFFFFFFFFFFFFFFFFFFFFFFFFFFF AND PUSH20 0xFFFFFFFFFFFFFFFFFFFFFFFFFFFFFFFFFFFFFFFF AND CALLER PUSH20 0xFFFFFFFFFFFFFFFFFFFFFFFFFFFFFFFFFFFFFFFF AND EQ PUSH2 0x802 JUMPI PUSH1 0x40 MLOAD PUSH32 0x8C379A000000000000000000000000000000000000000000000000000000000 DUP2 MSTORE PUSH1 0x4 ADD PUSH2 0x7F9 SWAP1 PUSH2 0x17D9 JUMP JUMPDEST PUSH1 0x40 MLOAD DUP1 SWAP2 SUB SWAP1 REVERT JUMPDEST DUP1 PUSH1 0xC DUP4 PUSH1 0x40 MLOAD PUSH2 0x813 SWAP2 SWAP1 PUSH2 0x16F6 JUMP JUMPDEST SWAP1 DUP2 MSTORE PUSH1 0x20 ADD PUSH1 0x40 MLOAD DUP1 SWAP2 SUB SWAP1 KECCAK256 PUSH0 ADD PUSH1 0x5 ADD SLOAD LT ISZERO PUSH2 0x868 JUMPI PUSH1 0x40 MLOAD PUSH32 0x8C379A000000000000000000000000000000000000000000000000000000000 DUP2 MSTORE PUSH1 0x4 ADD PUSH2 0x85F SWAP1 PUSH2 0x18CF JUMP JUMPDEST PUSH1 0x40 MLOAD DUP1 SWAP2 SUB SWAP1 REVERT JUMPDEST DUP1 PUSH1 0xC DUP4 PUSH1 0x40 MLOAD PUSH2 0x879 SWAP2 SWAP1 PUSH2 0x16F6 JUMP JUMPDEST SWAP1 DUP2 MSTORE PUSH1 0x20 ADD PUSH1 0x40 MLOAD DUP1 SWAP2 SUB SWAP1 KECCAK256 PUSH0 ADD PUSH1 0x5 ADD PUSH0 DUP3 DUP3 SLOAD PUSH2 0x89A SWAP2 SWAP1 PUSH2 0x191A JUMP JUMPDEST SWAP3 POP POP DUP2 SWAP1 SSTORE POP PUSH0 PUSH1 0xC DUP4 PUSH1 0x40 MLOAD PUSH2 0x8B2 SWAP2 SWAP1 PUSH2 0x16F6 JUMP JUMPDEST SWAP1 DUP2 MSTORE PUSH1 0x20 ADD PUSH1 0x40 MLOAD DUP1 SWAP2 SUB SWAP1 KECCAK256 PUSH0 ADD PUSH1 0x5 ADD SLOAD SUB PUSH2 0x934 JUMPI PUSH1 0xC DUP3 PUSH1 0x40 MLOAD PUSH2 0x8DB SWAP2 SWAP1 PUSH2 0x16F6 JUMP JUMPDEST SWAP1 DUP2 MSTORE PUSH1 0x20 ADD PUSH1 0x40 MLOAD DUP1 SWAP2 SUB SWAP1 KECCAK256 PUSH0 DUP1 DUP3 ADD PUSH0 DUP1 DUP3 ADD PUSH0 PUSH2 0x8FC SWAP2 SWAP1 PUSH2 0x1121 JUMP JUMPDEST PUSH1 0x1 DUP3 ADD PUSH0 PUSH2 0x90B SWAP2 SWAP1 PUSH2 0x1121 JUMP JUMPDEST PUSH1 0x2 DUP3 ADD PUSH0 PUSH2 0x91A SWAP2 SWAP1 PUSH2 0x1121 JUMP JUMPDEST PUSH1 0x3 DUP3 ADD PUSH0 SWAP1 SSTORE PUSH1 0x4 DUP3 ADD PUSH0 SWAP1 SSTORE PUSH1 0x5 DUP3 ADD PUSH0 SWAP1 SSTORE POP POP POP POP JUMPDEST PUSH32 0x9603A62E507248F16DC1809BA54DDFDA4B21CD6DAC214A05DBFB4769F21D2ED2 DUP3 DUP3 PUSH1 0x40 MLOAD PUSH2 0x965 SWAP3 SWAP2 SWAP1 PUSH2 0x194D JUMP JUMPDEST PUSH1 0x40 MLOAD DUP1 SWAP2 SUB SWAP1 LOG1 POP POP JUMP JUMPDEST PUSH0 PUSH1 0x4 SLOAD CALLVALUE EQ PUSH2 0x9B6 JUMPI PUSH1 0x40 MLOAD PUSH32 0x8C379A000000000000000000000000000000000000000000000000000000000 DUP2 MSTORE PUSH1 0x4 ADD PUSH2 0x9AD SWAP1 PUSH2 0x19C5 JUMP JUMPDEST PUSH1 0x40 MLOAD DUP1 SWAP2 SUB SWAP1 REVERT JUMPDEST CALLER PUSH0 DUP1 PUSH2 0x100 EXP DUP2 SLOAD DUP2 PUSH20 0xFFFFFFFFFFFFFFFFFFFFFFFFFFFFFFFFFFFFFFFF MUL NOT AND SWAP1 DUP4 PUSH20 0xFFFFFFFFFFFFFFFFFFFFFFFFFFFFFFFFFFFFFFFF AND MUL OR SWAP1 SSTORE POP PUSH1 0x1 PUSH1 0x5 PUSH0 PUSH2 0x100 EXP DUP2 SLOAD DUP2 PUSH1 0xFF MUL NOT AND SWAP1 DUP4 ISZERO ISZERO MUL OR SWAP1 SSTORE SWAP1 POP SWAP1 JUMP JUMPDEST PUSH1 0x60 DUP1 PUSH1 0x60 PUSH0 DUP1 PUSH0 DUP1 PUSH1 0xC DUP9 PUSH1 0x40 MLOAD PUSH2 0xA2C SWAP2 SWAP1 PUSH2 0x16F6 JUMP JUMPDEST SWAP1 DUP2 MSTORE PUSH1 0x20 ADD PUSH1 0x40 MLOAD DUP1 SWAP2 SUB SWAP1 KECCAK256 PUSH1 0x40 MLOAD DUP1 PUSH1 0x20 ADD PUSH1 0x40 MSTORE SWAP1 DUP2 PUSH0 DUP3 ADD PUSH1 0x40 MLOAD DUP1 PUSH1 0xC0 ADD PUSH1 0x40 MSTORE SWAP1 DUP2 PUSH0 DUP3 ADD DUP1 SLOAD PUSH2 0xA63 SWAP1 PUSH2 0x1739 JUMP JUMPDEST DUP1 PUSH1 0x1F ADD PUSH1 0x20 DUP1 SWAP2 DIV MUL PUSH1 0x20 ADD PUSH1 0x40 MLOAD SWAP1 DUP2 ADD PUSH1 0x40 MSTORE DUP1 SWAP3 SWAP2 SWAP1 DUP2 DUP2 MSTORE PUSH1 0x20 ADD DUP3 DUP1 SLOAD PUSH2 0xA8F SWAP1 PUSH2 0x1739 JUMP JUMPDEST DUP1 ISZERO PUSH2 0xADA JUMPI DUP1 PUSH1 0x1F LT PUSH2 0xAB1 JUMPI PUSH2 0x100 DUP1 DUP4 SLOAD DIV MUL DUP4 MSTORE SWAP2 PUSH1 0x20 ADD SWAP2 PUSH2 0xADA JUMP JUMPDEST DUP3 ADD SWAP2 SWAP1 PUSH0 MSTORE PUSH1 0x20 PUSH0 KECCAK256 SWAP1 JUMPDEST DUP2 SLOAD DUP2 MSTORE SWAP1 PUSH1 0x1 ADD SWAP1 PUSH1 0x20 ADD DUP1 DUP4 GT PUSH2 0xABD JUMPI DUP3 SWAP1 SUB PUSH1 0x1F AND DUP3 ADD SWAP2 JUMPDEST POP POP POP POP POP DUP2 MSTORE PUSH1 0x20 ADD PUSH1 0x1 DUP3 ADD DUP1 SLOAD PUSH2 0xAF3 SWAP1 PUSH2 0x1739 JUMP JUMPDEST DUP1 PUSH1 0x1F ADD PUSH1 0x20 DUP1 SWAP2 DIV MUL PUSH1 0x20 ADD PUSH1 0x40 MLOAD SWAP1 DUP2 ADD PUSH1 0x40 MSTORE DUP1 SWAP3 SWAP2 SWAP1 DUP2 DUP2 MSTORE PUSH1 0x20 ADD DUP3 DUP1 SLOAD PUSH2 0xB1F SWAP1 PUSH2 0x1739 JUMP JUMPDEST DUP1 ISZERO PUSH2 0xB6A JUMPI DUP1 PUSH1 0x1F LT PUSH2 0xB41 JUMPI PUSH2 0x100 DUP1 DUP4 SLOAD DIV MUL DUP4 MSTORE SWAP2 PUSH1 0x20 ADD SWAP2 PUSH2 0xB6A JUMP JUMPDEST DUP3 ADD SWAP2 SWAP1 PUSH0 MSTORE PUSH1 0x20 PUSH0 KECCAK256 SWAP1 JUMPDEST DUP2 SLOAD DUP2 MSTORE SWAP1 PUSH1 0x1 ADD SWAP1 PUSH1 0x20 ADD DUP1 DUP4 GT PUSH2 0xB4D JUMPI DUP3 SWAP1 SUB PUSH1 0x1F AND DUP3 ADD SWAP2 JUMPDEST POP POP POP POP POP DUP2 MSTORE PUSH1 0x20 ADD PUSH1 0x2 DUP3 ADD DUP1 SLOAD PUSH2 0xB83 SWAP1 PUSH2 0x1739 JUMP JUMPDEST DUP1 PUSH1 0x1F ADD PUSH1 0x20 DUP1 SWAP2 DIV MUL PUSH1 0x20 ADD PUSH1 0x40 MLOAD SWAP1 DUP2 ADD PUSH1 0x40 MSTORE DUP1 SWAP3 SWAP2 SWAP1 DUP2 DUP2 MSTORE PUSH1 0x20 ADD DUP3 DUP1 SLOAD PUSH2 0xBAF SWAP1 PUSH2 0x1739 JUMP JUMPDEST DUP1 ISZERO PUSH2 0xBFA JUMPI DUP1 PUSH1 0x1F LT PUSH2 0xBD1 JUMPI PUSH2 0x100 DUP1 DUP4 SLOAD DIV MUL DUP4 MSTORE SWAP2 PUSH1 0x20 ADD SWAP2 PUSH2 0xBFA JUMP JUMPDEST DUP3 ADD SWAP2 SWAP1 PUSH0 MSTORE PUSH1 0x20 PUSH0 KECCAK256 SWAP1 JUMPDEST DUP2 SLOAD DUP2 MSTORE SWAP1 PUSH1 0x1 ADD SWAP1 PUSH1 0x20 ADD DUP1 DUP4 GT PUSH2 0xBDD JUMPI DUP3 SWAP1 SUB PUSH1 0x1F AND DUP3 ADD SWAP2 JUMPDEST POP POP POP POP POP DUP2 MSTORE PUSH1 0x20 ADD PUSH1 0x3 DUP3 ADD SLOAD DUP2 MSTORE PUSH1 0x20 ADD PUSH1 0x4 DUP3 ADD SLOAD DUP2 MSTORE PUSH1 0x20 ADD PUSH1 0x5 DUP3 ADD SLOAD DUP2 MSTORE POP POP DUP2 MSTORE POP POP SWAP1 POP DUP1 PUSH0 ADD MLOAD PUSH0 ADD MLOAD DUP2 PUSH0 ADD MLOAD PUSH1 0x20 ADD MLOAD DUP3 PUSH0 ADD MLOAD PUSH1 0x40 ADD MLOAD DUP4 PUSH0 ADD MLOAD PUSH1 0x60 ADD MLOAD DUP5 PUSH0 ADD MLOAD PUSH1 0x80 ADD MLOAD DUP6 PUSH0 ADD MLOAD PUSH1 0xA0 ADD MLOAD SWAP7 POP SWAP7 POP SWAP7 POP SWAP7 POP SWAP7 POP SWAP7 POP POP SWAP2 SWAP4 SWAP6 POP SWAP2 SWAP4 SWAP6 JUMP JUMPDEST PUSH0 DUP1 SLOAD SWAP1 PUSH2 0x100 EXP SWAP1 DIV PUSH20 0xFFFFFFFFFFFFFFFFFFFFFFFFFFFFFFFFFFFFFFFF AND PUSH20 0xFFFFFFFFFFFFFFFFFFFFFFFFFFFFFFFFFFFFFFFF AND CALLER PUSH20 0xFFFFFFFFFFFFFFFFFFFFFFFFFFFFFFFFFFFFFFFF AND EQ PUSH2 0xCF9 JUMPI PUSH1 0x40 MLOAD PUSH32 0x8C379A000000000000000000000000000000000000000000000000000000000 DUP2 MSTORE PUSH1 0x4 ADD PUSH2 0xCF0 SWAP1 PUSH2 0x17D9 JUMP JUMPDEST PUSH1 0x40 MLOAD DUP1 SWAP2 SUB SWAP1 REVERT JUMPDEST PUSH0 PUSH1 0x40 MLOAD DUP1 PUSH1 0xC0 ADD PUSH1 0x40 MSTORE DUP1 DUP9 DUP2 MSTORE PUSH1 0x20 ADD DUP8 DUP2 MSTORE PUSH1 0x20 ADD DUP7 DUP2 MSTORE PUSH1 0x20 ADD DUP6 DUP2 MSTORE PUSH1 0x20 ADD DUP5 DUP2 MSTORE PUSH1 0x20 ADD DUP4 DUP2 MSTORE POP SWAP1 POP PUSH0 PUSH1 0x40 MLOAD DUP1 PUSH1 0x20 ADD PUSH1 0x40 MSTORE DUP1 DUP4 DUP2 MSTORE POP SWAP1 POP DUP1 PUSH1 0xC DUP10 PUSH1 0x40 MLOAD PUSH2 0xD4C SWAP2 SWAP1 PUSH2 0x16F6 JUMP JUMPDEST SWAP1 DUP2 MSTORE PUSH1 0x20 ADD PUSH1 0x40 MLOAD DUP1 SWAP2 SUB SWAP1 KECCAK256 PUSH0 DUP3 ADD MLOAD DUP2 PUSH0 ADD PUSH0 DUP3 ADD MLOAD DUP2 PUSH0 ADD SWAP1 DUP2 PUSH2 0xD74 SWAP2 SWAP1 PUSH2 0x1B80 JUMP JUMPDEST POP PUSH1 0x20 DUP3 ADD MLOAD DUP2 PUSH1 0x1 ADD SWAP1 DUP2 PUSH2 0xD8A SWAP2 SWAP1 PUSH2 0x1B80 JUMP JUMPDEST POP PUSH1 0x40 DUP3 ADD MLOAD DUP2 PUSH1 0x2 ADD SWAP1 DUP2 PUSH2 0xDA0 SWAP2 SWAP1 PUSH2 0x1B80 JUMP JUMPDEST POP PUSH1 0x60 DUP3 ADD MLOAD DUP2 PUSH1 0x3 ADD SSTORE PUSH1 0x80 DUP3 ADD MLOAD DUP2 PUSH1 0x4 ADD SSTORE PUSH1 0xA0 DUP3 ADD MLOAD DUP2 PUSH1 0x5 ADD SSTORE POP POP SWAP1 POP POP DUP3 PUSH1 0xD DUP10 PUSH1 0x40 MLOAD PUSH2 0xDD5 SWAP2 SWAP1 PUSH2 0x16F6 JUMP JUMPDEST SWAP1 DUP2 MSTORE PUSH1 0x20 ADD PUSH1 0x40 MLOAD DUP1 SWAP2 SUB SWAP1 KECCAK256 PUSH0 DUP3 DUP3 SLOAD PUSH2 0xDF1 SWAP2 SWAP1 PUSH2 0x1C4F JUMP JUMPDEST SWAP3 POP POP DUP2 SWAP1 SSTORE POP PUSH32 0x89DAD4C7CF097BD405685BF48B3760BCC26280CBB8832689A1ED04DA9190A41A DUP9 DUP5 PUSH1 0x40 MLOAD PUSH2 0xE29 SWAP3 SWAP2 SWAP1 PUSH2 0x194D JUMP JUMPDEST PUSH1 0x40 MLOAD DUP1 SWAP2 SUB SWAP1 LOG1 POP POP POP POP POP POP POP POP JUMP JUMPDEST PUSH0 DUP1 SLOAD SWAP1 PUSH2 0x100 EXP SWAP1 DIV PUSH20 0xFFFFFFFFFFFFFFFFFFFFFFFFFFFFFFFFFFFFFFFF AND PUSH20 0xFFFFFFFFFFFFFFFFFFFFFFFFFFFFFFFFFFFFFFFF AND CALLER PUSH20 0xFFFFFFFFFFFFFFFFFFFFFFFFFFFFFFFFFFFFFFFF AND EQ PUSH2 0xEC8 JUMPI PUSH1 0x40 MLOAD PUSH32 0x8C379A000000000000000000000000000000000000000000000000000000000 DUP2 MSTORE PUSH1 0x4 ADD PUSH2 0xEBF SWAP1 PUSH2 0x17D9 JUMP JUMPDEST PUSH1 0x40 MLOAD DUP1 SWAP2 SUB SWAP1 REVERT JUMPDEST PUSH0 PUSH1 0x40 MLOAD DUP1 PUSH1 0xC0 ADD PUSH1 0x40 MSTORE DUP1 DUP9 DUP2 MSTORE PUSH1 0x20 ADD DUP8 DUP2 MSTORE PUSH1 0x20 ADD DUP7 DUP2 MSTORE PUSH1 0x20 ADD DUP6 DUP2 MSTORE PUSH1 0x20 ADD DUP5 DUP2 MSTORE PUSH1 0x20 ADD DUP4 DUP2 MSTORE POP SWAP1 POP PUSH0 PUSH1 0x40 MLOAD DUP1 PUSH1 0x20 ADD PUSH1 0x40 MSTORE DUP1 DUP4 DUP2 MSTORE POP SWAP1 POP DUP1 PUSH1 0xB DUP10 PUSH1 0x40 MLOAD PUSH2 0xF1B SWAP2 SWAP1 PUSH2 0x16F6 JUMP JUMPDEST SWAP1 DUP2 MSTORE PUSH1 0x20 ADD PUSH1 0x40 MLOAD DUP1 SWAP2 SUB SWAP1 KECCAK256 PUSH0 DUP3 ADD MLOAD DUP2 PUSH0 ADD PUSH0 DUP3 ADD MLOAD DUP2 PUSH0 ADD SWAP1 DUP2 PUSH2 0xF43 SWAP2 SWAP1 PUSH2 0x1B80 JUMP JUMPDEST POP PUSH1 0x20 DUP3 ADD MLOAD DUP2 PUSH1 0x1 ADD SWAP1 DUP2 PUSH2 0xF59 SWAP2 SWAP1 PUSH2 0x1B80 JUMP JUMPDEST POP PUSH1 0x40 DUP3 ADD MLOAD DUP2 PUSH1 0x2 ADD SWAP1 DUP2 PUSH2 0xF6F SWAP2 SWAP1 PUSH2 0x1B80 JUMP JUMPDEST POP PUSH1 0x60 DUP3 ADD MLOAD DUP2 PUSH1 0x3 ADD SSTORE PUSH1 0x80 DUP3 ADD MLOAD DUP2 PUSH1 0x4 ADD SSTORE PUSH1 0xA0 DUP3 ADD MLOAD DUP2 PUSH1 0x5 ADD SSTORE POP POP SWAP1 POP POP DUP3 PUSH1 0xD DUP10 PUSH1 0x40 MLOAD PUSH2 0xFA4 SWAP2 SWAP1 PUSH2 0x16F6 JUMP JUMPDEST SWAP1 DUP2 MSTORE PUSH1 0x20 ADD PUSH1 0x40 MLOAD DUP1 SWAP2 SUB SWAP1 KECCAK256 PUSH0 DUP3 DUP3 SLOAD PUSH2 0xFC0 SWAP2 SWAP1 PUSH2 0x1C4F JUMP JUMPDEST SWAP3 POP POP DUP2 SWAP1 SSTORE POP PUSH32 0x14AADD2B4E12B29A34A01DE343378D6580ECA01108DBEDB75DB5D1EA9351622 DUP9 DUP5 PUSH1 0x40 MLOAD PUSH2 0xFF8 SWAP3 SWAP2 SWAP1 PUSH2 0x194D JUMP JUMPDEST PUSH1 0x40 MLOAD DUP1 SWAP2 SUB SWAP1 LOG1 POP POP POP POP POP POP POP POP JUMP JUMPDEST PUSH1 0x40 MLOAD DUP1 PUSH1 0xC0 ADD PUSH1 0x40 MSTORE DUP1 DUP8 DUP2 MSTORE PUSH1 0x20 ADD DUP7 DUP2 MSTORE PUSH1 0x20 ADD DUP6 DUP2 MSTORE PUSH1 0x20 ADD DUP5 DUP2 MSTORE PUSH1 0x20 ADD DUP4 DUP2 MSTORE PUSH1 0x20 ADD DUP3 DUP2 MSTORE POP PUSH1 0x8 PUSH0 CALLER PUSH20 0xFFFFFFFFFFFFFFFFFFFFFFFFFFFFFFFFFFFFFFFF AND PUSH20 0xFFFFFFFFFFFFFFFFFFFFFFFFFFFFFFFFFFFFFFFF AND DUP2 MSTORE PUSH1 0x20 ADD SWAP1 DUP2 MSTORE PUSH1 0x20 ADD PUSH0 KECCAK256 PUSH0 DUP3 ADD MLOAD DUP2 PUSH0 ADD SWAP1 DUP2 PUSH2 0x1087 SWAP2 SWAP1 PUSH2 0x1B80 JUMP JUMPDEST POP PUSH1 0x20 DUP3 ADD MLOAD DUP2 PUSH1 0x1 ADD SWAP1 DUP2 PUSH2 0x109D SWAP2 SWAP1 PUSH2 0x1B80 JUMP JUMPDEST POP PUSH1 0x40 DUP3 ADD MLOAD DUP2 PUSH1 0x2 ADD SWAP1 DUP2 PUSH2 0x10B3 SWAP2 SWAP1 PUSH2 0x1B80 JUMP JUMPDEST POP PUSH1 0x60 DUP3 ADD MLOAD DUP2 PUSH1 0x3 ADD SWAP1 DUP2 PUSH2 0x10C9 SWAP2 SWAP1 PUSH2 0x1B80 JUMP JUMPDEST POP PUSH1 0x80 DUP3 ADD MLOAD DUP2 PUSH1 0x4 ADD SWAP1 DUP2 PUSH2 0x10DF SWAP2 SWAP1 PUSH2 0x1B80 JUMP JUMPDEST POP PUSH1 0xA0 DUP3 ADD MLOAD DUP2 PUSH1 0x5 ADD SSTORE SWAP1 POP POP PUSH32 0x602903B4AB82B8294B982DF6E30144AEA8E41D3EB12B3214C2800B515AC12F91 PUSH1 0x40 MLOAD PUSH1 0x40 MLOAD DUP1 SWAP2 SUB SWAP1 LOG1 POP POP POP POP POP POP JUMP JUMPDEST POP DUP1 SLOAD PUSH2 0x112D SWAP1 PUSH2 0x1739 JUMP JUMPDEST PUSH0 DUP3 SSTORE DUP1 PUSH1 0x1F LT PUSH2 0x113E JUMPI POP PUSH2 0x115B JUMP JUMPDEST PUSH1 0x1F ADD PUSH1 0x20 SWAP1 DIV SWAP1 PUSH0 MSTORE PUSH1 0x20 PUSH0 KECCAK256 SWAP1 DUP2 ADD SWAP1 PUSH2 0x115A SWAP2 SWAP1 PUSH2 0x115E JUMP JUMPDEST JUMPDEST POP JUMP JUMPDEST JUMPDEST DUP1 DUP3 GT ISZERO PUSH2 0x1175 JUMPI PUSH0 DUP2 PUSH0 SWAP1 SSTORE POP PUSH1 0x1 ADD PUSH2 0x115F JUMP JUMPDEST POP SWAP1 JUMP JUMPDEST PUSH0 PUSH1 0x40 MLOAD SWAP1 POP SWAP1 JUMP JUMPDEST PUSH0 DUP1 REVERT JUMPDEST PUSH0 DUP1 REVERT JUMPDEST PUSH0 DUP1 REVERT JUMPDEST PUSH0 DUP1 REVERT JUMPDEST PUSH0 PUSH1 0x1F NOT PUSH1 0x1F DUP4 ADD AND SWAP1 POP SWAP2 SWAP1 POP JUMP JUMPDEST PUSH32 0x4E487B7100000000000000000000000000000000000000000000000000000000 PUSH0 MSTORE PUSH1 0x41 PUSH1 0x4 MSTORE PUSH1 0x24 PUSH0 REVERT JUMPDEST PUSH2 0x11D8 DUP3 PUSH2 0x1192 JUMP JUMPDEST DUP2 ADD DUP2 DUP2 LT PUSH8 0xFFFFFFFFFFFFFFFF DUP3 GT OR ISZERO PUSH2 0x11F7 JUMPI PUSH2 0x11F6 PUSH2 0x11A2 JUMP JUMPDEST JUMPDEST DUP1 PUSH1 0x40 MSTORE POP POP POP JUMP JUMPDEST PUSH0 PUSH2 0x1209 PUSH2 0x1179 JUMP JUMPDEST SWAP1 POP PUSH2 0x1215 DUP3 DUP3 PUSH2 0x11CF JUMP JUMPDEST SWAP2 SWAP1 POP JUMP JUMPDEST PUSH0 PUSH8 0xFFFFFFFFFFFFFFFF DUP3 GT ISZERO PUSH2 0x1234 JUMPI PUSH2 0x1233 PUSH2 0x11A2 JUMP JUMPDEST JUMPDEST PUSH2 0x123D DUP3 PUSH2 0x1192 JUMP JUMPDEST SWAP1 POP PUSH1 0x20 DUP2 ADD SWAP1 POP SWAP2 SWAP1 POP JUMP JUMPDEST DUP3 DUP2 DUP4 CALLDATACOPY PUSH0 DUP4 DUP4 ADD MSTORE POP POP POP JUMP JUMPDEST PUSH0 PUSH2 0x126A PUSH2 0x1265 DUP5 PUSH2 0x121A JUMP JUMPDEST PUSH2 0x1200 JUMP JUMPDEST SWAP1 POP DUP3 DUP2 MSTORE PUSH1 0x20 DUP2 ADD DUP5 DUP5 DUP5 ADD GT ISZERO PUSH2 0x1286 JUMPI PUSH2 0x1285 PUSH2 0x118E JUMP JUMPDEST JUMPDEST PUSH2 0x1291 DUP5 DUP3 DUP6 PUSH2 0x124A JUMP JUMPDEST POP SWAP4 SWAP3 POP POP POP JUMP JUMPDEST PUSH0 DUP3 PUSH1 0x1F DUP4 ADD SLT PUSH2 0x12AD JUMPI PUSH2 0x12AC PUSH2 0x118A JUMP JUMPDEST JUMPDEST DUP2 CALLDATALOAD PUSH2 0x12BD DUP5 DUP3 PUSH1 0x20 DUP7 ADD PUSH2 0x1258 JUMP JUMPDEST SWAP2 POP POP SWAP3 SWAP2 POP POP JUMP JUMPDEST PUSH0 PUSH1 0x20 DUP3 DUP5 SUB SLT ISZERO PUSH2 0x12DB JUMPI PUSH2 0x12DA PUSH2 0x1182 JUMP JUMPDEST JUMPDEST PUSH0 DUP3 ADD CALLDATALOAD PUSH8 0xFFFFFFFFFFFFFFFF DUP2 GT ISZERO PUSH2 0x12F8 JUMPI PUSH2 0x12F7 PUSH2 0x1186 JUMP JUMPDEST JUMPDEST PUSH2 0x1304 DUP5 DUP3 DUP6 ADD PUSH2 0x1299 JUMP JUMPDEST SWAP2 POP POP SWAP3 SWAP2 POP POP JUMP JUMPDEST PUSH0 DUP2 MLOAD SWAP1 POP SWAP2 SWAP1 POP JUMP JUMPDEST PUSH0 DUP3 DUP3 MSTORE PUSH1 0x20 DUP3 ADD SWAP1 POP SWAP3 SWAP2 POP POP JUMP JUMPDEST PUSH0 JUMPDEST DUP4 DUP2 LT ISZERO PUSH2 0x1344 JUMPI DUP1 DUP3 ADD MLOAD DUP2 DUP5 ADD MSTORE PUSH1 0x20 DUP2 ADD SWAP1 POP PUSH2 0x1329 JUMP JUMPDEST PUSH0 DUP5 DUP5 ADD MSTORE POP POP POP POP JUMP JUMPDEST PUSH0 PUSH2 0x1359 DUP3 PUSH2 0x130D JUMP JUMPDEST PUSH2 0x1363 DUP2 DUP6 PUSH2 0x1317 JUMP JUMPDEST SWAP4 POP PUSH2 0x1373 DUP2 DUP6 PUSH1 0x20 DUP7 ADD PUSH2 0x1327 JUMP JUMPDEST PUSH2 0x137C DUP2 PUSH2 0x1192 JUMP JUMPDEST DUP5 ADD SWAP2 POP POP SWAP3 SWAP2 POP POP JUMP JUMPDEST PUSH0 DUP2 SWAP1 POP SWAP2 SWAP1 POP JUMP JUMPDEST PUSH2 0x1399 DUP2 PUSH2 0x1387 JUMP JUMPDEST DUP3 MSTORE POP POP JUMP JUMPDEST PUSH0 PUSH1 0xC0 DUP3 ADD SWAP1 POP DUP2 DUP2 SUB PUSH0 DUP4 ADD MSTORE PUSH2 0x13B7 DUP2 DUP10 PUSH2 0x134F JUMP JUMPDEST SWAP1 POP DUP2 DUP2 SUB PUSH1 0x20 DUP4 ADD MSTORE PUSH2 0x13CB DUP2 DUP9 PUSH2 0x134F JUMP JUMPDEST SWAP1 POP DUP2 DUP2 SUB PUSH1 0x40 DUP4 ADD MSTORE PUSH2 0x13DF DUP2 DUP8 PUSH2 0x134F JUMP JUMPDEST SWAP1 POP PUSH2 0x13EE PUSH1 0x60 DUP4 ADD DUP7 PUSH2 0x1390 JUMP JUMPDEST PUSH2 0x13FB PUSH1 0x80 DUP4 ADD DUP6 PUSH2 0x1390 JUMP JUMPDEST PUSH2 0x1408 PUSH1 0xA0 DUP4 ADD DUP5 PUSH2 0x1390 JUMP JUMPDEST SWAP8 SWAP7 POP POP POP POP POP POP POP JUMP JUMPDEST PUSH2 0x141C DUP2 PUSH2 0x1387 JUMP JUMPDEST DUP2 EQ PUSH2 0x1426 JUMPI PUSH0 DUP1 REVERT JUMPDEST POP JUMP JUMPDEST PUSH0 DUP2 CALLDATALOAD SWAP1 POP PUSH2 0x1437 DUP2 PUSH2 0x1413 JUMP JUMPDEST SWAP3 SWAP2 POP POP JUMP JUMPDEST PUSH0 DUP1 PUSH0 DUP1 PUSH0 DUP1 PUSH1 0xC0 DUP8 DUP10 SUB SLT ISZERO PUSH2 0x1457 JUMPI PUSH2 0x1456 PUSH2 0x1182 JUMP JUMPDEST JUMPDEST PUSH0 DUP8 ADD CALLDATALOAD PUSH8 0xFFFFFFFFFFFFFFFF DUP2 GT ISZERO PUSH2 0x1474 JUMPI PUSH2 0x1473 PUSH2 0x1186 JUMP JUMPDEST JUMPDEST PUSH2 0x1480 DUP10 DUP3 DUP11 ADD PUSH2 0x1299 JUMP JUMPDEST SWAP7 POP POP PUSH1 0x20 DUP8 ADD CALLDATALOAD PUSH8 0xFFFFFFFFFFFFFFFF DUP2 GT ISZERO PUSH2 0x14A1 JUMPI PUSH2 0x14A0 PUSH2 0x1186 JUMP JUMPDEST JUMPDEST PUSH2 0x14AD DUP10 DUP3 DUP11 ADD PUSH2 0x1299 JUMP JUMPDEST SWAP6 POP POP PUSH1 0x40 DUP8 ADD CALLDATALOAD PUSH8 0xFFFFFFFFFFFFFFFF DUP2 GT ISZERO PUSH2 0x14CE JUMPI PUSH2 0x14CD PUSH2 0x1186 JUMP JUMPDEST JUMPDEST PUSH2 0x14DA DUP10 DUP3 DUP11 ADD PUSH2 0x1299 JUMP JUMPDEST SWAP5 POP POP PUSH1 0x60 DUP8 ADD CALLDATALOAD PUSH8 0xFFFFFFFFFFFFFFFF DUP2 GT ISZERO PUSH2 0x14FB JUMPI PUSH2 0x14FA PUSH2 0x1186 JUMP JUMPDEST JUMPDEST PUSH2 0x1507 DUP10 DUP3 DUP11 ADD PUSH2 0x1299 JUMP JUMPDEST SWAP4 POP POP PUSH1 0x80 DUP8 ADD CALLDATALOAD PUSH8 0xFFFFFFFFFFFFFFFF DUP2 GT ISZERO PUSH2 0x1528 JUMPI PUSH2 0x1527 PUSH2 0x1186 JUMP JUMPDEST JUMPDEST PUSH2 0x1534 DUP10 DUP3 DUP11 ADD PUSH2 0x1299 JUMP JUMPDEST SWAP3 POP POP PUSH1 0xA0 PUSH2 0x1545 DUP10 DUP3 DUP11 ADD PUSH2 0x1429 JUMP JUMPDEST SWAP2 POP POP SWAP3 SWAP6 POP SWAP3 SWAP6 POP SWAP3 SWAP6 JUMP JUMPDEST PUSH0 DUP2 ISZERO ISZERO SWAP1 POP SWAP2 SWAP1 POP JUMP JUMPDEST PUSH2 0x1566 DUP2 PUSH2 0x1552 JUMP JUMPDEST DUP3 MSTORE POP POP JUMP JUMPDEST PUSH0 PUSH1 0x20 DUP3 ADD SWAP1 POP PUSH2 0x157F PUSH0 DUP4 ADD DUP5 PUSH2 0x155D JUMP JUMPDEST SWAP3 SWAP2 POP POP JUMP JUMPDEST PUSH0 DUP1 PUSH1 0x40 DUP4 DUP6 SUB SLT ISZERO PUSH2 0x159B JUMPI PUSH2 0x159A PUSH2 0x1182 JUMP JUMPDEST JUMPDEST PUSH0 DUP4 ADD CALLDATALOAD PUSH8 0xFFFFFFFFFFFFFFFF DUP2 GT ISZERO PUSH2 0x15B8 JUMPI PUSH2 0x15B7 PUSH2 0x1186 JUMP JUMPDEST JUMPDEST PUSH2 0x15C4 DUP6 DUP3 DUP7 ADD PUSH2 0x1299 JUMP JUMPDEST SWAP3 POP POP PUSH1 0x20 PUSH2 0x15D5 DUP6 DUP3 DUP7 ADD PUSH2 0x1429 JUMP JUMPDEST SWAP2 POP POP SWAP3 POP SWAP3 SWAP1 POP JUMP JUMPDEST PUSH0 DUP1 PUSH0 DUP1 PUSH0 DUP1 PUSH1 0xC0 DUP8 DUP10 SUB SLT ISZERO PUSH2 0x15F9 JUMPI PUSH2 0x15F8 PUSH2 0x1182 JUMP JUMPDEST JUMPDEST PUSH0 DUP8 ADD CALLDATALOAD PUSH8 0xFFFFFFFFFFFFFFFF DUP2 GT ISZERO PUSH2 0x1616 JUMPI PUSH2 0x1615 PUSH2 0x1186 JUMP JUMPDEST JUMPDEST PUSH2 0x1622 DUP10 DUP3 DUP11 ADD PUSH2 0x1299 JUMP JUMPDEST SWAP7 POP POP PUSH1 0x20 DUP8 ADD CALLDATALOAD PUSH8 0xFFFFFFFFFFFFFFFF DUP2 GT ISZERO PUSH2 0x1643 JUMPI PUSH2 0x1642 PUSH2 0x1186 JUMP JUMPDEST JUMPDEST PUSH2 0x164F DUP10 DUP3 DUP11 ADD PUSH2 0x1299 JUMP JUMPDEST SWAP6 POP POP PUSH1 0x40 DUP8 ADD CALLDATALOAD PUSH8 0xFFFFFFFFFFFFFFFF DUP2 GT ISZERO PUSH2 0x1670 JUMPI PUSH2 0x166F PUSH2 0x1186 JUMP JUMPDEST JUMPDEST PUSH2 0x167C DUP10 DUP3 DUP11 ADD PUSH2 0x1299 JUMP JUMPDEST SWAP5 POP POP PUSH1 0x60 PUSH2 0x168D DUP10 DUP3 DUP11 ADD PUSH2 0x1429 JUMP JUMPDEST SWAP4 POP POP PUSH1 0x80 PUSH2 0x169E DUP10 DUP3 DUP11 ADD PUSH2 0x1429 JUMP JUMPDEST SWAP3 POP POP PUSH1 0xA0 PUSH2 0x16AF DUP10 DUP3 DUP11 ADD PUSH2 0x1429 JUMP JUMPDEST SWAP2 POP POP SWAP3 SWAP6 POP SWAP3 SWAP6 POP SWAP3 SWAP6 JUMP JUMPDEST PUSH0 DUP2 SWAP1 POP SWAP3 SWAP2 POP POP JUMP JUMPDEST PUSH0 PUSH2 0x16D0 DUP3 PUSH2 0x130D JUMP JUMPDEST PUSH2 0x16DA DUP2 DUP6 PUSH2 0x16BC JUMP JUMPDEST SWAP4 POP PUSH2 0x16EA DUP2 DUP6 PUSH1 0x20 DUP7 ADD PUSH2 0x1327 JUMP JUMPDEST DUP1 DUP5 ADD SWAP2 POP POP SWAP3 SWAP2 POP POP JUMP JUMPDEST PUSH0 PUSH2 0x1701 DUP3 DUP5 PUSH2 0x16C6 JUMP JUMPDEST SWAP2 POP DUP2 SWAP1 POP SWAP3 SWAP2 POP POP JUMP JUMPDEST PUSH32 0x4E487B7100000000000000000000000000000000000000000000000000000000 PUSH0 MSTORE PUSH1 0x22 PUSH1 0x4 MSTORE PUSH1 0x24 PUSH0 REVERT JUMPDEST PUSH0 PUSH1 0x2 DUP3 DIV SWAP1 POP PUSH1 0x1 DUP3 AND DUP1 PUSH2 0x1750 JUMPI PUSH1 0x7F DUP3 AND SWAP2 POP JUMPDEST PUSH1 0x20 DUP3 LT DUP2 SUB PUSH2 0x1763 JUMPI PUSH2 0x1762 PUSH2 0x170C JUMP JUMPDEST JUMPDEST POP SWAP2 SWAP1 POP JUMP JUMPDEST PUSH32 0x736F6D656E7465206F20646F6E6F20706F6465206368616D6172206573736120 PUSH0 DUP3 ADD MSTORE PUSH32 0x66756E63616F0000000000000000000000000000000000000000000000000000 PUSH1 0x20 DUP3 ADD MSTORE POP JUMP JUMPDEST PUSH0 PUSH2 0x17C3 PUSH1 0x26 DUP4 PUSH2 0x1317 JUMP JUMPDEST SWAP2 POP PUSH2 0x17CE DUP3 PUSH2 0x1769 JUMP JUMPDEST PUSH1 0x40 DUP3 ADD SWAP1 POP SWAP2 SWAP1 POP JUMP JUMPDEST PUSH0 PUSH1 0x20 DUP3 ADD SWAP1 POP DUP2 DUP2 SUB PUSH0 DUP4 ADD MSTORE PUSH2 0x17F0 DUP2 PUSH2 0x17B7 JUMP JUMPDEST SWAP1 POP SWAP2 SWAP1 POP JUMP JUMPDEST PUSH32 0x6E656E68756D2070657266696C20636F6D707261646F00000000000000000000 PUSH0 DUP3 ADD MSTORE POP JUMP JUMPDEST PUSH0 PUSH2 0x182B PUSH1 0x16 DUP4 PUSH2 0x1317 JUMP JUMPDEST SWAP2 POP PUSH2 0x1836 DUP3 PUSH2 0x17F7 JUMP JUMPDEST PUSH1 0x20 DUP3 ADD SWAP1 POP SWAP2 SWAP1 POP JUMP JUMPDEST PUSH0 PUSH1 0x20 DUP3 ADD SWAP1 POP DUP2 DUP2 SUB PUSH0 DUP4 ADD MSTORE PUSH2 0x1858 DUP2 PUSH2 0x181F JUMP JUMPDEST SWAP1 POP SWAP2 SWAP1 POP JUMP JUMPDEST PUSH32 0x5175616E74696461646520696E737566696369656E746520656D206573746F71 PUSH0 DUP3 ADD MSTORE PUSH32 0x7565000000000000000000000000000000000000000000000000000000000000 PUSH1 0x20 DUP3 ADD MSTORE POP JUMP JUMPDEST PUSH0 PUSH2 0x18B9 PUSH1 0x22 DUP4 PUSH2 0x1317 JUMP JUMPDEST SWAP2 POP PUSH2 0x18C4 DUP3 PUSH2 0x185F JUMP JUMPDEST PUSH1 0x40 DUP3 ADD SWAP1 POP SWAP2 SWAP1 POP JUMP JUMPDEST PUSH0 PUSH1 0x20 DUP3 ADD SWAP1 POP DUP2 DUP2 SUB PUSH0 DUP4 ADD MSTORE PUSH2 0x18E6 DUP2 PUSH2 0x18AD JUMP JUMPDEST SWAP1 POP SWAP2 SWAP1 POP JUMP JUMPDEST PUSH32 0x4E487B7100000000000000000000000000000000000000000000000000000000 PUSH0 MSTORE PUSH1 0x11 PUSH1 0x4 MSTORE PUSH1 0x24 PUSH0 REVERT JUMPDEST PUSH0 PUSH2 0x1924 DUP3 PUSH2 0x1387 JUMP JUMPDEST SWAP2 POP PUSH2 0x192F DUP4 PUSH2 0x1387 JUMP JUMPDEST SWAP3 POP DUP3 DUP3 SUB SWAP1 POP DUP2 DUP2 GT ISZERO PUSH2 0x1947 JUMPI PUSH2 0x1946 PUSH2 0x18ED JUMP JUMPDEST JUMPDEST SWAP3 SWAP2 POP POP JUMP JUMPDEST PUSH0 PUSH1 0x40 DUP3 ADD SWAP1 POP DUP2 DUP2 SUB PUSH0 DUP4 ADD MSTORE PUSH2 0x1965 DUP2 DUP6 PUSH2 0x134F JUMP JUMPDEST SWAP1 POP PUSH2 0x1974 PUSH1 0x20 DUP4 ADD DUP5 PUSH2 0x1390 JUMP JUMPDEST SWAP4 SWAP3 POP POP POP JUMP JUMPDEST PUSH32 0x73616C646F20496E737566696369656E74650000000000000000000000000000 PUSH0 DUP3 ADD MSTORE POP JUMP JUMPDEST PUSH0 PUSH2 0x19AF PUSH1 0x12 DUP4 PUSH2 0x1317 JUMP JUMPDEST SWAP2 POP PUSH2 0x19BA DUP3 PUSH2 0x197B JUMP JUMPDEST PUSH1 0x20 DUP3 ADD SWAP1 POP SWAP2 SWAP1 POP JUMP JUMPDEST PUSH0 PUSH1 0x20 DUP3 ADD SWAP1 POP DUP2 DUP2 SUB PUSH0 DUP4 ADD MSTORE PUSH2 0x19DC DUP2 PUSH2 0x19A3 JUMP JUMPDEST SWAP1 POP SWAP2 SWAP1 POP JUMP JUMPDEST PUSH0 DUP2 SWAP1 POP DUP2 PUSH0 MSTORE PUSH1 0x20 PUSH0 KECCAK256 SWAP1 POP SWAP2 SWAP1 POP JUMP JUMPDEST PUSH0 PUSH1 0x20 PUSH1 0x1F DUP4 ADD DIV SWAP1 POP SWAP2 SWAP1 POP JUMP JUMPDEST PUSH0 DUP3 DUP3 SHL SWAP1 POP SWAP3 SWAP2 POP POP JUMP JUMPDEST PUSH0 PUSH1 0x8 DUP4 MUL PUSH2 0x1A3F PUSH32 0xFFFFFFFFFFFFFFFFFFFFFFFFFFFFFFFFFFFFFFFFFFFFFFFFFFFFFFFFFFFFFFFF DUP3 PUSH2 0x1A04 JUMP JUMPDEST PUSH2 0x1A49 DUP7 DUP4 PUSH2 0x1A04 JUMP JUMPDEST SWAP6 POP DUP1 NOT DUP5 AND SWAP4 POP DUP1 DUP7 AND DUP5 OR SWAP3 POP POP POP SWAP4 SWAP3 POP POP POP JUMP JUMPDEST PUSH0 DUP2 SWAP1 POP SWAP2 SWAP1 POP JUMP JUMPDEST PUSH0 PUSH2 0x1A84 PUSH2 0x1A7F PUSH2 0x1A7A DUP5 PUSH2 0x1387 JUMP JUMPDEST PUSH2 0x1A61 JUMP JUMPDEST PUSH2 0x1387 JUMP JUMPDEST SWAP1 POP SWAP2 SWAP1 POP JUMP JUMPDEST PUSH0 DUP2 SWAP1 POP SWAP2 SWAP1 POP JUMP JUMPDEST PUSH2 0x1A9D DUP4 PUSH2 0x1A6A JUMP JUMPDEST PUSH2 0x1AB1 PUSH2 0x1AA9 DUP3 PUSH2 0x1A8B JUMP JUMPDEST DUP5 DUP5 SLOAD PUSH2 0x1A10 JUMP JUMPDEST DUP3 SSTORE POP POP POP POP JUMP JUMPDEST PUSH0 SWAP1 JUMP JUMPDEST PUSH2 0x1AC5 PUSH2 0x1AB9 JUMP JUMPDEST PUSH2 0x1AD0 DUP2 DUP5 DUP5 PUSH2 0x1A94 JUMP JUMPDEST POP POP POP JUMP JUMPDEST JUMPDEST DUP2 DUP2 LT ISZERO PUSH2 0x1AF3 JUMPI PUSH2 0x1AE8 PUSH0 DUP3 PUSH2 0x1ABD JUMP JUMPDEST PUSH1 0x1 DUP2 ADD SWAP1 POP PUSH2 0x1AD6 JUMP JUMPDEST POP POP JUMP JUMPDEST PUSH1 0x1F DUP3 GT ISZERO PUSH2 0x1B38 JUMPI PUSH2 0x1B09 DUP2 PUSH2 0x19E3 JUMP JUMPDEST PUSH2 0x1B12 DUP5 PUSH2 0x19F5 JUMP JUMPDEST DUP2 ADD PUSH1 0x20 DUP6 LT ISZERO PUSH2 0x1B21 JUMPI DUP2 SWAP1 POP JUMPDEST PUSH2 0x1B35 PUSH2 0x1B2D DUP6 PUSH2 0x19F5 JUMP JUMPDEST DUP4 ADD DUP3 PUSH2 0x1AD5 JUMP JUMPDEST POP POP JUMPDEST POP POP POP JUMP JUMPDEST PUSH0 DUP3 DUP3 SHR SWAP1 POP SWAP3 SWAP2 POP POP JUMP JUMPDEST PUSH0 PUSH2 0x1B58 PUSH0 NOT DUP5 PUSH1 0x8 MUL PUSH2 0x1B3D JUMP JUMPDEST NOT DUP1 DUP4 AND SWAP2 POP POP SWAP3 SWAP2 POP POP JUMP JUMPDEST PUSH0 PUSH2 0x1B70 DUP4 DUP4 PUSH2 0x1B49 JUMP JUMPDEST SWAP2 POP DUP3 PUSH1 0x2 MUL DUP3 OR SWAP1 POP SWAP3 SWAP2 POP POP JUMP JUMPDEST PUSH2 0x1B89 DUP3 PUSH2 0x130D JUMP JUMPDEST PUSH8 0xFFFFFFFFFFFFFFFF DUP2 GT ISZERO PUSH2 0x1BA2 JUMPI PUSH2 0x1BA1 PUSH2 0x11A2 JUMP JUMPDEST JUMPDEST PUSH2 0x1BAC DUP3 SLOAD PUSH2 0x1739 JUMP JUMPDEST PUSH2 0x1BB7 DUP3 DUP3 DUP6 PUSH2 0x1AF7 JUMP JUMPDEST PUSH0 PUSH1 0x20 SWAP1 POP PUSH1 0x1F DUP4 GT PUSH1 0x1 DUP2 EQ PUSH2 0x1BE8 JUMPI PUSH0 DUP5 ISZERO PUSH2 0x1BD6 JUMPI DUP3 DUP8 ADD MLOAD SWAP1 POP JUMPDEST PUSH2 0x1BE0 DUP6 DUP3 PUSH2 0x1B65 JUMP JUMPDEST DUP7 SSTORE POP PUSH2 0x1C47 JUMP JUMPDEST PUSH1 0x1F NOT DUP5 AND PUSH2 0x1BF6 DUP7 PUSH2 0x19E3 JUMP JUMPDEST PUSH0 JUMPDEST DUP3 DUP2 LT ISZERO PUSH2 0x1C1D JUMPI DUP5 DUP10 ADD MLOAD DUP3 SSTORE PUSH1 0x1 DUP3 ADD SWAP2 POP PUSH1 0x20 DUP6 ADD SWAP5 POP PUSH1 0x20 DUP2 ADD SWAP1 POP PUSH2 0x1BF8 JUMP JUMPDEST DUP7 DUP4 LT ISZERO PUSH2 0x1C3A JUMPI DUP5 DUP10 ADD MLOAD PUSH2 0x1C36 PUSH1 0x1F DUP10 AND DUP3 PUSH2 0x1B49 JUMP JUMPDEST DUP4 SSTORE POP JUMPDEST PUSH1 0x1 PUSH1 0x2 DUP9 MUL ADD DUP9 SSTORE POP POP POP JUMPDEST POP POP POP POP POP POP JUMP JUMPDEST PUSH0 PUSH2 0x1C59 DUP3 PUSH2 0x1387 JUMP JUMPDEST SWAP2 POP PUSH2 0x1C64 DUP4 PUSH2 0x1387 JUMP JUMPDEST SWAP3 POP DUP3 DUP3 ADD SWAP1 POP DUP1 DUP3 GT ISZERO PUSH2 0x1C7C JUMPI PUSH2 0x1C7B PUSH2 0x18ED JUMP JUMPDEST JUMPDEST SWAP3 SWAP2 POP POP JUMP INVALID LOG2 PUSH5 0x6970667358 0x22 SLT KECCAK256 MLOAD SWAP5 STOP 0xC2 0x4D 0x28 0xC 0xC8 GASPRICE PUSH11 0xF8BC0E40BC3CF46F9843C9 0xC5 NUMBER SWAP16 0xCE 0x4D JUMP 0xB3 PUSH17 0x4A3B3A64736F6C63430008160033000000 "
				},
				"gasEstimates": {
					"creation": {
						"codeDepositCost": "1470400",
						"executionCost": "47903",
						"totalCost": "1518303"
					},
					"external": {
						"addAlimento(string,string,string,uint256,uint256,uint256)": "infinite",
						"addbebidas(string,string,string,uint256,uint256,uint256)": "infinite",
						"comprarPerfil()": "50984",
						"criarPerfilLoja(string,string,string,string,string,uint256)": "infinite",
						"estoqueAlimentos(string)": "infinite",
						"estoqueBebidas(string)": "infinite",
						"perfilComprado()": "2511",
						"venderAlimento(string,uint256)": "infinite",
						"venderBebida(string,uint256)": "infinite"
					}
				},
				"methodIdentifiers": {
					"addAlimento(string,string,string,uint256,uint256,uint256)": "d2b18e3e",
					"addbebidas(string,string,string,uint256,uint256,uint256)": "ee2f1907",
					"comprarPerfil()": "90628e69",
					"criarPerfilLoja(string,string,string,string,string,uint256)": "295ebe2c",
					"estoqueAlimentos(string)": "c1bde161",
					"estoqueBebidas(string)": "1f535563",
					"perfilComprado()": "396555ad",
					"venderAlimento(string,uint256)": "53184f56",
					"venderBebida(string,uint256)": "5245d1d0"
				}
			},
			"storageLayout": {
				"storage": [
					{
						"astId": 3,
						"contract": "AppFood/AppFoodWEB3/gastroAppLojas.sol:lojasApp",
						"label": "donoPerfil",
						"offset": 0,
						"slot": "0",
						"type": "t_address"
					},
					{
						"astId": 5,
						"contract": "AppFood/AppFoodWEB3/gastroAppLojas.sol:lojasApp",
						"label": "hashVideo",
						"offset": 0,
						"slot": "1",
						"type": "t_string_storage"
					},
					{
						"astId": 7,
						"contract": "AppFood/AppFoodWEB3/gastroAppLojas.sol:lojasApp",
						"label": "timestamp",
						"offset": 0,
						"slot": "2",
						"type": "t_uint256"
					},
					{
						"astId": 9,
						"contract": "AppFood/AppFoodWEB3/gastroAppLojas.sol:lojasApp",
						"label": "ultimoPost",
						"offset": 0,
						"slot": "3",
						"type": "t_uint256"
					},
					{
						"astId": 12,
						"contract": "AppFood/AppFoodWEB3/gastroAppLojas.sol:lojasApp",
						"label": "valorPerfil",
						"offset": 0,
						"slot": "4",
						"type": "t_uint256"
					},
					{
						"astId": 15,
						"contract": "AppFood/AppFoodWEB3/gastroAppLojas.sol:lojasApp",
						"label": "perfilComprado",
						"offset": 0,
						"slot": "5",
						"type": "t_bool"
					},
					{
						"astId": 104,
						"contract": "AppFood/AppFoodWEB3/gastroAppLojas.sol:lojasApp",
						"label": "mapaFotos",
						"offset": 0,
						"slot": "6",
						"type": "t_mapping(t_address,t_struct(FotosPerfil)99_storage)"
					},
					{
						"astId": 109,
						"contract": "AppFood/AppFoodWEB3/gastroAppLojas.sol:lojasApp",
						"label": "receitas",
						"offset": 0,
						"slot": "7",
						"type": "t_mapping(t_address,t_struct(Receita)89_storage)"
					},
					{
						"astId": 114,
						"contract": "AppFood/AppFoodWEB3/gastroAppLojas.sol:lojasApp",
						"label": "perfis",
						"offset": 0,
						"slot": "8",
						"type": "t_mapping(t_address,t_struct(Perfil)60_storage)"
					},
					{
						"astId": 119,
						"contract": "AppFood/AppFoodWEB3/gastroAppLojas.sol:lojasApp",
						"label": "end",
						"offset": 0,
						"slot": "9",
						"type": "t_mapping(t_address,t_struct(CriarEnd)35_storage)"
					},
					{
						"astId": 122,
						"contract": "AppFood/AppFoodWEB3/gastroAppLojas.sol:lojasApp",
						"label": "comentarios",
						"offset": 0,
						"slot": "10",
						"type": "t_array(t_string_storage)dyn_storage"
					},
					{
						"astId": 369,
						"contract": "AppFood/AppFoodWEB3/gastroAppLojas.sol:lojasApp",
						"label": "mapBebidas",
						"offset": 0,
						"slot": "11",
						"type": "t_mapping(t_string_memory_ptr,t_struct(Bebidas)360_storage)"
					},
					{
						"astId": 374,
						"contract": "AppFood/AppFoodWEB3/gastroAppLojas.sol:lojasApp",
						"label": "mapAlimentos",
						"offset": 0,
						"slot": "12",
						"type": "t_mapping(t_string_memory_ptr,t_struct(Alimentos)364_storage)"
					},
					{
						"astId": 378,
						"contract": "AppFood/AppFoodWEB3/gastroAppLojas.sol:lojasApp",
						"label": "estoque",
						"offset": 0,
						"slot": "13",
						"type": "t_mapping(t_string_memory_ptr,t_uint256)"
					}
				],
				"types": {
					"t_address": {
						"encoding": "inplace",
						"label": "address",
						"numberOfBytes": "20"
					},
					"t_array(t_string_storage)dyn_storage": {
						"base": "t_string_storage",
						"encoding": "dynamic_array",
						"label": "string[]",
						"numberOfBytes": "32"
					},
					"t_bool": {
						"encoding": "inplace",
						"label": "bool",
						"numberOfBytes": "1"
					},
					"t_mapping(t_address,t_struct(CriarEnd)35_storage)": {
						"encoding": "mapping",
						"key": "t_address",
						"label": "mapping(address => struct FuncoesApp.CriarEnd)",
						"numberOfBytes": "32",
						"value": "t_struct(CriarEnd)35_storage"
					},
					"t_mapping(t_address,t_struct(FotosPerfil)99_storage)": {
						"encoding": "mapping",
						"key": "t_address",
						"label": "mapping(address => struct FuncoesApp.FotosPerfil)",
						"numberOfBytes": "32",
						"value": "t_struct(FotosPerfil)99_storage"
					},
					"t_mapping(t_address,t_struct(Perfil)60_storage)": {
						"encoding": "mapping",
						"key": "t_address",
						"label": "mapping(address => struct FuncoesApp.Perfil)",
						"numberOfBytes": "32",
						"value": "t_struct(Perfil)60_storage"
					},
					"t_mapping(t_address,t_struct(Receita)89_storage)": {
						"encoding": "mapping",
						"key": "t_address",
						"label": "mapping(address => struct FuncoesApp.Receita)",
						"numberOfBytes": "32",
						"value": "t_struct(Receita)89_storage"
					},
					"t_mapping(t_string_memory_ptr,t_struct(Alimentos)364_storage)": {
						"encoding": "mapping",
						"key": "t_string_memory_ptr",
						"label": "mapping(string => struct lojasApp.Alimentos)",
						"numberOfBytes": "32",
						"value": "t_struct(Alimentos)364_storage"
					},
					"t_mapping(t_string_memory_ptr,t_struct(Bebidas)360_storage)": {
						"encoding": "mapping",
						"key": "t_string_memory_ptr",
						"label": "mapping(string => struct lojasApp.Bebidas)",
						"numberOfBytes": "32",
						"value": "t_struct(Bebidas)360_storage"
					},
					"t_mapping(t_string_memory_ptr,t_uint256)": {
						"encoding": "mapping",
						"key": "t_string_memory_ptr",
						"label": "mapping(string => uint256)",
						"numberOfBytes": "32",
						"value": "t_uint256"
					},
					"t_string_memory_ptr": {
						"encoding": "bytes",
						"label": "string",
						"numberOfBytes": "32"
					},
					"t_string_storage": {
						"encoding": "bytes",
						"label": "string",
						"numberOfBytes": "32"
					},
					"t_struct(Alimentos)364_storage": {
						"encoding": "inplace",
						"label": "struct lojasApp.Alimentos",
						"members": [
							{
								"astId": 363,
								"contract": "AppFood/AppFoodWEB3/gastroAppLojas.sol:lojasApp",
								"label": "dadosAlimentos",
								"offset": 0,
								"slot": "0",
								"type": "t_struct(dadosSimilares)338_storage"
							}
						],
						"numberOfBytes": "192"
					},
					"t_struct(Bebidas)360_storage": {
						"encoding": "inplace",
						"label": "struct lojasApp.Bebidas",
						"members": [
							{
								"astId": 359,
								"contract": "AppFood/AppFoodWEB3/gastroAppLojas.sol:lojasApp",
								"label": "dadosBebidas",
								"offset": 0,
								"slot": "0",
								"type": "t_struct(dadosSimilares)338_storage"
							}
						],
						"numberOfBytes": "192"
					},
					"t_struct(CriarEnd)35_storage": {
						"encoding": "inplace",
						"label": "struct FuncoesApp.CriarEnd",
						"members": [
							{
								"astId": 24,
								"contract": "AppFood/AppFoodWEB3/gastroAppLojas.sol:lojasApp",
								"label": "rua",
								"offset": 0,
								"slot": "0",
								"type": "t_string_storage"
							},
							{
								"astId": 26,
								"contract": "AppFood/AppFoodWEB3/gastroAppLojas.sol:lojasApp",
								"label": "bairro",
								"offset": 0,
								"slot": "1",
								"type": "t_string_storage"
							},
							{
								"astId": 28,
								"contract": "AppFood/AppFoodWEB3/gastroAppLojas.sol:lojasApp",
								"label": "cidade",
								"offset": 0,
								"slot": "2",
								"type": "t_string_storage"
							},
							{
								"astId": 30,
								"contract": "AppFood/AppFoodWEB3/gastroAppLojas.sol:lojasApp",
								"label": "estado",
								"offset": 0,
								"slot": "3",
								"type": "t_string_storage"
							},
							{
								"astId": 32,
								"contract": "AppFood/AppFoodWEB3/gastroAppLojas.sol:lojasApp",
								"label": "num",
								"offset": 0,
								"slot": "4",
								"type": "t_uint256"
							},
							{
								"astId": 34,
								"contract": "AppFood/AppFoodWEB3/gastroAppLojas.sol:lojasApp",
								"label": "cep",
								"offset": 0,
								"slot": "5",
								"type": "t_uint256"
							}
						],
						"numberOfBytes": "192"
					},
					"t_struct(FotosPerfil)99_storage": {
						"encoding": "inplace",
						"label": "struct FuncoesApp.FotosPerfil",
						"members": [
							{
								"astId": 92,
								"contract": "AppFood/AppFoodWEB3/gastroAppLojas.sol:lojasApp",
								"label": "fotosAppReceitas",
								"offset": 0,
								"slot": "0",
								"type": "t_array(t_string_storage)dyn_storage"
							},
							{
								"astId": 95,
								"contract": "AppFood/AppFoodWEB3/gastroAppLojas.sol:lojasApp",
								"label": "fotosAppRestaurantes",
								"offset": 0,
								"slot": "1",
								"type": "t_array(t_string_storage)dyn_storage"
							},
							{
								"astId": 98,
								"contract": "AppFood/AppFoodWEB3/gastroAppLojas.sol:lojasApp",
								"label": "fotosAppLojas",
								"offset": 0,
								"slot": "2",
								"type": "t_array(t_string_storage)dyn_storage"
							}
						],
						"numberOfBytes": "96"
					},
					"t_struct(Perfil)60_storage": {
						"encoding": "inplace",
						"label": "struct FuncoesApp.Perfil",
						"members": [
							{
								"astId": 49,
								"contract": "AppFood/AppFoodWEB3/gastroAppLojas.sol:lojasApp",
								"label": "dado1",
								"offset": 0,
								"slot": "0",
								"type": "t_string_storage"
							},
							{
								"astId": 51,
								"contract": "AppFood/AppFoodWEB3/gastroAppLojas.sol:lojasApp",
								"label": "dado2",
								"offset": 0,
								"slot": "1",
								"type": "t_string_storage"
							},
							{
								"astId": 53,
								"contract": "AppFood/AppFoodWEB3/gastroAppLojas.sol:lojasApp",
								"label": "dado3",
								"offset": 0,
								"slot": "2",
								"type": "t_string_storage"
							},
							{
								"astId": 55,
								"contract": "AppFood/AppFoodWEB3/gastroAppLojas.sol:lojasApp",
								"label": "dado4",
								"offset": 0,
								"slot": "3",
								"type": "t_string_storage"
							},
							{
								"astId": 57,
								"contract": "AppFood/AppFoodWEB3/gastroAppLojas.sol:lojasApp",
								"label": "dado5",
								"offset": 0,
								"slot": "4",
								"type": "t_string_storage"
							},
							{
								"astId": 59,
								"contract": "AppFood/AppFoodWEB3/gastroAppLojas.sol:lojasApp",
								"label": "dado6",
								"offset": 0,
								"slot": "5",
								"type": "t_uint256"
							}
						],
						"numberOfBytes": "192"
					},
					"t_struct(Receita)89_storage": {
						"encoding": "inplace",
						"label": "struct FuncoesApp.Receita",
						"members": [
							{
								"astId": 84,
								"contract": "AppFood/AppFoodWEB3/gastroAppLojas.sol:lojasApp",
								"label": "foto",
								"offset": 0,
								"slot": "0",
								"type": "t_string_storage"
							},
							{
								"astId": 86,
								"contract": "AppFood/AppFoodWEB3/gastroAppLojas.sol:lojasApp",
								"label": "hashVideoReceita",
								"offset": 0,
								"slot": "1",
								"type": "t_string_storage"
							},
							{
								"astId": 88,
								"contract": "AppFood/AppFoodWEB3/gastroAppLojas.sol:lojasApp",
								"label": "modoDePreparo",
								"offset": 0,
								"slot": "2",
								"type": "t_string_storage"
							}
						],
						"numberOfBytes": "96"
					},
					"t_struct(dadosSimilares)338_storage": {
						"encoding": "inplace",
						"label": "struct lojasApp.dadosSimilares",
						"members": [
							{
								"astId": 327,
								"contract": "AppFood/AppFoodWEB3/gastroAppLojas.sol:lojasApp",
								"label": "nomeProduto",
								"offset": 0,
								"slot": "0",
								"type": "t_string_storage"
							},
							{
								"astId": 329,
								"contract": "AppFood/AppFoodWEB3/gastroAppLojas.sol:lojasApp",
								"label": "tipoProduto",
								"offset": 0,
								"slot": "1",
								"type": "t_string_storage"
							},
							{
								"astId": 331,
								"contract": "AppFood/AppFoodWEB3/gastroAppLojas.sol:lojasApp",
								"label": "descricao",
								"offset": 0,
								"slot": "2",
								"type": "t_string_storage"
							},
							{
								"astId": 333,
								"contract": "AppFood/AppFoodWEB3/gastroAppLojas.sol:lojasApp",
								"label": "validade",
								"offset": 0,
								"slot": "3",
								"type": "t_uint256"
							},
							{
								"astId": 335,
								"contract": "AppFood/AppFoodWEB3/gastroAppLojas.sol:lojasApp",
								"label": "valor",
								"offset": 0,
								"slot": "4",
								"type": "t_uint256"
							},
							{
								"astId": 337,
								"contract": "AppFood/AppFoodWEB3/gastroAppLojas.sol:lojasApp",
								"label": "quantidade",
								"offset": 0,
								"slot": "5",
								"type": "t_uint256"
							}
						],
						"numberOfBytes": "192"
					},
					"t_uint256": {
						"encoding": "inplace",
						"label": "uint256",
						"numberOfBytes": "32"
					}
				}
			},
			"userdoc": {
				"kind": "user",
				"methods": {},
				"version": 1
			}
		}
	}
}