{
	"AppFood/AppFoodWEB3/gastroAppRestaurantes.sol": {
		"RestauranteApp": {
			"abi": [
				{
					"anonymous": false,
					"inputs": [],
					"name": "carregamentoFotoCompleto",
					"type": "event"
				},
				{
					"anonymous": false,
					"inputs": [],
					"name": "carregamentoReelscompleto",
					"type": "event"
				},
				{
					"anonymous": false,
					"inputs": [],
					"name": "criouEnd",
					"type": "event"
				},
				{
					"anonymous": false,
					"inputs": [],
					"name": "editouPerfil",
					"type": "event"
				},
				{
					"inputs": [
						{
							"internalType": "string",
							"name": "_nome",
							"type": "string"
						},
						{
							"internalType": "string",
							"name": "_foto",
							"type": "string"
						},
						{
							"internalType": "string",
							"name": "_categoria",
							"type": "string"
						},
						{
							"internalType": "string",
							"name": "_bio",
							"type": "string"
						},
						{
							"internalType": "string",
							"name": "_linkExterno",
							"type": "string"
						},
						{
							"internalType": "uint256",
							"name": "_nascimento",
							"type": "uint256"
						}
					],
					"name": "PerfilRestaurante",
					"outputs": [],
					"stateMutability": "nonpayable",
					"type": "function"
				},
				{
					"inputs": [
						{
							"internalType": "string",
							"name": "_video",
							"type": "string"
						}
					],
					"name": "Reels",
					"outputs": [],
					"stateMutability": "nonpayable",
					"type": "function"
				},
				{
					"inputs": [
						{
							"internalType": "string",
							"name": "",
							"type": "string"
						}
					],
					"name": "bebidas",
					"outputs": [
						{
							"internalType": "string",
							"name": "nomeBebida",
							"type": "string"
						},
						{
							"internalType": "string",
							"name": "descricaoBebida",
							"type": "string"
						},
						{
							"internalType": "string",
							"name": "fotoBebida",
							"type": "string"
						},
						{
							"internalType": "string",
							"name": "categoriaBebida",
							"type": "string"
						},
						{
							"internalType": "uint256",
							"name": "valorBebida",
							"type": "uint256"
						}
					],
					"stateMutability": "view",
					"type": "function"
				},
				{
					"inputs": [],
					"name": "comprarPerfil",
					"outputs": [
						{
							"internalType": "bool",
							"name": "",
							"type": "bool"
						}
					],
					"stateMutability": "payable",
					"type": "function"
				},
				{
					"inputs": [
						{
							"internalType": "string",
							"name": "_nomeBebida",
							"type": "string"
						},
						{
							"internalType": "string",
							"name": "_descricaoBebida",
							"type": "string"
						},
						{
							"internalType": "string",
							"name": "_categoriaBebida",
							"type": "string"
						},
						{
							"internalType": "string",
							"name": "_fotoBebida",
							"type": "string"
						},
						{
							"internalType": "uint256",
							"name": "_valorBebida",
							"type": "uint256"
						}
					],
					"name": "criarBebida",
					"outputs": [],
					"stateMutability": "nonpayable",
					"type": "function"
				},
				{
					"inputs": [
						{
							"internalType": "string",
							"name": "_nomePrato",
							"type": "string"
						},
						{
							"internalType": "string",
							"name": "_descricaoPrato",
							"type": "string"
						},
						{
							"internalType": "string",
							"name": "_categoriaPrato",
							"type": "string"
						},
						{
							"internalType": "string",
							"name": "_fotoPrato",
							"type": "string"
						},
						{
							"internalType": "uint256",
							"name": "_valorPrato",
							"type": "uint256"
						}
					],
					"name": "criarPrato",
					"outputs": [],
					"stateMutability": "nonpayable",
					"type": "function"
				},
				{
					"inputs": [],
					"name": "perfilComprado",
					"outputs": [
						{
							"internalType": "bool",
							"name": "",
							"type": "bool"
						}
					],
					"stateMutability": "view",
					"type": "function"
				},
				{
					"inputs": [
						{
							"internalType": "string",
							"name": "",
							"type": "string"
						}
					],
					"name": "pratos",
					"outputs": [
						{
							"internalType": "string",
							"name": "nomePrato",
							"type": "string"
						},
						{
							"internalType": "string",
							"name": "descricaoPrato",
							"type": "string"
						},
						{
							"internalType": "string",
							"name": "categoriaPrato",
							"type": "string"
						},
						{
							"internalType": "string",
							"name": "fotoPrato",
							"type": "string"
						},
						{
							"internalType": "uint256",
							"name": "valorPrato",
							"type": "uint256"
						}
					],
					"stateMutability": "view",
					"type": "function"
				}
			],
			"devdoc": {
				"kind": "dev",
				"methods": {},
				"version": 1
			},
			"evm": {
				"assembly": "    /* \"AppFood/AppFoodWEB3/gastroAppRestaurantes.sol\":95:1629  contract RestauranteApp is FuncoesApp{... */\n  mstore(0x40, 0x80)\n    /* \"AppFood/AppFoodWEB3/gastroAppFuncoes.sol\":355:361  10 wei */\n  0x0a\n    /* \"AppFood/AppFoodWEB3/gastroAppFuncoes.sol\":327:361  uint internal valorPerfil = 10 wei */\n  0x04\n  sstore\n    /* \"AppFood/AppFoodWEB3/gastroAppFuncoes.sol\":397:402  false */\n  0x00\n    /* \"AppFood/AppFoodWEB3/gastroAppFuncoes.sol\":368:402  bool public perfilComprado = false */\n  0x05\n  exp(0x0100, 0x00)\n  dup2\n  sload\n  dup2\n  0xff\n  mul\n  not\n  and\n  swap1\n  dup4\n  iszero\n  iszero\n  mul\n  or\n  swap1\n  sstore\n  pop\n    /* \"AppFood/AppFoodWEB3/gastroAppRestaurantes.sol\":95:1629  contract RestauranteApp is FuncoesApp{... */\n  callvalue\n  dup1\n  iszero\n  tag_1\n  jumpi\n  0x00\n  dup1\n  revert\ntag_1:\n  pop\n  dataSize(sub_0)\n  dup1\n  dataOffset(sub_0)\n  0x00\n  codecopy\n  0x00\n  return\nstop\n\nsub_0: assembly {\n        /* \"AppFood/AppFoodWEB3/gastroAppRestaurantes.sol\":95:1629  contract RestauranteApp is FuncoesApp{... */\n      mstore(0x40, 0x80)\n      jumpi(tag_1, lt(calldatasize, 0x04))\n      shr(0xe0, calldataload(0x00))\n      dup1\n      0x90628e69\n      gt\n      tag_10\n      jumpi\n      dup1\n      0x90628e69\n      eq\n      tag_6\n      jumpi\n      dup1\n      0x972dac07\n      eq\n      tag_7\n      jumpi\n      dup1\n      0xdbbe8659\n      eq\n      tag_8\n      jumpi\n      dup1\n      0xea78aaba\n      eq\n      tag_9\n      jumpi\n      jump(tag_1)\n    tag_10:\n      dup1\n      0x396555ad\n      eq\n      tag_2\n      jumpi\n      dup1\n      0x54c946a5\n      eq\n      tag_3\n      jumpi\n      dup1\n      0x57652f2a\n      eq\n      tag_4\n      jumpi\n      dup1\n      0x74a69179\n      eq\n      tag_5\n      jumpi\n    tag_1:\n      0x00\n      dup1\n      revert\n        /* \"AppFood/AppFoodWEB3/gastroAppFuncoes.sol\":368:402  bool public perfilComprado = false */\n    tag_2:\n      callvalue\n      dup1\n      iszero\n      tag_11\n      jumpi\n      0x00\n      dup1\n      revert\n    tag_11:\n      pop\n      tag_12\n      tag_13\n      jump\t// in\n    tag_12:\n      mload(0x40)\n      tag_14\n      swap2\n      swap1\n      tag_15\n      jump\t// in\n    tag_14:\n      mload(0x40)\n      dup1\n      swap2\n      sub\n      swap1\n      return\n        /* \"AppFood/AppFoodWEB3/gastroAppRestaurantes.sol\":530:570  mapping(string => Bebida) public bebidas */\n    tag_3:\n      callvalue\n      dup1\n      iszero\n      tag_16\n      jumpi\n      0x00\n      dup1\n      revert\n    tag_16:\n      pop\n      tag_17\n      0x04\n      dup1\n      calldatasize\n      sub\n      dup2\n      add\n      swap1\n      tag_18\n      swap2\n      swap1\n      tag_19\n      jump\t// in\n    tag_18:\n      tag_20\n      jump\t// in\n    tag_17:\n      mload(0x40)\n      tag_21\n      swap6\n      swap5\n      swap4\n      swap3\n      swap2\n      swap1\n      tag_22\n      jump\t// in\n    tag_21:\n      mload(0x40)\n      dup1\n      swap2\n      sub\n      swap1\n      return\n        /* \"AppFood/AppFoodWEB3/gastroAppRestaurantes.sol\":876:1192  function criarPrato(string memory _nomePrato, string memory _descricaoPrato, string memory _categoriaPrato, string memory _fotoPrato, uint _valorPrato) public {... */\n    tag_4:\n      callvalue\n      dup1\n      iszero\n      tag_23\n      jumpi\n      0x00\n      dup1\n      revert\n    tag_23:\n      pop\n      tag_24\n      0x04\n      dup1\n      calldatasize\n      sub\n      dup2\n      add\n      swap1\n      tag_25\n      swap2\n      swap1\n      tag_26\n      jump\t// in\n    tag_25:\n      tag_27\n      jump\t// in\n    tag_24:\n      stop\n        /* \"AppFood/AppFoodWEB3/gastroAppRestaurantes.sol\":485:523  mapping(string => Prato) public pratos */\n    tag_5:\n      callvalue\n      dup1\n      iszero\n      tag_28\n      jumpi\n      0x00\n      dup1\n      revert\n    tag_28:\n      pop\n      tag_29\n      0x04\n      dup1\n      calldatasize\n      sub\n      dup2\n      add\n      swap1\n      tag_30\n      swap2\n      swap1\n      tag_19\n      jump\t// in\n    tag_30:\n      tag_31\n      jump\t// in\n    tag_29:\n      mload(0x40)\n      tag_32\n      swap6\n      swap5\n      swap4\n      swap3\n      swap2\n      swap1\n      tag_22\n      jump\t// in\n    tag_32:\n      mload(0x40)\n      dup1\n      swap2\n      sub\n      swap1\n      return\n        /* \"AppFood/AppFoodWEB3/gastroAppRestaurantes.sol\":276:477  function comprarPerfil() public payable returns(bool) {... */\n    tag_6:\n      tag_33\n      tag_34\n      jump\t// in\n    tag_33:\n      mload(0x40)\n      tag_35\n      swap2\n      swap1\n      tag_15\n      jump\t// in\n    tag_35:\n      mload(0x40)\n      dup1\n      swap2\n      sub\n      swap1\n      return\n        /* \"AppFood/AppFoodWEB3/gastroAppRestaurantes.sol\":581:868  function PerfilRestaurante(string memory _nome, string memory _foto, string memory _categoria, string memory _bio, string memory _linkExterno, uint _nascimento) external {... */\n    tag_7:\n      callvalue\n      dup1\n      iszero\n      tag_36\n      jumpi\n      0x00\n      dup1\n      revert\n    tag_36:\n      pop\n      tag_37\n      0x04\n      dup1\n      calldatasize\n      sub\n      dup2\n      add\n      swap1\n      tag_38\n      swap2\n      swap1\n      tag_39\n      jump\t// in\n    tag_38:\n      tag_40\n      jump\t// in\n    tag_37:\n      stop\n        /* \"AppFood/AppFoodWEB3/gastroAppRestaurantes.sol\":1204:1535  function criarBebida(string memory _nomeBebida, string memory _descricaoBebida, string memory _categoriaBebida, string memory _fotoBebida, uint _valorBebida) public {... */\n    tag_8:\n      callvalue\n      dup1\n      iszero\n      tag_41\n      jumpi\n      0x00\n      dup1\n      revert\n    tag_41:\n      pop\n      tag_42\n      0x04\n      dup1\n      calldatasize\n      sub\n      dup2\n      add\n      swap1\n      tag_43\n      swap2\n      swap1\n      tag_26\n      jump\t// in\n    tag_43:\n      tag_44\n      jump\t// in\n    tag_42:\n      stop\n        /* \"AppFood/AppFoodWEB3/gastroAppRestaurantes.sol\":1543:1624  function Reels(string memory _video) public {... */\n    tag_9:\n      callvalue\n      dup1\n      iszero\n      tag_45\n      jumpi\n      0x00\n      dup1\n      revert\n    tag_45:\n      pop\n      tag_46\n      0x04\n      dup1\n      calldatasize\n      sub\n      dup2\n      add\n      swap1\n      tag_47\n      swap2\n      swap1\n      tag_19\n      jump\t// in\n    tag_47:\n      tag_48\n      jump\t// in\n    tag_46:\n      stop\n        /* \"AppFood/AppFoodWEB3/gastroAppFuncoes.sol\":368:402  bool public perfilComprado = false */\n    tag_13:\n      0x05\n      0x00\n      swap1\n      sload\n      swap1\n      0x0100\n      exp\n      swap1\n      div\n      0xff\n      and\n      dup2\n      jump\t// out\n        /* \"AppFood/AppFoodWEB3/gastroAppRestaurantes.sol\":530:570  mapping(string => Bebida) public bebidas */\n    tag_20:\n      0x0c\n      dup2\n      dup1\n      mload\n      0x20\n      dup2\n      add\n      dup3\n      add\n      dup1\n      mload\n      dup5\n      dup3\n      mstore\n      0x20\n      dup4\n      add\n      0x20\n      dup6\n      add\n      keccak256\n      dup2\n      dup4\n      mstore\n      dup1\n      swap6\n      pop\n      pop\n      pop\n      pop\n      pop\n      pop\n      0x00\n      swap2\n      pop\n      swap1\n      pop\n      dup1\n      0x00\n      add\n      dup1\n      sload\n      tag_49\n      swap1\n      tag_50\n      jump\t// in\n    tag_49:\n      dup1\n      0x1f\n      add\n      0x20\n      dup1\n      swap2\n      div\n      mul\n      0x20\n      add\n      mload(0x40)\n      swap1\n      dup2\n      add\n      0x40\n      mstore\n      dup1\n      swap3\n      swap2\n      swap1\n      dup2\n      dup2\n      mstore\n      0x20\n      add\n      dup3\n      dup1\n      sload\n      tag_51\n      swap1\n      tag_50\n      jump\t// in\n    tag_51:\n      dup1\n      iszero\n      tag_52\n      jumpi\n      dup1\n      0x1f\n      lt\n      tag_53\n      jumpi\n      0x0100\n      dup1\n      dup4\n      sload\n      div\n      mul\n      dup4\n      mstore\n      swap2\n      0x20\n      add\n      swap2\n      jump(tag_52)\n    tag_53:\n      dup3\n      add\n      swap2\n      swap1\n      0x00\n      mstore\n      keccak256(0x00, 0x20)\n      swap1\n    tag_54:\n      dup2\n      sload\n      dup2\n      mstore\n      swap1\n      0x01\n      add\n      swap1\n      0x20\n      add\n      dup1\n      dup4\n      gt\n      tag_54\n      jumpi\n      dup3\n      swap1\n      sub\n      0x1f\n      and\n      dup3\n      add\n      swap2\n    tag_52:\n      pop\n      pop\n      pop\n      pop\n      pop\n      swap1\n      dup1\n      0x01\n      add\n      dup1\n      sload\n      tag_55\n      swap1\n      tag_50\n      jump\t// in\n    tag_55:\n      dup1\n      0x1f\n      add\n      0x20\n      dup1\n      swap2\n      div\n      mul\n      0x20\n      add\n      mload(0x40)\n      swap1\n      dup2\n      add\n      0x40\n      mstore\n      dup1\n      swap3\n      swap2\n      swap1\n      dup2\n      dup2\n      mstore\n      0x20\n      add\n      dup3\n      dup1\n      sload\n      tag_56\n      swap1\n      tag_50\n      jump\t// in\n    tag_56:\n      dup1\n      iszero\n      tag_57\n      jumpi\n      dup1\n      0x1f\n      lt\n      tag_58\n      jumpi\n      0x0100\n      dup1\n      dup4\n      sload\n      div\n      mul\n      dup4\n      mstore\n      swap2\n      0x20\n      add\n      swap2\n      jump(tag_57)\n    tag_58:\n      dup3\n      add\n      swap2\n      swap1\n      0x00\n      mstore\n      keccak256(0x00, 0x20)\n      swap1\n    tag_59:\n      dup2\n      sload\n      dup2\n      mstore\n      swap1\n      0x01\n      add\n      swap1\n      0x20\n      add\n      dup1\n      dup4\n      gt\n      tag_59\n      jumpi\n      dup3\n      swap1\n      sub\n      0x1f\n      and\n      dup3\n      add\n      swap2\n    tag_57:\n      pop\n      pop\n      pop\n      pop\n      pop\n      swap1\n      dup1\n      0x02\n      add\n      dup1\n      sload\n      tag_60\n      swap1\n      tag_50\n      jump\t// in\n    tag_60:\n      dup1\n      0x1f\n      add\n      0x20\n      dup1\n      swap2\n      div\n      mul\n      0x20\n      add\n      mload(0x40)\n      swap1\n      dup2\n      add\n      0x40\n      mstore\n      dup1\n      swap3\n      swap2\n      swap1\n      dup2\n      dup2\n      mstore\n      0x20\n      add\n      dup3\n      dup1\n      sload\n      tag_61\n      swap1\n      tag_50\n      jump\t// in\n    tag_61:\n      dup1\n      iszero\n      tag_62\n      jumpi\n      dup1\n      0x1f\n      lt\n      tag_63\n      jumpi\n      0x0100\n      dup1\n      dup4\n      sload\n      div\n      mul\n      dup4\n      mstore\n      swap2\n      0x20\n      add\n      swap2\n      jump(tag_62)\n    tag_63:\n      dup3\n      add\n      swap2\n      swap1\n      0x00\n      mstore\n      keccak256(0x00, 0x20)\n      swap1\n    tag_64:\n      dup2\n      sload\n      dup2\n      mstore\n      swap1\n      0x01\n      add\n      swap1\n      0x20\n      add\n      dup1\n      dup4\n      gt\n      tag_64\n      jumpi\n      dup3\n      swap1\n      sub\n      0x1f\n      and\n      dup3\n      add\n      swap2\n    tag_62:\n      pop\n      pop\n      pop\n      pop\n      pop\n      swap1\n      dup1\n      0x03\n      add\n      dup1\n      sload\n      tag_65\n      swap1\n      tag_50\n      jump\t// in\n    tag_65:\n      dup1\n      0x1f\n      add\n      0x20\n      dup1\n      swap2\n      div\n      mul\n      0x20\n      add\n      mload(0x40)\n      swap1\n      dup2\n      add\n      0x40\n      mstore\n      dup1\n      swap3\n      swap2\n      swap1\n      dup2\n      dup2\n      mstore\n      0x20\n      add\n      dup3\n      dup1\n      sload\n      tag_66\n      swap1\n      tag_50\n      jump\t// in\n    tag_66:\n      dup1\n      iszero\n      tag_67\n      jumpi\n      dup1\n      0x1f\n      lt\n      tag_68\n      jumpi\n      0x0100\n      dup1\n      dup4\n      sload\n      div\n      mul\n      dup4\n      mstore\n      swap2\n      0x20\n      add\n      swap2\n      jump(tag_67)\n    tag_68:\n      dup3\n      add\n      swap2\n      swap1\n      0x00\n      mstore\n      keccak256(0x00, 0x20)\n      swap1\n    tag_69:\n      dup2\n      sload\n      dup2\n      mstore\n      swap1\n      0x01\n      add\n      swap1\n      0x20\n      add\n      dup1\n      dup4\n      gt\n      tag_69\n      jumpi\n      dup3\n      swap1\n      sub\n      0x1f\n      and\n      dup3\n      add\n      swap2\n    tag_67:\n      pop\n      pop\n      pop\n      pop\n      pop\n      swap1\n      dup1\n      0x04\n      add\n      sload\n      swap1\n      pop\n      dup6\n      jump\t// out\n        /* \"AppFood/AppFoodWEB3/gastroAppRestaurantes.sol\":876:1192  function criarPrato(string memory _nomePrato, string memory _descricaoPrato, string memory _categoriaPrato, string memory _fotoPrato, uint _valorPrato) public {... */\n    tag_27:\n        /* \"AppFood/AppFoodWEB3/gastroAppRestaurantes.sol\":1046:1066  Prato memory _pratos */\n      0x00\n        /* \"AppFood/AppFoodWEB3/gastroAppRestaurantes.sol\":1069:1145  Prato(_nomePrato, _descricaoPrato, _categoriaPrato, _fotoPrato, _valorPrato) */\n      mload(0x40)\n      dup1\n      0xa0\n      add\n      0x40\n      mstore\n      dup1\n        /* \"AppFood/AppFoodWEB3/gastroAppRestaurantes.sol\":1075:1085  _nomePrato */\n      dup8\n        /* \"AppFood/AppFoodWEB3/gastroAppRestaurantes.sol\":1069:1145  Prato(_nomePrato, _descricaoPrato, _categoriaPrato, _fotoPrato, _valorPrato) */\n      dup2\n      mstore\n      0x20\n      add\n        /* \"AppFood/AppFoodWEB3/gastroAppRestaurantes.sol\":1087:1102  _descricaoPrato */\n      dup7\n        /* \"AppFood/AppFoodWEB3/gastroAppRestaurantes.sol\":1069:1145  Prato(_nomePrato, _descricaoPrato, _categoriaPrato, _fotoPrato, _valorPrato) */\n      dup2\n      mstore\n      0x20\n      add\n        /* \"AppFood/AppFoodWEB3/gastroAppRestaurantes.sol\":1104:1119  _categoriaPrato */\n      dup6\n        /* \"AppFood/AppFoodWEB3/gastroAppRestaurantes.sol\":1069:1145  Prato(_nomePrato, _descricaoPrato, _categoriaPrato, _fotoPrato, _valorPrato) */\n      dup2\n      mstore\n      0x20\n      add\n        /* \"AppFood/AppFoodWEB3/gastroAppRestaurantes.sol\":1121:1131  _fotoPrato */\n      dup5\n        /* \"AppFood/AppFoodWEB3/gastroAppRestaurantes.sol\":1069:1145  Prato(_nomePrato, _descricaoPrato, _categoriaPrato, _fotoPrato, _valorPrato) */\n      dup2\n      mstore\n      0x20\n      add\n        /* \"AppFood/AppFoodWEB3/gastroAppRestaurantes.sol\":1133:1144  _valorPrato */\n      dup4\n        /* \"AppFood/AppFoodWEB3/gastroAppRestaurantes.sol\":1069:1145  Prato(_nomePrato, _descricaoPrato, _categoriaPrato, _fotoPrato, _valorPrato) */\n      dup2\n      mstore\n      pop\n        /* \"AppFood/AppFoodWEB3/gastroAppRestaurantes.sol\":1046:1145  Prato memory _pratos = Prato(_nomePrato, _descricaoPrato, _categoriaPrato, _fotoPrato, _valorPrato) */\n      swap1\n      pop\n        /* \"AppFood/AppFoodWEB3/gastroAppRestaurantes.sol\":1177:1184  _pratos */\n      dup1\n        /* \"AppFood/AppFoodWEB3/gastroAppRestaurantes.sol\":1156:1162  pratos */\n      0x0b\n        /* \"AppFood/AppFoodWEB3/gastroAppRestaurantes.sol\":1163:1173  _nomePrato */\n      dup8\n        /* \"AppFood/AppFoodWEB3/gastroAppRestaurantes.sol\":1156:1174  pratos[_nomePrato] */\n      mload(0x40)\n      tag_71\n      swap2\n      swap1\n      tag_72\n      jump\t// in\n    tag_71:\n      swap1\n      dup2\n      mstore\n      0x20\n      add\n      mload(0x40)\n      dup1\n      swap2\n      sub\n      swap1\n      keccak256\n        /* \"AppFood/AppFoodWEB3/gastroAppRestaurantes.sol\":1156:1184  pratos[_nomePrato] = _pratos */\n      0x00\n      dup3\n      add\n      mload\n      dup2\n      0x00\n      add\n      swap1\n      dup2\n      tag_73\n      swap2\n      swap1\n      tag_74\n      jump\t// in\n    tag_73:\n      pop\n      0x20\n      dup3\n      add\n      mload\n      dup2\n      0x01\n      add\n      swap1\n      dup2\n      tag_75\n      swap2\n      swap1\n      tag_74\n      jump\t// in\n    tag_75:\n      pop\n      0x40\n      dup3\n      add\n      mload\n      dup2\n      0x02\n      add\n      swap1\n      dup2\n      tag_76\n      swap2\n      swap1\n      tag_74\n      jump\t// in\n    tag_76:\n      pop\n      0x60\n      dup3\n      add\n      mload\n      dup2\n      0x03\n      add\n      swap1\n      dup2\n      tag_77\n      swap2\n      swap1\n      tag_74\n      jump\t// in\n    tag_77:\n      pop\n      0x80\n      dup3\n      add\n      mload\n      dup2\n      0x04\n      add\n      sstore\n      swap1\n      pop\n      pop\n        /* \"AppFood/AppFoodWEB3/gastroAppRestaurantes.sol\":1035:1192  {... */\n      pop\n        /* \"AppFood/AppFoodWEB3/gastroAppRestaurantes.sol\":876:1192  function criarPrato(string memory _nomePrato, string memory _descricaoPrato, string memory _categoriaPrato, string memory _fotoPrato, uint _valorPrato) public {... */\n      pop\n      pop\n      pop\n      pop\n      pop\n      jump\t// out\n        /* \"AppFood/AppFoodWEB3/gastroAppRestaurantes.sol\":485:523  mapping(string => Prato) public pratos */\n    tag_31:\n      0x0b\n      dup2\n      dup1\n      mload\n      0x20\n      dup2\n      add\n      dup3\n      add\n      dup1\n      mload\n      dup5\n      dup3\n      mstore\n      0x20\n      dup4\n      add\n      0x20\n      dup6\n      add\n      keccak256\n      dup2\n      dup4\n      mstore\n      dup1\n      swap6\n      pop\n      pop\n      pop\n      pop\n      pop\n      pop\n      0x00\n      swap2\n      pop\n      swap1\n      pop\n      dup1\n      0x00\n      add\n      dup1\n      sload\n      tag_78\n      swap1\n      tag_50\n      jump\t// in\n    tag_78:\n      dup1\n      0x1f\n      add\n      0x20\n      dup1\n      swap2\n      div\n      mul\n      0x20\n      add\n      mload(0x40)\n      swap1\n      dup2\n      add\n      0x40\n      mstore\n      dup1\n      swap3\n      swap2\n      swap1\n      dup2\n      dup2\n      mstore\n      0x20\n      add\n      dup3\n      dup1\n      sload\n      tag_79\n      swap1\n      tag_50\n      jump\t// in\n    tag_79:\n      dup1\n      iszero\n      tag_80\n      jumpi\n      dup1\n      0x1f\n      lt\n      tag_81\n      jumpi\n      0x0100\n      dup1\n      dup4\n      sload\n      div\n      mul\n      dup4\n      mstore\n      swap2\n      0x20\n      add\n      swap2\n      jump(tag_80)\n    tag_81:\n      dup3\n      add\n      swap2\n      swap1\n      0x00\n      mstore\n      keccak256(0x00, 0x20)\n      swap1\n    tag_82:\n      dup2\n      sload\n      dup2\n      mstore\n      swap1\n      0x01\n      add\n      swap1\n      0x20\n      add\n      dup1\n      dup4\n      gt\n      tag_82\n      jumpi\n      dup3\n      swap1\n      sub\n      0x1f\n      and\n      dup3\n      add\n      swap2\n    tag_80:\n      pop\n      pop\n      pop\n      pop\n      pop\n      swap1\n      dup1\n      0x01\n      add\n      dup1\n      sload\n      tag_83\n      swap1\n      tag_50\n      jump\t// in\n    tag_83:\n      dup1\n      0x1f\n      add\n      0x20\n      dup1\n      swap2\n      div\n      mul\n      0x20\n      add\n      mload(0x40)\n      swap1\n      dup2\n      add\n      0x40\n      mstore\n      dup1\n      swap3\n      swap2\n      swap1\n      dup2\n      dup2\n      mstore\n      0x20\n      add\n      dup3\n      dup1\n      sload\n      tag_84\n      swap1\n      tag_50\n      jump\t// in\n    tag_84:\n      dup1\n      iszero\n      tag_85\n      jumpi\n      dup1\n      0x1f\n      lt\n      tag_86\n      jumpi\n      0x0100\n      dup1\n      dup4\n      sload\n      div\n      mul\n      dup4\n      mstore\n      swap2\n      0x20\n      add\n      swap2\n      jump(tag_85)\n    tag_86:\n      dup3\n      add\n      swap2\n      swap1\n      0x00\n      mstore\n      keccak256(0x00, 0x20)\n      swap1\n    tag_87:\n      dup2\n      sload\n      dup2\n      mstore\n      swap1\n      0x01\n      add\n      swap1\n      0x20\n      add\n      dup1\n      dup4\n      gt\n      tag_87\n      jumpi\n      dup3\n      swap1\n      sub\n      0x1f\n      and\n      dup3\n      add\n      swap2\n    tag_85:\n      pop\n      pop\n      pop\n      pop\n      pop\n      swap1\n      dup1\n      0x02\n      add\n      dup1\n      sload\n      tag_88\n      swap1\n      tag_50\n      jump\t// in\n    tag_88:\n      dup1\n      0x1f\n      add\n      0x20\n      dup1\n      swap2\n      div\n      mul\n      0x20\n      add\n      mload(0x40)\n      swap1\n      dup2\n      add\n      0x40\n      mstore\n      dup1\n      swap3\n      swap2\n      swap1\n      dup2\n      dup2\n      mstore\n      0x20\n      add\n      dup3\n      dup1\n      sload\n      tag_89\n      swap1\n      tag_50\n      jump\t// in\n    tag_89:\n      dup1\n      iszero\n      tag_90\n      jumpi\n      dup1\n      0x1f\n      lt\n      tag_91\n      jumpi\n      0x0100\n      dup1\n      dup4\n      sload\n      div\n      mul\n      dup4\n      mstore\n      swap2\n      0x20\n      add\n      swap2\n      jump(tag_90)\n    tag_91:\n      dup3\n      add\n      swap2\n      swap1\n      0x00\n      mstore\n      keccak256(0x00, 0x20)\n      swap1\n    tag_92:\n      dup2\n      sload\n      dup2\n      mstore\n      swap1\n      0x01\n      add\n      swap1\n      0x20\n      add\n      dup1\n      dup4\n      gt\n      tag_92\n      jumpi\n      dup3\n      swap1\n      sub\n      0x1f\n      and\n      dup3\n      add\n      swap2\n    tag_90:\n      pop\n      pop\n      pop\n      pop\n      pop\n      swap1\n      dup1\n      0x03\n      add\n      dup1\n      sload\n      tag_93\n      swap1\n      tag_50\n      jump\t// in\n    tag_93:\n      dup1\n      0x1f\n      add\n      0x20\n      dup1\n      swap2\n      div\n      mul\n      0x20\n      add\n      mload(0x40)\n      swap1\n      dup2\n      add\n      0x40\n      mstore\n      dup1\n      swap3\n      swap2\n      swap1\n      dup2\n      dup2\n      mstore\n      0x20\n      add\n      dup3\n      dup1\n      sload\n      tag_94\n      swap1\n      tag_50\n      jump\t// in\n    tag_94:\n      dup1\n      iszero\n      tag_95\n      jumpi\n      dup1\n      0x1f\n      lt\n      tag_96\n      jumpi\n      0x0100\n      dup1\n      dup4\n      sload\n      div\n      mul\n      dup4\n      mstore\n      swap2\n      0x20\n      add\n      swap2\n      jump(tag_95)\n    tag_96:\n      dup3\n      add\n      swap2\n      swap1\n      0x00\n      mstore\n      keccak256(0x00, 0x20)\n      swap1\n    tag_97:\n      dup2\n      sload\n      dup2\n      mstore\n      swap1\n      0x01\n      add\n      swap1\n      0x20\n      add\n      dup1\n      dup4\n      gt\n      tag_97\n      jumpi\n      dup3\n      swap1\n      sub\n      0x1f\n      and\n      dup3\n      add\n      swap2\n    tag_95:\n      pop\n      pop\n      pop\n      pop\n      pop\n      swap1\n      dup1\n      0x04\n      add\n      sload\n      swap1\n      pop\n      dup6\n      jump\t// out\n        /* \"AppFood/AppFoodWEB3/gastroAppRestaurantes.sol\":276:477  function comprarPerfil() public payable returns(bool) {... */\n    tag_34:\n        /* \"AppFood/AppFoodWEB3/gastroAppRestaurantes.sol\":324:328  bool */\n      0x00\n        /* \"AppFood/AppFoodWEB3/gastroAppRestaurantes.sol\":362:373  valorPerfil */\n      sload(0x04)\n        /* \"AppFood/AppFoodWEB3/gastroAppRestaurantes.sol\":349:358  msg.value */\n      callvalue\n        /* \"AppFood/AppFoodWEB3/gastroAppRestaurantes.sol\":349:373  msg.value == valorPerfil */\n      eq\n        /* \"AppFood/AppFoodWEB3/gastroAppRestaurantes.sol\":341:396  require(msg.value == valorPerfil, \"saldo Insuficiente\") */\n      tag_99\n      jumpi\n      mload(0x40)\n      0x08c379a000000000000000000000000000000000000000000000000000000000\n      dup2\n      mstore\n      0x04\n      add\n      tag_100\n      swap1\n      tag_101\n      jump\t// in\n    tag_100:\n      mload(0x40)\n      dup1\n      swap2\n      sub\n      swap1\n      revert\n    tag_99:\n        /* \"AppFood/AppFoodWEB3/gastroAppRestaurantes.sol\":420:430  msg.sender */\n      caller\n        /* \"AppFood/AppFoodWEB3/gastroAppRestaurantes.sol\":407:417  donoPerfil */\n      0x00\n      dup1\n        /* \"AppFood/AppFoodWEB3/gastroAppRestaurantes.sol\":407:430  donoPerfil = msg.sender */\n      0x0100\n      exp\n      dup2\n      sload\n      dup2\n      0xffffffffffffffffffffffffffffffffffffffff\n      mul\n      not\n      and\n      swap1\n      dup4\n      0xffffffffffffffffffffffffffffffffffffffff\n      and\n      mul\n      or\n      swap1\n      sstore\n      pop\n        /* \"AppFood/AppFoodWEB3/gastroAppRestaurantes.sol\":465:469  true */\n      0x01\n        /* \"AppFood/AppFoodWEB3/gastroAppRestaurantes.sol\":448:462  perfilComprado */\n      0x05\n      0x00\n        /* \"AppFood/AppFoodWEB3/gastroAppRestaurantes.sol\":448:469  perfilComprado = true */\n      0x0100\n      exp\n      dup2\n      sload\n      dup2\n      0xff\n      mul\n      not\n      and\n      swap1\n      dup4\n      iszero\n      iszero\n      mul\n      or\n      swap1\n      sstore\n        /* \"AppFood/AppFoodWEB3/gastroAppRestaurantes.sol\":441:469  return perfilComprado = true */\n      swap1\n      pop\n        /* \"AppFood/AppFoodWEB3/gastroAppRestaurantes.sol\":276:477  function comprarPerfil() public payable returns(bool) {... */\n      swap1\n      jump\t// out\n        /* \"AppFood/AppFoodWEB3/gastroAppRestaurantes.sol\":581:868  function PerfilRestaurante(string memory _nome, string memory _foto, string memory _categoria, string memory _bio, string memory _linkExterno, uint _nascimento) external {... */\n    tag_40:\n        /* \"AppFood/AppFoodWEB3/gastroAppRestaurantes.sol\":762:778  add5Fotos(_foto) */\n      tag_103\n        /* \"AppFood/AppFoodWEB3/gastroAppRestaurantes.sol\":772:777  _foto */\n      dup6\n        /* \"AppFood/AppFoodWEB3/gastroAppRestaurantes.sol\":762:771  add5Fotos */\n      tag_104\n        /* \"AppFood/AppFoodWEB3/gastroAppRestaurantes.sol\":762:778  add5Fotos(_foto) */\n      jump\t// in\n    tag_103:\n        /* \"AppFood/AppFoodWEB3/gastroAppRestaurantes.sol\":789:860  EditarPerfil(_nome, _foto, _categoria, _bio, _linkExterno, _nascimento) */\n      tag_105\n        /* \"AppFood/AppFoodWEB3/gastroAppRestaurantes.sol\":802:807  _nome */\n      dup7\n        /* \"AppFood/AppFoodWEB3/gastroAppRestaurantes.sol\":809:814  _foto */\n      dup7\n        /* \"AppFood/AppFoodWEB3/gastroAppRestaurantes.sol\":816:826  _categoria */\n      dup7\n        /* \"AppFood/AppFoodWEB3/gastroAppRestaurantes.sol\":828:832  _bio */\n      dup7\n        /* \"AppFood/AppFoodWEB3/gastroAppRestaurantes.sol\":834:846  _linkExterno */\n      dup7\n        /* \"AppFood/AppFoodWEB3/gastroAppRestaurantes.sol\":848:859  _nascimento */\n      dup7\n        /* \"AppFood/AppFoodWEB3/gastroAppRestaurantes.sol\":789:801  EditarPerfil */\n      tag_106\n        /* \"AppFood/AppFoodWEB3/gastroAppRestaurantes.sol\":789:860  EditarPerfil(_nome, _foto, _categoria, _bio, _linkExterno, _nascimento) */\n      jump\t// in\n    tag_105:\n        /* \"AppFood/AppFoodWEB3/gastroAppRestaurantes.sol\":581:868  function PerfilRestaurante(string memory _nome, string memory _foto, string memory _categoria, string memory _bio, string memory _linkExterno, uint _nascimento) external {... */\n      pop\n      pop\n      pop\n      pop\n      pop\n      pop\n      jump\t// out\n        /* \"AppFood/AppFoodWEB3/gastroAppRestaurantes.sol\":1204:1535  function criarBebida(string memory _nomeBebida, string memory _descricaoBebida, string memory _categoriaBebida, string memory _fotoBebida, uint _valorBebida) public {... */\n    tag_44:\n        /* \"AppFood/AppFoodWEB3/gastroAppRestaurantes.sol\":1380:1401  Bebida memory _bebida */\n      0x00\n        /* \"AppFood/AppFoodWEB3/gastroAppRestaurantes.sol\":1404:1486  Bebida(_nomeBebida, _descricaoBebida, _categoriaBebida, _fotoBebida, _valorBebida) */\n      mload(0x40)\n      dup1\n      0xa0\n      add\n      0x40\n      mstore\n      dup1\n        /* \"AppFood/AppFoodWEB3/gastroAppRestaurantes.sol\":1411:1422  _nomeBebida */\n      dup8\n        /* \"AppFood/AppFoodWEB3/gastroAppRestaurantes.sol\":1404:1486  Bebida(_nomeBebida, _descricaoBebida, _categoriaBebida, _fotoBebida, _valorBebida) */\n      dup2\n      mstore\n      0x20\n      add\n        /* \"AppFood/AppFoodWEB3/gastroAppRestaurantes.sol\":1424:1440  _descricaoBebida */\n      dup7\n        /* \"AppFood/AppFoodWEB3/gastroAppRestaurantes.sol\":1404:1486  Bebida(_nomeBebida, _descricaoBebida, _categoriaBebida, _fotoBebida, _valorBebida) */\n      dup2\n      mstore\n      0x20\n      add\n        /* \"AppFood/AppFoodWEB3/gastroAppRestaurantes.sol\":1442:1458  _categoriaBebida */\n      dup6\n        /* \"AppFood/AppFoodWEB3/gastroAppRestaurantes.sol\":1404:1486  Bebida(_nomeBebida, _descricaoBebida, _categoriaBebida, _fotoBebida, _valorBebida) */\n      dup2\n      mstore\n      0x20\n      add\n        /* \"AppFood/AppFoodWEB3/gastroAppRestaurantes.sol\":1460:1471  _fotoBebida */\n      dup5\n        /* \"AppFood/AppFoodWEB3/gastroAppRestaurantes.sol\":1404:1486  Bebida(_nomeBebida, _descricaoBebida, _categoriaBebida, _fotoBebida, _valorBebida) */\n      dup2\n      mstore\n      0x20\n      add\n        /* \"AppFood/AppFoodWEB3/gastroAppRestaurantes.sol\":1473:1485  _valorBebida */\n      dup4\n        /* \"AppFood/AppFoodWEB3/gastroAppRestaurantes.sol\":1404:1486  Bebida(_nomeBebida, _descricaoBebida, _categoriaBebida, _fotoBebida, _valorBebida) */\n      dup2\n      mstore\n      pop\n        /* \"AppFood/AppFoodWEB3/gastroAppRestaurantes.sol\":1380:1486  Bebida memory _bebida = Bebida(_nomeBebida, _descricaoBebida, _categoriaBebida, _fotoBebida, _valorBebida) */\n      swap1\n      pop\n        /* \"AppFood/AppFoodWEB3/gastroAppRestaurantes.sol\":1520:1527  _bebida */\n      dup1\n        /* \"AppFood/AppFoodWEB3/gastroAppRestaurantes.sol\":1497:1504  bebidas */\n      0x0c\n        /* \"AppFood/AppFoodWEB3/gastroAppRestaurantes.sol\":1505:1516  _nomeBebida */\n      dup8\n        /* \"AppFood/AppFoodWEB3/gastroAppRestaurantes.sol\":1497:1517  bebidas[_nomeBebida] */\n      mload(0x40)\n      tag_108\n      swap2\n      swap1\n      tag_72\n      jump\t// in\n    tag_108:\n      swap1\n      dup2\n      mstore\n      0x20\n      add\n      mload(0x40)\n      dup1\n      swap2\n      sub\n      swap1\n      keccak256\n        /* \"AppFood/AppFoodWEB3/gastroAppRestaurantes.sol\":1497:1527  bebidas[_nomeBebida] = _bebida */\n      0x00\n      dup3\n      add\n      mload\n      dup2\n      0x00\n      add\n      swap1\n      dup2\n      tag_109\n      swap2\n      swap1\n      tag_74\n      jump\t// in\n    tag_109:\n      pop\n      0x20\n      dup3\n      add\n      mload\n      dup2\n      0x01\n      add\n      swap1\n      dup2\n      tag_110\n      swap2\n      swap1\n      tag_74\n      jump\t// in\n    tag_110:\n      pop\n      0x40\n      dup3\n      add\n      mload\n      dup2\n      0x02\n      add\n      swap1\n      dup2\n      tag_111\n      swap2\n      swap1\n      tag_74\n      jump\t// in\n    tag_111:\n      pop\n      0x60\n      dup3\n      add\n      mload\n      dup2\n      0x03\n      add\n      swap1\n      dup2\n      tag_112\n      swap2\n      swap1\n      tag_74\n      jump\t// in\n    tag_112:\n      pop\n      0x80\n      dup3\n      add\n      mload\n      dup2\n      0x04\n      add\n      sstore\n      swap1\n      pop\n      pop\n        /* \"AppFood/AppFoodWEB3/gastroAppRestaurantes.sol\":1369:1535  {... */\n      pop\n        /* \"AppFood/AppFoodWEB3/gastroAppRestaurantes.sol\":1204:1535  function criarBebida(string memory _nomeBebida, string memory _descricaoBebida, string memory _categoriaBebida, string memory _fotoBebida, uint _valorBebida) public {... */\n      pop\n      pop\n      pop\n      pop\n      pop\n      jump\t// out\n        /* \"AppFood/AppFoodWEB3/gastroAppRestaurantes.sol\":1543:1624  function Reels(string memory _video) public {... */\n    tag_48:\n        /* \"AppFood/AppFoodWEB3/gastroAppRestaurantes.sol\":1598:1616  criarReels(_video) */\n      tag_114\n        /* \"AppFood/AppFoodWEB3/gastroAppRestaurantes.sol\":1609:1615  _video */\n      dup2\n        /* \"AppFood/AppFoodWEB3/gastroAppRestaurantes.sol\":1598:1608  criarReels */\n      tag_115\n        /* \"AppFood/AppFoodWEB3/gastroAppRestaurantes.sol\":1598:1616  criarReels(_video) */\n      jump\t// in\n    tag_114:\n        /* \"AppFood/AppFoodWEB3/gastroAppRestaurantes.sol\":1543:1624  function Reels(string memory _video) public {... */\n      pop\n      jump\t// out\n        /* \"AppFood/AppFoodWEB3/gastroAppFuncoes.sol\":3886:4210  function add5Fotos(string memory _hashFoto) internal {... */\n    tag_104:\n        /* \"AppFood/AppFoodWEB3/gastroAppFuncoes.sol\":4010:4011  0 */\n      0x00\n        /* \"AppFood/AppFoodWEB3/gastroAppFuncoes.sol\":3958:3967  mapaFotos */\n      0x06\n        /* \"AppFood/AppFoodWEB3/gastroAppFuncoes.sol\":3958:3979  mapaFotos[msg.sender] */\n      0x00\n        /* \"AppFood/AppFoodWEB3/gastroAppFuncoes.sol\":3968:3978  msg.sender */\n      caller\n        /* \"AppFood/AppFoodWEB3/gastroAppFuncoes.sol\":3958:3979  mapaFotos[msg.sender] */\n      0xffffffffffffffffffffffffffffffffffffffff\n      and\n      0xffffffffffffffffffffffffffffffffffffffff\n      and\n      dup2\n      mstore\n      0x20\n      add\n      swap1\n      dup2\n      mstore\n      0x20\n      add\n      0x00\n      keccak256\n        /* \"AppFood/AppFoodWEB3/gastroAppFuncoes.sol\":3958:4000  mapaFotos[msg.sender].fotosAppRestaurantes */\n      0x01\n      add\n        /* \"AppFood/AppFoodWEB3/gastroAppFuncoes.sol\":3958:4007  mapaFotos[msg.sender].fotosAppRestaurantes.length */\n      dup1\n      sload\n      swap1\n      pop\n        /* \"AppFood/AppFoodWEB3/gastroAppFuncoes.sol\":3958:4011  mapaFotos[msg.sender].fotosAppRestaurantes.length > 0 */\n      gt\n        /* \"AppFood/AppFoodWEB3/gastroAppFuncoes.sol\":3958:4067  mapaFotos[msg.sender].fotosAppRestaurantes.length > 0 && mapaFotos[msg.sender].fotosAppRestaurantes.length< 5 */\n      dup1\n      iszero\n      tag_117\n      jumpi\n      pop\n        /* \"AppFood/AppFoodWEB3/gastroAppFuncoes.sol\":4066:4067  5 */\n      0x05\n        /* \"AppFood/AppFoodWEB3/gastroAppFuncoes.sol\":4015:4024  mapaFotos */\n      0x06\n        /* \"AppFood/AppFoodWEB3/gastroAppFuncoes.sol\":4015:4036  mapaFotos[msg.sender] */\n      0x00\n        /* \"AppFood/AppFoodWEB3/gastroAppFuncoes.sol\":4025:4035  msg.sender */\n      caller\n        /* \"AppFood/AppFoodWEB3/gastroAppFuncoes.sol\":4015:4036  mapaFotos[msg.sender] */\n      0xffffffffffffffffffffffffffffffffffffffff\n      and\n      0xffffffffffffffffffffffffffffffffffffffff\n      and\n      dup2\n      mstore\n      0x20\n      add\n      swap1\n      dup2\n      mstore\n      0x20\n      add\n      0x00\n      keccak256\n        /* \"AppFood/AppFoodWEB3/gastroAppFuncoes.sol\":4015:4057  mapaFotos[msg.sender].fotosAppRestaurantes */\n      0x01\n      add\n        /* \"AppFood/AppFoodWEB3/gastroAppFuncoes.sol\":4015:4064  mapaFotos[msg.sender].fotosAppRestaurantes.length */\n      dup1\n      sload\n      swap1\n      pop\n        /* \"AppFood/AppFoodWEB3/gastroAppFuncoes.sol\":4015:4067  mapaFotos[msg.sender].fotosAppRestaurantes.length< 5 */\n      lt\n        /* \"AppFood/AppFoodWEB3/gastroAppFuncoes.sol\":3958:4067  mapaFotos[msg.sender].fotosAppRestaurantes.length > 0 && mapaFotos[msg.sender].fotosAppRestaurantes.length< 5 */\n    tag_117:\n        /* \"AppFood/AppFoodWEB3/gastroAppFuncoes.sol\":3950:4091  require(mapaFotos[msg.sender].fotosAppRestaurantes.length > 0 && mapaFotos[msg.sender].fotosAppRestaurantes.length< 5, \"Limite Ultrapassado\") */\n      tag_118\n      jumpi\n      mload(0x40)\n      0x08c379a000000000000000000000000000000000000000000000000000000000\n      dup2\n      mstore\n      0x04\n      add\n      tag_119\n      swap1\n      tag_120\n      jump\t// in\n    tag_119:\n      mload(0x40)\n      dup1\n      swap2\n      sub\n      swap1\n      revert\n    tag_118:\n        /* \"AppFood/AppFoodWEB3/gastroAppFuncoes.sol\":4102:4111  mapaFotos */\n      0x06\n        /* \"AppFood/AppFoodWEB3/gastroAppFuncoes.sol\":4102:4123  mapaFotos[msg.sender] */\n      0x00\n        /* \"AppFood/AppFoodWEB3/gastroAppFuncoes.sol\":4112:4122  msg.sender */\n      caller\n        /* \"AppFood/AppFoodWEB3/gastroAppFuncoes.sol\":4102:4123  mapaFotos[msg.sender] */\n      0xffffffffffffffffffffffffffffffffffffffff\n      and\n      0xffffffffffffffffffffffffffffffffffffffff\n      and\n      dup2\n      mstore\n      0x20\n      add\n      swap1\n      dup2\n      mstore\n      0x20\n      add\n      0x00\n      keccak256\n        /* \"AppFood/AppFoodWEB3/gastroAppFuncoes.sol\":4102:4144  mapaFotos[msg.sender].fotosAppRestaurantes */\n      0x01\n      add\n        /* \"AppFood/AppFoodWEB3/gastroAppFuncoes.sol\":4150:4159  _hashFoto */\n      dup2\n        /* \"AppFood/AppFoodWEB3/gastroAppFuncoes.sol\":4102:4160  mapaFotos[msg.sender].fotosAppRestaurantes.push(_hashFoto) */\n      swap1\n      dup1\n      0x01\n      dup2\n      sload\n      add\n      dup1\n      dup3\n      sstore\n      dup1\n      swap2\n      pop\n      pop\n      0x01\n      swap1\n      sub\n      swap1\n      0x00\n      mstore\n      keccak256(0x00, 0x20)\n      add\n      0x00\n      swap1\n      swap2\n      swap1\n      swap2\n      swap1\n      swap2\n      pop\n      swap1\n      dup2\n      tag_122\n      swap2\n      swap1\n      tag_74\n      jump\t// in\n    tag_122:\n      pop\n        /* \"AppFood/AppFoodWEB3/gastroAppFuncoes.sol\":4176:4202  carregamentoFotoCompleto() */\n      0xc051e922a0e07b96885c299585ea0c5bb25401c0c0a8c926eaa5e7318edb4723\n      mload(0x40)\n      mload(0x40)\n      dup1\n      swap2\n      sub\n      swap1\n      log1\n        /* \"AppFood/AppFoodWEB3/gastroAppFuncoes.sol\":3886:4210  function add5Fotos(string memory _hashFoto) internal {... */\n      pop\n      jump\t// out\n        /* \"AppFood/AppFoodWEB3/gastroAppFuncoes.sol\":3311:3615  function EditarPerfil(string memory _nome, string memory _endereco, string memory _genero, string memory _foto, string memory _linkExterno, uint _nascimento) internal {... */\n    tag_106:\n        /* \"AppFood/AppFoodWEB3/gastroAppFuncoes.sol\":3510:3577  Perfil(_nome, _endereco, _genero, _foto, _linkExterno, _nascimento) */\n      mload(0x40)\n      dup1\n      0xc0\n      add\n      0x40\n      mstore\n      dup1\n        /* \"AppFood/AppFoodWEB3/gastroAppFuncoes.sol\":3517:3522  _nome */\n      dup8\n        /* \"AppFood/AppFoodWEB3/gastroAppFuncoes.sol\":3510:3577  Perfil(_nome, _endereco, _genero, _foto, _linkExterno, _nascimento) */\n      dup2\n      mstore\n      0x20\n      add\n        /* \"AppFood/AppFoodWEB3/gastroAppFuncoes.sol\":3524:3533  _endereco */\n      dup7\n        /* \"AppFood/AppFoodWEB3/gastroAppFuncoes.sol\":3510:3577  Perfil(_nome, _endereco, _genero, _foto, _linkExterno, _nascimento) */\n      dup2\n      mstore\n      0x20\n      add\n        /* \"AppFood/AppFoodWEB3/gastroAppFuncoes.sol\":3535:3542  _genero */\n      dup6\n        /* \"AppFood/AppFoodWEB3/gastroAppFuncoes.sol\":3510:3577  Perfil(_nome, _endereco, _genero, _foto, _linkExterno, _nascimento) */\n      dup2\n      mstore\n      0x20\n      add\n        /* \"AppFood/AppFoodWEB3/gastroAppFuncoes.sol\":3544:3549  _foto */\n      dup5\n        /* \"AppFood/AppFoodWEB3/gastroAppFuncoes.sol\":3510:3577  Perfil(_nome, _endereco, _genero, _foto, _linkExterno, _nascimento) */\n      dup2\n      mstore\n      0x20\n      add\n        /* \"AppFood/AppFoodWEB3/gastroAppFuncoes.sol\":3551:3563  _linkExterno */\n      dup4\n        /* \"AppFood/AppFoodWEB3/gastroAppFuncoes.sol\":3510:3577  Perfil(_nome, _endereco, _genero, _foto, _linkExterno, _nascimento) */\n      dup2\n      mstore\n      0x20\n      add\n        /* \"AppFood/AppFoodWEB3/gastroAppFuncoes.sol\":3565:3576  _nascimento */\n      dup3\n        /* \"AppFood/AppFoodWEB3/gastroAppFuncoes.sol\":3510:3577  Perfil(_nome, _endereco, _genero, _foto, _linkExterno, _nascimento) */\n      dup2\n      mstore\n      pop\n        /* \"AppFood/AppFoodWEB3/gastroAppFuncoes.sol\":3489:3495  perfis */\n      0x08\n        /* \"AppFood/AppFoodWEB3/gastroAppFuncoes.sol\":3489:3507  perfis[msg.sender] */\n      0x00\n        /* \"AppFood/AppFoodWEB3/gastroAppFuncoes.sol\":3496:3506  msg.sender */\n      caller\n        /* \"AppFood/AppFoodWEB3/gastroAppFuncoes.sol\":3489:3507  perfis[msg.sender] */\n      0xffffffffffffffffffffffffffffffffffffffff\n      and\n      0xffffffffffffffffffffffffffffffffffffffff\n      and\n      dup2\n      mstore\n      0x20\n      add\n      swap1\n      dup2\n      mstore\n      0x20\n      add\n      0x00\n      keccak256\n        /* \"AppFood/AppFoodWEB3/gastroAppFuncoes.sol\":3489:3577  perfis[msg.sender] = Perfil(_nome, _endereco, _genero, _foto, _linkExterno, _nascimento) */\n      0x00\n      dup3\n      add\n      mload\n      dup2\n      0x00\n      add\n      swap1\n      dup2\n      tag_124\n      swap2\n      swap1\n      tag_74\n      jump\t// in\n    tag_124:\n      pop\n      0x20\n      dup3\n      add\n      mload\n      dup2\n      0x01\n      add\n      swap1\n      dup2\n      tag_125\n      swap2\n      swap1\n      tag_74\n      jump\t// in\n    tag_125:\n      pop\n      0x40\n      dup3\n      add\n      mload\n      dup2\n      0x02\n      add\n      swap1\n      dup2\n      tag_126\n      swap2\n      swap1\n      tag_74\n      jump\t// in\n    tag_126:\n      pop\n      0x60\n      dup3\n      add\n      mload\n      dup2\n      0x03\n      add\n      swap1\n      dup2\n      tag_127\n      swap2\n      swap1\n      tag_74\n      jump\t// in\n    tag_127:\n      pop\n      0x80\n      dup3\n      add\n      mload\n      dup2\n      0x04\n      add\n      swap1\n      dup2\n      tag_128\n      swap2\n      swap1\n      tag_74\n      jump\t// in\n    tag_128:\n      pop\n      0xa0\n      dup3\n      add\n      mload\n      dup2\n      0x05\n      add\n      sstore\n      swap1\n      pop\n      pop\n        /* \"AppFood/AppFoodWEB3/gastroAppFuncoes.sol\":3593:3607  editouPerfil() */\n      0x602903b4ab82b8294b982df6e30144aea8e41d3eb12b3214c2800b515ac12f91\n      mload(0x40)\n      mload(0x40)\n      dup1\n      swap2\n      sub\n      swap1\n      log1\n        /* \"AppFood/AppFoodWEB3/gastroAppFuncoes.sol\":3311:3615  function EditarPerfil(string memory _nome, string memory _endereco, string memory _genero, string memory _foto, string memory _linkExterno, uint _nascimento) internal {... */\n      pop\n      pop\n      pop\n      pop\n      pop\n      pop\n      jump\t// out\n        /* \"AppFood/AppFoodWEB3/gastroAppFuncoes.sol\":4644:4913  function criarReels(string memory _reels) internal {... */\n    tag_115:\n        /* \"AppFood/AppFoodWEB3/gastroAppFuncoes.sol\":4718:4724  _reels */\n      dup1\n        /* \"AppFood/AppFoodWEB3/gastroAppFuncoes.sol\":4706:4715  hashVideo */\n      0x01\n        /* \"AppFood/AppFoodWEB3/gastroAppFuncoes.sol\":4706:4724  hashVideo = _reels */\n      swap1\n      dup2\n      tag_130\n      swap2\n      swap1\n      tag_74\n      jump\t// in\n    tag_130:\n      pop\n        /* \"AppFood/AppFoodWEB3/gastroAppFuncoes.sol\":4775:4781  1 days */\n      0x015180\n        /* \"AppFood/AppFoodWEB3/gastroAppFuncoes.sol\":4762:4772  ultimoPost */\n      sload(0x03)\n        /* \"AppFood/AppFoodWEB3/gastroAppFuncoes.sol\":4762:4781  ultimoPost + 1 days */\n      tag_131\n      swap2\n      swap1\n      tag_132\n      jump\t// in\n    tag_131:\n        /* \"AppFood/AppFoodWEB3/gastroAppFuncoes.sol\":4743:4758  block.timestamp */\n      timestamp\n        /* \"AppFood/AppFoodWEB3/gastroAppFuncoes.sol\":4743:4781  block.timestamp >= ultimoPost + 1 days */\n      lt\n      iszero\n        /* \"AppFood/AppFoodWEB3/gastroAppFuncoes.sol\":4735:4823  require(block.timestamp >= ultimoPost + 1 days, \"Aguarde um dia para postar novamente.\") */\n      tag_133\n      jumpi\n      mload(0x40)\n      0x08c379a000000000000000000000000000000000000000000000000000000000\n      dup2\n      mstore\n      0x04\n      add\n      tag_134\n      swap1\n      tag_135\n      jump\t// in\n    tag_134:\n      mload(0x40)\n      dup1\n      swap2\n      sub\n      swap1\n      revert\n    tag_133:\n        /* \"AppFood/AppFoodWEB3/gastroAppFuncoes.sol\":4847:4862  block.timestamp */\n      timestamp\n        /* \"AppFood/AppFoodWEB3/gastroAppFuncoes.sol\":4834:4844  ultimoPost */\n      0x03\n        /* \"AppFood/AppFoodWEB3/gastroAppFuncoes.sol\":4834:4862  ultimoPost = block.timestamp */\n      dup2\n      swap1\n      sstore\n      pop\n        /* \"AppFood/AppFoodWEB3/gastroAppFuncoes.sol\":4878:4905  carregamentoReelscompleto() */\n      0x4c89c46a66fbb3f38e00288fb5f21bc8a41ef606fffac7a0969df3383af298ae\n      mload(0x40)\n      mload(0x40)\n      dup1\n      swap2\n      sub\n      swap1\n      log1\n        /* \"AppFood/AppFoodWEB3/gastroAppFuncoes.sol\":4644:4913  function criarReels(string memory _reels) internal {... */\n      pop\n      jump\t// out\n        /* \"#utility.yul\":7:97   */\n    tag_136:\n        /* \"#utility.yul\":41:48   */\n      0x00\n        /* \"#utility.yul\":84:89   */\n      dup2\n        /* \"#utility.yul\":77:90   */\n      iszero\n        /* \"#utility.yul\":70:91   */\n      iszero\n        /* \"#utility.yul\":59:91   */\n      swap1\n      pop\n        /* \"#utility.yul\":7:97   */\n      swap2\n      swap1\n      pop\n      jump\t// out\n        /* \"#utility.yul\":103:212   */\n    tag_137:\n        /* \"#utility.yul\":184:205   */\n      tag_187\n        /* \"#utility.yul\":199:204   */\n      dup2\n        /* \"#utility.yul\":184:205   */\n      tag_136\n      jump\t// in\n    tag_187:\n        /* \"#utility.yul\":179:182   */\n      dup3\n        /* \"#utility.yul\":172:206   */\n      mstore\n        /* \"#utility.yul\":103:212   */\n      pop\n      pop\n      jump\t// out\n        /* \"#utility.yul\":218:428   */\n    tag_15:\n        /* \"#utility.yul\":305:309   */\n      0x00\n        /* \"#utility.yul\":343:345   */\n      0x20\n        /* \"#utility.yul\":332:341   */\n      dup3\n        /* \"#utility.yul\":328:346   */\n      add\n        /* \"#utility.yul\":320:346   */\n      swap1\n      pop\n        /* \"#utility.yul\":356:421   */\n      tag_189\n        /* \"#utility.yul\":418:419   */\n      0x00\n        /* \"#utility.yul\":407:416   */\n      dup4\n        /* \"#utility.yul\":403:420   */\n      add\n        /* \"#utility.yul\":394:400   */\n      dup5\n        /* \"#utility.yul\":356:421   */\n      tag_137\n      jump\t// in\n    tag_189:\n        /* \"#utility.yul\":218:428   */\n      swap3\n      swap2\n      pop\n      pop\n      jump\t// out\n        /* \"#utility.yul\":434:509   */\n    tag_138:\n        /* \"#utility.yul\":467:473   */\n      0x00\n        /* \"#utility.yul\":500:502   */\n      0x40\n        /* \"#utility.yul\":494:503   */\n      mload\n        /* \"#utility.yul\":484:503   */\n      swap1\n      pop\n        /* \"#utility.yul\":434:509   */\n      swap1\n      jump\t// out\n        /* \"#utility.yul\":515:632   */\n    tag_139:\n        /* \"#utility.yul\":624:625   */\n      0x00\n        /* \"#utility.yul\":621:622   */\n      dup1\n        /* \"#utility.yul\":614:626   */\n      revert\n        /* \"#utility.yul\":638:755   */\n    tag_140:\n        /* \"#utility.yul\":747:748   */\n      0x00\n        /* \"#utility.yul\":744:745   */\n      dup1\n        /* \"#utility.yul\":737:749   */\n      revert\n        /* \"#utility.yul\":761:878   */\n    tag_141:\n        /* \"#utility.yul\":870:871   */\n      0x00\n        /* \"#utility.yul\":867:868   */\n      dup1\n        /* \"#utility.yul\":860:872   */\n      revert\n        /* \"#utility.yul\":884:1001   */\n    tag_142:\n        /* \"#utility.yul\":993:994   */\n      0x00\n        /* \"#utility.yul\":990:991   */\n      dup1\n        /* \"#utility.yul\":983:995   */\n      revert\n        /* \"#utility.yul\":1007:1109   */\n    tag_143:\n        /* \"#utility.yul\":1048:1054   */\n      0x00\n        /* \"#utility.yul\":1099:1101   */\n      0x1f\n        /* \"#utility.yul\":1095:1102   */\n      not\n        /* \"#utility.yul\":1090:1092   */\n      0x1f\n        /* \"#utility.yul\":1083:1088   */\n      dup4\n        /* \"#utility.yul\":1079:1093   */\n      add\n        /* \"#utility.yul\":1075:1103   */\n      and\n        /* \"#utility.yul\":1065:1103   */\n      swap1\n      pop\n        /* \"#utility.yul\":1007:1109   */\n      swap2\n      swap1\n      pop\n      jump\t// out\n        /* \"#utility.yul\":1115:1295   */\n    tag_144:\n        /* \"#utility.yul\":1163:1240   */\n      0x4e487b7100000000000000000000000000000000000000000000000000000000\n        /* \"#utility.yul\":1160:1161   */\n      0x00\n        /* \"#utility.yul\":1153:1241   */\n      mstore\n        /* \"#utility.yul\":1260:1264   */\n      0x41\n        /* \"#utility.yul\":1257:1258   */\n      0x04\n        /* \"#utility.yul\":1250:1265   */\n      mstore\n        /* \"#utility.yul\":1284:1288   */\n      0x24\n        /* \"#utility.yul\":1281:1282   */\n      0x00\n        /* \"#utility.yul\":1274:1289   */\n      revert\n        /* \"#utility.yul\":1301:1582   */\n    tag_145:\n        /* \"#utility.yul\":1384:1411   */\n      tag_198\n        /* \"#utility.yul\":1406:1410   */\n      dup3\n        /* \"#utility.yul\":1384:1411   */\n      tag_143\n      jump\t// in\n    tag_198:\n        /* \"#utility.yul\":1376:1382   */\n      dup2\n        /* \"#utility.yul\":1372:1412   */\n      add\n        /* \"#utility.yul\":1514:1520   */\n      dup2\n        /* \"#utility.yul\":1502:1512   */\n      dup2\n        /* \"#utility.yul\":1499:1521   */\n      lt\n        /* \"#utility.yul\":1478:1496   */\n      0xffffffffffffffff\n        /* \"#utility.yul\":1466:1476   */\n      dup3\n        /* \"#utility.yul\":1463:1497   */\n      gt\n        /* \"#utility.yul\":1460:1522   */\n      or\n        /* \"#utility.yul\":1457:1545   */\n      iszero\n      tag_199\n      jumpi\n        /* \"#utility.yul\":1525:1543   */\n      tag_200\n      tag_144\n      jump\t// in\n    tag_200:\n        /* \"#utility.yul\":1457:1545   */\n    tag_199:\n        /* \"#utility.yul\":1565:1575   */\n      dup1\n        /* \"#utility.yul\":1561:1563   */\n      0x40\n        /* \"#utility.yul\":1554:1576   */\n      mstore\n        /* \"#utility.yul\":1344:1582   */\n      pop\n        /* \"#utility.yul\":1301:1582   */\n      pop\n      pop\n      jump\t// out\n        /* \"#utility.yul\":1588:1717   */\n    tag_146:\n        /* \"#utility.yul\":1622:1628   */\n      0x00\n        /* \"#utility.yul\":1649:1669   */\n      tag_202\n      tag_138\n      jump\t// in\n    tag_202:\n        /* \"#utility.yul\":1639:1669   */\n      swap1\n      pop\n        /* \"#utility.yul\":1678:1711   */\n      tag_203\n        /* \"#utility.yul\":1706:1710   */\n      dup3\n        /* \"#utility.yul\":1698:1704   */\n      dup3\n        /* \"#utility.yul\":1678:1711   */\n      tag_145\n      jump\t// in\n    tag_203:\n        /* \"#utility.yul\":1588:1717   */\n      swap2\n      swap1\n      pop\n      jump\t// out\n        /* \"#utility.yul\":1723:2031   */\n    tag_147:\n        /* \"#utility.yul\":1785:1789   */\n      0x00\n        /* \"#utility.yul\":1875:1893   */\n      0xffffffffffffffff\n        /* \"#utility.yul\":1867:1873   */\n      dup3\n        /* \"#utility.yul\":1864:1894   */\n      gt\n        /* \"#utility.yul\":1861:1917   */\n      iszero\n      tag_205\n      jumpi\n        /* \"#utility.yul\":1897:1915   */\n      tag_206\n      tag_144\n      jump\t// in\n    tag_206:\n        /* \"#utility.yul\":1861:1917   */\n    tag_205:\n        /* \"#utility.yul\":1935:1964   */\n      tag_207\n        /* \"#utility.yul\":1957:1963   */\n      dup3\n        /* \"#utility.yul\":1935:1964   */\n      tag_143\n      jump\t// in\n    tag_207:\n        /* \"#utility.yul\":1927:1964   */\n      swap1\n      pop\n        /* \"#utility.yul\":2019:2023   */\n      0x20\n        /* \"#utility.yul\":2013:2017   */\n      dup2\n        /* \"#utility.yul\":2009:2024   */\n      add\n        /* \"#utility.yul\":2001:2024   */\n      swap1\n      pop\n        /* \"#utility.yul\":1723:2031   */\n      swap2\n      swap1\n      pop\n      jump\t// out\n        /* \"#utility.yul\":2037:2183   */\n    tag_148:\n        /* \"#utility.yul\":2134:2140   */\n      dup3\n        /* \"#utility.yul\":2129:2132   */\n      dup2\n        /* \"#utility.yul\":2124:2127   */\n      dup4\n        /* \"#utility.yul\":2111:2141   */\n      calldatacopy\n        /* \"#utility.yul\":2175:2176   */\n      0x00\n        /* \"#utility.yul\":2166:2172   */\n      dup4\n        /* \"#utility.yul\":2161:2164   */\n      dup4\n        /* \"#utility.yul\":2157:2173   */\n      add\n        /* \"#utility.yul\":2150:2177   */\n      mstore\n        /* \"#utility.yul\":2037:2183   */\n      pop\n      pop\n      pop\n      jump\t// out\n        /* \"#utility.yul\":2189:2614   */\n    tag_149:\n        /* \"#utility.yul\":2267:2272   */\n      0x00\n        /* \"#utility.yul\":2292:2358   */\n      tag_210\n        /* \"#utility.yul\":2308:2357   */\n      tag_211\n        /* \"#utility.yul\":2350:2356   */\n      dup5\n        /* \"#utility.yul\":2308:2357   */\n      tag_147\n      jump\t// in\n    tag_211:\n        /* \"#utility.yul\":2292:2358   */\n      tag_146\n      jump\t// in\n    tag_210:\n        /* \"#utility.yul\":2283:2358   */\n      swap1\n      pop\n        /* \"#utility.yul\":2381:2387   */\n      dup3\n        /* \"#utility.yul\":2374:2379   */\n      dup2\n        /* \"#utility.yul\":2367:2388   */\n      mstore\n        /* \"#utility.yul\":2419:2423   */\n      0x20\n        /* \"#utility.yul\":2412:2417   */\n      dup2\n        /* \"#utility.yul\":2408:2424   */\n      add\n        /* \"#utility.yul\":2457:2460   */\n      dup5\n        /* \"#utility.yul\":2448:2454   */\n      dup5\n        /* \"#utility.yul\":2443:2446   */\n      dup5\n        /* \"#utility.yul\":2439:2455   */\n      add\n        /* \"#utility.yul\":2436:2461   */\n      gt\n        /* \"#utility.yul\":2433:2545   */\n      iszero\n      tag_212\n      jumpi\n        /* \"#utility.yul\":2464:2543   */\n      tag_213\n      tag_142\n      jump\t// in\n    tag_213:\n        /* \"#utility.yul\":2433:2545   */\n    tag_212:\n        /* \"#utility.yul\":2554:2608   */\n      tag_214\n        /* \"#utility.yul\":2601:2607   */\n      dup5\n        /* \"#utility.yul\":2596:2599   */\n      dup3\n        /* \"#utility.yul\":2591:2594   */\n      dup6\n        /* \"#utility.yul\":2554:2608   */\n      tag_148\n      jump\t// in\n    tag_214:\n        /* \"#utility.yul\":2273:2614   */\n      pop\n        /* \"#utility.yul\":2189:2614   */\n      swap4\n      swap3\n      pop\n      pop\n      pop\n      jump\t// out\n        /* \"#utility.yul\":2634:2974   */\n    tag_150:\n        /* \"#utility.yul\":2690:2695   */\n      0x00\n        /* \"#utility.yul\":2739:2742   */\n      dup3\n        /* \"#utility.yul\":2732:2736   */\n      0x1f\n        /* \"#utility.yul\":2724:2730   */\n      dup4\n        /* \"#utility.yul\":2720:2737   */\n      add\n        /* \"#utility.yul\":2716:2743   */\n      slt\n        /* \"#utility.yul\":2706:2828   */\n      tag_216\n      jumpi\n        /* \"#utility.yul\":2747:2826   */\n      tag_217\n      tag_141\n      jump\t// in\n    tag_217:\n        /* \"#utility.yul\":2706:2828   */\n    tag_216:\n        /* \"#utility.yul\":2864:2870   */\n      dup2\n        /* \"#utility.yul\":2851:2871   */\n      calldataload\n        /* \"#utility.yul\":2889:2968   */\n      tag_218\n        /* \"#utility.yul\":2964:2967   */\n      dup5\n        /* \"#utility.yul\":2956:2962   */\n      dup3\n        /* \"#utility.yul\":2949:2953   */\n      0x20\n        /* \"#utility.yul\":2941:2947   */\n      dup7\n        /* \"#utility.yul\":2937:2954   */\n      add\n        /* \"#utility.yul\":2889:2968   */\n      tag_149\n      jump\t// in\n    tag_218:\n        /* \"#utility.yul\":2880:2968   */\n      swap2\n      pop\n        /* \"#utility.yul\":2696:2974   */\n      pop\n        /* \"#utility.yul\":2634:2974   */\n      swap3\n      swap2\n      pop\n      pop\n      jump\t// out\n        /* \"#utility.yul\":2980:3489   */\n    tag_19:\n        /* \"#utility.yul\":3049:3055   */\n      0x00\n        /* \"#utility.yul\":3098:3100   */\n      0x20\n        /* \"#utility.yul\":3086:3095   */\n      dup3\n        /* \"#utility.yul\":3077:3084   */\n      dup5\n        /* \"#utility.yul\":3073:3096   */\n      sub\n        /* \"#utility.yul\":3069:3101   */\n      slt\n        /* \"#utility.yul\":3066:3185   */\n      iszero\n      tag_220\n      jumpi\n        /* \"#utility.yul\":3104:3183   */\n      tag_221\n      tag_139\n      jump\t// in\n    tag_221:\n        /* \"#utility.yul\":3066:3185   */\n    tag_220:\n        /* \"#utility.yul\":3252:3253   */\n      0x00\n        /* \"#utility.yul\":3241:3250   */\n      dup3\n        /* \"#utility.yul\":3237:3254   */\n      add\n        /* \"#utility.yul\":3224:3255   */\n      calldataload\n        /* \"#utility.yul\":3282:3300   */\n      0xffffffffffffffff\n        /* \"#utility.yul\":3274:3280   */\n      dup2\n        /* \"#utility.yul\":3271:3301   */\n      gt\n        /* \"#utility.yul\":3268:3385   */\n      iszero\n      tag_222\n      jumpi\n        /* \"#utility.yul\":3304:3383   */\n      tag_223\n      tag_140\n      jump\t// in\n    tag_223:\n        /* \"#utility.yul\":3268:3385   */\n    tag_222:\n        /* \"#utility.yul\":3409:3472   */\n      tag_224\n        /* \"#utility.yul\":3464:3471   */\n      dup5\n        /* \"#utility.yul\":3455:3461   */\n      dup3\n        /* \"#utility.yul\":3444:3453   */\n      dup6\n        /* \"#utility.yul\":3440:3462   */\n      add\n        /* \"#utility.yul\":3409:3472   */\n      tag_150\n      jump\t// in\n    tag_224:\n        /* \"#utility.yul\":3399:3472   */\n      swap2\n      pop\n        /* \"#utility.yul\":3195:3482   */\n      pop\n        /* \"#utility.yul\":2980:3489   */\n      swap3\n      swap2\n      pop\n      pop\n      jump\t// out\n        /* \"#utility.yul\":3495:3594   */\n    tag_151:\n        /* \"#utility.yul\":3547:3553   */\n      0x00\n        /* \"#utility.yul\":3581:3586   */\n      dup2\n        /* \"#utility.yul\":3575:3587   */\n      mload\n        /* \"#utility.yul\":3565:3587   */\n      swap1\n      pop\n        /* \"#utility.yul\":3495:3594   */\n      swap2\n      swap1\n      pop\n      jump\t// out\n        /* \"#utility.yul\":3600:3769   */\n    tag_152:\n        /* \"#utility.yul\":3684:3695   */\n      0x00\n        /* \"#utility.yul\":3718:3724   */\n      dup3\n        /* \"#utility.yul\":3713:3716   */\n      dup3\n        /* \"#utility.yul\":3706:3725   */\n      mstore\n        /* \"#utility.yul\":3758:3762   */\n      0x20\n        /* \"#utility.yul\":3753:3756   */\n      dup3\n        /* \"#utility.yul\":3749:3763   */\n      add\n        /* \"#utility.yul\":3734:3763   */\n      swap1\n      pop\n        /* \"#utility.yul\":3600:3769   */\n      swap3\n      swap2\n      pop\n      pop\n      jump\t// out\n        /* \"#utility.yul\":3775:4021   */\n    tag_153:\n        /* \"#utility.yul\":3856:3857   */\n      0x00\n        /* \"#utility.yul\":3866:3979   */\n    tag_228:\n        /* \"#utility.yul\":3880:3886   */\n      dup4\n        /* \"#utility.yul\":3877:3878   */\n      dup2\n        /* \"#utility.yul\":3874:3887   */\n      lt\n        /* \"#utility.yul\":3866:3979   */\n      iszero\n      tag_230\n      jumpi\n        /* \"#utility.yul\":3965:3966   */\n      dup1\n        /* \"#utility.yul\":3960:3963   */\n      dup3\n        /* \"#utility.yul\":3956:3967   */\n      add\n        /* \"#utility.yul\":3950:3968   */\n      mload\n        /* \"#utility.yul\":3946:3947   */\n      dup2\n        /* \"#utility.yul\":3941:3944   */\n      dup5\n        /* \"#utility.yul\":3937:3948   */\n      add\n        /* \"#utility.yul\":3930:3969   */\n      mstore\n        /* \"#utility.yul\":3902:3904   */\n      0x20\n        /* \"#utility.yul\":3899:3900   */\n      dup2\n        /* \"#utility.yul\":3895:3905   */\n      add\n        /* \"#utility.yul\":3890:3905   */\n      swap1\n      pop\n        /* \"#utility.yul\":3866:3979   */\n      jump(tag_228)\n    tag_230:\n        /* \"#utility.yul\":4013:4014   */\n      0x00\n        /* \"#utility.yul\":4004:4010   */\n      dup5\n        /* \"#utility.yul\":3999:4002   */\n      dup5\n        /* \"#utility.yul\":3995:4011   */\n      add\n        /* \"#utility.yul\":3988:4015   */\n      mstore\n        /* \"#utility.yul\":3837:4021   */\n      pop\n        /* \"#utility.yul\":3775:4021   */\n      pop\n      pop\n      pop\n      jump\t// out\n        /* \"#utility.yul\":4027:4404   */\n    tag_154:\n        /* \"#utility.yul\":4115:4118   */\n      0x00\n        /* \"#utility.yul\":4143:4182   */\n      tag_232\n        /* \"#utility.yul\":4176:4181   */\n      dup3\n        /* \"#utility.yul\":4143:4182   */\n      tag_151\n      jump\t// in\n    tag_232:\n        /* \"#utility.yul\":4198:4269   */\n      tag_233\n        /* \"#utility.yul\":4262:4268   */\n      dup2\n        /* \"#utility.yul\":4257:4260   */\n      dup6\n        /* \"#utility.yul\":4198:4269   */\n      tag_152\n      jump\t// in\n    tag_233:\n        /* \"#utility.yul\":4191:4269   */\n      swap4\n      pop\n        /* \"#utility.yul\":4278:4343   */\n      tag_234\n        /* \"#utility.yul\":4336:4342   */\n      dup2\n        /* \"#utility.yul\":4331:4334   */\n      dup6\n        /* \"#utility.yul\":4324:4328   */\n      0x20\n        /* \"#utility.yul\":4317:4322   */\n      dup7\n        /* \"#utility.yul\":4313:4329   */\n      add\n        /* \"#utility.yul\":4278:4343   */\n      tag_153\n      jump\t// in\n    tag_234:\n        /* \"#utility.yul\":4368:4397   */\n      tag_235\n        /* \"#utility.yul\":4390:4396   */\n      dup2\n        /* \"#utility.yul\":4368:4397   */\n      tag_143\n      jump\t// in\n    tag_235:\n        /* \"#utility.yul\":4363:4366   */\n      dup5\n        /* \"#utility.yul\":4359:4398   */\n      add\n        /* \"#utility.yul\":4352:4398   */\n      swap2\n      pop\n        /* \"#utility.yul\":4119:4404   */\n      pop\n        /* \"#utility.yul\":4027:4404   */\n      swap3\n      swap2\n      pop\n      pop\n      jump\t// out\n        /* \"#utility.yul\":4410:4487   */\n    tag_155:\n        /* \"#utility.yul\":4447:4454   */\n      0x00\n        /* \"#utility.yul\":4476:4481   */\n      dup2\n        /* \"#utility.yul\":4465:4481   */\n      swap1\n      pop\n        /* \"#utility.yul\":4410:4487   */\n      swap2\n      swap1\n      pop\n      jump\t// out\n        /* \"#utility.yul\":4493:4611   */\n    tag_156:\n        /* \"#utility.yul\":4580:4604   */\n      tag_238\n        /* \"#utility.yul\":4598:4603   */\n      dup2\n        /* \"#utility.yul\":4580:4604   */\n      tag_155\n      jump\t// in\n    tag_238:\n        /* \"#utility.yul\":4575:4578   */\n      dup3\n        /* \"#utility.yul\":4568:4605   */\n      mstore\n        /* \"#utility.yul\":4493:4611   */\n      pop\n      pop\n      jump\t// out\n        /* \"#utility.yul\":4617:5645   */\n    tag_22:\n        /* \"#utility.yul\":4902:4906   */\n      0x00\n        /* \"#utility.yul\":4940:4943   */\n      0xa0\n        /* \"#utility.yul\":4929:4938   */\n      dup3\n        /* \"#utility.yul\":4925:4944   */\n      add\n        /* \"#utility.yul\":4917:4944   */\n      swap1\n      pop\n        /* \"#utility.yul\":4990:4999   */\n      dup2\n        /* \"#utility.yul\":4984:4988   */\n      dup2\n        /* \"#utility.yul\":4980:5000   */\n      sub\n        /* \"#utility.yul\":4976:4977   */\n      0x00\n        /* \"#utility.yul\":4965:4974   */\n      dup4\n        /* \"#utility.yul\":4961:4978   */\n      add\n        /* \"#utility.yul\":4954:5001   */\n      mstore\n        /* \"#utility.yul\":5018:5096   */\n      tag_240\n        /* \"#utility.yul\":5091:5095   */\n      dup2\n        /* \"#utility.yul\":5082:5088   */\n      dup9\n        /* \"#utility.yul\":5018:5096   */\n      tag_154\n      jump\t// in\n    tag_240:\n        /* \"#utility.yul\":5010:5096   */\n      swap1\n      pop\n        /* \"#utility.yul\":5143:5152   */\n      dup2\n        /* \"#utility.yul\":5137:5141   */\n      dup2\n        /* \"#utility.yul\":5133:5153   */\n      sub\n        /* \"#utility.yul\":5128:5130   */\n      0x20\n        /* \"#utility.yul\":5117:5126   */\n      dup4\n        /* \"#utility.yul\":5113:5131   */\n      add\n        /* \"#utility.yul\":5106:5154   */\n      mstore\n        /* \"#utility.yul\":5171:5249   */\n      tag_241\n        /* \"#utility.yul\":5244:5248   */\n      dup2\n        /* \"#utility.yul\":5235:5241   */\n      dup8\n        /* \"#utility.yul\":5171:5249   */\n      tag_154\n      jump\t// in\n    tag_241:\n        /* \"#utility.yul\":5163:5249   */\n      swap1\n      pop\n        /* \"#utility.yul\":5296:5305   */\n      dup2\n        /* \"#utility.yul\":5290:5294   */\n      dup2\n        /* \"#utility.yul\":5286:5306   */\n      sub\n        /* \"#utility.yul\":5281:5283   */\n      0x40\n        /* \"#utility.yul\":5270:5279   */\n      dup4\n        /* \"#utility.yul\":5266:5284   */\n      add\n        /* \"#utility.yul\":5259:5307   */\n      mstore\n        /* \"#utility.yul\":5324:5402   */\n      tag_242\n        /* \"#utility.yul\":5397:5401   */\n      dup2\n        /* \"#utility.yul\":5388:5394   */\n      dup7\n        /* \"#utility.yul\":5324:5402   */\n      tag_154\n      jump\t// in\n    tag_242:\n        /* \"#utility.yul\":5316:5402   */\n      swap1\n      pop\n        /* \"#utility.yul\":5449:5458   */\n      dup2\n        /* \"#utility.yul\":5443:5447   */\n      dup2\n        /* \"#utility.yul\":5439:5459   */\n      sub\n        /* \"#utility.yul\":5434:5436   */\n      0x60\n        /* \"#utility.yul\":5423:5432   */\n      dup4\n        /* \"#utility.yul\":5419:5437   */\n      add\n        /* \"#utility.yul\":5412:5460   */\n      mstore\n        /* \"#utility.yul\":5477:5555   */\n      tag_243\n        /* \"#utility.yul\":5550:5554   */\n      dup2\n        /* \"#utility.yul\":5541:5547   */\n      dup6\n        /* \"#utility.yul\":5477:5555   */\n      tag_154\n      jump\t// in\n    tag_243:\n        /* \"#utility.yul\":5469:5555   */\n      swap1\n      pop\n        /* \"#utility.yul\":5565:5638   */\n      tag_244\n        /* \"#utility.yul\":5633:5636   */\n      0x80\n        /* \"#utility.yul\":5622:5631   */\n      dup4\n        /* \"#utility.yul\":5618:5637   */\n      add\n        /* \"#utility.yul\":5609:5615   */\n      dup5\n        /* \"#utility.yul\":5565:5638   */\n      tag_156\n      jump\t// in\n    tag_244:\n        /* \"#utility.yul\":4617:5645   */\n      swap7\n      swap6\n      pop\n      pop\n      pop\n      pop\n      pop\n      pop\n      jump\t// out\n        /* \"#utility.yul\":5651:5773   */\n    tag_157:\n        /* \"#utility.yul\":5724:5748   */\n      tag_246\n        /* \"#utility.yul\":5742:5747   */\n      dup2\n        /* \"#utility.yul\":5724:5748   */\n      tag_155\n      jump\t// in\n    tag_246:\n        /* \"#utility.yul\":5717:5722   */\n      dup2\n        /* \"#utility.yul\":5714:5749   */\n      eq\n        /* \"#utility.yul\":5704:5767   */\n      tag_247\n      jumpi\n        /* \"#utility.yul\":5763:5764   */\n      0x00\n        /* \"#utility.yul\":5760:5761   */\n      dup1\n        /* \"#utility.yul\":5753:5765   */\n      revert\n        /* \"#utility.yul\":5704:5767   */\n    tag_247:\n        /* \"#utility.yul\":5651:5773   */\n      pop\n      jump\t// out\n        /* \"#utility.yul\":5779:5918   */\n    tag_158:\n        /* \"#utility.yul\":5825:5830   */\n      0x00\n        /* \"#utility.yul\":5863:5869   */\n      dup2\n        /* \"#utility.yul\":5850:5870   */\n      calldataload\n        /* \"#utility.yul\":5841:5870   */\n      swap1\n      pop\n        /* \"#utility.yul\":5879:5912   */\n      tag_249\n        /* \"#utility.yul\":5906:5911   */\n      dup2\n        /* \"#utility.yul\":5879:5912   */\n      tag_157\n      jump\t// in\n    tag_249:\n        /* \"#utility.yul\":5779:5918   */\n      swap3\n      swap2\n      pop\n      pop\n      jump\t// out\n        /* \"#utility.yul\":5924:7555   */\n    tag_26:\n        /* \"#utility.yul\":6059:6065   */\n      0x00\n        /* \"#utility.yul\":6067:6073   */\n      dup1\n        /* \"#utility.yul\":6075:6081   */\n      0x00\n        /* \"#utility.yul\":6083:6089   */\n      dup1\n        /* \"#utility.yul\":6091:6097   */\n      0x00\n        /* \"#utility.yul\":6140:6143   */\n      0xa0\n        /* \"#utility.yul\":6128:6137   */\n      dup7\n        /* \"#utility.yul\":6119:6126   */\n      dup9\n        /* \"#utility.yul\":6115:6138   */\n      sub\n        /* \"#utility.yul\":6111:6144   */\n      slt\n        /* \"#utility.yul\":6108:6228   */\n      iszero\n      tag_251\n      jumpi\n        /* \"#utility.yul\":6147:6226   */\n      tag_252\n      tag_139\n      jump\t// in\n    tag_252:\n        /* \"#utility.yul\":6108:6228   */\n    tag_251:\n        /* \"#utility.yul\":6295:6296   */\n      0x00\n        /* \"#utility.yul\":6284:6293   */\n      dup7\n        /* \"#utility.yul\":6280:6297   */\n      add\n        /* \"#utility.yul\":6267:6298   */\n      calldataload\n        /* \"#utility.yul\":6325:6343   */\n      0xffffffffffffffff\n        /* \"#utility.yul\":6317:6323   */\n      dup2\n        /* \"#utility.yul\":6314:6344   */\n      gt\n        /* \"#utility.yul\":6311:6428   */\n      iszero\n      tag_253\n      jumpi\n        /* \"#utility.yul\":6347:6426   */\n      tag_254\n      tag_140\n      jump\t// in\n    tag_254:\n        /* \"#utility.yul\":6311:6428   */\n    tag_253:\n        /* \"#utility.yul\":6452:6515   */\n      tag_255\n        /* \"#utility.yul\":6507:6514   */\n      dup9\n        /* \"#utility.yul\":6498:6504   */\n      dup3\n        /* \"#utility.yul\":6487:6496   */\n      dup10\n        /* \"#utility.yul\":6483:6505   */\n      add\n        /* \"#utility.yul\":6452:6515   */\n      tag_150\n      jump\t// in\n    tag_255:\n        /* \"#utility.yul\":6442:6515   */\n      swap6\n      pop\n        /* \"#utility.yul\":6238:6525   */\n      pop\n        /* \"#utility.yul\":6592:6594   */\n      0x20\n        /* \"#utility.yul\":6581:6590   */\n      dup7\n        /* \"#utility.yul\":6577:6595   */\n      add\n        /* \"#utility.yul\":6564:6596   */\n      calldataload\n        /* \"#utility.yul\":6623:6641   */\n      0xffffffffffffffff\n        /* \"#utility.yul\":6615:6621   */\n      dup2\n        /* \"#utility.yul\":6612:6642   */\n      gt\n        /* \"#utility.yul\":6609:6726   */\n      iszero\n      tag_256\n      jumpi\n        /* \"#utility.yul\":6645:6724   */\n      tag_257\n      tag_140\n      jump\t// in\n    tag_257:\n        /* \"#utility.yul\":6609:6726   */\n    tag_256:\n        /* \"#utility.yul\":6750:6813   */\n      tag_258\n        /* \"#utility.yul\":6805:6812   */\n      dup9\n        /* \"#utility.yul\":6796:6802   */\n      dup3\n        /* \"#utility.yul\":6785:6794   */\n      dup10\n        /* \"#utility.yul\":6781:6803   */\n      add\n        /* \"#utility.yul\":6750:6813   */\n      tag_150\n      jump\t// in\n    tag_258:\n        /* \"#utility.yul\":6740:6813   */\n      swap5\n      pop\n        /* \"#utility.yul\":6535:6823   */\n      pop\n        /* \"#utility.yul\":6890:6892   */\n      0x40\n        /* \"#utility.yul\":6879:6888   */\n      dup7\n        /* \"#utility.yul\":6875:6893   */\n      add\n        /* \"#utility.yul\":6862:6894   */\n      calldataload\n        /* \"#utility.yul\":6921:6939   */\n      0xffffffffffffffff\n        /* \"#utility.yul\":6913:6919   */\n      dup2\n        /* \"#utility.yul\":6910:6940   */\n      gt\n        /* \"#utility.yul\":6907:7024   */\n      iszero\n      tag_259\n      jumpi\n        /* \"#utility.yul\":6943:7022   */\n      tag_260\n      tag_140\n      jump\t// in\n    tag_260:\n        /* \"#utility.yul\":6907:7024   */\n    tag_259:\n        /* \"#utility.yul\":7048:7111   */\n      tag_261\n        /* \"#utility.yul\":7103:7110   */\n      dup9\n        /* \"#utility.yul\":7094:7100   */\n      dup3\n        /* \"#utility.yul\":7083:7092   */\n      dup10\n        /* \"#utility.yul\":7079:7101   */\n      add\n        /* \"#utility.yul\":7048:7111   */\n      tag_150\n      jump\t// in\n    tag_261:\n        /* \"#utility.yul\":7038:7111   */\n      swap4\n      pop\n        /* \"#utility.yul\":6833:7121   */\n      pop\n        /* \"#utility.yul\":7188:7190   */\n      0x60\n        /* \"#utility.yul\":7177:7186   */\n      dup7\n        /* \"#utility.yul\":7173:7191   */\n      add\n        /* \"#utility.yul\":7160:7192   */\n      calldataload\n        /* \"#utility.yul\":7219:7237   */\n      0xffffffffffffffff\n        /* \"#utility.yul\":7211:7217   */\n      dup2\n        /* \"#utility.yul\":7208:7238   */\n      gt\n        /* \"#utility.yul\":7205:7322   */\n      iszero\n      tag_262\n      jumpi\n        /* \"#utility.yul\":7241:7320   */\n      tag_263\n      tag_140\n      jump\t// in\n    tag_263:\n        /* \"#utility.yul\":7205:7322   */\n    tag_262:\n        /* \"#utility.yul\":7346:7409   */\n      tag_264\n        /* \"#utility.yul\":7401:7408   */\n      dup9\n        /* \"#utility.yul\":7392:7398   */\n      dup3\n        /* \"#utility.yul\":7381:7390   */\n      dup10\n        /* \"#utility.yul\":7377:7399   */\n      add\n        /* \"#utility.yul\":7346:7409   */\n      tag_150\n      jump\t// in\n    tag_264:\n        /* \"#utility.yul\":7336:7409   */\n      swap3\n      pop\n        /* \"#utility.yul\":7131:7419   */\n      pop\n        /* \"#utility.yul\":7458:7461   */\n      0x80\n        /* \"#utility.yul\":7485:7538   */\n      tag_265\n        /* \"#utility.yul\":7530:7537   */\n      dup9\n        /* \"#utility.yul\":7521:7527   */\n      dup3\n        /* \"#utility.yul\":7510:7519   */\n      dup10\n        /* \"#utility.yul\":7506:7528   */\n      add\n        /* \"#utility.yul\":7485:7538   */\n      tag_158\n      jump\t// in\n    tag_265:\n        /* \"#utility.yul\":7475:7538   */\n      swap2\n      pop\n        /* \"#utility.yul\":7429:7548   */\n      pop\n        /* \"#utility.yul\":5924:7555   */\n      swap3\n      swap6\n      pop\n      swap3\n      swap6\n      swap1\n      swap4\n      pop\n      jump\t// out\n        /* \"#utility.yul\":7561:9518   */\n    tag_39:\n        /* \"#utility.yul\":7715:7721   */\n      0x00\n        /* \"#utility.yul\":7723:7729   */\n      dup1\n        /* \"#utility.yul\":7731:7737   */\n      0x00\n        /* \"#utility.yul\":7739:7745   */\n      dup1\n        /* \"#utility.yul\":7747:7753   */\n      0x00\n        /* \"#utility.yul\":7755:7761   */\n      dup1\n        /* \"#utility.yul\":7804:7807   */\n      0xc0\n        /* \"#utility.yul\":7792:7801   */\n      dup8\n        /* \"#utility.yul\":7783:7790   */\n      dup10\n        /* \"#utility.yul\":7779:7802   */\n      sub\n        /* \"#utility.yul\":7775:7808   */\n      slt\n        /* \"#utility.yul\":7772:7892   */\n      iszero\n      tag_267\n      jumpi\n        /* \"#utility.yul\":7811:7890   */\n      tag_268\n      tag_139\n      jump\t// in\n    tag_268:\n        /* \"#utility.yul\":7772:7892   */\n    tag_267:\n        /* \"#utility.yul\":7959:7960   */\n      0x00\n        /* \"#utility.yul\":7948:7957   */\n      dup8\n        /* \"#utility.yul\":7944:7961   */\n      add\n        /* \"#utility.yul\":7931:7962   */\n      calldataload\n        /* \"#utility.yul\":7989:8007   */\n      0xffffffffffffffff\n        /* \"#utility.yul\":7981:7987   */\n      dup2\n        /* \"#utility.yul\":7978:8008   */\n      gt\n        /* \"#utility.yul\":7975:8092   */\n      iszero\n      tag_269\n      jumpi\n        /* \"#utility.yul\":8011:8090   */\n      tag_270\n      tag_140\n      jump\t// in\n    tag_270:\n        /* \"#utility.yul\":7975:8092   */\n    tag_269:\n        /* \"#utility.yul\":8116:8179   */\n      tag_271\n        /* \"#utility.yul\":8171:8178   */\n      dup10\n        /* \"#utility.yul\":8162:8168   */\n      dup3\n        /* \"#utility.yul\":8151:8160   */\n      dup11\n        /* \"#utility.yul\":8147:8169   */\n      add\n        /* \"#utility.yul\":8116:8179   */\n      tag_150\n      jump\t// in\n    tag_271:\n        /* \"#utility.yul\":8106:8179   */\n      swap7\n      pop\n        /* \"#utility.yul\":7902:8189   */\n      pop\n        /* \"#utility.yul\":8256:8258   */\n      0x20\n        /* \"#utility.yul\":8245:8254   */\n      dup8\n        /* \"#utility.yul\":8241:8259   */\n      add\n        /* \"#utility.yul\":8228:8260   */\n      calldataload\n        /* \"#utility.yul\":8287:8305   */\n      0xffffffffffffffff\n        /* \"#utility.yul\":8279:8285   */\n      dup2\n        /* \"#utility.yul\":8276:8306   */\n      gt\n        /* \"#utility.yul\":8273:8390   */\n      iszero\n      tag_272\n      jumpi\n        /* \"#utility.yul\":8309:8388   */\n      tag_273\n      tag_140\n      jump\t// in\n    tag_273:\n        /* \"#utility.yul\":8273:8390   */\n    tag_272:\n        /* \"#utility.yul\":8414:8477   */\n      tag_274\n        /* \"#utility.yul\":8469:8476   */\n      dup10\n        /* \"#utility.yul\":8460:8466   */\n      dup3\n        /* \"#utility.yul\":8449:8458   */\n      dup11\n        /* \"#utility.yul\":8445:8467   */\n      add\n        /* \"#utility.yul\":8414:8477   */\n      tag_150\n      jump\t// in\n    tag_274:\n        /* \"#utility.yul\":8404:8477   */\n      swap6\n      pop\n        /* \"#utility.yul\":8199:8487   */\n      pop\n        /* \"#utility.yul\":8554:8556   */\n      0x40\n        /* \"#utility.yul\":8543:8552   */\n      dup8\n        /* \"#utility.yul\":8539:8557   */\n      add\n        /* \"#utility.yul\":8526:8558   */\n      calldataload\n        /* \"#utility.yul\":8585:8603   */\n      0xffffffffffffffff\n        /* \"#utility.yul\":8577:8583   */\n      dup2\n        /* \"#utility.yul\":8574:8604   */\n      gt\n        /* \"#utility.yul\":8571:8688   */\n      iszero\n      tag_275\n      jumpi\n        /* \"#utility.yul\":8607:8686   */\n      tag_276\n      tag_140\n      jump\t// in\n    tag_276:\n        /* \"#utility.yul\":8571:8688   */\n    tag_275:\n        /* \"#utility.yul\":8712:8775   */\n      tag_277\n        /* \"#utility.yul\":8767:8774   */\n      dup10\n        /* \"#utility.yul\":8758:8764   */\n      dup3\n        /* \"#utility.yul\":8747:8756   */\n      dup11\n        /* \"#utility.yul\":8743:8765   */\n      add\n        /* \"#utility.yul\":8712:8775   */\n      tag_150\n      jump\t// in\n    tag_277:\n        /* \"#utility.yul\":8702:8775   */\n      swap5\n      pop\n        /* \"#utility.yul\":8497:8785   */\n      pop\n        /* \"#utility.yul\":8852:8854   */\n      0x60\n        /* \"#utility.yul\":8841:8850   */\n      dup8\n        /* \"#utility.yul\":8837:8855   */\n      add\n        /* \"#utility.yul\":8824:8856   */\n      calldataload\n        /* \"#utility.yul\":8883:8901   */\n      0xffffffffffffffff\n        /* \"#utility.yul\":8875:8881   */\n      dup2\n        /* \"#utility.yul\":8872:8902   */\n      gt\n        /* \"#utility.yul\":8869:8986   */\n      iszero\n      tag_278\n      jumpi\n        /* \"#utility.yul\":8905:8984   */\n      tag_279\n      tag_140\n      jump\t// in\n    tag_279:\n        /* \"#utility.yul\":8869:8986   */\n    tag_278:\n        /* \"#utility.yul\":9010:9073   */\n      tag_280\n        /* \"#utility.yul\":9065:9072   */\n      dup10\n        /* \"#utility.yul\":9056:9062   */\n      dup3\n        /* \"#utility.yul\":9045:9054   */\n      dup11\n        /* \"#utility.yul\":9041:9063   */\n      add\n        /* \"#utility.yul\":9010:9073   */\n      tag_150\n      jump\t// in\n    tag_280:\n        /* \"#utility.yul\":9000:9073   */\n      swap4\n      pop\n        /* \"#utility.yul\":8795:9083   */\n      pop\n        /* \"#utility.yul\":9150:9153   */\n      0x80\n        /* \"#utility.yul\":9139:9148   */\n      dup8\n        /* \"#utility.yul\":9135:9154   */\n      add\n        /* \"#utility.yul\":9122:9155   */\n      calldataload\n        /* \"#utility.yul\":9182:9200   */\n      0xffffffffffffffff\n        /* \"#utility.yul\":9174:9180   */\n      dup2\n        /* \"#utility.yul\":9171:9201   */\n      gt\n        /* \"#utility.yul\":9168:9285   */\n      iszero\n      tag_281\n      jumpi\n        /* \"#utility.yul\":9204:9283   */\n      tag_282\n      tag_140\n      jump\t// in\n    tag_282:\n        /* \"#utility.yul\":9168:9285   */\n    tag_281:\n        /* \"#utility.yul\":9309:9372   */\n      tag_283\n        /* \"#utility.yul\":9364:9371   */\n      dup10\n        /* \"#utility.yul\":9355:9361   */\n      dup3\n        /* \"#utility.yul\":9344:9353   */\n      dup11\n        /* \"#utility.yul\":9340:9362   */\n      add\n        /* \"#utility.yul\":9309:9372   */\n      tag_150\n      jump\t// in\n    tag_283:\n        /* \"#utility.yul\":9299:9372   */\n      swap3\n      pop\n        /* \"#utility.yul\":9093:9382   */\n      pop\n        /* \"#utility.yul\":9421:9424   */\n      0xa0\n        /* \"#utility.yul\":9448:9501   */\n      tag_284\n        /* \"#utility.yul\":9493:9500   */\n      dup10\n        /* \"#utility.yul\":9484:9490   */\n      dup3\n        /* \"#utility.yul\":9473:9482   */\n      dup11\n        /* \"#utility.yul\":9469:9491   */\n      add\n        /* \"#utility.yul\":9448:9501   */\n      tag_158\n      jump\t// in\n    tag_284:\n        /* \"#utility.yul\":9438:9501   */\n      swap2\n      pop\n        /* \"#utility.yul\":9392:9511   */\n      pop\n        /* \"#utility.yul\":7561:9518   */\n      swap3\n      swap6\n      pop\n      swap3\n      swap6\n      pop\n      swap3\n      swap6\n      jump\t// out\n        /* \"#utility.yul\":9524:9704   */\n    tag_159:\n        /* \"#utility.yul\":9572:9649   */\n      0x4e487b7100000000000000000000000000000000000000000000000000000000\n        /* \"#utility.yul\":9569:9570   */\n      0x00\n        /* \"#utility.yul\":9562:9650   */\n      mstore\n        /* \"#utility.yul\":9669:9673   */\n      0x22\n        /* \"#utility.yul\":9666:9667   */\n      0x04\n        /* \"#utility.yul\":9659:9674   */\n      mstore\n        /* \"#utility.yul\":9693:9697   */\n      0x24\n        /* \"#utility.yul\":9690:9691   */\n      0x00\n        /* \"#utility.yul\":9683:9698   */\n      revert\n        /* \"#utility.yul\":9710:10030   */\n    tag_50:\n        /* \"#utility.yul\":9754:9760   */\n      0x00\n        /* \"#utility.yul\":9791:9792   */\n      0x02\n        /* \"#utility.yul\":9785:9789   */\n      dup3\n        /* \"#utility.yul\":9781:9793   */\n      div\n        /* \"#utility.yul\":9771:9793   */\n      swap1\n      pop\n        /* \"#utility.yul\":9838:9839   */\n      0x01\n        /* \"#utility.yul\":9832:9836   */\n      dup3\n        /* \"#utility.yul\":9828:9840   */\n      and\n        /* \"#utility.yul\":9859:9877   */\n      dup1\n        /* \"#utility.yul\":9849:9930   */\n      tag_287\n      jumpi\n        /* \"#utility.yul\":9915:9919   */\n      0x7f\n        /* \"#utility.yul\":9907:9913   */\n      dup3\n        /* \"#utility.yul\":9903:9920   */\n      and\n        /* \"#utility.yul\":9893:9920   */\n      swap2\n      pop\n        /* \"#utility.yul\":9849:9930   */\n    tag_287:\n        /* \"#utility.yul\":9977:9979   */\n      0x20\n        /* \"#utility.yul\":9969:9975   */\n      dup3\n        /* \"#utility.yul\":9966:9980   */\n      lt\n        /* \"#utility.yul\":9946:9964   */\n      dup2\n        /* \"#utility.yul\":9943:9981   */\n      sub\n        /* \"#utility.yul\":9940:10024   */\n      tag_288\n      jumpi\n        /* \"#utility.yul\":9996:10014   */\n      tag_289\n      tag_159\n      jump\t// in\n    tag_289:\n        /* \"#utility.yul\":9940:10024   */\n    tag_288:\n        /* \"#utility.yul\":9761:10030   */\n      pop\n        /* \"#utility.yul\":9710:10030   */\n      swap2\n      swap1\n      pop\n      jump\t// out\n        /* \"#utility.yul\":10036:10184   */\n    tag_160:\n        /* \"#utility.yul\":10138:10149   */\n      0x00\n        /* \"#utility.yul\":10175:10178   */\n      dup2\n        /* \"#utility.yul\":10160:10178   */\n      swap1\n      pop\n        /* \"#utility.yul\":10036:10184   */\n      swap3\n      swap2\n      pop\n      pop\n      jump\t// out\n        /* \"#utility.yul\":10190:10580   */\n    tag_161:\n        /* \"#utility.yul\":10296:10299   */\n      0x00\n        /* \"#utility.yul\":10324:10363   */\n      tag_292\n        /* \"#utility.yul\":10357:10362   */\n      dup3\n        /* \"#utility.yul\":10324:10363   */\n      tag_151\n      jump\t// in\n    tag_292:\n        /* \"#utility.yul\":10379:10468   */\n      tag_293\n        /* \"#utility.yul\":10461:10467   */\n      dup2\n        /* \"#utility.yul\":10456:10459   */\n      dup6\n        /* \"#utility.yul\":10379:10468   */\n      tag_160\n      jump\t// in\n    tag_293:\n        /* \"#utility.yul\":10372:10468   */\n      swap4\n      pop\n        /* \"#utility.yul\":10477:10542   */\n      tag_294\n        /* \"#utility.yul\":10535:10541   */\n      dup2\n        /* \"#utility.yul\":10530:10533   */\n      dup6\n        /* \"#utility.yul\":10523:10527   */\n      0x20\n        /* \"#utility.yul\":10516:10521   */\n      dup7\n        /* \"#utility.yul\":10512:10528   */\n      add\n        /* \"#utility.yul\":10477:10542   */\n      tag_153\n      jump\t// in\n    tag_294:\n        /* \"#utility.yul\":10567:10573   */\n      dup1\n        /* \"#utility.yul\":10562:10565   */\n      dup5\n        /* \"#utility.yul\":10558:10574   */\n      add\n        /* \"#utility.yul\":10551:10574   */\n      swap2\n      pop\n        /* \"#utility.yul\":10300:10580   */\n      pop\n        /* \"#utility.yul\":10190:10580   */\n      swap3\n      swap2\n      pop\n      pop\n      jump\t// out\n        /* \"#utility.yul\":10586:10861   */\n    tag_72:\n        /* \"#utility.yul\":10718:10721   */\n      0x00\n        /* \"#utility.yul\":10740:10835   */\n      tag_296\n        /* \"#utility.yul\":10831:10834   */\n      dup3\n        /* \"#utility.yul\":10822:10828   */\n      dup5\n        /* \"#utility.yul\":10740:10835   */\n      tag_161\n      jump\t// in\n    tag_296:\n        /* \"#utility.yul\":10733:10835   */\n      swap2\n      pop\n        /* \"#utility.yul\":10852:10855   */\n      dup2\n        /* \"#utility.yul\":10845:10855   */\n      swap1\n      pop\n        /* \"#utility.yul\":10586:10861   */\n      swap3\n      swap2\n      pop\n      pop\n      jump\t// out\n        /* \"#utility.yul\":10867:11008   */\n    tag_162:\n        /* \"#utility.yul\":10916:10920   */\n      0x00\n        /* \"#utility.yul\":10939:10942   */\n      dup2\n        /* \"#utility.yul\":10931:10942   */\n      swap1\n      pop\n        /* \"#utility.yul\":10962:10965   */\n      dup2\n        /* \"#utility.yul\":10959:10960   */\n      0x00\n        /* \"#utility.yul\":10952:10966   */\n      mstore\n        /* \"#utility.yul\":10996:11000   */\n      0x20\n        /* \"#utility.yul\":10993:10994   */\n      0x00\n        /* \"#utility.yul\":10983:11001   */\n      keccak256\n        /* \"#utility.yul\":10975:11001   */\n      swap1\n      pop\n        /* \"#utility.yul\":10867:11008   */\n      swap2\n      swap1\n      pop\n      jump\t// out\n        /* \"#utility.yul\":11014:11107   */\n    tag_163:\n        /* \"#utility.yul\":11051:11057   */\n      0x00\n        /* \"#utility.yul\":11098:11100   */\n      0x20\n        /* \"#utility.yul\":11093:11095   */\n      0x1f\n        /* \"#utility.yul\":11086:11091   */\n      dup4\n        /* \"#utility.yul\":11082:11096   */\n      add\n        /* \"#utility.yul\":11078:11101   */\n      div\n        /* \"#utility.yul\":11068:11101   */\n      swap1\n      pop\n        /* \"#utility.yul\":11014:11107   */\n      swap2\n      swap1\n      pop\n      jump\t// out\n        /* \"#utility.yul\":11113:11220   */\n    tag_164:\n        /* \"#utility.yul\":11157:11165   */\n      0x00\n        /* \"#utility.yul\":11207:11212   */\n      dup3\n        /* \"#utility.yul\":11201:11205   */\n      dup3\n        /* \"#utility.yul\":11197:11213   */\n      shl\n        /* \"#utility.yul\":11176:11213   */\n      swap1\n      pop\n        /* \"#utility.yul\":11113:11220   */\n      swap3\n      swap2\n      pop\n      pop\n      jump\t// out\n        /* \"#utility.yul\":11226:11619   */\n    tag_165:\n        /* \"#utility.yul\":11295:11301   */\n      0x00\n        /* \"#utility.yul\":11345:11346   */\n      0x08\n        /* \"#utility.yul\":11333:11343   */\n      dup4\n        /* \"#utility.yul\":11329:11347   */\n      mul\n        /* \"#utility.yul\":11368:11465   */\n      tag_301\n        /* \"#utility.yul\":11398:11464   */\n      0xffffffffffffffffffffffffffffffffffffffffffffffffffffffffffffffff\n        /* \"#utility.yul\":11387:11396   */\n      dup3\n        /* \"#utility.yul\":11368:11465   */\n      tag_164\n      jump\t// in\n    tag_301:\n        /* \"#utility.yul\":11486:11525   */\n      tag_302\n        /* \"#utility.yul\":11516:11524   */\n      dup7\n        /* \"#utility.yul\":11505:11514   */\n      dup4\n        /* \"#utility.yul\":11486:11525   */\n      tag_164\n      jump\t// in\n    tag_302:\n        /* \"#utility.yul\":11474:11525   */\n      swap6\n      pop\n        /* \"#utility.yul\":11558:11562   */\n      dup1\n        /* \"#utility.yul\":11554:11563   */\n      not\n        /* \"#utility.yul\":11547:11552   */\n      dup5\n        /* \"#utility.yul\":11543:11564   */\n      and\n        /* \"#utility.yul\":11534:11564   */\n      swap4\n      pop\n        /* \"#utility.yul\":11607:11611   */\n      dup1\n        /* \"#utility.yul\":11597:11605   */\n      dup7\n        /* \"#utility.yul\":11593:11612   */\n      and\n        /* \"#utility.yul\":11586:11591   */\n      dup5\n        /* \"#utility.yul\":11583:11613   */\n      or\n        /* \"#utility.yul\":11573:11613   */\n      swap3\n      pop\n        /* \"#utility.yul\":11302:11619   */\n      pop\n      pop\n        /* \"#utility.yul\":11226:11619   */\n      swap4\n      swap3\n      pop\n      pop\n      pop\n      jump\t// out\n        /* \"#utility.yul\":11625:11685   */\n    tag_166:\n        /* \"#utility.yul\":11653:11656   */\n      0x00\n        /* \"#utility.yul\":11674:11679   */\n      dup2\n        /* \"#utility.yul\":11667:11679   */\n      swap1\n      pop\n        /* \"#utility.yul\":11625:11685   */\n      swap2\n      swap1\n      pop\n      jump\t// out\n        /* \"#utility.yul\":11691:11833   */\n    tag_167:\n        /* \"#utility.yul\":11741:11750   */\n      0x00\n        /* \"#utility.yul\":11774:11827   */\n      tag_305\n        /* \"#utility.yul\":11792:11826   */\n      tag_306\n        /* \"#utility.yul\":11801:11825   */\n      tag_307\n        /* \"#utility.yul\":11819:11824   */\n      dup5\n        /* \"#utility.yul\":11801:11825   */\n      tag_155\n      jump\t// in\n    tag_307:\n        /* \"#utility.yul\":11792:11826   */\n      tag_166\n      jump\t// in\n    tag_306:\n        /* \"#utility.yul\":11774:11827   */\n      tag_155\n      jump\t// in\n    tag_305:\n        /* \"#utility.yul\":11761:11827   */\n      swap1\n      pop\n        /* \"#utility.yul\":11691:11833   */\n      swap2\n      swap1\n      pop\n      jump\t// out\n        /* \"#utility.yul\":11839:11914   */\n    tag_168:\n        /* \"#utility.yul\":11882:11885   */\n      0x00\n        /* \"#utility.yul\":11903:11908   */\n      dup2\n        /* \"#utility.yul\":11896:11908   */\n      swap1\n      pop\n        /* \"#utility.yul\":11839:11914   */\n      swap2\n      swap1\n      pop\n      jump\t// out\n        /* \"#utility.yul\":11920:12189   */\n    tag_169:\n        /* \"#utility.yul\":12030:12069   */\n      tag_310\n        /* \"#utility.yul\":12061:12068   */\n      dup4\n        /* \"#utility.yul\":12030:12069   */\n      tag_167\n      jump\t// in\n    tag_310:\n        /* \"#utility.yul\":12091:12182   */\n      tag_311\n        /* \"#utility.yul\":12140:12181   */\n      tag_312\n        /* \"#utility.yul\":12164:12180   */\n      dup3\n        /* \"#utility.yul\":12140:12181   */\n      tag_168\n      jump\t// in\n    tag_312:\n        /* \"#utility.yul\":12132:12138   */\n      dup5\n        /* \"#utility.yul\":12125:12129   */\n      dup5\n        /* \"#utility.yul\":12119:12130   */\n      sload\n        /* \"#utility.yul\":12091:12182   */\n      tag_165\n      jump\t// in\n    tag_311:\n        /* \"#utility.yul\":12085:12089   */\n      dup3\n        /* \"#utility.yul\":12078:12183   */\n      sstore\n        /* \"#utility.yul\":11996:12189   */\n      pop\n        /* \"#utility.yul\":11920:12189   */\n      pop\n      pop\n      pop\n      jump\t// out\n        /* \"#utility.yul\":12195:12268   */\n    tag_170:\n        /* \"#utility.yul\":12240:12243   */\n      0x00\n        /* \"#utility.yul\":12195:12268   */\n      swap1\n      jump\t// out\n        /* \"#utility.yul\":12274:12463   */\n    tag_171:\n        /* \"#utility.yul\":12351:12383   */\n      tag_315\n      tag_170\n      jump\t// in\n    tag_315:\n        /* \"#utility.yul\":12392:12457   */\n      tag_316\n        /* \"#utility.yul\":12450:12456   */\n      dup2\n        /* \"#utility.yul\":12442:12448   */\n      dup5\n        /* \"#utility.yul\":12436:12440   */\n      dup5\n        /* \"#utility.yul\":12392:12457   */\n      tag_169\n      jump\t// in\n    tag_316:\n        /* \"#utility.yul\":12327:12463   */\n      pop\n        /* \"#utility.yul\":12274:12463   */\n      pop\n      pop\n      jump\t// out\n        /* \"#utility.yul\":12469:12655   */\n    tag_172:\n        /* \"#utility.yul\":12529:12649   */\n    tag_318:\n        /* \"#utility.yul\":12546:12549   */\n      dup2\n        /* \"#utility.yul\":12539:12544   */\n      dup2\n        /* \"#utility.yul\":12536:12550   */\n      lt\n        /* \"#utility.yul\":12529:12649   */\n      iszero\n      tag_320\n      jumpi\n        /* \"#utility.yul\":12600:12639   */\n      tag_321\n        /* \"#utility.yul\":12637:12638   */\n      0x00\n        /* \"#utility.yul\":12630:12635   */\n      dup3\n        /* \"#utility.yul\":12600:12639   */\n      tag_171\n      jump\t// in\n    tag_321:\n        /* \"#utility.yul\":12573:12574   */\n      0x01\n        /* \"#utility.yul\":12566:12571   */\n      dup2\n        /* \"#utility.yul\":12562:12575   */\n      add\n        /* \"#utility.yul\":12553:12575   */\n      swap1\n      pop\n        /* \"#utility.yul\":12529:12649   */\n      jump(tag_318)\n    tag_320:\n        /* \"#utility.yul\":12469:12655   */\n      pop\n      pop\n      jump\t// out\n        /* \"#utility.yul\":12661:13204   */\n    tag_173:\n        /* \"#utility.yul\":12762:12764   */\n      0x1f\n        /* \"#utility.yul\":12757:12760   */\n      dup3\n        /* \"#utility.yul\":12754:12765   */\n      gt\n        /* \"#utility.yul\":12751:13197   */\n      iszero\n      tag_323\n      jumpi\n        /* \"#utility.yul\":12796:12834   */\n      tag_324\n        /* \"#utility.yul\":12828:12833   */\n      dup2\n        /* \"#utility.yul\":12796:12834   */\n      tag_162\n      jump\t// in\n    tag_324:\n        /* \"#utility.yul\":12880:12909   */\n      tag_325\n        /* \"#utility.yul\":12898:12908   */\n      dup5\n        /* \"#utility.yul\":12880:12909   */\n      tag_163\n      jump\t// in\n    tag_325:\n        /* \"#utility.yul\":12870:12878   */\n      dup2\n        /* \"#utility.yul\":12866:12910   */\n      add\n        /* \"#utility.yul\":13063:13065   */\n      0x20\n        /* \"#utility.yul\":13051:13061   */\n      dup6\n        /* \"#utility.yul\":13048:13066   */\n      lt\n        /* \"#utility.yul\":13045:13094   */\n      iszero\n      tag_326\n      jumpi\n        /* \"#utility.yul\":13084:13092   */\n      dup2\n        /* \"#utility.yul\":13069:13092   */\n      swap1\n      pop\n        /* \"#utility.yul\":13045:13094   */\n    tag_326:\n        /* \"#utility.yul\":13107:13187   */\n      tag_327\n        /* \"#utility.yul\":13163:13185   */\n      tag_328\n        /* \"#utility.yul\":13181:13184   */\n      dup6\n        /* \"#utility.yul\":13163:13185   */\n      tag_163\n      jump\t// in\n    tag_328:\n        /* \"#utility.yul\":13153:13161   */\n      dup4\n        /* \"#utility.yul\":13149:13186   */\n      add\n        /* \"#utility.yul\":13136:13147   */\n      dup3\n        /* \"#utility.yul\":13107:13187   */\n      tag_172\n      jump\t// in\n    tag_327:\n        /* \"#utility.yul\":12766:13197   */\n      pop\n      pop\n        /* \"#utility.yul\":12751:13197   */\n    tag_323:\n        /* \"#utility.yul\":12661:13204   */\n      pop\n      pop\n      pop\n      jump\t// out\n        /* \"#utility.yul\":13210:13327   */\n    tag_174:\n        /* \"#utility.yul\":13264:13272   */\n      0x00\n        /* \"#utility.yul\":13314:13319   */\n      dup3\n        /* \"#utility.yul\":13308:13312   */\n      dup3\n        /* \"#utility.yul\":13304:13320   */\n      shr\n        /* \"#utility.yul\":13283:13320   */\n      swap1\n      pop\n        /* \"#utility.yul\":13210:13327   */\n      swap3\n      swap2\n      pop\n      pop\n      jump\t// out\n        /* \"#utility.yul\":13333:13502   */\n    tag_175:\n        /* \"#utility.yul\":13377:13383   */\n      0x00\n        /* \"#utility.yul\":13410:13461   */\n      tag_331\n        /* \"#utility.yul\":13458:13459   */\n      0x00\n        /* \"#utility.yul\":13454:13460   */\n      not\n        /* \"#utility.yul\":13446:13451   */\n      dup5\n        /* \"#utility.yul\":13443:13444   */\n      0x08\n        /* \"#utility.yul\":13439:13452   */\n      mul\n        /* \"#utility.yul\":13410:13461   */\n      tag_174\n      jump\t// in\n    tag_331:\n        /* \"#utility.yul\":13406:13462   */\n      not\n        /* \"#utility.yul\":13491:13495   */\n      dup1\n        /* \"#utility.yul\":13485:13489   */\n      dup4\n        /* \"#utility.yul\":13481:13496   */\n      and\n        /* \"#utility.yul\":13471:13496   */\n      swap2\n      pop\n        /* \"#utility.yul\":13384:13502   */\n      pop\n        /* \"#utility.yul\":13333:13502   */\n      swap3\n      swap2\n      pop\n      pop\n      jump\t// out\n        /* \"#utility.yul\":13507:13802   */\n    tag_176:\n        /* \"#utility.yul\":13583:13587   */\n      0x00\n        /* \"#utility.yul\":13729:13758   */\n      tag_333\n        /* \"#utility.yul\":13754:13757   */\n      dup4\n        /* \"#utility.yul\":13748:13752   */\n      dup4\n        /* \"#utility.yul\":13729:13758   */\n      tag_175\n      jump\t// in\n    tag_333:\n        /* \"#utility.yul\":13721:13758   */\n      swap2\n      pop\n        /* \"#utility.yul\":13791:13794   */\n      dup3\n        /* \"#utility.yul\":13788:13789   */\n      0x02\n        /* \"#utility.yul\":13784:13795   */\n      mul\n        /* \"#utility.yul\":13778:13782   */\n      dup3\n        /* \"#utility.yul\":13775:13796   */\n      or\n        /* \"#utility.yul\":13767:13796   */\n      swap1\n      pop\n        /* \"#utility.yul\":13507:13802   */\n      swap3\n      swap2\n      pop\n      pop\n      jump\t// out\n        /* \"#utility.yul\":13807:15202   */\n    tag_74:\n        /* \"#utility.yul\":13924:13961   */\n      tag_335\n        /* \"#utility.yul\":13957:13960   */\n      dup3\n        /* \"#utility.yul\":13924:13961   */\n      tag_151\n      jump\t// in\n    tag_335:\n        /* \"#utility.yul\":14026:14044   */\n      0xffffffffffffffff\n        /* \"#utility.yul\":14018:14024   */\n      dup2\n        /* \"#utility.yul\":14015:14045   */\n      gt\n        /* \"#utility.yul\":14012:14068   */\n      iszero\n      tag_336\n      jumpi\n        /* \"#utility.yul\":14048:14066   */\n      tag_337\n      tag_144\n      jump\t// in\n    tag_337:\n        /* \"#utility.yul\":14012:14068   */\n    tag_336:\n        /* \"#utility.yul\":14092:14130   */\n      tag_338\n        /* \"#utility.yul\":14124:14128   */\n      dup3\n        /* \"#utility.yul\":14118:14129   */\n      sload\n        /* \"#utility.yul\":14092:14130   */\n      tag_50\n      jump\t// in\n    tag_338:\n        /* \"#utility.yul\":14177:14244   */\n      tag_339\n        /* \"#utility.yul\":14237:14243   */\n      dup3\n        /* \"#utility.yul\":14229:14235   */\n      dup3\n        /* \"#utility.yul\":14223:14227   */\n      dup6\n        /* \"#utility.yul\":14177:14244   */\n      tag_173\n      jump\t// in\n    tag_339:\n        /* \"#utility.yul\":14271:14272   */\n      0x00\n        /* \"#utility.yul\":14295:14299   */\n      0x20\n        /* \"#utility.yul\":14282:14299   */\n      swap1\n      pop\n        /* \"#utility.yul\":14327:14329   */\n      0x1f\n        /* \"#utility.yul\":14319:14325   */\n      dup4\n        /* \"#utility.yul\":14316:14330   */\n      gt\n        /* \"#utility.yul\":14344:14345   */\n      0x01\n        /* \"#utility.yul\":14339:14957   */\n      dup2\n      eq\n      tag_341\n      jumpi\n        /* \"#utility.yul\":15001:15002   */\n      0x00\n        /* \"#utility.yul\":15018:15024   */\n      dup5\n        /* \"#utility.yul\":15015:15092   */\n      iszero\n      tag_342\n      jumpi\n        /* \"#utility.yul\":15067:15076   */\n      dup3\n        /* \"#utility.yul\":15062:15065   */\n      dup8\n        /* \"#utility.yul\":15058:15077   */\n      add\n        /* \"#utility.yul\":15052:15078   */\n      mload\n        /* \"#utility.yul\":15043:15078   */\n      swap1\n      pop\n        /* \"#utility.yul\":15015:15092   */\n    tag_342:\n        /* \"#utility.yul\":15118:15185   */\n      tag_343\n        /* \"#utility.yul\":15178:15184   */\n      dup6\n        /* \"#utility.yul\":15171:15176   */\n      dup3\n        /* \"#utility.yul\":15118:15185   */\n      tag_176\n      jump\t// in\n    tag_343:\n        /* \"#utility.yul\":15112:15116   */\n      dup7\n        /* \"#utility.yul\":15105:15186   */\n      sstore\n        /* \"#utility.yul\":14974:15196   */\n      pop\n        /* \"#utility.yul\":14309:15196   */\n      jump(tag_340)\n        /* \"#utility.yul\":14339:14957   */\n    tag_341:\n        /* \"#utility.yul\":14391:14395   */\n      0x1f\n        /* \"#utility.yul\":14387:14396   */\n      not\n        /* \"#utility.yul\":14379:14385   */\n      dup5\n        /* \"#utility.yul\":14375:14397   */\n      and\n        /* \"#utility.yul\":14425:14462   */\n      tag_344\n        /* \"#utility.yul\":14457:14461   */\n      dup7\n        /* \"#utility.yul\":14425:14462   */\n      tag_162\n      jump\t// in\n    tag_344:\n        /* \"#utility.yul\":14484:14485   */\n      0x00\n        /* \"#utility.yul\":14498:14706   */\n    tag_345:\n        /* \"#utility.yul\":14512:14519   */\n      dup3\n        /* \"#utility.yul\":14509:14510   */\n      dup2\n        /* \"#utility.yul\":14506:14520   */\n      lt\n        /* \"#utility.yul\":14498:14706   */\n      iszero\n      tag_347\n      jumpi\n        /* \"#utility.yul\":14591:14600   */\n      dup5\n        /* \"#utility.yul\":14586:14589   */\n      dup10\n        /* \"#utility.yul\":14582:14601   */\n      add\n        /* \"#utility.yul\":14576:14602   */\n      mload\n        /* \"#utility.yul\":14568:14574   */\n      dup3\n        /* \"#utility.yul\":14561:14603   */\n      sstore\n        /* \"#utility.yul\":14642:14643   */\n      0x01\n        /* \"#utility.yul\":14634:14640   */\n      dup3\n        /* \"#utility.yul\":14630:14644   */\n      add\n        /* \"#utility.yul\":14620:14644   */\n      swap2\n      pop\n        /* \"#utility.yul\":14689:14691   */\n      0x20\n        /* \"#utility.yul\":14678:14687   */\n      dup6\n        /* \"#utility.yul\":14674:14692   */\n      add\n        /* \"#utility.yul\":14661:14692   */\n      swap5\n      pop\n        /* \"#utility.yul\":14535:14539   */\n      0x20\n        /* \"#utility.yul\":14532:14533   */\n      dup2\n        /* \"#utility.yul\":14528:14540   */\n      add\n        /* \"#utility.yul\":14523:14540   */\n      swap1\n      pop\n        /* \"#utility.yul\":14498:14706   */\n      jump(tag_345)\n    tag_347:\n        /* \"#utility.yul\":14734:14740   */\n      dup7\n        /* \"#utility.yul\":14725:14732   */\n      dup4\n        /* \"#utility.yul\":14722:14741   */\n      lt\n        /* \"#utility.yul\":14719:14898   */\n      iszero\n      tag_348\n      jumpi\n        /* \"#utility.yul\":14792:14801   */\n      dup5\n        /* \"#utility.yul\":14787:14790   */\n      dup10\n        /* \"#utility.yul\":14783:14802   */\n      add\n        /* \"#utility.yul\":14777:14803   */\n      mload\n        /* \"#utility.yul\":14835:14883   */\n      tag_349\n        /* \"#utility.yul\":14877:14881   */\n      0x1f\n        /* \"#utility.yul\":14869:14875   */\n      dup10\n        /* \"#utility.yul\":14865:14882   */\n      and\n        /* \"#utility.yul\":14854:14863   */\n      dup3\n        /* \"#utility.yul\":14835:14883   */\n      tag_175\n      jump\t// in\n    tag_349:\n        /* \"#utility.yul\":14827:14833   */\n      dup4\n        /* \"#utility.yul\":14820:14884   */\n      sstore\n        /* \"#utility.yul\":14742:14898   */\n      pop\n        /* \"#utility.yul\":14719:14898   */\n    tag_348:\n        /* \"#utility.yul\":14944:14945   */\n      0x01\n        /* \"#utility.yul\":14940:14941   */\n      0x02\n        /* \"#utility.yul\":14932:14938   */\n      dup9\n        /* \"#utility.yul\":14928:14942   */\n      mul\n        /* \"#utility.yul\":14924:14946   */\n      add\n        /* \"#utility.yul\":14918:14922   */\n      dup9\n        /* \"#utility.yul\":14911:14947   */\n      sstore\n        /* \"#utility.yul\":14346:14957   */\n      pop\n      pop\n      pop\n        /* \"#utility.yul\":14309:15196   */\n    tag_340:\n      pop\n        /* \"#utility.yul\":13899:15202   */\n      pop\n      pop\n      pop\n        /* \"#utility.yul\":13807:15202   */\n      pop\n      pop\n      jump\t// out\n        /* \"#utility.yul\":15208:15376   */\n    tag_177:\n        /* \"#utility.yul\":15348:15368   */\n      0x73616c646f20496e737566696369656e74650000000000000000000000000000\n        /* \"#utility.yul\":15344:15345   */\n      0x00\n        /* \"#utility.yul\":15336:15342   */\n      dup3\n        /* \"#utility.yul\":15332:15346   */\n      add\n        /* \"#utility.yul\":15325:15369   */\n      mstore\n        /* \"#utility.yul\":15208:15376   */\n      pop\n      jump\t// out\n        /* \"#utility.yul\":15382:15748   */\n    tag_178:\n        /* \"#utility.yul\":15524:15527   */\n      0x00\n        /* \"#utility.yul\":15545:15612   */\n      tag_352\n        /* \"#utility.yul\":15609:15611   */\n      0x12\n        /* \"#utility.yul\":15604:15607   */\n      dup4\n        /* \"#utility.yul\":15545:15612   */\n      tag_152\n      jump\t// in\n    tag_352:\n        /* \"#utility.yul\":15538:15612   */\n      swap2\n      pop\n        /* \"#utility.yul\":15621:15714   */\n      tag_353\n        /* \"#utility.yul\":15710:15713   */\n      dup3\n        /* \"#utility.yul\":15621:15714   */\n      tag_177\n      jump\t// in\n    tag_353:\n        /* \"#utility.yul\":15739:15741   */\n      0x20\n        /* \"#utility.yul\":15734:15737   */\n      dup3\n        /* \"#utility.yul\":15730:15742   */\n      add\n        /* \"#utility.yul\":15723:15742   */\n      swap1\n      pop\n        /* \"#utility.yul\":15382:15748   */\n      swap2\n      swap1\n      pop\n      jump\t// out\n        /* \"#utility.yul\":15754:16173   */\n    tag_101:\n        /* \"#utility.yul\":15920:15924   */\n      0x00\n        /* \"#utility.yul\":15958:15960   */\n      0x20\n        /* \"#utility.yul\":15947:15956   */\n      dup3\n        /* \"#utility.yul\":15943:15961   */\n      add\n        /* \"#utility.yul\":15935:15961   */\n      swap1\n      pop\n        /* \"#utility.yul\":16007:16016   */\n      dup2\n        /* \"#utility.yul\":16001:16005   */\n      dup2\n        /* \"#utility.yul\":15997:16017   */\n      sub\n        /* \"#utility.yul\":15993:15994   */\n      0x00\n        /* \"#utility.yul\":15982:15991   */\n      dup4\n        /* \"#utility.yul\":15978:15995   */\n      add\n        /* \"#utility.yul\":15971:16018   */\n      mstore\n        /* \"#utility.yul\":16035:16166   */\n      tag_355\n        /* \"#utility.yul\":16161:16165   */\n      dup2\n        /* \"#utility.yul\":16035:16166   */\n      tag_178\n      jump\t// in\n    tag_355:\n        /* \"#utility.yul\":16027:16166   */\n      swap1\n      pop\n        /* \"#utility.yul\":15754:16173   */\n      swap2\n      swap1\n      pop\n      jump\t// out\n        /* \"#utility.yul\":16179:16348   */\n    tag_179:\n        /* \"#utility.yul\":16319:16340   */\n      0x4c696d69746520556c7472617061737361646f00000000000000000000000000\n        /* \"#utility.yul\":16315:16316   */\n      0x00\n        /* \"#utility.yul\":16307:16313   */\n      dup3\n        /* \"#utility.yul\":16303:16317   */\n      add\n        /* \"#utility.yul\":16296:16341   */\n      mstore\n        /* \"#utility.yul\":16179:16348   */\n      pop\n      jump\t// out\n        /* \"#utility.yul\":16354:16720   */\n    tag_180:\n        /* \"#utility.yul\":16496:16499   */\n      0x00\n        /* \"#utility.yul\":16517:16584   */\n      tag_358\n        /* \"#utility.yul\":16581:16583   */\n      0x13\n        /* \"#utility.yul\":16576:16579   */\n      dup4\n        /* \"#utility.yul\":16517:16584   */\n      tag_152\n      jump\t// in\n    tag_358:\n        /* \"#utility.yul\":16510:16584   */\n      swap2\n      pop\n        /* \"#utility.yul\":16593:16686   */\n      tag_359\n        /* \"#utility.yul\":16682:16685   */\n      dup3\n        /* \"#utility.yul\":16593:16686   */\n      tag_179\n      jump\t// in\n    tag_359:\n        /* \"#utility.yul\":16711:16713   */\n      0x20\n        /* \"#utility.yul\":16706:16709   */\n      dup3\n        /* \"#utility.yul\":16702:16714   */\n      add\n        /* \"#utility.yul\":16695:16714   */\n      swap1\n      pop\n        /* \"#utility.yul\":16354:16720   */\n      swap2\n      swap1\n      pop\n      jump\t// out\n        /* \"#utility.yul\":16726:17145   */\n    tag_120:\n        /* \"#utility.yul\":16892:16896   */\n      0x00\n        /* \"#utility.yul\":16930:16932   */\n      0x20\n        /* \"#utility.yul\":16919:16928   */\n      dup3\n        /* \"#utility.yul\":16915:16933   */\n      add\n        /* \"#utility.yul\":16907:16933   */\n      swap1\n      pop\n        /* \"#utility.yul\":16979:16988   */\n      dup2\n        /* \"#utility.yul\":16973:16977   */\n      dup2\n        /* \"#utility.yul\":16969:16989   */\n      sub\n        /* \"#utility.yul\":16965:16966   */\n      0x00\n        /* \"#utility.yul\":16954:16963   */\n      dup4\n        /* \"#utility.yul\":16950:16967   */\n      add\n        /* \"#utility.yul\":16943:16990   */\n      mstore\n        /* \"#utility.yul\":17007:17138   */\n      tag_361\n        /* \"#utility.yul\":17133:17137   */\n      dup2\n        /* \"#utility.yul\":17007:17138   */\n      tag_180\n      jump\t// in\n    tag_361:\n        /* \"#utility.yul\":16999:17138   */\n      swap1\n      pop\n        /* \"#utility.yul\":16726:17145   */\n      swap2\n      swap1\n      pop\n      jump\t// out\n        /* \"#utility.yul\":17151:17331   */\n    tag_181:\n        /* \"#utility.yul\":17199:17276   */\n      0x4e487b7100000000000000000000000000000000000000000000000000000000\n        /* \"#utility.yul\":17196:17197   */\n      0x00\n        /* \"#utility.yul\":17189:17277   */\n      mstore\n        /* \"#utility.yul\":17296:17300   */\n      0x11\n        /* \"#utility.yul\":17293:17294   */\n      0x04\n        /* \"#utility.yul\":17286:17301   */\n      mstore\n        /* \"#utility.yul\":17320:17324   */\n      0x24\n        /* \"#utility.yul\":17317:17318   */\n      0x00\n        /* \"#utility.yul\":17310:17325   */\n      revert\n        /* \"#utility.yul\":17337:17528   */\n    tag_132:\n        /* \"#utility.yul\":17377:17380   */\n      0x00\n        /* \"#utility.yul\":17396:17416   */\n      tag_364\n        /* \"#utility.yul\":17414:17415   */\n      dup3\n        /* \"#utility.yul\":17396:17416   */\n      tag_155\n      jump\t// in\n    tag_364:\n        /* \"#utility.yul\":17391:17416   */\n      swap2\n      pop\n        /* \"#utility.yul\":17430:17450   */\n      tag_365\n        /* \"#utility.yul\":17448:17449   */\n      dup4\n        /* \"#utility.yul\":17430:17450   */\n      tag_155\n      jump\t// in\n    tag_365:\n        /* \"#utility.yul\":17425:17450   */\n      swap3\n      pop\n        /* \"#utility.yul\":17473:17474   */\n      dup3\n        /* \"#utility.yul\":17470:17471   */\n      dup3\n        /* \"#utility.yul\":17466:17475   */\n      add\n        /* \"#utility.yul\":17459:17475   */\n      swap1\n      pop\n        /* \"#utility.yul\":17494:17497   */\n      dup1\n        /* \"#utility.yul\":17491:17492   */\n      dup3\n        /* \"#utility.yul\":17488:17498   */\n      gt\n        /* \"#utility.yul\":17485:17521   */\n      iszero\n      tag_366\n      jumpi\n        /* \"#utility.yul\":17501:17519   */\n      tag_367\n      tag_181\n      jump\t// in\n    tag_367:\n        /* \"#utility.yul\":17485:17521   */\n    tag_366:\n        /* \"#utility.yul\":17337:17528   */\n      swap3\n      swap2\n      pop\n      pop\n      jump\t// out\n        /* \"#utility.yul\":17534:17758   */\n    tag_182:\n        /* \"#utility.yul\":17674:17708   */\n      0x4167756172646520756d20646961207061726120706f73746172206e6f76616d\n        /* \"#utility.yul\":17670:17671   */\n      0x00\n        /* \"#utility.yul\":17662:17668   */\n      dup3\n        /* \"#utility.yul\":17658:17672   */\n      add\n        /* \"#utility.yul\":17651:17709   */\n      mstore\n        /* \"#utility.yul\":17743:17750   */\n      0x656e74652e000000000000000000000000000000000000000000000000000000\n        /* \"#utility.yul\":17738:17740   */\n      0x20\n        /* \"#utility.yul\":17730:17736   */\n      dup3\n        /* \"#utility.yul\":17726:17741   */\n      add\n        /* \"#utility.yul\":17719:17751   */\n      mstore\n        /* \"#utility.yul\":17534:17758   */\n      pop\n      jump\t// out\n        /* \"#utility.yul\":17764:18130   */\n    tag_183:\n        /* \"#utility.yul\":17906:17909   */\n      0x00\n        /* \"#utility.yul\":17927:17994   */\n      tag_370\n        /* \"#utility.yul\":17991:17993   */\n      0x25\n        /* \"#utility.yul\":17986:17989   */\n      dup4\n        /* \"#utility.yul\":17927:17994   */\n      tag_152\n      jump\t// in\n    tag_370:\n        /* \"#utility.yul\":17920:17994   */\n      swap2\n      pop\n        /* \"#utility.yul\":18003:18096   */\n      tag_371\n        /* \"#utility.yul\":18092:18095   */\n      dup3\n        /* \"#utility.yul\":18003:18096   */\n      tag_182\n      jump\t// in\n    tag_371:\n        /* \"#utility.yul\":18121:18123   */\n      0x40\n        /* \"#utility.yul\":18116:18119   */\n      dup3\n        /* \"#utility.yul\":18112:18124   */\n      add\n        /* \"#utility.yul\":18105:18124   */\n      swap1\n      pop\n        /* \"#utility.yul\":17764:18130   */\n      swap2\n      swap1\n      pop\n      jump\t// out\n        /* \"#utility.yul\":18136:18555   */\n    tag_135:\n        /* \"#utility.yul\":18302:18306   */\n      0x00\n        /* \"#utility.yul\":18340:18342   */\n      0x20\n        /* \"#utility.yul\":18329:18338   */\n      dup3\n        /* \"#utility.yul\":18325:18343   */\n      add\n        /* \"#utility.yul\":18317:18343   */\n      swap1\n      pop\n        /* \"#utility.yul\":18389:18398   */\n      dup2\n        /* \"#utility.yul\":18383:18387   */\n      dup2\n        /* \"#utility.yul\":18379:18399   */\n      sub\n        /* \"#utility.yul\":18375:18376   */\n      0x00\n        /* \"#utility.yul\":18364:18373   */\n      dup4\n        /* \"#utility.yul\":18360:18377   */\n      add\n        /* \"#utility.yul\":18353:18400   */\n      mstore\n        /* \"#utility.yul\":18417:18548   */\n      tag_373\n        /* \"#utility.yul\":18543:18547   */\n      dup2\n        /* \"#utility.yul\":18417:18548   */\n      tag_183\n      jump\t// in\n    tag_373:\n        /* \"#utility.yul\":18409:18548   */\n      swap1\n      pop\n        /* \"#utility.yul\":18136:18555   */\n      swap2\n      swap1\n      pop\n      jump\t// out\n\n    auxdata: 0xa26469706673582212207dbec93a8210018f18133085a7a206d7e3a211a5c454c483a0f77ed56778430264736f6c63430008160033\n}\n",
				"bytecode": {
					"linkReferences": {},
					"object": "6080604052600a6004555f60055f6101000a81548160ff02191690831515021790555034801561002d575f80fd5b5061160d8061003b5f395ff3fe60806040526004361061007a575f3560e01c806390628e691161004d57806390628e6914610150578063972dac071461016e578063dbbe865914610196578063ea78aaba146101be5761007a565b8063396555ad1461007e57806354c946a5146100a857806357652f2a146100e857806374a6917914610110575b5f80fd5b348015610089575f80fd5b506100926101e6565b60405161009f9190610c2e565b60405180910390f35b3480156100b3575f80fd5b506100ce60048036038101906100c99190610d94565b6101f8565b6040516100df959493929190610e6d565b60405180910390f35b3480156100f3575f80fd5b5061010e60048036038101906101099190610f04565b61045a565b005b34801561011b575f80fd5b5061013660048036038101906101319190610d94565b61050e565b604051610147959493929190610e6d565b60405180910390f35b610158610770565b6040516101659190610c2e565b60405180910390f35b348015610179575f80fd5b50610194600480360381019061018f9190610feb565b610812565b005b3480156101a1575f80fd5b506101bc60048036038101906101b79190610f04565b610831565b005b3480156101c9575f80fd5b506101e460048036038101906101df9190610d94565b6108e5565b005b60055f9054906101000a900460ff1681565b600c818051602081018201805184825260208301602085012081835280955050505050505f91509050805f01805461022f9061112d565b80601f016020809104026020016040519081016040528092919081815260200182805461025b9061112d565b80156102a65780601f1061027d576101008083540402835291602001916102a6565b820191905f5260205f20905b81548152906001019060200180831161028957829003601f168201915b5050505050908060010180546102bb9061112d565b80601f01602080910402602001604051908101604052809291908181526020018280546102e79061112d565b80156103325780601f1061030957610100808354040283529160200191610332565b820191905f5260205f20905b81548152906001019060200180831161031557829003601f168201915b5050505050908060020180546103479061112d565b80601f01602080910402602001604051908101604052809291908181526020018280546103739061112d565b80156103be5780601f10610395576101008083540402835291602001916103be565b820191905f5260205f20905b8154815290600101906020018083116103a157829003601f168201915b5050505050908060030180546103d39061112d565b80601f01602080910402602001604051908101604052809291908181526020018280546103ff9061112d565b801561044a5780601f106104215761010080835404028352916020019161044a565b820191905f5260205f20905b81548152906001019060200180831161042d57829003601f168201915b5050505050908060040154905085565b5f6040518060a0016040528087815260200186815260200185815260200184815260200183815250905080600b876040516104959190611197565b90815260200160405180910390205f820151815f0190816104b6919061134a565b5060208201518160010190816104cc919061134a565b5060408201518160020190816104e2919061134a565b5060608201518160030190816104f8919061134a565b5060808201518160040155905050505050505050565b600b818051602081018201805184825260208301602085012081835280955050505050505f91509050805f0180546105459061112d565b80601f01602080910402602001604051908101604052809291908181526020018280546105719061112d565b80156105bc5780601f10610593576101008083540402835291602001916105bc565b820191905f5260205f20905b81548152906001019060200180831161059f57829003601f168201915b5050505050908060010180546105d19061112d565b80601f01602080910402602001604051908101604052809291908181526020018280546105fd9061112d565b80156106485780601f1061061f57610100808354040283529160200191610648565b820191905f5260205f20905b81548152906001019060200180831161062b57829003601f168201915b50505050509080600201805461065d9061112d565b80601f01602080910402602001604051908101604052809291908181526020018280546106899061112d565b80156106d45780601f106106ab576101008083540402835291602001916106d4565b820191905f5260205f20905b8154815290600101906020018083116106b757829003601f168201915b5050505050908060030180546106e99061112d565b80601f01602080910402602001604051908101604052809291908181526020018280546107159061112d565b80156107605780601f1061073757610100808354040283529160200191610760565b820191905f5260205f20905b81548152906001019060200180831161074357829003601f168201915b5050505050908060040154905085565b5f60045434146107b5576040517f08c379a00000000000000000000000000000000000000000000000000000000081526004016107ac90611463565b60405180910390fd5b335f806101000a81548173ffffffffffffffffffffffffffffffffffffffff021916908373ffffffffffffffffffffffffffffffffffffffff160217905550600160055f6101000a81548160ff0219169083151502179055905090565b61081b856108f1565b610829868686868686610a64565b505050505050565b5f6040518060a0016040528087815260200186815260200185815260200184815260200183815250905080600c8760405161086c9190611197565b90815260200160405180910390205f820151815f01908161088d919061134a565b5060208201518160010190816108a3919061134a565b5060408201518160020190816108b9919061134a565b5060608201518160030190816108cf919061134a565b5060808201518160040155905050505050505050565b6108ee81610b7b565b50565b5f60065f3373ffffffffffffffffffffffffffffffffffffffff1673ffffffffffffffffffffffffffffffffffffffff1681526020019081526020015f20600101805490501180156109865750600560065f3373ffffffffffffffffffffffffffffffffffffffff1673ffffffffffffffffffffffffffffffffffffffff1681526020019081526020015f2060010180549050105b6109c5576040517f08c379a00000000000000000000000000000000000000000000000000000000081526004016109bc906114cb565b60405180910390fd5b60065f3373ffffffffffffffffffffffffffffffffffffffff1673ffffffffffffffffffffffffffffffffffffffff1681526020019081526020015f2060010181908060018154018082558091505060019003905f5260205f20015f909190919091509081610a34919061134a565b507fc051e922a0e07b96885c299585ea0c5bb25401c0c0a8c926eaa5e7318edb472360405160405180910390a150565b6040518060c001604052808781526020018681526020018581526020018481526020018381526020018281525060085f3373ffffffffffffffffffffffffffffffffffffffff1673ffffffffffffffffffffffffffffffffffffffff1681526020019081526020015f205f820151815f019081610ae1919061134a565b506020820151816001019081610af7919061134a565b506040820151816002019081610b0d919061134a565b506060820151816003019081610b23919061134a565b506080820151816004019081610b39919061134a565b5060a082015181600501559050507f602903b4ab82b8294b982df6e30144aea8e41d3eb12b3214c2800b515ac12f9160405160405180910390a1505050505050565b8060019081610b8a919061134a565b5062015180600354610b9c9190611516565b421015610bde576040517f08c379a0000000000000000000000000000000000000000000000000000000008152600401610bd5906115b9565b60405180910390fd5b426003819055507f4c89c46a66fbb3f38e00288fb5f21bc8a41ef606fffac7a0969df3383af298ae60405160405180910390a150565b5f8115159050919050565b610c2881610c14565b82525050565b5f602082019050610c415f830184610c1f565b92915050565b5f604051905090565b5f80fd5b5f80fd5b5f80fd5b5f80fd5b5f601f19601f8301169050919050565b7f4e487b71000000000000000000000000000000000000000000000000000000005f52604160045260245ffd5b610ca682610c60565b810181811067ffffffffffffffff82111715610cc557610cc4610c70565b5b80604052505050565b5f610cd7610c47565b9050610ce38282610c9d565b919050565b5f67ffffffffffffffff821115610d0257610d01610c70565b5b610d0b82610c60565b9050602081019050919050565b828183375f83830152505050565b5f610d38610d3384610ce8565b610cce565b905082815260208101848484011115610d5457610d53610c5c565b5b610d5f848285610d18565b509392505050565b5f82601f830112610d7b57610d7a610c58565b5b8135610d8b848260208601610d26565b91505092915050565b5f60208284031215610da957610da8610c50565b5b5f82013567ffffffffffffffff811115610dc657610dc5610c54565b5b610dd284828501610d67565b91505092915050565b5f81519050919050565b5f82825260208201905092915050565b5f5b83811015610e12578082015181840152602081019050610df7565b5f8484015250505050565b5f610e2782610ddb565b610e318185610de5565b9350610e41818560208601610df5565b610e4a81610c60565b840191505092915050565b5f819050919050565b610e6781610e55565b82525050565b5f60a0820190508181035f830152610e858188610e1d565b90508181036020830152610e998187610e1d565b90508181036040830152610ead8186610e1d565b90508181036060830152610ec18185610e1d565b9050610ed06080830184610e5e565b9695505050505050565b610ee381610e55565b8114610eed575f80fd5b50565b5f81359050610efe81610eda565b92915050565b5f805f805f60a08688031215610f1d57610f1c610c50565b5b5f86013567ffffffffffffffff811115610f3a57610f39610c54565b5b610f4688828901610d67565b955050602086013567ffffffffffffffff811115610f6757610f66610c54565b5b610f7388828901610d67565b945050604086013567ffffffffffffffff811115610f9457610f93610c54565b5b610fa088828901610d67565b935050606086013567ffffffffffffffff811115610fc157610fc0610c54565b5b610fcd88828901610d67565b9250506080610fde88828901610ef0565b9150509295509295909350565b5f805f805f8060c0878903121561100557611004610c50565b5b5f87013567ffffffffffffffff81111561102257611021610c54565b5b61102e89828a01610d67565b965050602087013567ffffffffffffffff81111561104f5761104e610c54565b5b61105b89828a01610d67565b955050604087013567ffffffffffffffff81111561107c5761107b610c54565b5b61108889828a01610d67565b945050606087013567ffffffffffffffff8111156110a9576110a8610c54565b5b6110b589828a01610d67565b935050608087013567ffffffffffffffff8111156110d6576110d5610c54565b5b6110e289828a01610d67565b92505060a06110f389828a01610ef0565b9150509295509295509295565b7f4e487b71000000000000000000000000000000000000000000000000000000005f52602260045260245ffd5b5f600282049050600182168061114457607f821691505b60208210810361115757611156611100565b5b50919050565b5f81905092915050565b5f61117182610ddb565b61117b818561115d565b935061118b818560208601610df5565b80840191505092915050565b5f6111a28284611167565b915081905092915050565b5f819050815f5260205f209050919050565b5f6020601f8301049050919050565b5f82821b905092915050565b5f600883026112097fffffffffffffffffffffffffffffffffffffffffffffffffffffffffffffffff826111ce565b61121386836111ce565b95508019841693508086168417925050509392505050565b5f819050919050565b5f61124e61124961124484610e55565b61122b565b610e55565b9050919050565b5f819050919050565b61126783611234565b61127b61127382611255565b8484546111da565b825550505050565b5f90565b61128f611283565b61129a81848461125e565b505050565b5b818110156112bd576112b25f82611287565b6001810190506112a0565b5050565b601f821115611302576112d3816111ad565b6112dc846111bf565b810160208510156112eb578190505b6112ff6112f7856111bf565b83018261129f565b50505b505050565b5f82821c905092915050565b5f6113225f1984600802611307565b1980831691505092915050565b5f61133a8383611313565b9150826002028217905092915050565b61135382610ddb565b67ffffffffffffffff81111561136c5761136b610c70565b5b611376825461112d565b6113818282856112c1565b5f60209050601f8311600181146113b2575f84156113a0578287015190505b6113aa858261132f565b865550611411565b601f1984166113c0866111ad565b5f5b828110156113e7578489015182556001820191506020850194506020810190506113c2565b868310156114045784890151611400601f891682611313565b8355505b6001600288020188555050505b505050505050565b7f73616c646f20496e737566696369656e746500000000000000000000000000005f82015250565b5f61144d601283610de5565b915061145882611419565b602082019050919050565b5f6020820190508181035f83015261147a81611441565b9050919050565b7f4c696d69746520556c7472617061737361646f000000000000000000000000005f82015250565b5f6114b5601383610de5565b91506114c082611481565b602082019050919050565b5f6020820190508181035f8301526114e2816114a9565b9050919050565b7f4e487b71000000000000000000000000000000000000000000000000000000005f52601160045260245ffd5b5f61152082610e55565b915061152b83610e55565b9250828201905080821115611543576115426114e9565b5b92915050565b7f4167756172646520756d20646961207061726120706f73746172206e6f76616d5f8201527f656e74652e000000000000000000000000000000000000000000000000000000602082015250565b5f6115a3602583610de5565b91506115ae82611549565b604082019050919050565b5f6020820190508181035f8301526115d081611597565b905091905056fea26469706673582212207dbec93a8210018f18133085a7a206d7e3a211a5c454c483a0f77ed56778430264736f6c63430008160033",
					"opcodes": "PUSH1 0x80 PUSH1 0x40 MSTORE PUSH1 0xA PUSH1 0x4 SSTORE PUSH0 PUSH1 0x5 PUSH0 PUSH2 0x100 EXP DUP2 SLOAD DUP2 PUSH1 0xFF MUL NOT AND SWAP1 DUP4 ISZERO ISZERO MUL OR SWAP1 SSTORE POP CALLVALUE DUP1 ISZERO PUSH2 0x2D JUMPI PUSH0 DUP1 REVERT JUMPDEST POP PUSH2 0x160D DUP1 PUSH2 0x3B PUSH0 CODECOPY PUSH0 RETURN INVALID PUSH1 0x80 PUSH1 0x40 MSTORE PUSH1 0x4 CALLDATASIZE LT PUSH2 0x7A JUMPI PUSH0 CALLDATALOAD PUSH1 0xE0 SHR DUP1 PUSH4 0x90628E69 GT PUSH2 0x4D JUMPI DUP1 PUSH4 0x90628E69 EQ PUSH2 0x150 JUMPI DUP1 PUSH4 0x972DAC07 EQ PUSH2 0x16E JUMPI DUP1 PUSH4 0xDBBE8659 EQ PUSH2 0x196 JUMPI DUP1 PUSH4 0xEA78AABA EQ PUSH2 0x1BE JUMPI PUSH2 0x7A JUMP JUMPDEST DUP1 PUSH4 0x396555AD EQ PUSH2 0x7E JUMPI DUP1 PUSH4 0x54C946A5 EQ PUSH2 0xA8 JUMPI DUP1 PUSH4 0x57652F2A EQ PUSH2 0xE8 JUMPI DUP1 PUSH4 0x74A69179 EQ PUSH2 0x110 JUMPI JUMPDEST PUSH0 DUP1 REVERT JUMPDEST CALLVALUE DUP1 ISZERO PUSH2 0x89 JUMPI PUSH0 DUP1 REVERT JUMPDEST POP PUSH2 0x92 PUSH2 0x1E6 JUMP JUMPDEST PUSH1 0x40 MLOAD PUSH2 0x9F SWAP2 SWAP1 PUSH2 0xC2E JUMP JUMPDEST PUSH1 0x40 MLOAD DUP1 SWAP2 SUB SWAP1 RETURN JUMPDEST CALLVALUE DUP1 ISZERO PUSH2 0xB3 JUMPI PUSH0 DUP1 REVERT JUMPDEST POP PUSH2 0xCE PUSH1 0x4 DUP1 CALLDATASIZE SUB DUP2 ADD SWAP1 PUSH2 0xC9 SWAP2 SWAP1 PUSH2 0xD94 JUMP JUMPDEST PUSH2 0x1F8 JUMP JUMPDEST PUSH1 0x40 MLOAD PUSH2 0xDF SWAP6 SWAP5 SWAP4 SWAP3 SWAP2 SWAP1 PUSH2 0xE6D JUMP JUMPDEST PUSH1 0x40 MLOAD DUP1 SWAP2 SUB SWAP1 RETURN JUMPDEST CALLVALUE DUP1 ISZERO PUSH2 0xF3 JUMPI PUSH0 DUP1 REVERT JUMPDEST POP PUSH2 0x10E PUSH1 0x4 DUP1 CALLDATASIZE SUB DUP2 ADD SWAP1 PUSH2 0x109 SWAP2 SWAP1 PUSH2 0xF04 JUMP JUMPDEST PUSH2 0x45A JUMP JUMPDEST STOP JUMPDEST CALLVALUE DUP1 ISZERO PUSH2 0x11B JUMPI PUSH0 DUP1 REVERT JUMPDEST POP PUSH2 0x136 PUSH1 0x4 DUP1 CALLDATASIZE SUB DUP2 ADD SWAP1 PUSH2 0x131 SWAP2 SWAP1 PUSH2 0xD94 JUMP JUMPDEST PUSH2 0x50E JUMP JUMPDEST PUSH1 0x40 MLOAD PUSH2 0x147 SWAP6 SWAP5 SWAP4 SWAP3 SWAP2 SWAP1 PUSH2 0xE6D JUMP JUMPDEST PUSH1 0x40 MLOAD DUP1 SWAP2 SUB SWAP1 RETURN JUMPDEST PUSH2 0x158 PUSH2 0x770 JUMP JUMPDEST PUSH1 0x40 MLOAD PUSH2 0x165 SWAP2 SWAP1 PUSH2 0xC2E JUMP JUMPDEST PUSH1 0x40 MLOAD DUP1 SWAP2 SUB SWAP1 RETURN JUMPDEST CALLVALUE DUP1 ISZERO PUSH2 0x179 JUMPI PUSH0 DUP1 REVERT JUMPDEST POP PUSH2 0x194 PUSH1 0x4 DUP1 CALLDATASIZE SUB DUP2 ADD SWAP1 PUSH2 0x18F SWAP2 SWAP1 PUSH2 0xFEB JUMP JUMPDEST PUSH2 0x812 JUMP JUMPDEST STOP JUMPDEST CALLVALUE DUP1 ISZERO PUSH2 0x1A1 JUMPI PUSH0 DUP1 REVERT JUMPDEST POP PUSH2 0x1BC PUSH1 0x4 DUP1 CALLDATASIZE SUB DUP2 ADD SWAP1 PUSH2 0x1B7 SWAP2 SWAP1 PUSH2 0xF04 JUMP JUMPDEST PUSH2 0x831 JUMP JUMPDEST STOP JUMPDEST CALLVALUE DUP1 ISZERO PUSH2 0x1C9 JUMPI PUSH0 DUP1 REVERT JUMPDEST POP PUSH2 0x1E4 PUSH1 0x4 DUP1 CALLDATASIZE SUB DUP2 ADD SWAP1 PUSH2 0x1DF SWAP2 SWAP1 PUSH2 0xD94 JUMP JUMPDEST PUSH2 0x8E5 JUMP JUMPDEST STOP JUMPDEST PUSH1 0x5 PUSH0 SWAP1 SLOAD SWAP1 PUSH2 0x100 EXP SWAP1 DIV PUSH1 0xFF AND DUP2 JUMP JUMPDEST PUSH1 0xC DUP2 DUP1 MLOAD PUSH1 0x20 DUP2 ADD DUP3 ADD DUP1 MLOAD DUP5 DUP3 MSTORE PUSH1 0x20 DUP4 ADD PUSH1 0x20 DUP6 ADD KECCAK256 DUP2 DUP4 MSTORE DUP1 SWAP6 POP POP POP POP POP POP PUSH0 SWAP2 POP SWAP1 POP DUP1 PUSH0 ADD DUP1 SLOAD PUSH2 0x22F SWAP1 PUSH2 0x112D JUMP JUMPDEST DUP1 PUSH1 0x1F ADD PUSH1 0x20 DUP1 SWAP2 DIV MUL PUSH1 0x20 ADD PUSH1 0x40 MLOAD SWAP1 DUP2 ADD PUSH1 0x40 MSTORE DUP1 SWAP3 SWAP2 SWAP1 DUP2 DUP2 MSTORE PUSH1 0x20 ADD DUP3 DUP1 SLOAD PUSH2 0x25B SWAP1 PUSH2 0x112D JUMP JUMPDEST DUP1 ISZERO PUSH2 0x2A6 JUMPI DUP1 PUSH1 0x1F LT PUSH2 0x27D JUMPI PUSH2 0x100 DUP1 DUP4 SLOAD DIV MUL DUP4 MSTORE SWAP2 PUSH1 0x20 ADD SWAP2 PUSH2 0x2A6 JUMP JUMPDEST DUP3 ADD SWAP2 SWAP1 PUSH0 MSTORE PUSH1 0x20 PUSH0 KECCAK256 SWAP1 JUMPDEST DUP2 SLOAD DUP2 MSTORE SWAP1 PUSH1 0x1 ADD SWAP1 PUSH1 0x20 ADD DUP1 DUP4 GT PUSH2 0x289 JUMPI DUP3 SWAP1 SUB PUSH1 0x1F AND DUP3 ADD SWAP2 JUMPDEST POP POP POP POP POP SWAP1 DUP1 PUSH1 0x1 ADD DUP1 SLOAD PUSH2 0x2BB SWAP1 PUSH2 0x112D JUMP JUMPDEST DUP1 PUSH1 0x1F ADD PUSH1 0x20 DUP1 SWAP2 DIV MUL PUSH1 0x20 ADD PUSH1 0x40 MLOAD SWAP1 DUP2 ADD PUSH1 0x40 MSTORE DUP1 SWAP3 SWAP2 SWAP1 DUP2 DUP2 MSTORE PUSH1 0x20 ADD DUP3 DUP1 SLOAD PUSH2 0x2E7 SWAP1 PUSH2 0x112D JUMP JUMPDEST DUP1 ISZERO PUSH2 0x332 JUMPI DUP1 PUSH1 0x1F LT PUSH2 0x309 JUMPI PUSH2 0x100 DUP1 DUP4 SLOAD DIV MUL DUP4 MSTORE SWAP2 PUSH1 0x20 ADD SWAP2 PUSH2 0x332 JUMP JUMPDEST DUP3 ADD SWAP2 SWAP1 PUSH0 MSTORE PUSH1 0x20 PUSH0 KECCAK256 SWAP1 JUMPDEST DUP2 SLOAD DUP2 MSTORE SWAP1 PUSH1 0x1 ADD SWAP1 PUSH1 0x20 ADD DUP1 DUP4 GT PUSH2 0x315 JUMPI DUP3 SWAP1 SUB PUSH1 0x1F AND DUP3 ADD SWAP2 JUMPDEST POP POP POP POP POP SWAP1 DUP1 PUSH1 0x2 ADD DUP1 SLOAD PUSH2 0x347 SWAP1 PUSH2 0x112D JUMP JUMPDEST DUP1 PUSH1 0x1F ADD PUSH1 0x20 DUP1 SWAP2 DIV MUL PUSH1 0x20 ADD PUSH1 0x40 MLOAD SWAP1 DUP2 ADD PUSH1 0x40 MSTORE DUP1 SWAP3 SWAP2 SWAP1 DUP2 DUP2 MSTORE PUSH1 0x20 ADD DUP3 DUP1 SLOAD PUSH2 0x373 SWAP1 PUSH2 0x112D JUMP JUMPDEST DUP1 ISZERO PUSH2 0x3BE JUMPI DUP1 PUSH1 0x1F LT PUSH2 0x395 JUMPI PUSH2 0x100 DUP1 DUP4 SLOAD DIV MUL DUP4 MSTORE SWAP2 PUSH1 0x20 ADD SWAP2 PUSH2 0x3BE JUMP JUMPDEST DUP3 ADD SWAP2 SWAP1 PUSH0 MSTORE PUSH1 0x20 PUSH0 KECCAK256 SWAP1 JUMPDEST DUP2 SLOAD DUP2 MSTORE SWAP1 PUSH1 0x1 ADD SWAP1 PUSH1 0x20 ADD DUP1 DUP4 GT PUSH2 0x3A1 JUMPI DUP3 SWAP1 SUB PUSH1 0x1F AND DUP3 ADD SWAP2 JUMPDEST POP POP POP POP POP SWAP1 DUP1 PUSH1 0x3 ADD DUP1 SLOAD PUSH2 0x3D3 SWAP1 PUSH2 0x112D JUMP JUMPDEST DUP1 PUSH1 0x1F ADD PUSH1 0x20 DUP1 SWAP2 DIV MUL PUSH1 0x20 ADD PUSH1 0x40 MLOAD SWAP1 DUP2 ADD PUSH1 0x40 MSTORE DUP1 SWAP3 SWAP2 SWAP1 DUP2 DUP2 MSTORE PUSH1 0x20 ADD DUP3 DUP1 SLOAD PUSH2 0x3FF SWAP1 PUSH2 0x112D JUMP JUMPDEST DUP1 ISZERO PUSH2 0x44A JUMPI DUP1 PUSH1 0x1F LT PUSH2 0x421 JUMPI PUSH2 0x100 DUP1 DUP4 SLOAD DIV MUL DUP4 MSTORE SWAP2 PUSH1 0x20 ADD SWAP2 PUSH2 0x44A JUMP JUMPDEST DUP3 ADD SWAP2 SWAP1 PUSH0 MSTORE PUSH1 0x20 PUSH0 KECCAK256 SWAP1 JUMPDEST DUP2 SLOAD DUP2 MSTORE SWAP1 PUSH1 0x1 ADD SWAP1 PUSH1 0x20 ADD DUP1 DUP4 GT PUSH2 0x42D JUMPI DUP3 SWAP1 SUB PUSH1 0x1F AND DUP3 ADD SWAP2 JUMPDEST POP POP POP POP POP SWAP1 DUP1 PUSH1 0x4 ADD SLOAD SWAP1 POP DUP6 JUMP JUMPDEST PUSH0 PUSH1 0x40 MLOAD DUP1 PUSH1 0xA0 ADD PUSH1 0x40 MSTORE DUP1 DUP8 DUP2 MSTORE PUSH1 0x20 ADD DUP7 DUP2 MSTORE PUSH1 0x20 ADD DUP6 DUP2 MSTORE PUSH1 0x20 ADD DUP5 DUP2 MSTORE PUSH1 0x20 ADD DUP4 DUP2 MSTORE POP SWAP1 POP DUP1 PUSH1 0xB DUP8 PUSH1 0x40 MLOAD PUSH2 0x495 SWAP2 SWAP1 PUSH2 0x1197 JUMP JUMPDEST SWAP1 DUP2 MSTORE PUSH1 0x20 ADD PUSH1 0x40 MLOAD DUP1 SWAP2 SUB SWAP1 KECCAK256 PUSH0 DUP3 ADD MLOAD DUP2 PUSH0 ADD SWAP1 DUP2 PUSH2 0x4B6 SWAP2 SWAP1 PUSH2 0x134A JUMP JUMPDEST POP PUSH1 0x20 DUP3 ADD MLOAD DUP2 PUSH1 0x1 ADD SWAP1 DUP2 PUSH2 0x4CC SWAP2 SWAP1 PUSH2 0x134A JUMP JUMPDEST POP PUSH1 0x40 DUP3 ADD MLOAD DUP2 PUSH1 0x2 ADD SWAP1 DUP2 PUSH2 0x4E2 SWAP2 SWAP1 PUSH2 0x134A JUMP JUMPDEST POP PUSH1 0x60 DUP3 ADD MLOAD DUP2 PUSH1 0x3 ADD SWAP1 DUP2 PUSH2 0x4F8 SWAP2 SWAP1 PUSH2 0x134A JUMP JUMPDEST POP PUSH1 0x80 DUP3 ADD MLOAD DUP2 PUSH1 0x4 ADD SSTORE SWAP1 POP POP POP POP POP POP POP POP JUMP JUMPDEST PUSH1 0xB DUP2 DUP1 MLOAD PUSH1 0x20 DUP2 ADD DUP3 ADD DUP1 MLOAD DUP5 DUP3 MSTORE PUSH1 0x20 DUP4 ADD PUSH1 0x20 DUP6 ADD KECCAK256 DUP2 DUP4 MSTORE DUP1 SWAP6 POP POP POP POP POP POP PUSH0 SWAP2 POP SWAP1 POP DUP1 PUSH0 ADD DUP1 SLOAD PUSH2 0x545 SWAP1 PUSH2 0x112D JUMP JUMPDEST DUP1 PUSH1 0x1F ADD PUSH1 0x20 DUP1 SWAP2 DIV MUL PUSH1 0x20 ADD PUSH1 0x40 MLOAD SWAP1 DUP2 ADD PUSH1 0x40 MSTORE DUP1 SWAP3 SWAP2 SWAP1 DUP2 DUP2 MSTORE PUSH1 0x20 ADD DUP3 DUP1 SLOAD PUSH2 0x571 SWAP1 PUSH2 0x112D JUMP JUMPDEST DUP1 ISZERO PUSH2 0x5BC JUMPI DUP1 PUSH1 0x1F LT PUSH2 0x593 JUMPI PUSH2 0x100 DUP1 DUP4 SLOAD DIV MUL DUP4 MSTORE SWAP2 PUSH1 0x20 ADD SWAP2 PUSH2 0x5BC JUMP JUMPDEST DUP3 ADD SWAP2 SWAP1 PUSH0 MSTORE PUSH1 0x20 PUSH0 KECCAK256 SWAP1 JUMPDEST DUP2 SLOAD DUP2 MSTORE SWAP1 PUSH1 0x1 ADD SWAP1 PUSH1 0x20 ADD DUP1 DUP4 GT PUSH2 0x59F JUMPI DUP3 SWAP1 SUB PUSH1 0x1F AND DUP3 ADD SWAP2 JUMPDEST POP POP POP POP POP SWAP1 DUP1 PUSH1 0x1 ADD DUP1 SLOAD PUSH2 0x5D1 SWAP1 PUSH2 0x112D JUMP JUMPDEST DUP1 PUSH1 0x1F ADD PUSH1 0x20 DUP1 SWAP2 DIV MUL PUSH1 0x20 ADD PUSH1 0x40 MLOAD SWAP1 DUP2 ADD PUSH1 0x40 MSTORE DUP1 SWAP3 SWAP2 SWAP1 DUP2 DUP2 MSTORE PUSH1 0x20 ADD DUP3 DUP1 SLOAD PUSH2 0x5FD SWAP1 PUSH2 0x112D JUMP JUMPDEST DUP1 ISZERO PUSH2 0x648 JUMPI DUP1 PUSH1 0x1F LT PUSH2 0x61F JUMPI PUSH2 0x100 DUP1 DUP4 SLOAD DIV MUL DUP4 MSTORE SWAP2 PUSH1 0x20 ADD SWAP2 PUSH2 0x648 JUMP JUMPDEST DUP3 ADD SWAP2 SWAP1 PUSH0 MSTORE PUSH1 0x20 PUSH0 KECCAK256 SWAP1 JUMPDEST DUP2 SLOAD DUP2 MSTORE SWAP1 PUSH1 0x1 ADD SWAP1 PUSH1 0x20 ADD DUP1 DUP4 GT PUSH2 0x62B JUMPI DUP3 SWAP1 SUB PUSH1 0x1F AND DUP3 ADD SWAP2 JUMPDEST POP POP POP POP POP SWAP1 DUP1 PUSH1 0x2 ADD DUP1 SLOAD PUSH2 0x65D SWAP1 PUSH2 0x112D JUMP JUMPDEST DUP1 PUSH1 0x1F ADD PUSH1 0x20 DUP1 SWAP2 DIV MUL PUSH1 0x20 ADD PUSH1 0x40 MLOAD SWAP1 DUP2 ADD PUSH1 0x40 MSTORE DUP1 SWAP3 SWAP2 SWAP1 DUP2 DUP2 MSTORE PUSH1 0x20 ADD DUP3 DUP1 SLOAD PUSH2 0x689 SWAP1 PUSH2 0x112D JUMP JUMPDEST DUP1 ISZERO PUSH2 0x6D4 JUMPI DUP1 PUSH1 0x1F LT PUSH2 0x6AB JUMPI PUSH2 0x100 DUP1 DUP4 SLOAD DIV MUL DUP4 MSTORE SWAP2 PUSH1 0x20 ADD SWAP2 PUSH2 0x6D4 JUMP JUMPDEST DUP3 ADD SWAP2 SWAP1 PUSH0 MSTORE PUSH1 0x20 PUSH0 KECCAK256 SWAP1 JUMPDEST DUP2 SLOAD DUP2 MSTORE SWAP1 PUSH1 0x1 ADD SWAP1 PUSH1 0x20 ADD DUP1 DUP4 GT PUSH2 0x6B7 JUMPI DUP3 SWAP1 SUB PUSH1 0x1F AND DUP3 ADD SWAP2 JUMPDEST POP POP POP POP POP SWAP1 DUP1 PUSH1 0x3 ADD DUP1 SLOAD PUSH2 0x6E9 SWAP1 PUSH2 0x112D JUMP JUMPDEST DUP1 PUSH1 0x1F ADD PUSH1 0x20 DUP1 SWAP2 DIV MUL PUSH1 0x20 ADD PUSH1 0x40 MLOAD SWAP1 DUP2 ADD PUSH1 0x40 MSTORE DUP1 SWAP3 SWAP2 SWAP1 DUP2 DUP2 MSTORE PUSH1 0x20 ADD DUP3 DUP1 SLOAD PUSH2 0x715 SWAP1 PUSH2 0x112D JUMP JUMPDEST DUP1 ISZERO PUSH2 0x760 JUMPI DUP1 PUSH1 0x1F LT PUSH2 0x737 JUMPI PUSH2 0x100 DUP1 DUP4 SLOAD DIV MUL DUP4 MSTORE SWAP2 PUSH1 0x20 ADD SWAP2 PUSH2 0x760 JUMP JUMPDEST DUP3 ADD SWAP2 SWAP1 PUSH0 MSTORE PUSH1 0x20 PUSH0 KECCAK256 SWAP1 JUMPDEST DUP2 SLOAD DUP2 MSTORE SWAP1 PUSH1 0x1 ADD SWAP1 PUSH1 0x20 ADD DUP1 DUP4 GT PUSH2 0x743 JUMPI DUP3 SWAP1 SUB PUSH1 0x1F AND DUP3 ADD SWAP2 JUMPDEST POP POP POP POP POP SWAP1 DUP1 PUSH1 0x4 ADD SLOAD SWAP1 POP DUP6 JUMP JUMPDEST PUSH0 PUSH1 0x4 SLOAD CALLVALUE EQ PUSH2 0x7B5 JUMPI PUSH1 0x40 MLOAD PUSH32 0x8C379A000000000000000000000000000000000000000000000000000000000 DUP2 MSTORE PUSH1 0x4 ADD PUSH2 0x7AC SWAP1 PUSH2 0x1463 JUMP JUMPDEST PUSH1 0x40 MLOAD DUP1 SWAP2 SUB SWAP1 REVERT JUMPDEST CALLER PUSH0 DUP1 PUSH2 0x100 EXP DUP2 SLOAD DUP2 PUSH20 0xFFFFFFFFFFFFFFFFFFFFFFFFFFFFFFFFFFFFFFFF MUL NOT AND SWAP1 DUP4 PUSH20 0xFFFFFFFFFFFFFFFFFFFFFFFFFFFFFFFFFFFFFFFF AND MUL OR SWAP1 SSTORE POP PUSH1 0x1 PUSH1 0x5 PUSH0 PUSH2 0x100 EXP DUP2 SLOAD DUP2 PUSH1 0xFF MUL NOT AND SWAP1 DUP4 ISZERO ISZERO MUL OR SWAP1 SSTORE SWAP1 POP SWAP1 JUMP JUMPDEST PUSH2 0x81B DUP6 PUSH2 0x8F1 JUMP JUMPDEST PUSH2 0x829 DUP7 DUP7 DUP7 DUP7 DUP7 DUP7 PUSH2 0xA64 JUMP JUMPDEST POP POP POP POP POP POP JUMP JUMPDEST PUSH0 PUSH1 0x40 MLOAD DUP1 PUSH1 0xA0 ADD PUSH1 0x40 MSTORE DUP1 DUP8 DUP2 MSTORE PUSH1 0x20 ADD DUP7 DUP2 MSTORE PUSH1 0x20 ADD DUP6 DUP2 MSTORE PUSH1 0x20 ADD DUP5 DUP2 MSTORE PUSH1 0x20 ADD DUP4 DUP2 MSTORE POP SWAP1 POP DUP1 PUSH1 0xC DUP8 PUSH1 0x40 MLOAD PUSH2 0x86C SWAP2 SWAP1 PUSH2 0x1197 JUMP JUMPDEST SWAP1 DUP2 MSTORE PUSH1 0x20 ADD PUSH1 0x40 MLOAD DUP1 SWAP2 SUB SWAP1 KECCAK256 PUSH0 DUP3 ADD MLOAD DUP2 PUSH0 ADD SWAP1 DUP2 PUSH2 0x88D SWAP2 SWAP1 PUSH2 0x134A JUMP JUMPDEST POP PUSH1 0x20 DUP3 ADD MLOAD DUP2 PUSH1 0x1 ADD SWAP1 DUP2 PUSH2 0x8A3 SWAP2 SWAP1 PUSH2 0x134A JUMP JUMPDEST POP PUSH1 0x40 DUP3 ADD MLOAD DUP2 PUSH1 0x2 ADD SWAP1 DUP2 PUSH2 0x8B9 SWAP2 SWAP1 PUSH2 0x134A JUMP JUMPDEST POP PUSH1 0x60 DUP3 ADD MLOAD DUP2 PUSH1 0x3 ADD SWAP1 DUP2 PUSH2 0x8CF SWAP2 SWAP1 PUSH2 0x134A JUMP JUMPDEST POP PUSH1 0x80 DUP3 ADD MLOAD DUP2 PUSH1 0x4 ADD SSTORE SWAP1 POP POP POP POP POP POP POP POP JUMP JUMPDEST PUSH2 0x8EE DUP2 PUSH2 0xB7B JUMP JUMPDEST POP JUMP JUMPDEST PUSH0 PUSH1 0x6 PUSH0 CALLER PUSH20 0xFFFFFFFFFFFFFFFFFFFFFFFFFFFFFFFFFFFFFFFF AND PUSH20 0xFFFFFFFFFFFFFFFFFFFFFFFFFFFFFFFFFFFFFFFF AND DUP2 MSTORE PUSH1 0x20 ADD SWAP1 DUP2 MSTORE PUSH1 0x20 ADD PUSH0 KECCAK256 PUSH1 0x1 ADD DUP1 SLOAD SWAP1 POP GT DUP1 ISZERO PUSH2 0x986 JUMPI POP PUSH1 0x5 PUSH1 0x6 PUSH0 CALLER PUSH20 0xFFFFFFFFFFFFFFFFFFFFFFFFFFFFFFFFFFFFFFFF AND PUSH20 0xFFFFFFFFFFFFFFFFFFFFFFFFFFFFFFFFFFFFFFFF AND DUP2 MSTORE PUSH1 0x20 ADD SWAP1 DUP2 MSTORE PUSH1 0x20 ADD PUSH0 KECCAK256 PUSH1 0x1 ADD DUP1 SLOAD SWAP1 POP LT JUMPDEST PUSH2 0x9C5 JUMPI PUSH1 0x40 MLOAD PUSH32 0x8C379A000000000000000000000000000000000000000000000000000000000 DUP2 MSTORE PUSH1 0x4 ADD PUSH2 0x9BC SWAP1 PUSH2 0x14CB JUMP JUMPDEST PUSH1 0x40 MLOAD DUP1 SWAP2 SUB SWAP1 REVERT JUMPDEST PUSH1 0x6 PUSH0 CALLER PUSH20 0xFFFFFFFFFFFFFFFFFFFFFFFFFFFFFFFFFFFFFFFF AND PUSH20 0xFFFFFFFFFFFFFFFFFFFFFFFFFFFFFFFFFFFFFFFF AND DUP2 MSTORE PUSH1 0x20 ADD SWAP1 DUP2 MSTORE PUSH1 0x20 ADD PUSH0 KECCAK256 PUSH1 0x1 ADD DUP2 SWAP1 DUP1 PUSH1 0x1 DUP2 SLOAD ADD DUP1 DUP3 SSTORE DUP1 SWAP2 POP POP PUSH1 0x1 SWAP1 SUB SWAP1 PUSH0 MSTORE PUSH1 0x20 PUSH0 KECCAK256 ADD PUSH0 SWAP1 SWAP2 SWAP1 SWAP2 SWAP1 SWAP2 POP SWAP1 DUP2 PUSH2 0xA34 SWAP2 SWAP1 PUSH2 0x134A JUMP JUMPDEST POP PUSH32 0xC051E922A0E07B96885C299585EA0C5BB25401C0C0A8C926EAA5E7318EDB4723 PUSH1 0x40 MLOAD PUSH1 0x40 MLOAD DUP1 SWAP2 SUB SWAP1 LOG1 POP JUMP JUMPDEST PUSH1 0x40 MLOAD DUP1 PUSH1 0xC0 ADD PUSH1 0x40 MSTORE DUP1 DUP8 DUP2 MSTORE PUSH1 0x20 ADD DUP7 DUP2 MSTORE PUSH1 0x20 ADD DUP6 DUP2 MSTORE PUSH1 0x20 ADD DUP5 DUP2 MSTORE PUSH1 0x20 ADD DUP4 DUP2 MSTORE PUSH1 0x20 ADD DUP3 DUP2 MSTORE POP PUSH1 0x8 PUSH0 CALLER PUSH20 0xFFFFFFFFFFFFFFFFFFFFFFFFFFFFFFFFFFFFFFFF AND PUSH20 0xFFFFFFFFFFFFFFFFFFFFFFFFFFFFFFFFFFFFFFFF AND DUP2 MSTORE PUSH1 0x20 ADD SWAP1 DUP2 MSTORE PUSH1 0x20 ADD PUSH0 KECCAK256 PUSH0 DUP3 ADD MLOAD DUP2 PUSH0 ADD SWAP1 DUP2 PUSH2 0xAE1 SWAP2 SWAP1 PUSH2 0x134A JUMP JUMPDEST POP PUSH1 0x20 DUP3 ADD MLOAD DUP2 PUSH1 0x1 ADD SWAP1 DUP2 PUSH2 0xAF7 SWAP2 SWAP1 PUSH2 0x134A JUMP JUMPDEST POP PUSH1 0x40 DUP3 ADD MLOAD DUP2 PUSH1 0x2 ADD SWAP1 DUP2 PUSH2 0xB0D SWAP2 SWAP1 PUSH2 0x134A JUMP JUMPDEST POP PUSH1 0x60 DUP3 ADD MLOAD DUP2 PUSH1 0x3 ADD SWAP1 DUP2 PUSH2 0xB23 SWAP2 SWAP1 PUSH2 0x134A JUMP JUMPDEST POP PUSH1 0x80 DUP3 ADD MLOAD DUP2 PUSH1 0x4 ADD SWAP1 DUP2 PUSH2 0xB39 SWAP2 SWAP1 PUSH2 0x134A JUMP JUMPDEST POP PUSH1 0xA0 DUP3 ADD MLOAD DUP2 PUSH1 0x5 ADD SSTORE SWAP1 POP POP PUSH32 0x602903B4AB82B8294B982DF6E30144AEA8E41D3EB12B3214C2800B515AC12F91 PUSH1 0x40 MLOAD PUSH1 0x40 MLOAD DUP1 SWAP2 SUB SWAP1 LOG1 POP POP POP POP POP POP JUMP JUMPDEST DUP1 PUSH1 0x1 SWAP1 DUP2 PUSH2 0xB8A SWAP2 SWAP1 PUSH2 0x134A JUMP JUMPDEST POP PUSH3 0x15180 PUSH1 0x3 SLOAD PUSH2 0xB9C SWAP2 SWAP1 PUSH2 0x1516 JUMP JUMPDEST TIMESTAMP LT ISZERO PUSH2 0xBDE JUMPI PUSH1 0x40 MLOAD PUSH32 0x8C379A000000000000000000000000000000000000000000000000000000000 DUP2 MSTORE PUSH1 0x4 ADD PUSH2 0xBD5 SWAP1 PUSH2 0x15B9 JUMP JUMPDEST PUSH1 0x40 MLOAD DUP1 SWAP2 SUB SWAP1 REVERT JUMPDEST TIMESTAMP PUSH1 0x3 DUP2 SWAP1 SSTORE POP PUSH32 0x4C89C46A66FBB3F38E00288FB5F21BC8A41EF606FFFAC7A0969DF3383AF298AE PUSH1 0x40 MLOAD PUSH1 0x40 MLOAD DUP1 SWAP2 SUB SWAP1 LOG1 POP JUMP JUMPDEST PUSH0 DUP2 ISZERO ISZERO SWAP1 POP SWAP2 SWAP1 POP JUMP JUMPDEST PUSH2 0xC28 DUP2 PUSH2 0xC14 JUMP JUMPDEST DUP3 MSTORE POP POP JUMP JUMPDEST PUSH0 PUSH1 0x20 DUP3 ADD SWAP1 POP PUSH2 0xC41 PUSH0 DUP4 ADD DUP5 PUSH2 0xC1F JUMP JUMPDEST SWAP3 SWAP2 POP POP JUMP JUMPDEST PUSH0 PUSH1 0x40 MLOAD SWAP1 POP SWAP1 JUMP JUMPDEST PUSH0 DUP1 REVERT JUMPDEST PUSH0 DUP1 REVERT JUMPDEST PUSH0 DUP1 REVERT JUMPDEST PUSH0 DUP1 REVERT JUMPDEST PUSH0 PUSH1 0x1F NOT PUSH1 0x1F DUP4 ADD AND SWAP1 POP SWAP2 SWAP1 POP JUMP JUMPDEST PUSH32 0x4E487B7100000000000000000000000000000000000000000000000000000000 PUSH0 MSTORE PUSH1 0x41 PUSH1 0x4 MSTORE PUSH1 0x24 PUSH0 REVERT JUMPDEST PUSH2 0xCA6 DUP3 PUSH2 0xC60 JUMP JUMPDEST DUP2 ADD DUP2 DUP2 LT PUSH8 0xFFFFFFFFFFFFFFFF DUP3 GT OR ISZERO PUSH2 0xCC5 JUMPI PUSH2 0xCC4 PUSH2 0xC70 JUMP JUMPDEST JUMPDEST DUP1 PUSH1 0x40 MSTORE POP POP POP JUMP JUMPDEST PUSH0 PUSH2 0xCD7 PUSH2 0xC47 JUMP JUMPDEST SWAP1 POP PUSH2 0xCE3 DUP3 DUP3 PUSH2 0xC9D JUMP JUMPDEST SWAP2 SWAP1 POP JUMP JUMPDEST PUSH0 PUSH8 0xFFFFFFFFFFFFFFFF DUP3 GT ISZERO PUSH2 0xD02 JUMPI PUSH2 0xD01 PUSH2 0xC70 JUMP JUMPDEST JUMPDEST PUSH2 0xD0B DUP3 PUSH2 0xC60 JUMP JUMPDEST SWAP1 POP PUSH1 0x20 DUP2 ADD SWAP1 POP SWAP2 SWAP1 POP JUMP JUMPDEST DUP3 DUP2 DUP4 CALLDATACOPY PUSH0 DUP4 DUP4 ADD MSTORE POP POP POP JUMP JUMPDEST PUSH0 PUSH2 0xD38 PUSH2 0xD33 DUP5 PUSH2 0xCE8 JUMP JUMPDEST PUSH2 0xCCE JUMP JUMPDEST SWAP1 POP DUP3 DUP2 MSTORE PUSH1 0x20 DUP2 ADD DUP5 DUP5 DUP5 ADD GT ISZERO PUSH2 0xD54 JUMPI PUSH2 0xD53 PUSH2 0xC5C JUMP JUMPDEST JUMPDEST PUSH2 0xD5F DUP5 DUP3 DUP6 PUSH2 0xD18 JUMP JUMPDEST POP SWAP4 SWAP3 POP POP POP JUMP JUMPDEST PUSH0 DUP3 PUSH1 0x1F DUP4 ADD SLT PUSH2 0xD7B JUMPI PUSH2 0xD7A PUSH2 0xC58 JUMP JUMPDEST JUMPDEST DUP2 CALLDATALOAD PUSH2 0xD8B DUP5 DUP3 PUSH1 0x20 DUP7 ADD PUSH2 0xD26 JUMP JUMPDEST SWAP2 POP POP SWAP3 SWAP2 POP POP JUMP JUMPDEST PUSH0 PUSH1 0x20 DUP3 DUP5 SUB SLT ISZERO PUSH2 0xDA9 JUMPI PUSH2 0xDA8 PUSH2 0xC50 JUMP JUMPDEST JUMPDEST PUSH0 DUP3 ADD CALLDATALOAD PUSH8 0xFFFFFFFFFFFFFFFF DUP2 GT ISZERO PUSH2 0xDC6 JUMPI PUSH2 0xDC5 PUSH2 0xC54 JUMP JUMPDEST JUMPDEST PUSH2 0xDD2 DUP5 DUP3 DUP6 ADD PUSH2 0xD67 JUMP JUMPDEST SWAP2 POP POP SWAP3 SWAP2 POP POP JUMP JUMPDEST PUSH0 DUP2 MLOAD SWAP1 POP SWAP2 SWAP1 POP JUMP JUMPDEST PUSH0 DUP3 DUP3 MSTORE PUSH1 0x20 DUP3 ADD SWAP1 POP SWAP3 SWAP2 POP POP JUMP JUMPDEST PUSH0 JUMPDEST DUP4 DUP2 LT ISZERO PUSH2 0xE12 JUMPI DUP1 DUP3 ADD MLOAD DUP2 DUP5 ADD MSTORE PUSH1 0x20 DUP2 ADD SWAP1 POP PUSH2 0xDF7 JUMP JUMPDEST PUSH0 DUP5 DUP5 ADD MSTORE POP POP POP POP JUMP JUMPDEST PUSH0 PUSH2 0xE27 DUP3 PUSH2 0xDDB JUMP JUMPDEST PUSH2 0xE31 DUP2 DUP6 PUSH2 0xDE5 JUMP JUMPDEST SWAP4 POP PUSH2 0xE41 DUP2 DUP6 PUSH1 0x20 DUP7 ADD PUSH2 0xDF5 JUMP JUMPDEST PUSH2 0xE4A DUP2 PUSH2 0xC60 JUMP JUMPDEST DUP5 ADD SWAP2 POP POP SWAP3 SWAP2 POP POP JUMP JUMPDEST PUSH0 DUP2 SWAP1 POP SWAP2 SWAP1 POP JUMP JUMPDEST PUSH2 0xE67 DUP2 PUSH2 0xE55 JUMP JUMPDEST DUP3 MSTORE POP POP JUMP JUMPDEST PUSH0 PUSH1 0xA0 DUP3 ADD SWAP1 POP DUP2 DUP2 SUB PUSH0 DUP4 ADD MSTORE PUSH2 0xE85 DUP2 DUP9 PUSH2 0xE1D JUMP JUMPDEST SWAP1 POP DUP2 DUP2 SUB PUSH1 0x20 DUP4 ADD MSTORE PUSH2 0xE99 DUP2 DUP8 PUSH2 0xE1D JUMP JUMPDEST SWAP1 POP DUP2 DUP2 SUB PUSH1 0x40 DUP4 ADD MSTORE PUSH2 0xEAD DUP2 DUP7 PUSH2 0xE1D JUMP JUMPDEST SWAP1 POP DUP2 DUP2 SUB PUSH1 0x60 DUP4 ADD MSTORE PUSH2 0xEC1 DUP2 DUP6 PUSH2 0xE1D JUMP JUMPDEST SWAP1 POP PUSH2 0xED0 PUSH1 0x80 DUP4 ADD DUP5 PUSH2 0xE5E JUMP JUMPDEST SWAP7 SWAP6 POP POP POP POP POP POP JUMP JUMPDEST PUSH2 0xEE3 DUP2 PUSH2 0xE55 JUMP JUMPDEST DUP2 EQ PUSH2 0xEED JUMPI PUSH0 DUP1 REVERT JUMPDEST POP JUMP JUMPDEST PUSH0 DUP2 CALLDATALOAD SWAP1 POP PUSH2 0xEFE DUP2 PUSH2 0xEDA JUMP JUMPDEST SWAP3 SWAP2 POP POP JUMP JUMPDEST PUSH0 DUP1 PUSH0 DUP1 PUSH0 PUSH1 0xA0 DUP7 DUP9 SUB SLT ISZERO PUSH2 0xF1D JUMPI PUSH2 0xF1C PUSH2 0xC50 JUMP JUMPDEST JUMPDEST PUSH0 DUP7 ADD CALLDATALOAD PUSH8 0xFFFFFFFFFFFFFFFF DUP2 GT ISZERO PUSH2 0xF3A JUMPI PUSH2 0xF39 PUSH2 0xC54 JUMP JUMPDEST JUMPDEST PUSH2 0xF46 DUP9 DUP3 DUP10 ADD PUSH2 0xD67 JUMP JUMPDEST SWAP6 POP POP PUSH1 0x20 DUP7 ADD CALLDATALOAD PUSH8 0xFFFFFFFFFFFFFFFF DUP2 GT ISZERO PUSH2 0xF67 JUMPI PUSH2 0xF66 PUSH2 0xC54 JUMP JUMPDEST JUMPDEST PUSH2 0xF73 DUP9 DUP3 DUP10 ADD PUSH2 0xD67 JUMP JUMPDEST SWAP5 POP POP PUSH1 0x40 DUP7 ADD CALLDATALOAD PUSH8 0xFFFFFFFFFFFFFFFF DUP2 GT ISZERO PUSH2 0xF94 JUMPI PUSH2 0xF93 PUSH2 0xC54 JUMP JUMPDEST JUMPDEST PUSH2 0xFA0 DUP9 DUP3 DUP10 ADD PUSH2 0xD67 JUMP JUMPDEST SWAP4 POP POP PUSH1 0x60 DUP7 ADD CALLDATALOAD PUSH8 0xFFFFFFFFFFFFFFFF DUP2 GT ISZERO PUSH2 0xFC1 JUMPI PUSH2 0xFC0 PUSH2 0xC54 JUMP JUMPDEST JUMPDEST PUSH2 0xFCD DUP9 DUP3 DUP10 ADD PUSH2 0xD67 JUMP JUMPDEST SWAP3 POP POP PUSH1 0x80 PUSH2 0xFDE DUP9 DUP3 DUP10 ADD PUSH2 0xEF0 JUMP JUMPDEST SWAP2 POP POP SWAP3 SWAP6 POP SWAP3 SWAP6 SWAP1 SWAP4 POP JUMP JUMPDEST PUSH0 DUP1 PUSH0 DUP1 PUSH0 DUP1 PUSH1 0xC0 DUP8 DUP10 SUB SLT ISZERO PUSH2 0x1005 JUMPI PUSH2 0x1004 PUSH2 0xC50 JUMP JUMPDEST JUMPDEST PUSH0 DUP8 ADD CALLDATALOAD PUSH8 0xFFFFFFFFFFFFFFFF DUP2 GT ISZERO PUSH2 0x1022 JUMPI PUSH2 0x1021 PUSH2 0xC54 JUMP JUMPDEST JUMPDEST PUSH2 0x102E DUP10 DUP3 DUP11 ADD PUSH2 0xD67 JUMP JUMPDEST SWAP7 POP POP PUSH1 0x20 DUP8 ADD CALLDATALOAD PUSH8 0xFFFFFFFFFFFFFFFF DUP2 GT ISZERO PUSH2 0x104F JUMPI PUSH2 0x104E PUSH2 0xC54 JUMP JUMPDEST JUMPDEST PUSH2 0x105B DUP10 DUP3 DUP11 ADD PUSH2 0xD67 JUMP JUMPDEST SWAP6 POP POP PUSH1 0x40 DUP8 ADD CALLDATALOAD PUSH8 0xFFFFFFFFFFFFFFFF DUP2 GT ISZERO PUSH2 0x107C JUMPI PUSH2 0x107B PUSH2 0xC54 JUMP JUMPDEST JUMPDEST PUSH2 0x1088 DUP10 DUP3 DUP11 ADD PUSH2 0xD67 JUMP JUMPDEST SWAP5 POP POP PUSH1 0x60 DUP8 ADD CALLDATALOAD PUSH8 0xFFFFFFFFFFFFFFFF DUP2 GT ISZERO PUSH2 0x10A9 JUMPI PUSH2 0x10A8 PUSH2 0xC54 JUMP JUMPDEST JUMPDEST PUSH2 0x10B5 DUP10 DUP3 DUP11 ADD PUSH2 0xD67 JUMP JUMPDEST SWAP4 POP POP PUSH1 0x80 DUP8 ADD CALLDATALOAD PUSH8 0xFFFFFFFFFFFFFFFF DUP2 GT ISZERO PUSH2 0x10D6 JUMPI PUSH2 0x10D5 PUSH2 0xC54 JUMP JUMPDEST JUMPDEST PUSH2 0x10E2 DUP10 DUP3 DUP11 ADD PUSH2 0xD67 JUMP JUMPDEST SWAP3 POP POP PUSH1 0xA0 PUSH2 0x10F3 DUP10 DUP3 DUP11 ADD PUSH2 0xEF0 JUMP JUMPDEST SWAP2 POP POP SWAP3 SWAP6 POP SWAP3 SWAP6 POP SWAP3 SWAP6 JUMP JUMPDEST PUSH32 0x4E487B7100000000000000000000000000000000000000000000000000000000 PUSH0 MSTORE PUSH1 0x22 PUSH1 0x4 MSTORE PUSH1 0x24 PUSH0 REVERT JUMPDEST PUSH0 PUSH1 0x2 DUP3 DIV SWAP1 POP PUSH1 0x1 DUP3 AND DUP1 PUSH2 0x1144 JUMPI PUSH1 0x7F DUP3 AND SWAP2 POP JUMPDEST PUSH1 0x20 DUP3 LT DUP2 SUB PUSH2 0x1157 JUMPI PUSH2 0x1156 PUSH2 0x1100 JUMP JUMPDEST JUMPDEST POP SWAP2 SWAP1 POP JUMP JUMPDEST PUSH0 DUP2 SWAP1 POP SWAP3 SWAP2 POP POP JUMP JUMPDEST PUSH0 PUSH2 0x1171 DUP3 PUSH2 0xDDB JUMP JUMPDEST PUSH2 0x117B DUP2 DUP6 PUSH2 0x115D JUMP JUMPDEST SWAP4 POP PUSH2 0x118B DUP2 DUP6 PUSH1 0x20 DUP7 ADD PUSH2 0xDF5 JUMP JUMPDEST DUP1 DUP5 ADD SWAP2 POP POP SWAP3 SWAP2 POP POP JUMP JUMPDEST PUSH0 PUSH2 0x11A2 DUP3 DUP5 PUSH2 0x1167 JUMP JUMPDEST SWAP2 POP DUP2 SWAP1 POP SWAP3 SWAP2 POP POP JUMP JUMPDEST PUSH0 DUP2 SWAP1 POP DUP2 PUSH0 MSTORE PUSH1 0x20 PUSH0 KECCAK256 SWAP1 POP SWAP2 SWAP1 POP JUMP JUMPDEST PUSH0 PUSH1 0x20 PUSH1 0x1F DUP4 ADD DIV SWAP1 POP SWAP2 SWAP1 POP JUMP JUMPDEST PUSH0 DUP3 DUP3 SHL SWAP1 POP SWAP3 SWAP2 POP POP JUMP JUMPDEST PUSH0 PUSH1 0x8 DUP4 MUL PUSH2 0x1209 PUSH32 0xFFFFFFFFFFFFFFFFFFFFFFFFFFFFFFFFFFFFFFFFFFFFFFFFFFFFFFFFFFFFFFFF DUP3 PUSH2 0x11CE JUMP JUMPDEST PUSH2 0x1213 DUP7 DUP4 PUSH2 0x11CE JUMP JUMPDEST SWAP6 POP DUP1 NOT DUP5 AND SWAP4 POP DUP1 DUP7 AND DUP5 OR SWAP3 POP POP POP SWAP4 SWAP3 POP POP POP JUMP JUMPDEST PUSH0 DUP2 SWAP1 POP SWAP2 SWAP1 POP JUMP JUMPDEST PUSH0 PUSH2 0x124E PUSH2 0x1249 PUSH2 0x1244 DUP5 PUSH2 0xE55 JUMP JUMPDEST PUSH2 0x122B JUMP JUMPDEST PUSH2 0xE55 JUMP JUMPDEST SWAP1 POP SWAP2 SWAP1 POP JUMP JUMPDEST PUSH0 DUP2 SWAP1 POP SWAP2 SWAP1 POP JUMP JUMPDEST PUSH2 0x1267 DUP4 PUSH2 0x1234 JUMP JUMPDEST PUSH2 0x127B PUSH2 0x1273 DUP3 PUSH2 0x1255 JUMP JUMPDEST DUP5 DUP5 SLOAD PUSH2 0x11DA JUMP JUMPDEST DUP3 SSTORE POP POP POP POP JUMP JUMPDEST PUSH0 SWAP1 JUMP JUMPDEST PUSH2 0x128F PUSH2 0x1283 JUMP JUMPDEST PUSH2 0x129A DUP2 DUP5 DUP5 PUSH2 0x125E JUMP JUMPDEST POP POP POP JUMP JUMPDEST JUMPDEST DUP2 DUP2 LT ISZERO PUSH2 0x12BD JUMPI PUSH2 0x12B2 PUSH0 DUP3 PUSH2 0x1287 JUMP JUMPDEST PUSH1 0x1 DUP2 ADD SWAP1 POP PUSH2 0x12A0 JUMP JUMPDEST POP POP JUMP JUMPDEST PUSH1 0x1F DUP3 GT ISZERO PUSH2 0x1302 JUMPI PUSH2 0x12D3 DUP2 PUSH2 0x11AD JUMP JUMPDEST PUSH2 0x12DC DUP5 PUSH2 0x11BF JUMP JUMPDEST DUP2 ADD PUSH1 0x20 DUP6 LT ISZERO PUSH2 0x12EB JUMPI DUP2 SWAP1 POP JUMPDEST PUSH2 0x12FF PUSH2 0x12F7 DUP6 PUSH2 0x11BF JUMP JUMPDEST DUP4 ADD DUP3 PUSH2 0x129F JUMP JUMPDEST POP POP JUMPDEST POP POP POP JUMP JUMPDEST PUSH0 DUP3 DUP3 SHR SWAP1 POP SWAP3 SWAP2 POP POP JUMP JUMPDEST PUSH0 PUSH2 0x1322 PUSH0 NOT DUP5 PUSH1 0x8 MUL PUSH2 0x1307 JUMP JUMPDEST NOT DUP1 DUP4 AND SWAP2 POP POP SWAP3 SWAP2 POP POP JUMP JUMPDEST PUSH0 PUSH2 0x133A DUP4 DUP4 PUSH2 0x1313 JUMP JUMPDEST SWAP2 POP DUP3 PUSH1 0x2 MUL DUP3 OR SWAP1 POP SWAP3 SWAP2 POP POP JUMP JUMPDEST PUSH2 0x1353 DUP3 PUSH2 0xDDB JUMP JUMPDEST PUSH8 0xFFFFFFFFFFFFFFFF DUP2 GT ISZERO PUSH2 0x136C JUMPI PUSH2 0x136B PUSH2 0xC70 JUMP JUMPDEST JUMPDEST PUSH2 0x1376 DUP3 SLOAD PUSH2 0x112D JUMP JUMPDEST PUSH2 0x1381 DUP3 DUP3 DUP6 PUSH2 0x12C1 JUMP JUMPDEST PUSH0 PUSH1 0x20 SWAP1 POP PUSH1 0x1F DUP4 GT PUSH1 0x1 DUP2 EQ PUSH2 0x13B2 JUMPI PUSH0 DUP5 ISZERO PUSH2 0x13A0 JUMPI DUP3 DUP8 ADD MLOAD SWAP1 POP JUMPDEST PUSH2 0x13AA DUP6 DUP3 PUSH2 0x132F JUMP JUMPDEST DUP7 SSTORE POP PUSH2 0x1411 JUMP JUMPDEST PUSH1 0x1F NOT DUP5 AND PUSH2 0x13C0 DUP7 PUSH2 0x11AD JUMP JUMPDEST PUSH0 JUMPDEST DUP3 DUP2 LT ISZERO PUSH2 0x13E7 JUMPI DUP5 DUP10 ADD MLOAD DUP3 SSTORE PUSH1 0x1 DUP3 ADD SWAP2 POP PUSH1 0x20 DUP6 ADD SWAP5 POP PUSH1 0x20 DUP2 ADD SWAP1 POP PUSH2 0x13C2 JUMP JUMPDEST DUP7 DUP4 LT ISZERO PUSH2 0x1404 JUMPI DUP5 DUP10 ADD MLOAD PUSH2 0x1400 PUSH1 0x1F DUP10 AND DUP3 PUSH2 0x1313 JUMP JUMPDEST DUP4 SSTORE POP JUMPDEST PUSH1 0x1 PUSH1 0x2 DUP9 MUL ADD DUP9 SSTORE POP POP POP JUMPDEST POP POP POP POP POP POP JUMP JUMPDEST PUSH32 0x73616C646F20496E737566696369656E74650000000000000000000000000000 PUSH0 DUP3 ADD MSTORE POP JUMP JUMPDEST PUSH0 PUSH2 0x144D PUSH1 0x12 DUP4 PUSH2 0xDE5 JUMP JUMPDEST SWAP2 POP PUSH2 0x1458 DUP3 PUSH2 0x1419 JUMP JUMPDEST PUSH1 0x20 DUP3 ADD SWAP1 POP SWAP2 SWAP1 POP JUMP JUMPDEST PUSH0 PUSH1 0x20 DUP3 ADD SWAP1 POP DUP2 DUP2 SUB PUSH0 DUP4 ADD MSTORE PUSH2 0x147A DUP2 PUSH2 0x1441 JUMP JUMPDEST SWAP1 POP SWAP2 SWAP1 POP JUMP JUMPDEST PUSH32 0x4C696D69746520556C7472617061737361646F00000000000000000000000000 PUSH0 DUP3 ADD MSTORE POP JUMP JUMPDEST PUSH0 PUSH2 0x14B5 PUSH1 0x13 DUP4 PUSH2 0xDE5 JUMP JUMPDEST SWAP2 POP PUSH2 0x14C0 DUP3 PUSH2 0x1481 JUMP JUMPDEST PUSH1 0x20 DUP3 ADD SWAP1 POP SWAP2 SWAP1 POP JUMP JUMPDEST PUSH0 PUSH1 0x20 DUP3 ADD SWAP1 POP DUP2 DUP2 SUB PUSH0 DUP4 ADD MSTORE PUSH2 0x14E2 DUP2 PUSH2 0x14A9 JUMP JUMPDEST SWAP1 POP SWAP2 SWAP1 POP JUMP JUMPDEST PUSH32 0x4E487B7100000000000000000000000000000000000000000000000000000000 PUSH0 MSTORE PUSH1 0x11 PUSH1 0x4 MSTORE PUSH1 0x24 PUSH0 REVERT JUMPDEST PUSH0 PUSH2 0x1520 DUP3 PUSH2 0xE55 JUMP JUMPDEST SWAP2 POP PUSH2 0x152B DUP4 PUSH2 0xE55 JUMP JUMPDEST SWAP3 POP DUP3 DUP3 ADD SWAP1 POP DUP1 DUP3 GT ISZERO PUSH2 0x1543 JUMPI PUSH2 0x1542 PUSH2 0x14E9 JUMP JUMPDEST JUMPDEST SWAP3 SWAP2 POP POP JUMP JUMPDEST PUSH32 0x4167756172646520756D20646961207061726120706F73746172206E6F76616D PUSH0 DUP3 ADD MSTORE PUSH32 0x656E74652E000000000000000000000000000000000000000000000000000000 PUSH1 0x20 DUP3 ADD MSTORE POP JUMP JUMPDEST PUSH0 PUSH2 0x15A3 PUSH1 0x25 DUP4 PUSH2 0xDE5 JUMP JUMPDEST SWAP2 POP PUSH2 0x15AE DUP3 PUSH2 0x1549 JUMP JUMPDEST PUSH1 0x40 DUP3 ADD SWAP1 POP SWAP2 SWAP1 POP JUMP JUMPDEST PUSH0 PUSH1 0x20 DUP3 ADD SWAP1 POP DUP2 DUP2 SUB PUSH0 DUP4 ADD MSTORE PUSH2 0x15D0 DUP2 PUSH2 0x1597 JUMP JUMPDEST SWAP1 POP SWAP2 SWAP1 POP JUMP INVALID LOG2 PUSH5 0x6970667358 0x22 SLT KECCAK256 PUSH30 0xBEC93A8210018F18133085A7A206D7E3A211A5C454C483A0F77ED5677843 MUL PUSH5 0x736F6C6343 STOP ADDMOD AND STOP CALLER "
				},
				"gasEstimates": {
					"creation": {
						"codeDepositCost": "1129000",
						"executionCost": "47543",
						"totalCost": "1176543"
					},
					"external": {
						"PerfilRestaurante(string,string,string,string,string,uint256)": "infinite",
						"Reels(string)": "infinite",
						"bebidas(string)": "infinite",
						"comprarPerfil()": "50962",
						"criarBebida(string,string,string,string,uint256)": "infinite",
						"criarPrato(string,string,string,string,uint256)": "infinite",
						"perfilComprado()": "2467",
						"pratos(string)": "infinite"
					}
				},
				"methodIdentifiers": {
					"PerfilRestaurante(string,string,string,string,string,uint256)": "972dac07",
					"Reels(string)": "ea78aaba",
					"bebidas(string)": "54c946a5",
					"comprarPerfil()": "90628e69",
					"criarBebida(string,string,string,string,uint256)": "dbbe8659",
					"criarPrato(string,string,string,string,uint256)": "57652f2a",
					"perfilComprado()": "396555ad",
					"pratos(string)": "74a69179"
				}
			},
			"storageLayout": {
				"storage": [
					{
						"astId": 3,
						"contract": "AppFood/AppFoodWEB3/gastroAppRestaurantes.sol:RestauranteApp",
						"label": "donoPerfil",
						"offset": 0,
						"slot": "0",
						"type": "t_address"
					},
					{
						"astId": 5,
						"contract": "AppFood/AppFoodWEB3/gastroAppRestaurantes.sol:RestauranteApp",
						"label": "hashVideo",
						"offset": 0,
						"slot": "1",
						"type": "t_string_storage"
					},
					{
						"astId": 7,
						"contract": "AppFood/AppFoodWEB3/gastroAppRestaurantes.sol:RestauranteApp",
						"label": "timestamp",
						"offset": 0,
						"slot": "2",
						"type": "t_uint256"
					},
					{
						"astId": 9,
						"contract": "AppFood/AppFoodWEB3/gastroAppRestaurantes.sol:RestauranteApp",
						"label": "ultimoPost",
						"offset": 0,
						"slot": "3",
						"type": "t_uint256"
					},
					{
						"astId": 12,
						"contract": "AppFood/AppFoodWEB3/gastroAppRestaurantes.sol:RestauranteApp",
						"label": "valorPerfil",
						"offset": 0,
						"slot": "4",
						"type": "t_uint256"
					},
					{
						"astId": 15,
						"contract": "AppFood/AppFoodWEB3/gastroAppRestaurantes.sol:RestauranteApp",
						"label": "perfilComprado",
						"offset": 0,
						"slot": "5",
						"type": "t_bool"
					},
					{
						"astId": 104,
						"contract": "AppFood/AppFoodWEB3/gastroAppRestaurantes.sol:RestauranteApp",
						"label": "mapaFotos",
						"offset": 0,
						"slot": "6",
						"type": "t_mapping(t_address,t_struct(FotosPerfil)99_storage)"
					},
					{
						"astId": 109,
						"contract": "AppFood/AppFoodWEB3/gastroAppRestaurantes.sol:RestauranteApp",
						"label": "receitas",
						"offset": 0,
						"slot": "7",
						"type": "t_mapping(t_address,t_struct(Receita)89_storage)"
					},
					{
						"astId": 114,
						"contract": "AppFood/AppFoodWEB3/gastroAppRestaurantes.sol:RestauranteApp",
						"label": "perfis",
						"offset": 0,
						"slot": "8",
						"type": "t_mapping(t_address,t_struct(Perfil)60_storage)"
					},
					{
						"astId": 119,
						"contract": "AppFood/AppFoodWEB3/gastroAppRestaurantes.sol:RestauranteApp",
						"label": "end",
						"offset": 0,
						"slot": "9",
						"type": "t_mapping(t_address,t_struct(CriarEnd)35_storage)"
					},
					{
						"astId": 122,
						"contract": "AppFood/AppFoodWEB3/gastroAppRestaurantes.sol:RestauranteApp",
						"label": "comentarios",
						"offset": 0,
						"slot": "10",
						"type": "t_array(t_string_storage)dyn_storage"
					},
					{
						"astId": 330,
						"contract": "AppFood/AppFoodWEB3/gastroAppRestaurantes.sol:RestauranteApp",
						"label": "pratos",
						"offset": 0,
						"slot": "11",
						"type": "t_mapping(t_string_memory_ptr,t_struct(Prato)82_storage)"
					},
					{
						"astId": 335,
						"contract": "AppFood/AppFoodWEB3/gastroAppRestaurantes.sol:RestauranteApp",
						"label": "bebidas",
						"offset": 0,
						"slot": "12",
						"type": "t_mapping(t_string_memory_ptr,t_struct(Bebida)71_storage)"
					}
				],
				"types": {
					"t_address": {
						"encoding": "inplace",
						"label": "address",
						"numberOfBytes": "20"
					},
					"t_array(t_string_storage)dyn_storage": {
						"base": "t_string_storage",
						"encoding": "dynamic_array",
						"label": "string[]",
						"numberOfBytes": "32"
					},
					"t_bool": {
						"encoding": "inplace",
						"label": "bool",
						"numberOfBytes": "1"
					},
					"t_mapping(t_address,t_struct(CriarEnd)35_storage)": {
						"encoding": "mapping",
						"key": "t_address",
						"label": "mapping(address => struct FuncoesApp.CriarEnd)",
						"numberOfBytes": "32",
						"value": "t_struct(CriarEnd)35_storage"
					},
					"t_mapping(t_address,t_struct(FotosPerfil)99_storage)": {
						"encoding": "mapping",
						"key": "t_address",
						"label": "mapping(address => struct FuncoesApp.FotosPerfil)",
						"numberOfBytes": "32",
						"value": "t_struct(FotosPerfil)99_storage"
					},
					"t_mapping(t_address,t_struct(Perfil)60_storage)": {
						"encoding": "mapping",
						"key": "t_address",
						"label": "mapping(address => struct FuncoesApp.Perfil)",
						"numberOfBytes": "32",
						"value": "t_struct(Perfil)60_storage"
					},
					"t_mapping(t_address,t_struct(Receita)89_storage)": {
						"encoding": "mapping",
						"key": "t_address",
						"label": "mapping(address => struct FuncoesApp.Receita)",
						"numberOfBytes": "32",
						"value": "t_struct(Receita)89_storage"
					},
					"t_mapping(t_string_memory_ptr,t_struct(Bebida)71_storage)": {
						"encoding": "mapping",
						"key": "t_string_memory_ptr",
						"label": "mapping(string => struct FuncoesApp.Bebida)",
						"numberOfBytes": "32",
						"value": "t_struct(Bebida)71_storage"
					},
					"t_mapping(t_string_memory_ptr,t_struct(Prato)82_storage)": {
						"encoding": "mapping",
						"key": "t_string_memory_ptr",
						"label": "mapping(string => struct FuncoesApp.Prato)",
						"numberOfBytes": "32",
						"value": "t_struct(Prato)82_storage"
					},
					"t_string_memory_ptr": {
						"encoding": "bytes",
						"label": "string",
						"numberOfBytes": "32"
					},
					"t_string_storage": {
						"encoding": "bytes",
						"label": "string",
						"numberOfBytes": "32"
					},
					"t_struct(Bebida)71_storage": {
						"encoding": "inplace",
						"label": "struct FuncoesApp.Bebida",
						"members": [
							{
								"astId": 62,
								"contract": "AppFood/AppFoodWEB3/gastroAppRestaurantes.sol:RestauranteApp",
								"label": "nomeBebida",
								"offset": 0,
								"slot": "0",
								"type": "t_string_storage"
							},
							{
								"astId": 64,
								"contract": "AppFood/AppFoodWEB3/gastroAppRestaurantes.sol:RestauranteApp",
								"label": "descricaoBebida",
								"offset": 0,
								"slot": "1",
								"type": "t_string_storage"
							},
							{
								"astId": 66,
								"contract": "AppFood/AppFoodWEB3/gastroAppRestaurantes.sol:RestauranteApp",
								"label": "fotoBebida",
								"offset": 0,
								"slot": "2",
								"type": "t_string_storage"
							},
							{
								"astId": 68,
								"contract": "AppFood/AppFoodWEB3/gastroAppRestaurantes.sol:RestauranteApp",
								"label": "categoriaBebida",
								"offset": 0,
								"slot": "3",
								"type": "t_string_storage"
							},
							{
								"astId": 70,
								"contract": "AppFood/AppFoodWEB3/gastroAppRestaurantes.sol:RestauranteApp",
								"label": "valorBebida",
								"offset": 0,
								"slot": "4",
								"type": "t_uint256"
							}
						],
						"numberOfBytes": "160"
					},
					"t_struct(CriarEnd)35_storage": {
						"encoding": "inplace",
						"label": "struct FuncoesApp.CriarEnd",
						"members": [
							{
								"astId": 24,
								"contract": "AppFood/AppFoodWEB3/gastroAppRestaurantes.sol:RestauranteApp",
								"label": "rua",
								"offset": 0,
								"slot": "0",
								"type": "t_string_storage"
							},
							{
								"astId": 26,
								"contract": "AppFood/AppFoodWEB3/gastroAppRestaurantes.sol:RestauranteApp",
								"label": "bairro",
								"offset": 0,
								"slot": "1",
								"type": "t_string_storage"
							},
							{
								"astId": 28,
								"contract": "AppFood/AppFoodWEB3/gastroAppRestaurantes.sol:RestauranteApp",
								"label": "cidade",
								"offset": 0,
								"slot": "2",
								"type": "t_string_storage"
							},
							{
								"astId": 30,
								"contract": "AppFood/AppFoodWEB3/gastroAppRestaurantes.sol:RestauranteApp",
								"label": "estado",
								"offset": 0,
								"slot": "3",
								"type": "t_string_storage"
							},
							{
								"astId": 32,
								"contract": "AppFood/AppFoodWEB3/gastroAppRestaurantes.sol:RestauranteApp",
								"label": "num",
								"offset": 0,
								"slot": "4",
								"type": "t_uint256"
							},
							{
								"astId": 34,
								"contract": "AppFood/AppFoodWEB3/gastroAppRestaurantes.sol:RestauranteApp",
								"label": "cep",
								"offset": 0,
								"slot": "5",
								"type": "t_uint256"
							}
						],
						"numberOfBytes": "192"
					},
					"t_struct(FotosPerfil)99_storage": {
						"encoding": "inplace",
						"label": "struct FuncoesApp.FotosPerfil",
						"members": [
							{
								"astId": 92,
								"contract": "AppFood/AppFoodWEB3/gastroAppRestaurantes.sol:RestauranteApp",
								"label": "fotosAppReceitas",
								"offset": 0,
								"slot": "0",
								"type": "t_array(t_string_storage)dyn_storage"
							},
							{
								"astId": 95,
								"contract": "AppFood/AppFoodWEB3/gastroAppRestaurantes.sol:RestauranteApp",
								"label": "fotosAppRestaurantes",
								"offset": 0,
								"slot": "1",
								"type": "t_array(t_string_storage)dyn_storage"
							},
							{
								"astId": 98,
								"contract": "AppFood/AppFoodWEB3/gastroAppRestaurantes.sol:RestauranteApp",
								"label": "fotosAppLojas",
								"offset": 0,
								"slot": "2",
								"type": "t_array(t_string_storage)dyn_storage"
							}
						],
						"numberOfBytes": "96"
					},
					"t_struct(Perfil)60_storage": {
						"encoding": "inplace",
						"label": "struct FuncoesApp.Perfil",
						"members": [
							{
								"astId": 49,
								"contract": "AppFood/AppFoodWEB3/gastroAppRestaurantes.sol:RestauranteApp",
								"label": "dado1",
								"offset": 0,
								"slot": "0",
								"type": "t_string_storage"
							},
							{
								"astId": 51,
								"contract": "AppFood/AppFoodWEB3/gastroAppRestaurantes.sol:RestauranteApp",
								"label": "dado2",
								"offset": 0,
								"slot": "1",
								"type": "t_string_storage"
							},
							{
								"astId": 53,
								"contract": "AppFood/AppFoodWEB3/gastroAppRestaurantes.sol:RestauranteApp",
								"label": "dado3",
								"offset": 0,
								"slot": "2",
								"type": "t_string_storage"
							},
							{
								"astId": 55,
								"contract": "AppFood/AppFoodWEB3/gastroAppRestaurantes.sol:RestauranteApp",
								"label": "dado4",
								"offset": 0,
								"slot": "3",
								"type": "t_string_storage"
							},
							{
								"astId": 57,
								"contract": "AppFood/AppFoodWEB3/gastroAppRestaurantes.sol:RestauranteApp",
								"label": "dado5",
								"offset": 0,
								"slot": "4",
								"type": "t_string_storage"
							},
							{
								"astId": 59,
								"contract": "AppFood/AppFoodWEB3/gastroAppRestaurantes.sol:RestauranteApp",
								"label": "dado6",
								"offset": 0,
								"slot": "5",
								"type": "t_uint256"
							}
						],
						"numberOfBytes": "192"
					},
					"t_struct(Prato)82_storage": {
						"encoding": "inplace",
						"label": "struct FuncoesApp.Prato",
						"members": [
							{
								"astId": 73,
								"contract": "AppFood/AppFoodWEB3/gastroAppRestaurantes.sol:RestauranteApp",
								"label": "nomePrato",
								"offset": 0,
								"slot": "0",
								"type": "t_string_storage"
							},
							{
								"astId": 75,
								"contract": "AppFood/AppFoodWEB3/gastroAppRestaurantes.sol:RestauranteApp",
								"label": "descricaoPrato",
								"offset": 0,
								"slot": "1",
								"type": "t_string_storage"
							},
							{
								"astId": 77,
								"contract": "AppFood/AppFoodWEB3/gastroAppRestaurantes.sol:RestauranteApp",
								"label": "categoriaPrato",
								"offset": 0,
								"slot": "2",
								"type": "t_string_storage"
							},
							{
								"astId": 79,
								"contract": "AppFood/AppFoodWEB3/gastroAppRestaurantes.sol:RestauranteApp",
								"label": "fotoPrato",
								"offset": 0,
								"slot": "3",
								"type": "t_string_storage"
							},
							{
								"astId": 81,
								"contract": "AppFood/AppFoodWEB3/gastroAppRestaurantes.sol:RestauranteApp",
								"label": "valorPrato",
								"offset": 0,
								"slot": "4",
								"type": "t_uint256"
							}
						],
						"numberOfBytes": "160"
					},
					"t_struct(Receita)89_storage": {
						"encoding": "inplace",
						"label": "struct FuncoesApp.Receita",
						"members": [
							{
								"astId": 84,
								"contract": "AppFood/AppFoodWEB3/gastroAppRestaurantes.sol:RestauranteApp",
								"label": "foto",
								"offset": 0,
								"slot": "0",
								"type": "t_string_storage"
							},
							{
								"astId": 86,
								"contract": "AppFood/AppFoodWEB3/gastroAppRestaurantes.sol:RestauranteApp",
								"label": "hashVideoReceita",
								"offset": 0,
								"slot": "1",
								"type": "t_string_storage"
							},
							{
								"astId": 88,
								"contract": "AppFood/AppFoodWEB3/gastroAppRestaurantes.sol:RestauranteApp",
								"label": "modoDePreparo",
								"offset": 0,
								"slot": "2",
								"type": "t_string_storage"
							}
						],
						"numberOfBytes": "96"
					},
					"t_uint256": {
						"encoding": "inplace",
						"label": "uint256",
						"numberOfBytes": "32"
					}
				}
			},
			"userdoc": {
				"kind": "user",
				"methods": {},
				"version": 1
			}
		}
	}
}