{
	"data": {
		"bytecode": {
			"linkReferences": {},
			"object": "6080604052600a6004555f60055f6101000a81548160ff02191690831515021790555034801561002d575f80fd5b5060bb8061003a5f395ff3fe6080604052348015600e575f80fd5b50600436106026575f3560e01c8063396555ad14602a575b5f80fd5b60306044565b604051603b9190606e565b60405180910390f35b60055f9054906101000a900460ff1681565b5f8115159050919050565b6068816056565b82525050565b5f602082019050607f5f8301846061565b9291505056fea2646970667358221220e3ec84709eb6d8a5c57faf82c159d61271960aa8b8fcea16f33aa1a20764439764736f6c63430008160033",
			"opcodes": "PUSH1 0x80 PUSH1 0x40 MSTORE PUSH1 0xA PUSH1 0x4 SSTORE PUSH0 PUSH1 0x5 PUSH0 PUSH2 0x100 EXP DUP2 SLOAD DUP2 PUSH1 0xFF MUL NOT AND SWAP1 DUP4 ISZERO ISZERO MUL OR SWAP1 SSTORE POP CALLVALUE DUP1 ISZERO PUSH2 0x2D JUMPI PUSH0 DUP1 REVERT JUMPDEST POP PUSH1 0xBB DUP1 PUSH2 0x3A PUSH0 CODECOPY PUSH0 RETURN INVALID PUSH1 0x80 PUSH1 0x40 MSTORE CALLVALUE DUP1 ISZERO PUSH1 0xE JUMPI PUSH0 DUP1 REVERT JUMPDEST POP PUSH1 0x4 CALLDATASIZE LT PUSH1 0x26 JUMPI PUSH0 CALLDATALOAD PUSH1 0xE0 SHR DUP1 PUSH4 0x396555AD EQ PUSH1 0x2A JUMPI JUMPDEST PUSH0 DUP1 REVERT JUMPDEST PUSH1 0x30 PUSH1 0x44 JUMP JUMPDEST PUSH1 0x40 MLOAD PUSH1 0x3B SWAP2 SWAP1 PUSH1 0x6E JUMP JUMPDEST PUSH1 0x40 MLOAD DUP1 SWAP2 SUB SWAP1 RETURN JUMPDEST PUSH1 0x5 PUSH0 SWAP1 SLOAD SWAP1 PUSH2 0x100 EXP SWAP1 DIV PUSH1 0xFF AND DUP2 JUMP JUMPDEST PUSH0 DUP2 ISZERO ISZERO SWAP1 POP SWAP2 SWAP1 POP JUMP JUMPDEST PUSH1 0x68 DUP2 PUSH1 0x56 JUMP JUMPDEST DUP3 MSTORE POP POP JUMP JUMPDEST PUSH0 PUSH1 0x20 DUP3 ADD SWAP1 POP PUSH1 0x7F PUSH0 DUP4 ADD DUP5 PUSH1 0x61 JUMP JUMPDEST SWAP3 SWAP2 POP POP JUMP INVALID LOG2 PUSH5 0x6970667358 0x22 SLT KECCAK256 0xE3 0xEC DUP5 PUSH17 0x9EB6D8A5C57FAF82C159D61271960AA8B8 0xFC 0xEA AND RETURN GASPRICE LOG1 LOG2 SMOD PUSH5 0x439764736F PUSH13 0x63430008160033000000000000 "
		},
		"gasEstimates": {
			"creation": {
				"codeDepositCost": "37400",
				"executionCost": "46456",
				"totalCost": "83856"
			},
			"external": {
				"perfilComprado()": "2444"
			},
			"internal": {
				"EditarEnd(string memory,string memory,string memory,string memory,uint256,uint256)": "infinite",
				"EditarPerfil(string memory,string memory,string memory,string memory,string memory,uint256)": "infinite",
				"add5Fotos(string memory)": "infinite",
				"addComentarios(string memory)": "infinite",
				"criarReels(string memory)": "infinite",
				"criarVideo(string memory)": "infinite"
			}
		},
		"methodIdentifiers": {
			"perfilComprado()": "396555ad"
		}
	},
	"abi": [
		{
			"anonymous": false,
			"inputs": [],
			"name": "carregamentoFotoCompleto",
			"type": "event"
		},
		{
			"anonymous": false,
			"inputs": [],
			"name": "carregamentoReelscompleto",
			"type": "event"
		},
		{
			"anonymous": false,
			"inputs": [],
			"name": "criouEnd",
			"type": "event"
		},
		{
			"anonymous": false,
			"inputs": [],
			"name": "editouPerfil",
			"type": "event"
		},
		{
			"inputs": [],
			"name": "perfilComprado",
			"outputs": [
				{
					"internalType": "bool",
					"name": "",
					"type": "bool"
				}
			],
			"stateMutability": "view",
			"type": "function"
		}
	]
}