{
	"data": {
		"bytecode": {
			"linkReferences": {},
			"object": "6080604052600a6004555f60055f6101000a81548160ff02191690831515021790555034801561002d575f80fd5b50611cb88061003b5f395ff3fe608060405260043610610085575f3560e01c806353184f561161005857806353184f561461014457806390628e691461016c578063c1bde1611461018a578063d2b18e3e146101cb578063ee2f1907146101f357610085565b80631f53556314610089578063295ebe2c146100ca578063396555ad146100f25780635245d1d01461011c575b5f80fd5b348015610094575f80fd5b506100af60048036038101906100aa91906112c6565b61021b565b6040516100c19695949392919061139f565b60405180910390f35b3480156100d5575f80fd5b506100f060048036038101906100eb919061143d565b610474565b005b3480156100fd575f80fd5b5061010661056c565b604051610113919061156c565b60405180910390f35b348015610127575f80fd5b50610142600480360381019061013d9190611585565b61057e565b005b34801561014f575f80fd5b5061016a60048036038101906101659190611585565b610775565b005b610174610971565b604051610181919061156c565b60405180910390f35b348015610195575f80fd5b506101b060048036038101906101ab91906112c6565b610a13565b6040516101c29695949392919061139f565b60405180910390f35b3480156101d6575f80fd5b506101f160048036038101906101ec91906115df565b610c6c565b005b3480156101fe575f80fd5b50610219600480360381019061021491906115df565b610e3b565b005b60608060605f805f80600b8860405161023491906116f6565b90815260200160405180910390206040518060200160405290815f82016040518060c00160405290815f8201805461026b90611739565b80601f016020809104026020016040519081016040528092919081815260200182805461029790611739565b80156102e25780601f106102b9576101008083540402835291602001916102e2565b820191905f5260205f20905b8154815290600101906020018083116102c557829003601f168201915b505050505081526020016001820180546102fb90611739565b80601f016020809104026020016040519081016040528092919081815260200182805461032790611739565b80156103725780601f1061034957610100808354040283529160200191610372565b820191905f5260205f20905b81548152906001019060200180831161035557829003601f168201915b5050505050815260200160028201805461038b90611739565b80601f01602080910402602001604051908101604052809291908181526020018280546103b790611739565b80156104025780601f106103d957610100808354040283529160200191610402565b820191905f5260205f20905b8154815290600101906020018083116103e557829003601f168201915b505050505081526020016003820154815260200160048201548152602001600582015481525050815250509050805f01515f0151815f015160200151825f015160400151835f015160600151845f015160800151855f015160a001519650965096509650965096505091939550919395565b5f8054906101000a900473ffffffffffffffffffffffffffffffffffffffff1673ffffffffffffffffffffffffffffffffffffffff163373ffffffffffffffffffffffffffffffffffffffff1614610501576040517f08c379a00000000000000000000000000000000000000000000000000000000081526004016104f8906117d9565b60405180910390fd5b6001151560055f9054906101000a900460ff16151514610556576040517f08c379a000000000000000000000000000000000000000000000000000000000815260040161054d90611841565b60405180910390fd5b61056486868686868661100a565b505050505050565b60055f9054906101000a900460ff1681565b5f8054906101000a900473ffffffffffffffffffffffffffffffffffffffff1673ffffffffffffffffffffffffffffffffffffffff163373ffffffffffffffffffffffffffffffffffffffff161461060b576040517f08c379a0000000000000000000000000000000000000000000000000000000008152600401610602906117d9565b60405180910390fd5b80600b8360405161061c91906116f6565b90815260200160405180910390205f01600501541015610671576040517f08c379a0000000000000000000000000000000000000000000000000000000008152600401610668906118cf565b60405180910390fd5b80600b8360405161068291906116f6565b90815260200160405180910390205f016005015f8282546106a3919061191a565b9250508190555080600d836040516106bb91906116f6565b90815260200160405180910390205f8282546106d7919061191a565b925050819055505f600b836040516106ef91906116f6565b90815260200160405180910390205f01600501540361077157600b8260405161071891906116f6565b90815260200160405180910390205f8082015f8082015f6107399190611121565b600182015f6107489190611121565b600282015f6107579190611121565b600382015f9055600482015f9055600582015f9055505050505b5050565b5f8054906101000a900473ffffffffffffffffffffffffffffffffffffffff1673ffffffffffffffffffffffffffffffffffffffff163373ffffffffffffffffffffffffffffffffffffffff1614610802576040517f08c379a00000000000000000000000000000000000000000000000000000000081526004016107f9906117d9565b60405180910390fd5b80600c8360405161081391906116f6565b90815260200160405180910390205f01600501541015610868576040517f08c379a000000000000000000000000000000000000000000000000000000000815260040161085f906118cf565b60405180910390fd5b80600c8360405161087991906116f6565b90815260200160405180910390205f016005015f82825461089a919061191a565b925050819055505f600c836040516108b291906116f6565b90815260200160405180910390205f01600501540361093457600c826040516108db91906116f6565b90815260200160405180910390205f8082015f8082015f6108fc9190611121565b600182015f61090b9190611121565b600282015f61091a9190611121565b600382015f9055600482015f9055600582015f9055505050505b7f9603a62e507248f16dc1809ba54ddfda4b21cd6dac214a05dbfb4769f21d2ed2828260405161096592919061194d565b60405180910390a15050565b5f60045434146109b6576040517f08c379a00000000000000000000000000000000000000000000000000000000081526004016109ad906119c5565b60405180910390fd5b335f806101000a81548173ffffffffffffffffffffffffffffffffffffffff021916908373ffffffffffffffffffffffffffffffffffffffff160217905550600160055f6101000a81548160ff0219169083151502179055905090565b60608060605f805f80600c88604051610a2c91906116f6565b90815260200160405180910390206040518060200160405290815f82016040518060c00160405290815f82018054610a6390611739565b80601f0160208091040260200160405190810160405280929190818152602001828054610a8f90611739565b8015610ada5780601f10610ab157610100808354040283529160200191610ada565b820191905f5260205f20905b815481529060010190602001808311610abd57829003601f168201915b50505050508152602001600182018054610af390611739565b80601f0160208091040260200160405190810160405280929190818152602001828054610b1f90611739565b8015610b6a5780601f10610b4157610100808354040283529160200191610b6a565b820191905f5260205f20905b815481529060010190602001808311610b4d57829003601f168201915b50505050508152602001600282018054610b8390611739565b80601f0160208091040260200160405190810160405280929190818152602001828054610baf90611739565b8015610bfa5780601f10610bd157610100808354040283529160200191610bfa565b820191905f5260205f20905b815481529060010190602001808311610bdd57829003601f168201915b505050505081526020016003820154815260200160048201548152602001600582015481525050815250509050805f01515f0151815f015160200151825f015160400151835f015160600151845f015160800151855f015160a001519650965096509650965096505091939550919395565b5f8054906101000a900473ffffffffffffffffffffffffffffffffffffffff1673ffffffffffffffffffffffffffffffffffffffff163373ffffffffffffffffffffffffffffffffffffffff1614610cf9576040517f08c379a0000000000000000000000000000000000000000000000000000000008152600401610cf0906117d9565b60405180910390fd5b5f6040518060c001604052808881526020018781526020018681526020018581526020018481526020018381525090505f604051806020016040528083815250905080600c89604051610d4c91906116f6565b90815260200160405180910390205f820151815f015f820151815f019081610d749190611b80565b506020820151816001019081610d8a9190611b80565b506040820151816002019081610da09190611b80565b50606082015181600301556080820151816004015560a08201518160050155505090505082600d89604051610dd591906116f6565b90815260200160405180910390205f828254610df19190611c4f565b925050819055507f89dad4c7cf097bd405685bf48b3760bcc26280cbb8832689a1ed04da9190a41a8884604051610e2992919061194d565b60405180910390a15050505050505050565b5f8054906101000a900473ffffffffffffffffffffffffffffffffffffffff1673ffffffffffffffffffffffffffffffffffffffff163373ffffffffffffffffffffffffffffffffffffffff1614610ec8576040517f08c379a0000000000000000000000000000000000000000000000000000000008152600401610ebf906117d9565b60405180910390fd5b5f6040518060c001604052808881526020018781526020018681526020018581526020018481526020018381525090505f604051806020016040528083815250905080600b89604051610f1b91906116f6565b90815260200160405180910390205f820151815f015f820151815f019081610f439190611b80565b506020820151816001019081610f599190611b80565b506040820151816002019081610f6f9190611b80565b50606082015181600301556080820151816004015560a08201518160050155505090505082600d89604051610fa491906116f6565b90815260200160405180910390205f828254610fc09190611c4f565b925050819055507f014aadd2b4e12b29a34a01de343378d6580eca01108dbedb75db5d1ea93516228884604051610ff892919061194d565b60405180910390a15050505050505050565b6040518060c001604052808781526020018681526020018581526020018481526020018381526020018281525060085f3373ffffffffffffffffffffffffffffffffffffffff1673ffffffffffffffffffffffffffffffffffffffff1681526020019081526020015f205f820151815f0190816110879190611b80565b50602082015181600101908161109d9190611b80565b5060408201518160020190816110b39190611b80565b5060608201518160030190816110c99190611b80565b5060808201518160040190816110df9190611b80565b5060a082015181600501559050507f602903b4ab82b8294b982df6e30144aea8e41d3eb12b3214c2800b515ac12f9160405160405180910390a1505050505050565b50805461112d90611739565b5f825580601f1061113e575061115b565b601f0160209004905f5260205f209081019061115a919061115e565b5b50565b5b80821115611175575f815f90555060010161115f565b5090565b5f604051905090565b5f80fd5b5f80fd5b5f80fd5b5f80fd5b5f601f19601f8301169050919050565b7f4e487b71000000000000000000000000000000000000000000000000000000005f52604160045260245ffd5b6111d882611192565b810181811067ffffffffffffffff821117156111f7576111f66111a2565b5b80604052505050565b5f611209611179565b905061121582826111cf565b919050565b5f67ffffffffffffffff821115611234576112336111a2565b5b61123d82611192565b9050602081019050919050565b828183375f83830152505050565b5f61126a6112658461121a565b611200565b9050828152602081018484840111156112865761128561118e565b5b61129184828561124a565b509392505050565b5f82601f8301126112ad576112ac61118a565b5b81356112bd848260208601611258565b91505092915050565b5f602082840312156112db576112da611182565b5b5f82013567ffffffffffffffff8111156112f8576112f7611186565b5b61130484828501611299565b91505092915050565b5f81519050919050565b5f82825260208201905092915050565b5f5b83811015611344578082015181840152602081019050611329565b5f8484015250505050565b5f6113598261130d565b6113638185611317565b9350611373818560208601611327565b61137c81611192565b840191505092915050565b5f819050919050565b61139981611387565b82525050565b5f60c0820190508181035f8301526113b7818961134f565b905081810360208301526113cb818861134f565b905081810360408301526113df818761134f565b90506113ee6060830186611390565b6113fb6080830185611390565b61140860a0830184611390565b979650505050505050565b61141c81611387565b8114611426575f80fd5b50565b5f8135905061143781611413565b92915050565b5f805f805f8060c0878903121561145757611456611182565b5b5f87013567ffffffffffffffff81111561147457611473611186565b5b61148089828a01611299565b965050602087013567ffffffffffffffff8111156114a1576114a0611186565b5b6114ad89828a01611299565b955050604087013567ffffffffffffffff8111156114ce576114cd611186565b5b6114da89828a01611299565b945050606087013567ffffffffffffffff8111156114fb576114fa611186565b5b61150789828a01611299565b935050608087013567ffffffffffffffff81111561152857611527611186565b5b61153489828a01611299565b92505060a061154589828a01611429565b9150509295509295509295565b5f8115159050919050565b61156681611552565b82525050565b5f60208201905061157f5f83018461155d565b92915050565b5f806040838503121561159b5761159a611182565b5b5f83013567ffffffffffffffff8111156115b8576115b7611186565b5b6115c485828601611299565b92505060206115d585828601611429565b9150509250929050565b5f805f805f8060c087890312156115f9576115f8611182565b5b5f87013567ffffffffffffffff81111561161657611615611186565b5b61162289828a01611299565b965050602087013567ffffffffffffffff81111561164357611642611186565b5b61164f89828a01611299565b955050604087013567ffffffffffffffff8111156116705761166f611186565b5b61167c89828a01611299565b945050606061168d89828a01611429565b935050608061169e89828a01611429565b92505060a06116af89828a01611429565b9150509295509295509295565b5f81905092915050565b5f6116d08261130d565b6116da81856116bc565b93506116ea818560208601611327565b80840191505092915050565b5f61170182846116c6565b915081905092915050565b7f4e487b71000000000000000000000000000000000000000000000000000000005f52602260045260245ffd5b5f600282049050600182168061175057607f821691505b6020821081036117635761176261170c565b5b50919050565b7f736f6d656e7465206f20646f6e6f20706f6465206368616d61722065737361205f8201527f66756e63616f0000000000000000000000000000000000000000000000000000602082015250565b5f6117c3602683611317565b91506117ce82611769565b604082019050919050565b5f6020820190508181035f8301526117f0816117b7565b9050919050565b7f6e656e68756d2070657266696c20636f6d707261646f000000000000000000005f82015250565b5f61182b601683611317565b9150611836826117f7565b602082019050919050565b5f6020820190508181035f8301526118588161181f565b9050919050565b7f5175616e74696461646520696e737566696369656e746520656d206573746f715f8201527f7565000000000000000000000000000000000000000000000000000000000000602082015250565b5f6118b9602283611317565b91506118c48261185f565b604082019050919050565b5f6020820190508181035f8301526118e6816118ad565b9050919050565b7f4e487b71000000000000000000000000000000000000000000000000000000005f52601160045260245ffd5b5f61192482611387565b915061192f83611387565b9250828203905081811115611947576119466118ed565b5b92915050565b5f6040820190508181035f830152611965818561134f565b90506119746020830184611390565b9392505050565b7f73616c646f20496e737566696369656e746500000000000000000000000000005f82015250565b5f6119af601283611317565b91506119ba8261197b565b602082019050919050565b5f6020820190508181035f8301526119dc816119a3565b9050919050565b5f819050815f5260205f209050919050565b5f6020601f8301049050919050565b5f82821b905092915050565b5f60088302611a3f7fffffffffffffffffffffffffffffffffffffffffffffffffffffffffffffffff82611a04565b611a498683611a04565b95508019841693508086168417925050509392505050565b5f819050919050565b5f611a84611a7f611a7a84611387565b611a61565b611387565b9050919050565b5f819050919050565b611a9d83611a6a565b611ab1611aa982611a8b565b848454611a10565b825550505050565b5f90565b611ac5611ab9565b611ad0818484611a94565b505050565b5b81811015611af357611ae85f82611abd565b600181019050611ad6565b5050565b601f821115611b3857611b09816119e3565b611b12846119f5565b81016020851015611b21578190505b611b35611b2d856119f5565b830182611ad5565b50505b505050565b5f82821c905092915050565b5f611b585f1984600802611b3d565b1980831691505092915050565b5f611b708383611b49565b9150826002028217905092915050565b611b898261130d565b67ffffffffffffffff811115611ba257611ba16111a2565b5b611bac8254611739565b611bb7828285611af7565b5f60209050601f831160018114611be8575f8415611bd6578287015190505b611be08582611b65565b865550611c47565b601f198416611bf6866119e3565b5f5b82811015611c1d57848901518255600182019150602085019450602081019050611bf8565b86831015611c3a5784890151611c36601f891682611b49565b8355505b6001600288020188555050505b505050505050565b5f611c5982611387565b9150611c6483611387565b9250828201905080821115611c7c57611c7b6118ed565b5b9291505056fea2646970667358221220519400c24d280cc83a6af8bc0e40bc3cf46f9843c9c5439fce4d56b3704a3b3a64736f6c63430008160033",
			"opcodes": "PUSH1 0x80 PUSH1 0x40 MSTORE PUSH1 0xA PUSH1 0x4 SSTORE PUSH0 PUSH1 0x5 PUSH0 PUSH2 0x100 EXP DUP2 SLOAD DUP2 PUSH1 0xFF MUL NOT AND SWAP1 DUP4 ISZERO ISZERO MUL OR SWAP1 SSTORE POP CALLVALUE DUP1 ISZERO PUSH2 0x2D JUMPI PUSH0 DUP1 REVERT JUMPDEST POP PUSH2 0x1CB8 DUP1 PUSH2 0x3B PUSH0 CODECOPY PUSH0 RETURN INVALID PUSH1 0x80 PUSH1 0x40 MSTORE PUSH1 0x4 CALLDATASIZE LT PUSH2 0x85 JUMPI PUSH0 CALLDATALOAD PUSH1 0xE0 SHR DUP1 PUSH4 0x53184F56 GT PUSH2 0x58 JUMPI DUP1 PUSH4 0x53184F56 EQ PUSH2 0x144 JUMPI DUP1 PUSH4 0x90628E69 EQ PUSH2 0x16C JUMPI DUP1 PUSH4 0xC1BDE161 EQ PUSH2 0x18A JUMPI DUP1 PUSH4 0xD2B18E3E EQ PUSH2 0x1CB JUMPI DUP1 PUSH4 0xEE2F1907 EQ PUSH2 0x1F3 JUMPI PUSH2 0x85 JUMP JUMPDEST DUP1 PUSH4 0x1F535563 EQ PUSH2 0x89 JUMPI DUP1 PUSH4 0x295EBE2C EQ PUSH2 0xCA JUMPI DUP1 PUSH4 0x396555AD EQ PUSH2 0xF2 JUMPI DUP1 PUSH4 0x5245D1D0 EQ PUSH2 0x11C JUMPI JUMPDEST PUSH0 DUP1 REVERT JUMPDEST CALLVALUE DUP1 ISZERO PUSH2 0x94 JUMPI PUSH0 DUP1 REVERT JUMPDEST POP PUSH2 0xAF PUSH1 0x4 DUP1 CALLDATASIZE SUB DUP2 ADD SWAP1 PUSH2 0xAA SWAP2 SWAP1 PUSH2 0x12C6 JUMP JUMPDEST PUSH2 0x21B JUMP JUMPDEST PUSH1 0x40 MLOAD PUSH2 0xC1 SWAP7 SWAP6 SWAP5 SWAP4 SWAP3 SWAP2 SWAP1 PUSH2 0x139F JUMP JUMPDEST PUSH1 0x40 MLOAD DUP1 SWAP2 SUB SWAP1 RETURN JUMPDEST CALLVALUE DUP1 ISZERO PUSH2 0xD5 JUMPI PUSH0 DUP1 REVERT JUMPDEST POP PUSH2 0xF0 PUSH1 0x4 DUP1 CALLDATASIZE SUB DUP2 ADD SWAP1 PUSH2 0xEB SWAP2 SWAP1 PUSH2 0x143D JUMP JUMPDEST PUSH2 0x474 JUMP JUMPDEST STOP JUMPDEST CALLVALUE DUP1 ISZERO PUSH2 0xFD JUMPI PUSH0 DUP1 REVERT JUMPDEST POP PUSH2 0x106 PUSH2 0x56C JUMP JUMPDEST PUSH1 0x40 MLOAD PUSH2 0x113 SWAP2 SWAP1 PUSH2 0x156C JUMP JUMPDEST PUSH1 0x40 MLOAD DUP1 SWAP2 SUB SWAP1 RETURN JUMPDEST CALLVALUE DUP1 ISZERO PUSH2 0x127 JUMPI PUSH0 DUP1 REVERT JUMPDEST POP PUSH2 0x142 PUSH1 0x4 DUP1 CALLDATASIZE SUB DUP2 ADD SWAP1 PUSH2 0x13D SWAP2 SWAP1 PUSH2 0x1585 JUMP JUMPDEST PUSH2 0x57E JUMP JUMPDEST STOP JUMPDEST CALLVALUE DUP1 ISZERO PUSH2 0x14F JUMPI PUSH0 DUP1 REVERT JUMPDEST POP PUSH2 0x16A PUSH1 0x4 DUP1 CALLDATASIZE SUB DUP2 ADD SWAP1 PUSH2 0x165 SWAP2 SWAP1 PUSH2 0x1585 JUMP JUMPDEST PUSH2 0x775 JUMP JUMPDEST STOP JUMPDEST PUSH2 0x174 PUSH2 0x971 JUMP JUMPDEST PUSH1 0x40 MLOAD PUSH2 0x181 SWAP2 SWAP1 PUSH2 0x156C JUMP JUMPDEST PUSH1 0x40 MLOAD DUP1 SWAP2 SUB SWAP1 RETURN JUMPDEST CALLVALUE DUP1 ISZERO PUSH2 0x195 JUMPI PUSH0 DUP1 REVERT JUMPDEST POP PUSH2 0x1B0 PUSH1 0x4 DUP1 CALLDATASIZE SUB DUP2 ADD SWAP1 PUSH2 0x1AB SWAP2 SWAP1 PUSH2 0x12C6 JUMP JUMPDEST PUSH2 0xA13 JUMP JUMPDEST PUSH1 0x40 MLOAD PUSH2 0x1C2 SWAP7 SWAP6 SWAP5 SWAP4 SWAP3 SWAP2 SWAP1 PUSH2 0x139F JUMP JUMPDEST PUSH1 0x40 MLOAD DUP1 SWAP2 SUB SWAP1 RETURN JUMPDEST CALLVALUE DUP1 ISZERO PUSH2 0x1D6 JUMPI PUSH0 DUP1 REVERT JUMPDEST POP PUSH2 0x1F1 PUSH1 0x4 DUP1 CALLDATASIZE SUB DUP2 ADD SWAP1 PUSH2 0x1EC SWAP2 SWAP1 PUSH2 0x15DF JUMP JUMPDEST PUSH2 0xC6C JUMP JUMPDEST STOP JUMPDEST CALLVALUE DUP1 ISZERO PUSH2 0x1FE JUMPI PUSH0 DUP1 REVERT JUMPDEST POP PUSH2 0x219 PUSH1 0x4 DUP1 CALLDATASIZE SUB DUP2 ADD SWAP1 PUSH2 0x214 SWAP2 SWAP1 PUSH2 0x15DF JUMP JUMPDEST PUSH2 0xE3B JUMP JUMPDEST STOP JUMPDEST PUSH1 0x60 DUP1 PUSH1 0x60 PUSH0 DUP1 PUSH0 DUP1 PUSH1 0xB DUP9 PUSH1 0x40 MLOAD PUSH2 0x234 SWAP2 SWAP1 PUSH2 0x16F6 JUMP JUMPDEST SWAP1 DUP2 MSTORE PUSH1 0x20 ADD PUSH1 0x40 MLOAD DUP1 SWAP2 SUB SWAP1 KECCAK256 PUSH1 0x40 MLOAD DUP1 PUSH1 0x20 ADD PUSH1 0x40 MSTORE SWAP1 DUP2 PUSH0 DUP3 ADD PUSH1 0x40 MLOAD DUP1 PUSH1 0xC0 ADD PUSH1 0x40 MSTORE SWAP1 DUP2 PUSH0 DUP3 ADD DUP1 SLOAD PUSH2 0x26B SWAP1 PUSH2 0x1739 JUMP JUMPDEST DUP1 PUSH1 0x1F ADD PUSH1 0x20 DUP1 SWAP2 DIV MUL PUSH1 0x20 ADD PUSH1 0x40 MLOAD SWAP1 DUP2 ADD PUSH1 0x40 MSTORE DUP1 SWAP3 SWAP2 SWAP1 DUP2 DUP2 MSTORE PUSH1 0x20 ADD DUP3 DUP1 SLOAD PUSH2 0x297 SWAP1 PUSH2 0x1739 JUMP JUMPDEST DUP1 ISZERO PUSH2 0x2E2 JUMPI DUP1 PUSH1 0x1F LT PUSH2 0x2B9 JUMPI PUSH2 0x100 DUP1 DUP4 SLOAD DIV MUL DUP4 MSTORE SWAP2 PUSH1 0x20 ADD SWAP2 PUSH2 0x2E2 JUMP JUMPDEST DUP3 ADD SWAP2 SWAP1 PUSH0 MSTORE PUSH1 0x20 PUSH0 KECCAK256 SWAP1 JUMPDEST DUP2 SLOAD DUP2 MSTORE SWAP1 PUSH1 0x1 ADD SWAP1 PUSH1 0x20 ADD DUP1 DUP4 GT PUSH2 0x2C5 JUMPI DUP3 SWAP1 SUB PUSH1 0x1F AND DUP3 ADD SWAP2 JUMPDEST POP POP POP POP POP DUP2 MSTORE PUSH1 0x20 ADD PUSH1 0x1 DUP3 ADD DUP1 SLOAD PUSH2 0x2FB SWAP1 PUSH2 0x1739 JUMP JUMPDEST DUP1 PUSH1 0x1F ADD PUSH1 0x20 DUP1 SWAP2 DIV MUL PUSH1 0x20 ADD PUSH1 0x40 MLOAD SWAP1 DUP2 ADD PUSH1 0x40 MSTORE DUP1 SWAP3 SWAP2 SWAP1 DUP2 DUP2 MSTORE PUSH1 0x20 ADD DUP3 DUP1 SLOAD PUSH2 0x327 SWAP1 PUSH2 0x1739 JUMP JUMPDEST DUP1 ISZERO PUSH2 0x372 JUMPI DUP1 PUSH1 0x1F LT PUSH2 0x349 JUMPI PUSH2 0x100 DUP1 DUP4 SLOAD DIV MUL DUP4 MSTORE SWAP2 PUSH1 0x20 ADD SWAP2 PUSH2 0x372 JUMP JUMPDEST DUP3 ADD SWAP2 SWAP1 PUSH0 MSTORE PUSH1 0x20 PUSH0 KECCAK256 SWAP1 JUMPDEST DUP2 SLOAD DUP2 MSTORE SWAP1 PUSH1 0x1 ADD SWAP1 PUSH1 0x20 ADD DUP1 DUP4 GT PUSH2 0x355 JUMPI DUP3 SWAP1 SUB PUSH1 0x1F AND DUP3 ADD SWAP2 JUMPDEST POP POP POP POP POP DUP2 MSTORE PUSH1 0x20 ADD PUSH1 0x2 DUP3 ADD DUP1 SLOAD PUSH2 0x38B SWAP1 PUSH2 0x1739 JUMP JUMPDEST DUP1 PUSH1 0x1F ADD PUSH1 0x20 DUP1 SWAP2 DIV MUL PUSH1 0x20 ADD PUSH1 0x40 MLOAD SWAP1 DUP2 ADD PUSH1 0x40 MSTORE DUP1 SWAP3 SWAP2 SWAP1 DUP2 DUP2 MSTORE PUSH1 0x20 ADD DUP3 DUP1 SLOAD PUSH2 0x3B7 SWAP1 PUSH2 0x1739 JUMP JUMPDEST DUP1 ISZERO PUSH2 0x402 JUMPI DUP1 PUSH1 0x1F LT PUSH2 0x3D9 JUMPI PUSH2 0x100 DUP1 DUP4 SLOAD DIV MUL DUP4 MSTORE SWAP2 PUSH1 0x20 ADD SWAP2 PUSH2 0x402 JUMP JUMPDEST DUP3 ADD SWAP2 SWAP1 PUSH0 MSTORE PUSH1 0x20 PUSH0 KECCAK256 SWAP1 JUMPDEST DUP2 SLOAD DUP2 MSTORE SWAP1 PUSH1 0x1 ADD SWAP1 PUSH1 0x20 ADD DUP1 DUP4 GT PUSH2 0x3E5 JUMPI DUP3 SWAP1 SUB PUSH1 0x1F AND DUP3 ADD SWAP2 JUMPDEST POP POP POP POP POP DUP2 MSTORE PUSH1 0x20 ADD PUSH1 0x3 DUP3 ADD SLOAD DUP2 MSTORE PUSH1 0x20 ADD PUSH1 0x4 DUP3 ADD SLOAD DUP2 MSTORE PUSH1 0x20 ADD PUSH1 0x5 DUP3 ADD SLOAD DUP2 MSTORE POP POP DUP2 MSTORE POP POP SWAP1 POP DUP1 PUSH0 ADD MLOAD PUSH0 ADD MLOAD DUP2 PUSH0 ADD MLOAD PUSH1 0x20 ADD MLOAD DUP3 PUSH0 ADD MLOAD PUSH1 0x40 ADD MLOAD DUP4 PUSH0 ADD MLOAD PUSH1 0x60 ADD MLOAD DUP5 PUSH0 ADD MLOAD PUSH1 0x80 ADD MLOAD DUP6 PUSH0 ADD MLOAD PUSH1 0xA0 ADD MLOAD SWAP7 POP SWAP7 POP SWAP7 POP SWAP7 POP SWAP7 POP SWAP7 POP POP SWAP2 SWAP4 SWAP6 POP SWAP2 SWAP4 SWAP6 JUMP JUMPDEST PUSH0 DUP1 SLOAD SWAP1 PUSH2 0x100 EXP SWAP1 DIV PUSH20 0xFFFFFFFFFFFFFFFFFFFFFFFFFFFFFFFFFFFFFFFF AND PUSH20 0xFFFFFFFFFFFFFFFFFFFFFFFFFFFFFFFFFFFFFFFF AND CALLER PUSH20 0xFFFFFFFFFFFFFFFFFFFFFFFFFFFFFFFFFFFFFFFF AND EQ PUSH2 0x501 JUMPI PUSH1 0x40 MLOAD PUSH32 0x8C379A000000000000000000000000000000000000000000000000000000000 DUP2 MSTORE PUSH1 0x4 ADD PUSH2 0x4F8 SWAP1 PUSH2 0x17D9 JUMP JUMPDEST PUSH1 0x40 MLOAD DUP1 SWAP2 SUB SWAP1 REVERT JUMPDEST PUSH1 0x1 ISZERO ISZERO PUSH1 0x5 PUSH0 SWAP1 SLOAD SWAP1 PUSH2 0x100 EXP SWAP1 DIV PUSH1 0xFF AND ISZERO ISZERO EQ PUSH2 0x556 JUMPI PUSH1 0x40 MLOAD PUSH32 0x8C379A000000000000000000000000000000000000000000000000000000000 DUP2 MSTORE PUSH1 0x4 ADD PUSH2 0x54D SWAP1 PUSH2 0x1841 JUMP JUMPDEST PUSH1 0x40 MLOAD DUP1 SWAP2 SUB SWAP1 REVERT JUMPDEST PUSH2 0x564 DUP7 DUP7 DUP7 DUP7 DUP7 DUP7 PUSH2 0x100A JUMP JUMPDEST POP POP POP POP POP POP JUMP JUMPDEST PUSH1 0x5 PUSH0 SWAP1 SLOAD SWAP1 PUSH2 0x100 EXP SWAP1 DIV PUSH1 0xFF AND DUP2 JUMP JUMPDEST PUSH0 DUP1 SLOAD SWAP1 PUSH2 0x100 EXP SWAP1 DIV PUSH20 0xFFFFFFFFFFFFFFFFFFFFFFFFFFFFFFFFFFFFFFFF AND PUSH20 0xFFFFFFFFFFFFFFFFFFFFFFFFFFFFFFFFFFFFFFFF AND CALLER PUSH20 0xFFFFFFFFFFFFFFFFFFFFFFFFFFFFFFFFFFFFFFFF AND EQ PUSH2 0x60B JUMPI PUSH1 0x40 MLOAD PUSH32 0x8C379A000000000000000000000000000000000000000000000000000000000 DUP2 MSTORE PUSH1 0x4 ADD PUSH2 0x602 SWAP1 PUSH2 0x17D9 JUMP JUMPDEST PUSH1 0x40 MLOAD DUP1 SWAP2 SUB SWAP1 REVERT JUMPDEST DUP1 PUSH1 0xB DUP4 PUSH1 0x40 MLOAD PUSH2 0x61C SWAP2 SWAP1 PUSH2 0x16F6 JUMP JUMPDEST SWAP1 DUP2 MSTORE PUSH1 0x20 ADD PUSH1 0x40 MLOAD DUP1 SWAP2 SUB SWAP1 KECCAK256 PUSH0 ADD PUSH1 0x5 ADD SLOAD LT ISZERO PUSH2 0x671 JUMPI PUSH1 0x40 MLOAD PUSH32 0x8C379A000000000000000000000000000000000000000000000000000000000 DUP2 MSTORE PUSH1 0x4 ADD PUSH2 0x668 SWAP1 PUSH2 0x18CF JUMP JUMPDEST PUSH1 0x40 MLOAD DUP1 SWAP2 SUB SWAP1 REVERT JUMPDEST DUP1 PUSH1 0xB DUP4 PUSH1 0x40 MLOAD PUSH2 0x682 SWAP2 SWAP1 PUSH2 0x16F6 JUMP JUMPDEST SWAP1 DUP2 MSTORE PUSH1 0x20 ADD PUSH1 0x40 MLOAD DUP1 SWAP2 SUB SWAP1 KECCAK256 PUSH0 ADD PUSH1 0x5 ADD PUSH0 DUP3 DUP3 SLOAD PUSH2 0x6A3 SWAP2 SWAP1 PUSH2 0x191A JUMP JUMPDEST SWAP3 POP POP DUP2 SWAP1 SSTORE POP DUP1 PUSH1 0xD DUP4 PUSH1 0x40 MLOAD PUSH2 0x6BB SWAP2 SWAP1 PUSH2 0x16F6 JUMP JUMPDEST SWAP1 DUP2 MSTORE PUSH1 0x20 ADD PUSH1 0x40 MLOAD DUP1 SWAP2 SUB SWAP1 KECCAK256 PUSH0 DUP3 DUP3 SLOAD PUSH2 0x6D7 SWAP2 SWAP1 PUSH2 0x191A JUMP JUMPDEST SWAP3 POP POP DUP2 SWAP1 SSTORE POP PUSH0 PUSH1 0xB DUP4 PUSH1 0x40 MLOAD PUSH2 0x6EF SWAP2 SWAP1 PUSH2 0x16F6 JUMP JUMPDEST SWAP1 DUP2 MSTORE PUSH1 0x20 ADD PUSH1 0x40 MLOAD DUP1 SWAP2 SUB SWAP1 KECCAK256 PUSH0 ADD PUSH1 0x5 ADD SLOAD SUB PUSH2 0x771 JUMPI PUSH1 0xB DUP3 PUSH1 0x40 MLOAD PUSH2 0x718 SWAP2 SWAP1 PUSH2 0x16F6 JUMP JUMPDEST SWAP1 DUP2 MSTORE PUSH1 0x20 ADD PUSH1 0x40 MLOAD DUP1 SWAP2 SUB SWAP1 KECCAK256 PUSH0 DUP1 DUP3 ADD PUSH0 DUP1 DUP3 ADD PUSH0 PUSH2 0x739 SWAP2 SWAP1 PUSH2 0x1121 JUMP JUMPDEST PUSH1 0x1 DUP3 ADD PUSH0 PUSH2 0x748 SWAP2 SWAP1 PUSH2 0x1121 JUMP JUMPDEST PUSH1 0x2 DUP3 ADD PUSH0 PUSH2 0x757 SWAP2 SWAP1 PUSH2 0x1121 JUMP JUMPDEST PUSH1 0x3 DUP3 ADD PUSH0 SWAP1 SSTORE PUSH1 0x4 DUP3 ADD PUSH0 SWAP1 SSTORE PUSH1 0x5 DUP3 ADD PUSH0 SWAP1 SSTORE POP POP POP POP JUMPDEST POP POP JUMP JUMPDEST PUSH0 DUP1 SLOAD SWAP1 PUSH2 0x100 EXP SWAP1 DIV PUSH20 0xFFFFFFFFFFFFFFFFFFFFFFFFFFFFFFFFFFFFFFFF AND PUSH20 0xFFFFFFFFFFFFFFFFFFFFFFFFFFFFFFFFFFFFFFFF AND CALLER PUSH20 0xFFFFFFFFFFFFFFFFFFFFFFFFFFFFFFFFFFFFFFFF AND EQ PUSH2 0x802 JUMPI PUSH1 0x40 MLOAD PUSH32 0x8C379A000000000000000000000000000000000000000000000000000000000 DUP2 MSTORE PUSH1 0x4 ADD PUSH2 0x7F9 SWAP1 PUSH2 0x17D9 JUMP JUMPDEST PUSH1 0x40 MLOAD DUP1 SWAP2 SUB SWAP1 REVERT JUMPDEST DUP1 PUSH1 0xC DUP4 PUSH1 0x40 MLOAD PUSH2 0x813 SWAP2 SWAP1 PUSH2 0x16F6 JUMP JUMPDEST SWAP1 DUP2 MSTORE PUSH1 0x20 ADD PUSH1 0x40 MLOAD DUP1 SWAP2 SUB SWAP1 KECCAK256 PUSH0 ADD PUSH1 0x5 ADD SLOAD LT ISZERO PUSH2 0x868 JUMPI PUSH1 0x40 MLOAD PUSH32 0x8C379A000000000000000000000000000000000000000000000000000000000 DUP2 MSTORE PUSH1 0x4 ADD PUSH2 0x85F SWAP1 PUSH2 0x18CF JUMP JUMPDEST PUSH1 0x40 MLOAD DUP1 SWAP2 SUB SWAP1 REVERT JUMPDEST DUP1 PUSH1 0xC DUP4 PUSH1 0x40 MLOAD PUSH2 0x879 SWAP2 SWAP1 PUSH2 0x16F6 JUMP JUMPDEST SWAP1 DUP2 MSTORE PUSH1 0x20 ADD PUSH1 0x40 MLOAD DUP1 SWAP2 SUB SWAP1 KECCAK256 PUSH0 ADD PUSH1 0x5 ADD PUSH0 DUP3 DUP3 SLOAD PUSH2 0x89A SWAP2 SWAP1 PUSH2 0x191A JUMP JUMPDEST SWAP3 POP POP DUP2 SWAP1 SSTORE POP PUSH0 PUSH1 0xC DUP4 PUSH1 0x40 MLOAD PUSH2 0x8B2 SWAP2 SWAP1 PUSH2 0x16F6 JUMP JUMPDEST SWAP1 DUP2 MSTORE PUSH1 0x20 ADD PUSH1 0x40 MLOAD DUP1 SWAP2 SUB SWAP1 KECCAK256 PUSH0 ADD PUSH1 0x5 ADD SLOAD SUB PUSH2 0x934 JUMPI PUSH1 0xC DUP3 PUSH1 0x40 MLOAD PUSH2 0x8DB SWAP2 SWAP1 PUSH2 0x16F6 JUMP JUMPDEST SWAP1 DUP2 MSTORE PUSH1 0x20 ADD PUSH1 0x40 MLOAD DUP1 SWAP2 SUB SWAP1 KECCAK256 PUSH0 DUP1 DUP3 ADD PUSH0 DUP1 DUP3 ADD PUSH0 PUSH2 0x8FC SWAP2 SWAP1 PUSH2 0x1121 JUMP JUMPDEST PUSH1 0x1 DUP3 ADD PUSH0 PUSH2 0x90B SWAP2 SWAP1 PUSH2 0x1121 JUMP JUMPDEST PUSH1 0x2 DUP3 ADD PUSH0 PUSH2 0x91A SWAP2 SWAP1 PUSH2 0x1121 JUMP JUMPDEST PUSH1 0x3 DUP3 ADD PUSH0 SWAP1 SSTORE PUSH1 0x4 DUP3 ADD PUSH0 SWAP1 SSTORE PUSH1 0x5 DUP3 ADD PUSH0 SWAP1 SSTORE POP POP POP POP JUMPDEST PUSH32 0x9603A62E507248F16DC1809BA54DDFDA4B21CD6DAC214A05DBFB4769F21D2ED2 DUP3 DUP3 PUSH1 0x40 MLOAD PUSH2 0x965 SWAP3 SWAP2 SWAP1 PUSH2 0x194D JUMP JUMPDEST PUSH1 0x40 MLOAD DUP1 SWAP2 SUB SWAP1 LOG1 POP POP JUMP JUMPDEST PUSH0 PUSH1 0x4 SLOAD CALLVALUE EQ PUSH2 0x9B6 JUMPI PUSH1 0x40 MLOAD PUSH32 0x8C379A000000000000000000000000000000000000000000000000000000000 DUP2 MSTORE PUSH1 0x4 ADD PUSH2 0x9AD SWAP1 PUSH2 0x19C5 JUMP JUMPDEST PUSH1 0x40 MLOAD DUP1 SWAP2 SUB SWAP1 REVERT JUMPDEST CALLER PUSH0 DUP1 PUSH2 0x100 EXP DUP2 SLOAD DUP2 PUSH20 0xFFFFFFFFFFFFFFFFFFFFFFFFFFFFFFFFFFFFFFFF MUL NOT AND SWAP1 DUP4 PUSH20 0xFFFFFFFFFFFFFFFFFFFFFFFFFFFFFFFFFFFFFFFF AND MUL OR SWAP1 SSTORE POP PUSH1 0x1 PUSH1 0x5 PUSH0 PUSH2 0x100 EXP DUP2 SLOAD DUP2 PUSH1 0xFF MUL NOT AND SWAP1 DUP4 ISZERO ISZERO MUL OR SWAP1 SSTORE SWAP1 POP SWAP1 JUMP JUMPDEST PUSH1 0x60 DUP1 PUSH1 0x60 PUSH0 DUP1 PUSH0 DUP1 PUSH1 0xC DUP9 PUSH1 0x40 MLOAD PUSH2 0xA2C SWAP2 SWAP1 PUSH2 0x16F6 JUMP JUMPDEST SWAP1 DUP2 MSTORE PUSH1 0x20 ADD PUSH1 0x40 MLOAD DUP1 SWAP2 SUB SWAP1 KECCAK256 PUSH1 0x40 MLOAD DUP1 PUSH1 0x20 ADD PUSH1 0x40 MSTORE SWAP1 DUP2 PUSH0 DUP3 ADD PUSH1 0x40 MLOAD DUP1 PUSH1 0xC0 ADD PUSH1 0x40 MSTORE SWAP1 DUP2 PUSH0 DUP3 ADD DUP1 SLOAD PUSH2 0xA63 SWAP1 PUSH2 0x1739 JUMP JUMPDEST DUP1 PUSH1 0x1F ADD PUSH1 0x20 DUP1 SWAP2 DIV MUL PUSH1 0x20 ADD PUSH1 0x40 MLOAD SWAP1 DUP2 ADD PUSH1 0x40 MSTORE DUP1 SWAP3 SWAP2 SWAP1 DUP2 DUP2 MSTORE PUSH1 0x20 ADD DUP3 DUP1 SLOAD PUSH2 0xA8F SWAP1 PUSH2 0x1739 JUMP JUMPDEST DUP1 ISZERO PUSH2 0xADA JUMPI DUP1 PUSH1 0x1F LT PUSH2 0xAB1 JUMPI PUSH2 0x100 DUP1 DUP4 SLOAD DIV MUL DUP4 MSTORE SWAP2 PUSH1 0x20 ADD SWAP2 PUSH2 0xADA JUMP JUMPDEST DUP3 ADD SWAP2 SWAP1 PUSH0 MSTORE PUSH1 0x20 PUSH0 KECCAK256 SWAP1 JUMPDEST DUP2 SLOAD DUP2 MSTORE SWAP1 PUSH1 0x1 ADD SWAP1 PUSH1 0x20 ADD DUP1 DUP4 GT PUSH2 0xABD JUMPI DUP3 SWAP1 SUB PUSH1 0x1F AND DUP3 ADD SWAP2 JUMPDEST POP POP POP POP POP DUP2 MSTORE PUSH1 0x20 ADD PUSH1 0x1 DUP3 ADD DUP1 SLOAD PUSH2 0xAF3 SWAP1 PUSH2 0x1739 JUMP JUMPDEST DUP1 PUSH1 0x1F ADD PUSH1 0x20 DUP1 SWAP2 DIV MUL PUSH1 0x20 ADD PUSH1 0x40 MLOAD SWAP1 DUP2 ADD PUSH1 0x40 MSTORE DUP1 SWAP3 SWAP2 SWAP1 DUP2 DUP2 MSTORE PUSH1 0x20 ADD DUP3 DUP1 SLOAD PUSH2 0xB1F SWAP1 PUSH2 0x1739 JUMP JUMPDEST DUP1 ISZERO PUSH2 0xB6A JUMPI DUP1 PUSH1 0x1F LT PUSH2 0xB41 JUMPI PUSH2 0x100 DUP1 DUP4 SLOAD DIV MUL DUP4 MSTORE SWAP2 PUSH1 0x20 ADD SWAP2 PUSH2 0xB6A JUMP JUMPDEST DUP3 ADD SWAP2 SWAP1 PUSH0 MSTORE PUSH1 0x20 PUSH0 KECCAK256 SWAP1 JUMPDEST DUP2 SLOAD DUP2 MSTORE SWAP1 PUSH1 0x1 ADD SWAP1 PUSH1 0x20 ADD DUP1 DUP4 GT PUSH2 0xB4D JUMPI DUP3 SWAP1 SUB PUSH1 0x1F AND DUP3 ADD SWAP2 JUMPDEST POP POP POP POP POP DUP2 MSTORE PUSH1 0x20 ADD PUSH1 0x2 DUP3 ADD DUP1 SLOAD PUSH2 0xB83 SWAP1 PUSH2 0x1739 JUMP JUMPDEST DUP1 PUSH1 0x1F ADD PUSH1 0x20 DUP1 SWAP2 DIV MUL PUSH1 0x20 ADD PUSH1 0x40 MLOAD SWAP1 DUP2 ADD PUSH1 0x40 MSTORE DUP1 SWAP3 SWAP2 SWAP1 DUP2 DUP2 MSTORE PUSH1 0x20 ADD DUP3 DUP1 SLOAD PUSH2 0xBAF SWAP1 PUSH2 0x1739 JUMP JUMPDEST DUP1 ISZERO PUSH2 0xBFA JUMPI DUP1 PUSH1 0x1F LT PUSH2 0xBD1 JUMPI PUSH2 0x100 DUP1 DUP4 SLOAD DIV MUL DUP4 MSTORE SWAP2 PUSH1 0x20 ADD SWAP2 PUSH2 0xBFA JUMP JUMPDEST DUP3 ADD SWAP2 SWAP1 PUSH0 MSTORE PUSH1 0x20 PUSH0 KECCAK256 SWAP1 JUMPDEST DUP2 SLOAD DUP2 MSTORE SWAP1 PUSH1 0x1 ADD SWAP1 PUSH1 0x20 ADD DUP1 DUP4 GT PUSH2 0xBDD JUMPI DUP3 SWAP1 SUB PUSH1 0x1F AND DUP3 ADD SWAP2 JUMPDEST POP POP POP POP POP DUP2 MSTORE PUSH1 0x20 ADD PUSH1 0x3 DUP3 ADD SLOAD DUP2 MSTORE PUSH1 0x20 ADD PUSH1 0x4 DUP3 ADD SLOAD DUP2 MSTORE PUSH1 0x20 ADD PUSH1 0x5 DUP3 ADD SLOAD DUP2 MSTORE POP POP DUP2 MSTORE POP POP SWAP1 POP DUP1 PUSH0 ADD MLOAD PUSH0 ADD MLOAD DUP2 PUSH0 ADD MLOAD PUSH1 0x20 ADD MLOAD DUP3 PUSH0 ADD MLOAD PUSH1 0x40 ADD MLOAD DUP4 PUSH0 ADD MLOAD PUSH1 0x60 ADD MLOAD DUP5 PUSH0 ADD MLOAD PUSH1 0x80 ADD MLOAD DUP6 PUSH0 ADD MLOAD PUSH1 0xA0 ADD MLOAD SWAP7 POP SWAP7 POP SWAP7 POP SWAP7 POP SWAP7 POP SWAP7 POP POP SWAP2 SWAP4 SWAP6 POP SWAP2 SWAP4 SWAP6 JUMP JUMPDEST PUSH0 DUP1 SLOAD SWAP1 PUSH2 0x100 EXP SWAP1 DIV PUSH20 0xFFFFFFFFFFFFFFFFFFFFFFFFFFFFFFFFFFFFFFFF AND PUSH20 0xFFFFFFFFFFFFFFFFFFFFFFFFFFFFFFFFFFFFFFFF AND CALLER PUSH20 0xFFFFFFFFFFFFFFFFFFFFFFFFFFFFFFFFFFFFFFFF AND EQ PUSH2 0xCF9 JUMPI PUSH1 0x40 MLOAD PUSH32 0x8C379A000000000000000000000000000000000000000000000000000000000 DUP2 MSTORE PUSH1 0x4 ADD PUSH2 0xCF0 SWAP1 PUSH2 0x17D9 JUMP JUMPDEST PUSH1 0x40 MLOAD DUP1 SWAP2 SUB SWAP1 REVERT JUMPDEST PUSH0 PUSH1 0x40 MLOAD DUP1 PUSH1 0xC0 ADD PUSH1 0x40 MSTORE DUP1 DUP9 DUP2 MSTORE PUSH1 0x20 ADD DUP8 DUP2 MSTORE PUSH1 0x20 ADD DUP7 DUP2 MSTORE PUSH1 0x20 ADD DUP6 DUP2 MSTORE PUSH1 0x20 ADD DUP5 DUP2 MSTORE PUSH1 0x20 ADD DUP4 DUP2 MSTORE POP SWAP1 POP PUSH0 PUSH1 0x40 MLOAD DUP1 PUSH1 0x20 ADD PUSH1 0x40 MSTORE DUP1 DUP4 DUP2 MSTORE POP SWAP1 POP DUP1 PUSH1 0xC DUP10 PUSH1 0x40 MLOAD PUSH2 0xD4C SWAP2 SWAP1 PUSH2 0x16F6 JUMP JUMPDEST SWAP1 DUP2 MSTORE PUSH1 0x20 ADD PUSH1 0x40 MLOAD DUP1 SWAP2 SUB SWAP1 KECCAK256 PUSH0 DUP3 ADD MLOAD DUP2 PUSH0 ADD PUSH0 DUP3 ADD MLOAD DUP2 PUSH0 ADD SWAP1 DUP2 PUSH2 0xD74 SWAP2 SWAP1 PUSH2 0x1B80 JUMP JUMPDEST POP PUSH1 0x20 DUP3 ADD MLOAD DUP2 PUSH1 0x1 ADD SWAP1 DUP2 PUSH2 0xD8A SWAP2 SWAP1 PUSH2 0x1B80 JUMP JUMPDEST POP PUSH1 0x40 DUP3 ADD MLOAD DUP2 PUSH1 0x2 ADD SWAP1 DUP2 PUSH2 0xDA0 SWAP2 SWAP1 PUSH2 0x1B80 JUMP JUMPDEST POP PUSH1 0x60 DUP3 ADD MLOAD DUP2 PUSH1 0x3 ADD SSTORE PUSH1 0x80 DUP3 ADD MLOAD DUP2 PUSH1 0x4 ADD SSTORE PUSH1 0xA0 DUP3 ADD MLOAD DUP2 PUSH1 0x5 ADD SSTORE POP POP SWAP1 POP POP DUP3 PUSH1 0xD DUP10 PUSH1 0x40 MLOAD PUSH2 0xDD5 SWAP2 SWAP1 PUSH2 0x16F6 JUMP JUMPDEST SWAP1 DUP2 MSTORE PUSH1 0x20 ADD PUSH1 0x40 MLOAD DUP1 SWAP2 SUB SWAP1 KECCAK256 PUSH0 DUP3 DUP3 SLOAD PUSH2 0xDF1 SWAP2 SWAP1 PUSH2 0x1C4F JUMP JUMPDEST SWAP3 POP POP DUP2 SWAP1 SSTORE POP PUSH32 0x89DAD4C7CF097BD405685BF48B3760BCC26280CBB8832689A1ED04DA9190A41A DUP9 DUP5 PUSH1 0x40 MLOAD PUSH2 0xE29 SWAP3 SWAP2 SWAP1 PUSH2 0x194D JUMP JUMPDEST PUSH1 0x40 MLOAD DUP1 SWAP2 SUB SWAP1 LOG1 POP POP POP POP POP POP POP POP JUMP JUMPDEST PUSH0 DUP1 SLOAD SWAP1 PUSH2 0x100 EXP SWAP1 DIV PUSH20 0xFFFFFFFFFFFFFFFFFFFFFFFFFFFFFFFFFFFFFFFF AND PUSH20 0xFFFFFFFFFFFFFFFFFFFFFFFFFFFFFFFFFFFFFFFF AND CALLER PUSH20 0xFFFFFFFFFFFFFFFFFFFFFFFFFFFFFFFFFFFFFFFF AND EQ PUSH2 0xEC8 JUMPI PUSH1 0x40 MLOAD PUSH32 0x8C379A000000000000000000000000000000000000000000000000000000000 DUP2 MSTORE PUSH1 0x4 ADD PUSH2 0xEBF SWAP1 PUSH2 0x17D9 JUMP JUMPDEST PUSH1 0x40 MLOAD DUP1 SWAP2 SUB SWAP1 REVERT JUMPDEST PUSH0 PUSH1 0x40 MLOAD DUP1 PUSH1 0xC0 ADD PUSH1 0x40 MSTORE DUP1 DUP9 DUP2 MSTORE PUSH1 0x20 ADD DUP8 DUP2 MSTORE PUSH1 0x20 ADD DUP7 DUP2 MSTORE PUSH1 0x20 ADD DUP6 DUP2 MSTORE PUSH1 0x20 ADD DUP5 DUP2 MSTORE PUSH1 0x20 ADD DUP4 DUP2 MSTORE POP SWAP1 POP PUSH0 PUSH1 0x40 MLOAD DUP1 PUSH1 0x20 ADD PUSH1 0x40 MSTORE DUP1 DUP4 DUP2 MSTORE POP SWAP1 POP DUP1 PUSH1 0xB DUP10 PUSH1 0x40 MLOAD PUSH2 0xF1B SWAP2 SWAP1 PUSH2 0x16F6 JUMP JUMPDEST SWAP1 DUP2 MSTORE PUSH1 0x20 ADD PUSH1 0x40 MLOAD DUP1 SWAP2 SUB SWAP1 KECCAK256 PUSH0 DUP3 ADD MLOAD DUP2 PUSH0 ADD PUSH0 DUP3 ADD MLOAD DUP2 PUSH0 ADD SWAP1 DUP2 PUSH2 0xF43 SWAP2 SWAP1 PUSH2 0x1B80 JUMP JUMPDEST POP PUSH1 0x20 DUP3 ADD MLOAD DUP2 PUSH1 0x1 ADD SWAP1 DUP2 PUSH2 0xF59 SWAP2 SWAP1 PUSH2 0x1B80 JUMP JUMPDEST POP PUSH1 0x40 DUP3 ADD MLOAD DUP2 PUSH1 0x2 ADD SWAP1 DUP2 PUSH2 0xF6F SWAP2 SWAP1 PUSH2 0x1B80 JUMP JUMPDEST POP PUSH1 0x60 DUP3 ADD MLOAD DUP2 PUSH1 0x3 ADD SSTORE PUSH1 0x80 DUP3 ADD MLOAD DUP2 PUSH1 0x4 ADD SSTORE PUSH1 0xA0 DUP3 ADD MLOAD DUP2 PUSH1 0x5 ADD SSTORE POP POP SWAP1 POP POP DUP3 PUSH1 0xD DUP10 PUSH1 0x40 MLOAD PUSH2 0xFA4 SWAP2 SWAP1 PUSH2 0x16F6 JUMP JUMPDEST SWAP1 DUP2 MSTORE PUSH1 0x20 ADD PUSH1 0x40 MLOAD DUP1 SWAP2 SUB SWAP1 KECCAK256 PUSH0 DUP3 DUP3 SLOAD PUSH2 0xFC0 SWAP2 SWAP1 PUSH2 0x1C4F JUMP JUMPDEST SWAP3 POP POP DUP2 SWAP1 SSTORE POP PUSH32 0x14AADD2B4E12B29A34A01DE343378D6580ECA01108DBEDB75DB5D1EA9351622 DUP9 DUP5 PUSH1 0x40 MLOAD PUSH2 0xFF8 SWAP3 SWAP2 SWAP1 PUSH2 0x194D JUMP JUMPDEST PUSH1 0x40 MLOAD DUP1 SWAP2 SUB SWAP1 LOG1 POP POP POP POP POP POP POP POP JUMP JUMPDEST PUSH1 0x40 MLOAD DUP1 PUSH1 0xC0 ADD PUSH1 0x40 MSTORE DUP1 DUP8 DUP2 MSTORE PUSH1 0x20 ADD DUP7 DUP2 MSTORE PUSH1 0x20 ADD DUP6 DUP2 MSTORE PUSH1 0x20 ADD DUP5 DUP2 MSTORE PUSH1 0x20 ADD DUP4 DUP2 MSTORE PUSH1 0x20 ADD DUP3 DUP2 MSTORE POP PUSH1 0x8 PUSH0 CALLER PUSH20 0xFFFFFFFFFFFFFFFFFFFFFFFFFFFFFFFFFFFFFFFF AND PUSH20 0xFFFFFFFFFFFFFFFFFFFFFFFFFFFFFFFFFFFFFFFF AND DUP2 MSTORE PUSH1 0x20 ADD SWAP1 DUP2 MSTORE PUSH1 0x20 ADD PUSH0 KECCAK256 PUSH0 DUP3 ADD MLOAD DUP2 PUSH0 ADD SWAP1 DUP2 PUSH2 0x1087 SWAP2 SWAP1 PUSH2 0x1B80 JUMP JUMPDEST POP PUSH1 0x20 DUP3 ADD MLOAD DUP2 PUSH1 0x1 ADD SWAP1 DUP2 PUSH2 0x109D SWAP2 SWAP1 PUSH2 0x1B80 JUMP JUMPDEST POP PUSH1 0x40 DUP3 ADD MLOAD DUP2 PUSH1 0x2 ADD SWAP1 DUP2 PUSH2 0x10B3 SWAP2 SWAP1 PUSH2 0x1B80 JUMP JUMPDEST POP PUSH1 0x60 DUP3 ADD MLOAD DUP2 PUSH1 0x3 ADD SWAP1 DUP2 PUSH2 0x10C9 SWAP2 SWAP1 PUSH2 0x1B80 JUMP JUMPDEST POP PUSH1 0x80 DUP3 ADD MLOAD DUP2 PUSH1 0x4 ADD SWAP1 DUP2 PUSH2 0x10DF SWAP2 SWAP1 PUSH2 0x1B80 JUMP JUMPDEST POP PUSH1 0xA0 DUP3 ADD MLOAD DUP2 PUSH1 0x5 ADD SSTORE SWAP1 POP POP PUSH32 0x602903B4AB82B8294B982DF6E30144AEA8E41D3EB12B3214C2800B515AC12F91 PUSH1 0x40 MLOAD PUSH1 0x40 MLOAD DUP1 SWAP2 SUB SWAP1 LOG1 POP POP POP POP POP POP JUMP JUMPDEST POP DUP1 SLOAD PUSH2 0x112D SWAP1 PUSH2 0x1739 JUMP JUMPDEST PUSH0 DUP3 SSTORE DUP1 PUSH1 0x1F LT PUSH2 0x113E JUMPI POP PUSH2 0x115B JUMP JUMPDEST PUSH1 0x1F ADD PUSH1 0x20 SWAP1 DIV SWAP1 PUSH0 MSTORE PUSH1 0x20 PUSH0 KECCAK256 SWAP1 DUP2 ADD SWAP1 PUSH2 0x115A SWAP2 SWAP1 PUSH2 0x115E JUMP JUMPDEST JUMPDEST POP JUMP JUMPDEST JUMPDEST DUP1 DUP3 GT ISZERO PUSH2 0x1175 JUMPI PUSH0 DUP2 PUSH0 SWAP1 SSTORE POP PUSH1 0x1 ADD PUSH2 0x115F JUMP JUMPDEST POP SWAP1 JUMP JUMPDEST PUSH0 PUSH1 0x40 MLOAD SWAP1 POP SWAP1 JUMP JUMPDEST PUSH0 DUP1 REVERT JUMPDEST PUSH0 DUP1 REVERT JUMPDEST PUSH0 DUP1 REVERT JUMPDEST PUSH0 DUP1 REVERT JUMPDEST PUSH0 PUSH1 0x1F NOT PUSH1 0x1F DUP4 ADD AND SWAP1 POP SWAP2 SWAP1 POP JUMP JUMPDEST PUSH32 0x4E487B7100000000000000000000000000000000000000000000000000000000 PUSH0 MSTORE PUSH1 0x41 PUSH1 0x4 MSTORE PUSH1 0x24 PUSH0 REVERT JUMPDEST PUSH2 0x11D8 DUP3 PUSH2 0x1192 JUMP JUMPDEST DUP2 ADD DUP2 DUP2 LT PUSH8 0xFFFFFFFFFFFFFFFF DUP3 GT OR ISZERO PUSH2 0x11F7 JUMPI PUSH2 0x11F6 PUSH2 0x11A2 JUMP JUMPDEST JUMPDEST DUP1 PUSH1 0x40 MSTORE POP POP POP JUMP JUMPDEST PUSH0 PUSH2 0x1209 PUSH2 0x1179 JUMP JUMPDEST SWAP1 POP PUSH2 0x1215 DUP3 DUP3 PUSH2 0x11CF JUMP JUMPDEST SWAP2 SWAP1 POP JUMP JUMPDEST PUSH0 PUSH8 0xFFFFFFFFFFFFFFFF DUP3 GT ISZERO PUSH2 0x1234 JUMPI PUSH2 0x1233 PUSH2 0x11A2 JUMP JUMPDEST JUMPDEST PUSH2 0x123D DUP3 PUSH2 0x1192 JUMP JUMPDEST SWAP1 POP PUSH1 0x20 DUP2 ADD SWAP1 POP SWAP2 SWAP1 POP JUMP JUMPDEST DUP3 DUP2 DUP4 CALLDATACOPY PUSH0 DUP4 DUP4 ADD MSTORE POP POP POP JUMP JUMPDEST PUSH0 PUSH2 0x126A PUSH2 0x1265 DUP5 PUSH2 0x121A JUMP JUMPDEST PUSH2 0x1200 JUMP JUMPDEST SWAP1 POP DUP3 DUP2 MSTORE PUSH1 0x20 DUP2 ADD DUP5 DUP5 DUP5 ADD GT ISZERO PUSH2 0x1286 JUMPI PUSH2 0x1285 PUSH2 0x118E JUMP JUMPDEST JUMPDEST PUSH2 0x1291 DUP5 DUP3 DUP6 PUSH2 0x124A JUMP JUMPDEST POP SWAP4 SWAP3 POP POP POP JUMP JUMPDEST PUSH0 DUP3 PUSH1 0x1F DUP4 ADD SLT PUSH2 0x12AD JUMPI PUSH2 0x12AC PUSH2 0x118A JUMP JUMPDEST JUMPDEST DUP2 CALLDATALOAD PUSH2 0x12BD DUP5 DUP3 PUSH1 0x20 DUP7 ADD PUSH2 0x1258 JUMP JUMPDEST SWAP2 POP POP SWAP3 SWAP2 POP POP JUMP JUMPDEST PUSH0 PUSH1 0x20 DUP3 DUP5 SUB SLT ISZERO PUSH2 0x12DB JUMPI PUSH2 0x12DA PUSH2 0x1182 JUMP JUMPDEST JUMPDEST PUSH0 DUP3 ADD CALLDATALOAD PUSH8 0xFFFFFFFFFFFFFFFF DUP2 GT ISZERO PUSH2 0x12F8 JUMPI PUSH2 0x12F7 PUSH2 0x1186 JUMP JUMPDEST JUMPDEST PUSH2 0x1304 DUP5 DUP3 DUP6 ADD PUSH2 0x1299 JUMP JUMPDEST SWAP2 POP POP SWAP3 SWAP2 POP POP JUMP JUMPDEST PUSH0 DUP2 MLOAD SWAP1 POP SWAP2 SWAP1 POP JUMP JUMPDEST PUSH0 DUP3 DUP3 MSTORE PUSH1 0x20 DUP3 ADD SWAP1 POP SWAP3 SWAP2 POP POP JUMP JUMPDEST PUSH0 JUMPDEST DUP4 DUP2 LT ISZERO PUSH2 0x1344 JUMPI DUP1 DUP3 ADD MLOAD DUP2 DUP5 ADD MSTORE PUSH1 0x20 DUP2 ADD SWAP1 POP PUSH2 0x1329 JUMP JUMPDEST PUSH0 DUP5 DUP5 ADD MSTORE POP POP POP POP JUMP JUMPDEST PUSH0 PUSH2 0x1359 DUP3 PUSH2 0x130D JUMP JUMPDEST PUSH2 0x1363 DUP2 DUP6 PUSH2 0x1317 JUMP JUMPDEST SWAP4 POP PUSH2 0x1373 DUP2 DUP6 PUSH1 0x20 DUP7 ADD PUSH2 0x1327 JUMP JUMPDEST PUSH2 0x137C DUP2 PUSH2 0x1192 JUMP JUMPDEST DUP5 ADD SWAP2 POP POP SWAP3 SWAP2 POP POP JUMP JUMPDEST PUSH0 DUP2 SWAP1 POP SWAP2 SWAP1 POP JUMP JUMPDEST PUSH2 0x1399 DUP2 PUSH2 0x1387 JUMP JUMPDEST DUP3 MSTORE POP POP JUMP JUMPDEST PUSH0 PUSH1 0xC0 DUP3 ADD SWAP1 POP DUP2 DUP2 SUB PUSH0 DUP4 ADD MSTORE PUSH2 0x13B7 DUP2 DUP10 PUSH2 0x134F JUMP JUMPDEST SWAP1 POP DUP2 DUP2 SUB PUSH1 0x20 DUP4 ADD MSTORE PUSH2 0x13CB DUP2 DUP9 PUSH2 0x134F JUMP JUMPDEST SWAP1 POP DUP2 DUP2 SUB PUSH1 0x40 DUP4 ADD MSTORE PUSH2 0x13DF DUP2 DUP8 PUSH2 0x134F JUMP JUMPDEST SWAP1 POP PUSH2 0x13EE PUSH1 0x60 DUP4 ADD DUP7 PUSH2 0x1390 JUMP JUMPDEST PUSH2 0x13FB PUSH1 0x80 DUP4 ADD DUP6 PUSH2 0x1390 JUMP JUMPDEST PUSH2 0x1408 PUSH1 0xA0 DUP4 ADD DUP5 PUSH2 0x1390 JUMP JUMPDEST SWAP8 SWAP7 POP POP POP POP POP POP POP JUMP JUMPDEST PUSH2 0x141C DUP2 PUSH2 0x1387 JUMP JUMPDEST DUP2 EQ PUSH2 0x1426 JUMPI PUSH0 DUP1 REVERT JUMPDEST POP JUMP JUMPDEST PUSH0 DUP2 CALLDATALOAD SWAP1 POP PUSH2 0x1437 DUP2 PUSH2 0x1413 JUMP JUMPDEST SWAP3 SWAP2 POP POP JUMP JUMPDEST PUSH0 DUP1 PUSH0 DUP1 PUSH0 DUP1 PUSH1 0xC0 DUP8 DUP10 SUB SLT ISZERO PUSH2 0x1457 JUMPI PUSH2 0x1456 PUSH2 0x1182 JUMP JUMPDEST JUMPDEST PUSH0 DUP8 ADD CALLDATALOAD PUSH8 0xFFFFFFFFFFFFFFFF DUP2 GT ISZERO PUSH2 0x1474 JUMPI PUSH2 0x1473 PUSH2 0x1186 JUMP JUMPDEST JUMPDEST PUSH2 0x1480 DUP10 DUP3 DUP11 ADD PUSH2 0x1299 JUMP JUMPDEST SWAP7 POP POP PUSH1 0x20 DUP8 ADD CALLDATALOAD PUSH8 0xFFFFFFFFFFFFFFFF DUP2 GT ISZERO PUSH2 0x14A1 JUMPI PUSH2 0x14A0 PUSH2 0x1186 JUMP JUMPDEST JUMPDEST PUSH2 0x14AD DUP10 DUP3 DUP11 ADD PUSH2 0x1299 JUMP JUMPDEST SWAP6 POP POP PUSH1 0x40 DUP8 ADD CALLDATALOAD PUSH8 0xFFFFFFFFFFFFFFFF DUP2 GT ISZERO PUSH2 0x14CE JUMPI PUSH2 0x14CD PUSH2 0x1186 JUMP JUMPDEST JUMPDEST PUSH2 0x14DA DUP10 DUP3 DUP11 ADD PUSH2 0x1299 JUMP JUMPDEST SWAP5 POP POP PUSH1 0x60 DUP8 ADD CALLDATALOAD PUSH8 0xFFFFFFFFFFFFFFFF DUP2 GT ISZERO PUSH2 0x14FB JUMPI PUSH2 0x14FA PUSH2 0x1186 JUMP JUMPDEST JUMPDEST PUSH2 0x1507 DUP10 DUP3 DUP11 ADD PUSH2 0x1299 JUMP JUMPDEST SWAP4 POP POP PUSH1 0x80 DUP8 ADD CALLDATALOAD PUSH8 0xFFFFFFFFFFFFFFFF DUP2 GT ISZERO PUSH2 0x1528 JUMPI PUSH2 0x1527 PUSH2 0x1186 JUMP JUMPDEST JUMPDEST PUSH2 0x1534 DUP10 DUP3 DUP11 ADD PUSH2 0x1299 JUMP JUMPDEST SWAP3 POP POP PUSH1 0xA0 PUSH2 0x1545 DUP10 DUP3 DUP11 ADD PUSH2 0x1429 JUMP JUMPDEST SWAP2 POP POP SWAP3 SWAP6 POP SWAP3 SWAP6 POP SWAP3 SWAP6 JUMP JUMPDEST PUSH0 DUP2 ISZERO ISZERO SWAP1 POP SWAP2 SWAP1 POP JUMP JUMPDEST PUSH2 0x1566 DUP2 PUSH2 0x1552 JUMP JUMPDEST DUP3 MSTORE POP POP JUMP JUMPDEST PUSH0 PUSH1 0x20 DUP3 ADD SWAP1 POP PUSH2 0x157F PUSH0 DUP4 ADD DUP5 PUSH2 0x155D JUMP JUMPDEST SWAP3 SWAP2 POP POP JUMP JUMPDEST PUSH0 DUP1 PUSH1 0x40 DUP4 DUP6 SUB SLT ISZERO PUSH2 0x159B JUMPI PUSH2 0x159A PUSH2 0x1182 JUMP JUMPDEST JUMPDEST PUSH0 DUP4 ADD CALLDATALOAD PUSH8 0xFFFFFFFFFFFFFFFF DUP2 GT ISZERO PUSH2 0x15B8 JUMPI PUSH2 0x15B7 PUSH2 0x1186 JUMP JUMPDEST JUMPDEST PUSH2 0x15C4 DUP6 DUP3 DUP7 ADD PUSH2 0x1299 JUMP JUMPDEST SWAP3 POP POP PUSH1 0x20 PUSH2 0x15D5 DUP6 DUP3 DUP7 ADD PUSH2 0x1429 JUMP JUMPDEST SWAP2 POP POP SWAP3 POP SWAP3 SWAP1 POP JUMP JUMPDEST PUSH0 DUP1 PUSH0 DUP1 PUSH0 DUP1 PUSH1 0xC0 DUP8 DUP10 SUB SLT ISZERO PUSH2 0x15F9 JUMPI PUSH2 0x15F8 PUSH2 0x1182 JUMP JUMPDEST JUMPDEST PUSH0 DUP8 ADD CALLDATALOAD PUSH8 0xFFFFFFFFFFFFFFFF DUP2 GT ISZERO PUSH2 0x1616 JUMPI PUSH2 0x1615 PUSH2 0x1186 JUMP JUMPDEST JUMPDEST PUSH2 0x1622 DUP10 DUP3 DUP11 ADD PUSH2 0x1299 JUMP JUMPDEST SWAP7 POP POP PUSH1 0x20 DUP8 ADD CALLDATALOAD PUSH8 0xFFFFFFFFFFFFFFFF DUP2 GT ISZERO PUSH2 0x1643 JUMPI PUSH2 0x1642 PUSH2 0x1186 JUMP JUMPDEST JUMPDEST PUSH2 0x164F DUP10 DUP3 DUP11 ADD PUSH2 0x1299 JUMP JUMPDEST SWAP6 POP POP PUSH1 0x40 DUP8 ADD CALLDATALOAD PUSH8 0xFFFFFFFFFFFFFFFF DUP2 GT ISZERO PUSH2 0x1670 JUMPI PUSH2 0x166F PUSH2 0x1186 JUMP JUMPDEST JUMPDEST PUSH2 0x167C DUP10 DUP3 DUP11 ADD PUSH2 0x1299 JUMP JUMPDEST SWAP5 POP POP PUSH1 0x60 PUSH2 0x168D DUP10 DUP3 DUP11 ADD PUSH2 0x1429 JUMP JUMPDEST SWAP4 POP POP PUSH1 0x80 PUSH2 0x169E DUP10 DUP3 DUP11 ADD PUSH2 0x1429 JUMP JUMPDEST SWAP3 POP POP PUSH1 0xA0 PUSH2 0x16AF DUP10 DUP3 DUP11 ADD PUSH2 0x1429 JUMP JUMPDEST SWAP2 POP POP SWAP3 SWAP6 POP SWAP3 SWAP6 POP SWAP3 SWAP6 JUMP JUMPDEST PUSH0 DUP2 SWAP1 POP SWAP3 SWAP2 POP POP JUMP JUMPDEST PUSH0 PUSH2 0x16D0 DUP3 PUSH2 0x130D JUMP JUMPDEST PUSH2 0x16DA DUP2 DUP6 PUSH2 0x16BC JUMP JUMPDEST SWAP4 POP PUSH2 0x16EA DUP2 DUP6 PUSH1 0x20 DUP7 ADD PUSH2 0x1327 JUMP JUMPDEST DUP1 DUP5 ADD SWAP2 POP POP SWAP3 SWAP2 POP POP JUMP JUMPDEST PUSH0 PUSH2 0x1701 DUP3 DUP5 PUSH2 0x16C6 JUMP JUMPDEST SWAP2 POP DUP2 SWAP1 POP SWAP3 SWAP2 POP POP JUMP JUMPDEST PUSH32 0x4E487B7100000000000000000000000000000000000000000000000000000000 PUSH0 MSTORE PUSH1 0x22 PUSH1 0x4 MSTORE PUSH1 0x24 PUSH0 REVERT JUMPDEST PUSH0 PUSH1 0x2 DUP3 DIV SWAP1 POP PUSH1 0x1 DUP3 AND DUP1 PUSH2 0x1750 JUMPI PUSH1 0x7F DUP3 AND SWAP2 POP JUMPDEST PUSH1 0x20 DUP3 LT DUP2 SUB PUSH2 0x1763 JUMPI PUSH2 0x1762 PUSH2 0x170C JUMP JUMPDEST JUMPDEST POP SWAP2 SWAP1 POP JUMP JUMPDEST PUSH32 0x736F6D656E7465206F20646F6E6F20706F6465206368616D6172206573736120 PUSH0 DUP3 ADD MSTORE PUSH32 0x66756E63616F0000000000000000000000000000000000000000000000000000 PUSH1 0x20 DUP3 ADD MSTORE POP JUMP JUMPDEST PUSH0 PUSH2 0x17C3 PUSH1 0x26 DUP4 PUSH2 0x1317 JUMP JUMPDEST SWAP2 POP PUSH2 0x17CE DUP3 PUSH2 0x1769 JUMP JUMPDEST PUSH1 0x40 DUP3 ADD SWAP1 POP SWAP2 SWAP1 POP JUMP JUMPDEST PUSH0 PUSH1 0x20 DUP3 ADD SWAP1 POP DUP2 DUP2 SUB PUSH0 DUP4 ADD MSTORE PUSH2 0x17F0 DUP2 PUSH2 0x17B7 JUMP JUMPDEST SWAP1 POP SWAP2 SWAP1 POP JUMP JUMPDEST PUSH32 0x6E656E68756D2070657266696C20636F6D707261646F00000000000000000000 PUSH0 DUP3 ADD MSTORE POP JUMP JUMPDEST PUSH0 PUSH2 0x182B PUSH1 0x16 DUP4 PUSH2 0x1317 JUMP JUMPDEST SWAP2 POP PUSH2 0x1836 DUP3 PUSH2 0x17F7 JUMP JUMPDEST PUSH1 0x20 DUP3 ADD SWAP1 POP SWAP2 SWAP1 POP JUMP JUMPDEST PUSH0 PUSH1 0x20 DUP3 ADD SWAP1 POP DUP2 DUP2 SUB PUSH0 DUP4 ADD MSTORE PUSH2 0x1858 DUP2 PUSH2 0x181F JUMP JUMPDEST SWAP1 POP SWAP2 SWAP1 POP JUMP JUMPDEST PUSH32 0x5175616E74696461646520696E737566696369656E746520656D206573746F71 PUSH0 DUP3 ADD MSTORE PUSH32 0x7565000000000000000000000000000000000000000000000000000000000000 PUSH1 0x20 DUP3 ADD MSTORE POP JUMP JUMPDEST PUSH0 PUSH2 0x18B9 PUSH1 0x22 DUP4 PUSH2 0x1317 JUMP JUMPDEST SWAP2 POP PUSH2 0x18C4 DUP3 PUSH2 0x185F JUMP JUMPDEST PUSH1 0x40 DUP3 ADD SWAP1 POP SWAP2 SWAP1 POP JUMP JUMPDEST PUSH0 PUSH1 0x20 DUP3 ADD SWAP1 POP DUP2 DUP2 SUB PUSH0 DUP4 ADD MSTORE PUSH2 0x18E6 DUP2 PUSH2 0x18AD JUMP JUMPDEST SWAP1 POP SWAP2 SWAP1 POP JUMP JUMPDEST PUSH32 0x4E487B7100000000000000000000000000000000000000000000000000000000 PUSH0 MSTORE PUSH1 0x11 PUSH1 0x4 MSTORE PUSH1 0x24 PUSH0 REVERT JUMPDEST PUSH0 PUSH2 0x1924 DUP3 PUSH2 0x1387 JUMP JUMPDEST SWAP2 POP PUSH2 0x192F DUP4 PUSH2 0x1387 JUMP JUMPDEST SWAP3 POP DUP3 DUP3 SUB SWAP1 POP DUP2 DUP2 GT ISZERO PUSH2 0x1947 JUMPI PUSH2 0x1946 PUSH2 0x18ED JUMP JUMPDEST JUMPDEST SWAP3 SWAP2 POP POP JUMP JUMPDEST PUSH0 PUSH1 0x40 DUP3 ADD SWAP1 POP DUP2 DUP2 SUB PUSH0 DUP4 ADD MSTORE PUSH2 0x1965 DUP2 DUP6 PUSH2 0x134F JUMP JUMPDEST SWAP1 POP PUSH2 0x1974 PUSH1 0x20 DUP4 ADD DUP5 PUSH2 0x1390 JUMP JUMPDEST SWAP4 SWAP3 POP POP POP JUMP JUMPDEST PUSH32 0x73616C646F20496E737566696369656E74650000000000000000000000000000 PUSH0 DUP3 ADD MSTORE POP JUMP JUMPDEST PUSH0 PUSH2 0x19AF PUSH1 0x12 DUP4 PUSH2 0x1317 JUMP JUMPDEST SWAP2 POP PUSH2 0x19BA DUP3 PUSH2 0x197B JUMP JUMPDEST PUSH1 0x20 DUP3 ADD SWAP1 POP SWAP2 SWAP1 POP JUMP JUMPDEST PUSH0 PUSH1 0x20 DUP3 ADD SWAP1 POP DUP2 DUP2 SUB PUSH0 DUP4 ADD MSTORE PUSH2 0x19DC DUP2 PUSH2 0x19A3 JUMP JUMPDEST SWAP1 POP SWAP2 SWAP1 POP JUMP JUMPDEST PUSH0 DUP2 SWAP1 POP DUP2 PUSH0 MSTORE PUSH1 0x20 PUSH0 KECCAK256 SWAP1 POP SWAP2 SWAP1 POP JUMP JUMPDEST PUSH0 PUSH1 0x20 PUSH1 0x1F DUP4 ADD DIV SWAP1 POP SWAP2 SWAP1 POP JUMP JUMPDEST PUSH0 DUP3 DUP3 SHL SWAP1 POP SWAP3 SWAP2 POP POP JUMP JUMPDEST PUSH0 PUSH1 0x8 DUP4 MUL PUSH2 0x1A3F PUSH32 0xFFFFFFFFFFFFFFFFFFFFFFFFFFFFFFFFFFFFFFFFFFFFFFFFFFFFFFFFFFFFFFFF DUP3 PUSH2 0x1A04 JUMP JUMPDEST PUSH2 0x1A49 DUP7 DUP4 PUSH2 0x1A04 JUMP JUMPDEST SWAP6 POP DUP1 NOT DUP5 AND SWAP4 POP DUP1 DUP7 AND DUP5 OR SWAP3 POP POP POP SWAP4 SWAP3 POP POP POP JUMP JUMPDEST PUSH0 DUP2 SWAP1 POP SWAP2 SWAP1 POP JUMP JUMPDEST PUSH0 PUSH2 0x1A84 PUSH2 0x1A7F PUSH2 0x1A7A DUP5 PUSH2 0x1387 JUMP JUMPDEST PUSH2 0x1A61 JUMP JUMPDEST PUSH2 0x1387 JUMP JUMPDEST SWAP1 POP SWAP2 SWAP1 POP JUMP JUMPDEST PUSH0 DUP2 SWAP1 POP SWAP2 SWAP1 POP JUMP JUMPDEST PUSH2 0x1A9D DUP4 PUSH2 0x1A6A JUMP JUMPDEST PUSH2 0x1AB1 PUSH2 0x1AA9 DUP3 PUSH2 0x1A8B JUMP JUMPDEST DUP5 DUP5 SLOAD PUSH2 0x1A10 JUMP JUMPDEST DUP3 SSTORE POP POP POP POP JUMP JUMPDEST PUSH0 SWAP1 JUMP JUMPDEST PUSH2 0x1AC5 PUSH2 0x1AB9 JUMP JUMPDEST PUSH2 0x1AD0 DUP2 DUP5 DUP5 PUSH2 0x1A94 JUMP JUMPDEST POP POP POP JUMP JUMPDEST JUMPDEST DUP2 DUP2 LT ISZERO PUSH2 0x1AF3 JUMPI PUSH2 0x1AE8 PUSH0 DUP3 PUSH2 0x1ABD JUMP JUMPDEST PUSH1 0x1 DUP2 ADD SWAP1 POP PUSH2 0x1AD6 JUMP JUMPDEST POP POP JUMP JUMPDEST PUSH1 0x1F DUP3 GT ISZERO PUSH2 0x1B38 JUMPI PUSH2 0x1B09 DUP2 PUSH2 0x19E3 JUMP JUMPDEST PUSH2 0x1B12 DUP5 PUSH2 0x19F5 JUMP JUMPDEST DUP2 ADD PUSH1 0x20 DUP6 LT ISZERO PUSH2 0x1B21 JUMPI DUP2 SWAP1 POP JUMPDEST PUSH2 0x1B35 PUSH2 0x1B2D DUP6 PUSH2 0x19F5 JUMP JUMPDEST DUP4 ADD DUP3 PUSH2 0x1AD5 JUMP JUMPDEST POP POP JUMPDEST POP POP POP JUMP JUMPDEST PUSH0 DUP3 DUP3 SHR SWAP1 POP SWAP3 SWAP2 POP POP JUMP JUMPDEST PUSH0 PUSH2 0x1B58 PUSH0 NOT DUP5 PUSH1 0x8 MUL PUSH2 0x1B3D JUMP JUMPDEST NOT DUP1 DUP4 AND SWAP2 POP POP SWAP3 SWAP2 POP POP JUMP JUMPDEST PUSH0 PUSH2 0x1B70 DUP4 DUP4 PUSH2 0x1B49 JUMP JUMPDEST SWAP2 POP DUP3 PUSH1 0x2 MUL DUP3 OR SWAP1 POP SWAP3 SWAP2 POP POP JUMP JUMPDEST PUSH2 0x1B89 DUP3 PUSH2 0x130D JUMP JUMPDEST PUSH8 0xFFFFFFFFFFFFFFFF DUP2 GT ISZERO PUSH2 0x1BA2 JUMPI PUSH2 0x1BA1 PUSH2 0x11A2 JUMP JUMPDEST JUMPDEST PUSH2 0x1BAC DUP3 SLOAD PUSH2 0x1739 JUMP JUMPDEST PUSH2 0x1BB7 DUP3 DUP3 DUP6 PUSH2 0x1AF7 JUMP JUMPDEST PUSH0 PUSH1 0x20 SWAP1 POP PUSH1 0x1F DUP4 GT PUSH1 0x1 DUP2 EQ PUSH2 0x1BE8 JUMPI PUSH0 DUP5 ISZERO PUSH2 0x1BD6 JUMPI DUP3 DUP8 ADD MLOAD SWAP1 POP JUMPDEST PUSH2 0x1BE0 DUP6 DUP3 PUSH2 0x1B65 JUMP JUMPDEST DUP7 SSTORE POP PUSH2 0x1C47 JUMP JUMPDEST PUSH1 0x1F NOT DUP5 AND PUSH2 0x1BF6 DUP7 PUSH2 0x19E3 JUMP JUMPDEST PUSH0 JUMPDEST DUP3 DUP2 LT ISZERO PUSH2 0x1C1D JUMPI DUP5 DUP10 ADD MLOAD DUP3 SSTORE PUSH1 0x1 DUP3 ADD SWAP2 POP PUSH1 0x20 DUP6 ADD SWAP5 POP PUSH1 0x20 DUP2 ADD SWAP1 POP PUSH2 0x1BF8 JUMP JUMPDEST DUP7 DUP4 LT ISZERO PUSH2 0x1C3A JUMPI DUP5 DUP10 ADD MLOAD PUSH2 0x1C36 PUSH1 0x1F DUP10 AND DUP3 PUSH2 0x1B49 JUMP JUMPDEST DUP4 SSTORE POP JUMPDEST PUSH1 0x1 PUSH1 0x2 DUP9 MUL ADD DUP9 SSTORE POP POP POP JUMPDEST POP POP POP POP POP POP JUMP JUMPDEST PUSH0 PUSH2 0x1C59 DUP3 PUSH2 0x1387 JUMP JUMPDEST SWAP2 POP PUSH2 0x1C64 DUP4 PUSH2 0x1387 JUMP JUMPDEST SWAP3 POP DUP3 DUP3 ADD SWAP1 POP DUP1 DUP3 GT ISZERO PUSH2 0x1C7C JUMPI PUSH2 0x1C7B PUSH2 0x18ED JUMP JUMPDEST JUMPDEST SWAP3 SWAP2 POP POP JUMP INVALID LOG2 PUSH5 0x6970667358 0x22 SLT KECCAK256 MLOAD SWAP5 STOP 0xC2 0x4D 0x28 0xC 0xC8 GASPRICE PUSH11 0xF8BC0E40BC3CF46F9843C9 0xC5 NUMBER SWAP16 0xCE 0x4D JUMP 0xB3 PUSH17 0x4A3B3A64736F6C63430008160033000000 "
		},
		"gasEstimates": {
			"creation": {
				"codeDepositCost": "1470400",
				"executionCost": "47903",
				"totalCost": "1518303"
			},
			"external": {
				"addAlimento(string,string,string,uint256,uint256,uint256)": "infinite",
				"addbebidas(string,string,string,uint256,uint256,uint256)": "infinite",
				"comprarPerfil()": "50984",
				"criarPerfilLoja(string,string,string,string,string,uint256)": "infinite",
				"estoqueAlimentos(string)": "infinite",
				"estoqueBebidas(string)": "infinite",
				"perfilComprado()": "2511",
				"venderAlimento(string,uint256)": "infinite",
				"venderBebida(string,uint256)": "infinite"
			}
		},
		"methodIdentifiers": {
			"addAlimento(string,string,string,uint256,uint256,uint256)": "d2b18e3e",
			"addbebidas(string,string,string,uint256,uint256,uint256)": "ee2f1907",
			"comprarPerfil()": "90628e69",
			"criarPerfilLoja(string,string,string,string,string,uint256)": "295ebe2c",
			"estoqueAlimentos(string)": "c1bde161",
			"estoqueBebidas(string)": "1f535563",
			"perfilComprado()": "396555ad",
			"venderAlimento(string,uint256)": "53184f56",
			"venderBebida(string,uint256)": "5245d1d0"
		}
	},
	"abi": [
		{
			"anonymous": false,
			"inputs": [
				{
					"indexed": false,
					"internalType": "string",
					"name": "nomeProduto",
					"type": "string"
				},
				{
					"indexed": false,
					"internalType": "uint256",
					"name": "quantidade",
					"type": "uint256"
				}
			],
			"name": "AlimentoAdicionado",
			"type": "event"
		},
		{
			"anonymous": false,
			"inputs": [
				{
					"indexed": false,
					"internalType": "string",
					"name": "nomeProduto",
					"type": "string"
				},
				{
					"indexed": false,
					"internalType": "uint256",
					"name": "quantidade",
					"type": "uint256"
				}
			],
			"name": "BebidaAdicionada",
			"type": "event"
		},
		{
			"anonymous": false,
			"inputs": [
				{
					"indexed": false,
					"internalType": "string",
					"name": "_nomeProduto",
					"type": "string"
				},
				{
					"indexed": false,
					"internalType": "uint256",
					"name": "_quantidade",
					"type": "uint256"
				}
			],
			"name": "alimentoVendido",
			"type": "event"
		},
		{
			"anonymous": false,
			"inputs": [],
			"name": "carregamentoFotoCompleto",
			"type": "event"
		},
		{
			"anonymous": false,
			"inputs": [],
			"name": "carregamentoReelscompleto",
			"type": "event"
		},
		{
			"anonymous": false,
			"inputs": [],
			"name": "criouEnd",
			"type": "event"
		},
		{
			"anonymous": false,
			"inputs": [],
			"name": "editouPerfil",
			"type": "event"
		},
		{
			"inputs": [
				{
					"internalType": "string",
					"name": "_nomeProduto",
					"type": "string"
				},
				{
					"internalType": "string",
					"name": "_tipoProduto",
					"type": "string"
				},
				{
					"internalType": "string",
					"name": "_descricao",
					"type": "string"
				},
				{
					"internalType": "uint256",
					"name": "_validade",
					"type": "uint256"
				},
				{
					"internalType": "uint256",
					"name": "_valor",
					"type": "uint256"
				},
				{
					"internalType": "uint256",
					"name": "_quantidade",
					"type": "uint256"
				}
			],
			"name": "addAlimento",
			"outputs": [],
			"stateMutability": "nonpayable",
			"type": "function"
		},
		{
			"inputs": [
				{
					"internalType": "string",
					"name": "_nomeProduto",
					"type": "string"
				},
				{
					"internalType": "string",
					"name": "_tipoProduto",
					"type": "string"
				},
				{
					"internalType": "string",
					"name": "_descricao",
					"type": "string"
				},
				{
					"internalType": "uint256",
					"name": "_validade",
					"type": "uint256"
				},
				{
					"internalType": "uint256",
					"name": "_valor",
					"type": "uint256"
				},
				{
					"internalType": "uint256",
					"name": "_quantidade",
					"type": "uint256"
				}
			],
			"name": "addbebidas",
			"outputs": [],
			"stateMutability": "nonpayable",
			"type": "function"
		},
		{
			"inputs": [],
			"name": "comprarPerfil",
			"outputs": [
				{
					"internalType": "bool",
					"name": "",
					"type": "bool"
				}
			],
			"stateMutability": "payable",
			"type": "function"
		},
		{
			"inputs": [
				{
					"internalType": "string",
					"name": "_nome",
					"type": "string"
				},
				{
					"internalType": "string",
					"name": "_bio",
					"type": "string"
				},
				{
					"internalType": "string",
					"name": "_tipo",
					"type": "string"
				},
				{
					"internalType": "string",
					"name": "_foto",
					"type": "string"
				},
				{
					"internalType": "string",
					"name": "_linkExterno",
					"type": "string"
				},
				{
					"internalType": "uint256",
					"name": "_idade",
					"type": "uint256"
				}
			],
			"name": "criarPerfilLoja",
			"outputs": [],
			"stateMutability": "nonpayable",
			"type": "function"
		},
		{
			"inputs": [
				{
					"internalType": "string",
					"name": "_nomeProduto",
					"type": "string"
				}
			],
			"name": "estoqueAlimentos",
			"outputs": [
				{
					"internalType": "string",
					"name": "",
					"type": "string"
				},
				{
					"internalType": "string",
					"name": "",
					"type": "string"
				},
				{
					"internalType": "string",
					"name": "",
					"type": "string"
				},
				{
					"internalType": "uint256",
					"name": "",
					"type": "uint256"
				},
				{
					"internalType": "uint256",
					"name": "",
					"type": "uint256"
				},
				{
					"internalType": "uint256",
					"name": "",
					"type": "uint256"
				}
			],
			"stateMutability": "view",
			"type": "function"
		},
		{
			"inputs": [
				{
					"internalType": "string",
					"name": "_nomeProduto",
					"type": "string"
				}
			],
			"name": "estoqueBebidas",
			"outputs": [
				{
					"internalType": "string",
					"name": "",
					"type": "string"
				},
				{
					"internalType": "string",
					"name": "",
					"type": "string"
				},
				{
					"internalType": "string",
					"name": "",
					"type": "string"
				},
				{
					"internalType": "uint256",
					"name": "",
					"type": "uint256"
				},
				{
					"internalType": "uint256",
					"name": "",
					"type": "uint256"
				},
				{
					"internalType": "uint256",
					"name": "",
					"type": "uint256"
				}
			],
			"stateMutability": "view",
			"type": "function"
		},
		{
			"inputs": [],
			"name": "perfilComprado",
			"outputs": [
				{
					"internalType": "bool",
					"name": "",
					"type": "bool"
				}
			],
			"stateMutability": "view",
			"type": "function"
		},
		{
			"inputs": [
				{
					"internalType": "string",
					"name": "_nomeProduto",
					"type": "string"
				},
				{
					"internalType": "uint256",
					"name": "_quantidade",
					"type": "uint256"
				}
			],
			"name": "venderAlimento",
			"outputs": [],
			"stateMutability": "nonpayable",
			"type": "function"
		},
		{
			"inputs": [
				{
					"internalType": "string",
					"name": "_nomeProduto",
					"type": "string"
				},
				{
					"internalType": "uint256",
					"name": "_quantidade",
					"type": "uint256"
				}
			],
			"name": "venderBebida",
			"outputs": [],
			"stateMutability": "nonpayable",
			"type": "function"
		}
	]
}